{
  "_format": "hh-sol-artifact-1",
  "contractName": "SonicAIGenerationPayment",
  "sourceName": "Contracts/SonicPayment.sol",
  "abi": [
    {
      "inputs": [
        {
          "internalType": "address",
          "name": "_banditKidzStaking",
          "type": "address"
        },
        {
          "internalType": "address",
          "name": "_devWallet",
          "type": "address"
        },
        {
          "internalType": "address",
          "name": "_priceOracle",
          "type": "address"
        }
      ],
      "stateMutability": "nonpayable",
      "type": "constructor"
    },
    {
      "anonymous": false,
      "inputs": [
        {
          "indexed": true,
          "internalType": "address",
          "name": "user",
          "type": "address"
        },
        {
          "indexed": false,
          "internalType": "uint256",
          "name": "amount",
          "type": "uint256"
        }
      ],
      "name": "CreditsAdded",
      "type": "event"
    },
    {
      "anonymous": false,
      "inputs": [
        {
          "indexed": true,
          "internalType": "address",
          "name": "user",
          "type": "address"
        },
        {
          "indexed": false,
          "internalType": "uint256",
          "name": "generationId",
          "type": "uint256"
        },
        {
          "indexed": false,
          "internalType": "string",
          "name": "resultUrl",
          "type": "string"
        }
      ],
      "name": "GenerationCompleted",
      "type": "event"
    },
    {
      "anonymous": false,
      "inputs": [
        {
          "indexed": true,
          "internalType": "address",
          "name": "user",
          "type": "address"
        },
        {
          "indexed": false,
          "internalType": "string",
          "name": "prompt",
          "type": "string"
        },
        {
          "indexed": false,
          "internalType": "string",
          "name": "generationType",
          "type": "string"
        },
        {
          "indexed": false,
          "internalType": "uint256",
          "name": "generationId",
          "type": "uint256"
        }
      ],
      "name": "GenerationRequested",
      "type": "event"
    },
    {
      "anonymous": false,
      "inputs": [
        {
          "indexed": false,
          "internalType": "address[3]",
          "name": "winners",
          "type": "address[3]"
        },
        {
          "indexed": false,
          "internalType": "bool",
          "name": "thresholdMet",
          "type": "bool"
        }
      ],
      "name": "LeaderboardUpdated",
      "type": "event"
    },
    {
      "anonymous": false,
      "inputs": [
        {
          "indexed": true,
          "internalType": "address",
          "name": "previousOwner",
          "type": "address"
        },
        {
          "indexed": true,
          "internalType": "address",
          "name": "newOwner",
          "type": "address"
        }
      ],
      "name": "OwnershipTransferred",
      "type": "event"
    },
    {
      "anonymous": false,
      "inputs": [
        {
          "indexed": true,
          "internalType": "address",
          "name": "payer",
          "type": "address"
        },
        {
          "indexed": true,
          "internalType": "address",
          "name": "token",
          "type": "address"
        },
        {
          "indexed": false,
          "internalType": "uint256",
          "name": "amount",
          "type": "uint256"
        },
        {
          "indexed": false,
          "internalType": "string",
          "name": "generationType",
          "type": "string"
        }
      ],
      "name": "PaymentReceived",
      "type": "event"
    },
    {
      "inputs": [],
      "name": "BANDIT_KIDZ_PERCENT",
      "outputs": [
        {
          "internalType": "uint256",
          "name": "",
          "type": "uint256"
        }
      ],
      "stateMutability": "view",
      "type": "function"
    },
    {
      "inputs": [],
      "name": "CONTRACT_PERCENT",
      "outputs": [
        {
          "internalType": "uint256",
          "name": "",
          "type": "uint256"
        }
      ],
      "stateMutability": "view",
      "type": "function"
    },
    {
      "inputs": [],
      "name": "DEV_PERCENT",
      "outputs": [
        {
          "internalType": "uint256",
          "name": "",
          "type": "uint256"
        }
      ],
      "stateMutability": "view",
      "type": "function"
    },
    {
      "inputs": [],
      "name": "FALLBACK_S_COST",
      "outputs": [
        {
          "internalType": "uint256",
          "name": "",
          "type": "uint256"
        }
      ],
      "stateMutability": "view",
      "type": "function"
    },
    {
      "inputs": [],
      "name": "FALLBACK_USDC_COST",
      "outputs": [
        {
          "internalType": "uint256",
          "name": "",
          "type": "uint256"
        }
      ],
      "stateMutability": "view",
      "type": "function"
    },
    {
      "inputs": [],
      "name": "IMAGE_GENERATION_USD",
      "outputs": [
        {
          "internalType": "uint256",
          "name": "",
          "type": "uint256"
        }
      ],
      "stateMutability": "view",
      "type": "function"
    },
    {
      "inputs": [],
      "name": "LEADERBOARD_PERCENT",
      "outputs": [
        {
          "internalType": "uint256",
          "name": "",
          "type": "uint256"
        }
      ],
      "stateMutability": "view",
      "type": "function"
    },
    {
      "inputs": [],
      "name": "S_TOKEN",
      "outputs": [
        {
          "internalType": "contract IERC20",
          "name": "",
          "type": "address"
        }
      ],
      "stateMutability": "view",
      "type": "function"
    },
    {
      "inputs": [],
      "name": "USDC",
      "outputs": [
        {
          "internalType": "contract IERC20",
          "name": "",
          "type": "address"
        }
      ],
      "stateMutability": "view",
      "type": "function"
    },
    {
      "inputs": [],
      "name": "VIDEO_GENERATION_USD",
      "outputs": [
        {
          "internalType": "uint256",
          "name": "",
          "type": "uint256"
        }
      ],
      "stateMutability": "view",
      "type": "function"
    },
    {
      "inputs": [
        {
          "internalType": "address",
          "name": "user",
          "type": "address"
        },
        {
          "internalType": "uint256",
          "name": "amount",
          "type": "uint256"
        }
      ],
      "name": "addCredits",
      "outputs": [],
      "stateMutability": "nonpayable",
      "type": "function"
    },
    {
      "inputs": [],
      "name": "banditKidzStaking",
      "outputs": [
        {
          "internalType": "address",
          "name": "",
          "type": "address"
        }
      ],
      "stateMutability": "view",
      "type": "function"
    },
    {
      "inputs": [
        {
          "internalType": "uint256",
          "name": "generationId",
          "type": "uint256"
        },
        {
          "internalType": "address",
          "name": "user",
          "type": "address"
        },
        {
          "internalType": "string",
          "name": "resultUrl",
          "type": "string"
        }
      ],
      "name": "completeGeneration",
      "outputs": [],
      "stateMutability": "nonpayable",
      "type": "function"
    },
    {
      "inputs": [],
      "name": "devWallet",
      "outputs": [
        {
          "internalType": "address",
          "name": "",
          "type": "address"
        }
      ],
      "stateMutability": "view",
      "type": "function"
    },
    {
      "inputs": [
        {
          "internalType": "address",
          "name": "token",
          "type": "address"
        },
        {
          "internalType": "uint256",
          "name": "amount",
          "type": "uint256"
        }
      ],
      "name": "emergencyWithdraw",
      "outputs": [],
      "stateMutability": "nonpayable",
      "type": "function"
    },
    {
      "inputs": [
        {
          "internalType": "address",
          "name": "token",
          "type": "address"
        }
      ],
      "name": "getContractBalance",
      "outputs": [
        {
          "internalType": "uint256",
          "name": "",
          "type": "uint256"
        }
      ],
      "stateMutability": "view",
      "type": "function"
    },
    {
      "inputs": [
        {
          "internalType": "string",
          "name": "generationType",
          "type": "string"
        }
      ],
      "name": "getPaymentCosts",
      "outputs": [
        {
          "internalType": "uint256",
          "name": "sCost",
          "type": "uint256"
        },
        {
          "internalType": "uint256",
          "name": "usdcCost",
          "type": "uint256"
        }
      ],
      "stateMutability": "view",
      "type": "function"
    },
    {
      "inputs": [],
      "name": "getServicePricing",
      "outputs": [
        {
          "internalType": "uint256",
          "name": "imageGenerationUSD",
          "type": "uint256"
        },
        {
          "internalType": "uint256",
          "name": "videoGenerationUSD",
          "type": "uint256"
        }
      ],
      "stateMutability": "pure",
      "type": "function"
    },
    {
      "inputs": [],
      "name": "getSupportedTokens",
      "outputs": [
        {
          "internalType": "address",
          "name": "sToken",
          "type": "address"
        },
        {
          "internalType": "address",
          "name": "usdc",
          "type": "address"
        }
      ],
      "stateMutability": "view",
      "type": "function"
    },
    {
      "inputs": [
        {
          "internalType": "address",
          "name": "token",
          "type": "address"
        }
      ],
      "name": "getTokenPriceUSD",
      "outputs": [
        {
          "internalType": "uint256",
          "name": "",
          "type": "uint256"
        }
      ],
      "stateMutability": "view",
      "type": "function"
    },
    {
      "inputs": [
        {
          "internalType": "address",
          "name": "user",
          "type": "address"
        }
      ],
      "name": "getUserStats",
      "outputs": [
        {
          "internalType": "uint256",
          "name": "generations",
          "type": "uint256"
        },
        {
          "internalType": "uint256",
          "name": "credits",
          "type": "uint256"
        }
      ],
      "stateMutability": "view",
      "type": "function"
    },
    {
      "inputs": [],
      "name": "isOracleActive",
      "outputs": [
        {
          "internalType": "bool",
          "name": "",
          "type": "bool"
        }
      ],
      "stateMutability": "view",
      "type": "function"
    },
    {
      "inputs": [],
      "name": "leaderboardThresholdMet",
      "outputs": [
        {
          "internalType": "bool",
          "name": "",
          "type": "bool"
        }
      ],
      "stateMutability": "view",
      "type": "function"
    },
    {
      "inputs": [
        {
          "internalType": "uint256",
          "name": "",
          "type": "uint256"
        }
      ],
      "name": "leaderboardWinners",
      "outputs": [
        {
          "internalType": "address",
          "name": "",
          "type": "address"
        }
      ],
      "stateMutability": "view",
      "type": "function"
    },
    {
      "inputs": [],
      "name": "owner",
      "outputs": [
        {
          "internalType": "address",
          "name": "",
          "type": "address"
        }
      ],
      "stateMutability": "view",
      "type": "function"
    },
    {
      "inputs": [
        {
          "internalType": "string",
          "name": "prompt",
          "type": "string"
        },
        {
          "internalType": "string",
          "name": "generationType",
          "type": "string"
        }
      ],
      "name": "payWithS",
      "outputs": [],
      "stateMutability": "nonpayable",
      "type": "function"
    },
    {
      "inputs": [
        {
          "internalType": "string",
          "name": "prompt",
          "type": "string"
        },
        {
          "internalType": "string",
          "name": "generationType",
          "type": "string"
        }
      ],
      "name": "payWithUSDC",
      "outputs": [],
      "stateMutability": "nonpayable",
      "type": "function"
    },
    {
      "inputs": [],
      "name": "priceOracle",
      "outputs": [
        {
          "internalType": "contract IPriceOracle",
          "name": "",
          "type": "address"
        }
      ],
      "stateMutability": "view",
      "type": "function"
    },
    {
      "inputs": [],
      "name": "registerMe",
      "outputs": [],
      "stateMutability": "nonpayable",
      "type": "function"
    },
    {
      "inputs": [
        {
          "internalType": "address",
          "name": "_banditKidzStaking",
          "type": "address"
        },
        {
          "internalType": "address",
          "name": "_devWallet",
          "type": "address"
        }
      ],
      "name": "setAddresses",
      "outputs": [],
      "stateMutability": "nonpayable",
      "type": "function"
    },
    {
      "inputs": [
        {
          "internalType": "address[3]",
          "name": "winners",
          "type": "address[3]"
        },
        {
          "internalType": "bool",
          "name": "thresholdMet",
          "type": "bool"
        }
      ],
      "name": "setLeaderboard",
      "outputs": [],
      "stateMutability": "nonpayable",
      "type": "function"
    },
    {
      "inputs": [
        {
          "internalType": "address",
          "name": "_priceOracle",
          "type": "address"
        }
      ],
      "name": "setPriceOracle",
      "outputs": [],
      "stateMutability": "nonpayable",
      "type": "function"
    },
    {
      "inputs": [],
      "name": "totalGenerations",
      "outputs": [
        {
          "internalType": "uint256",
          "name": "",
          "type": "uint256"
        }
      ],
      "stateMutability": "view",
      "type": "function"
    },
    {
      "inputs": [
        {
          "internalType": "address",
          "name": "newOwner",
          "type": "address"
        }
      ],
      "name": "transferOwnership",
      "outputs": [],
      "stateMutability": "nonpayable",
      "type": "function"
    },
    {
      "inputs": [
        {
          "internalType": "string",
          "name": "prompt",
          "type": "string"
        },
        {
          "internalType": "string",
          "name": "generationType",
          "type": "string"
        }
      ],
      "name": "useCredits",
      "outputs": [],
      "stateMutability": "nonpayable",
      "type": "function"
    },
    {
      "inputs": [
        {
          "internalType": "address",
          "name": "",
          "type": "address"
        }
      ],
      "name": "userCredits",
      "outputs": [
        {
          "internalType": "uint256",
          "name": "",
          "type": "uint256"
        }
      ],
      "stateMutability": "view",
      "type": "function"
    },
    {
      "inputs": [
        {
          "internalType": "address",
          "name": "",
          "type": "address"
        }
      ],
      "name": "userGenerations",
      "outputs": [
        {
          "internalType": "uint256",
          "name": "",
          "type": "uint256"
        }
      ],
      "stateMutability": "view",
      "type": "function"
    },
    {
      "stateMutability": "payable",
      "type": "receive"
    }
  ],
  "bytecode": "0x60803460bf57601f61194838819003918201601f19168301916001600160401b0383118484101760c45780849260609460405283398101031260bf5760428160da565b906057604060516020840160da565b920160da565b600080546001600160a01b031990811633179091556002805482166001600160a01b039586161790556003805490911692841692909217909155168060a6575b60405161185a90816100ee8239f35b600180546001600160a01b031916919091179055386097565b600080fd5b634e487b7160e01b600052604160045260246000fd5b51906001600160a01b038216820360bf5756fe608080604052600436101561001d575b50361561001b57600080fd5b005b60003560e01c90816320babb92146111dd575080632630c12f146111b457806327532d2714611198578063295164dc146101fc5780632a2cef0a146111755780632fd199e61461115757806337d337c91461113b57806343ab265f146111105780634e43603a146110c4578063530e784f1461106a578063537482e11461100d578063871ff40514610f8757806389a3027114610f585780638a22fb2c14610f335780638da5cb5b14610f0a5780638ea5220f14610ee15780638fc7377814610eb857806390107afe14610e2157806395ccea6714610d57578063984c95ed14610d3b5780639a198d6114610c7e578063abac016114610989578063ac54b4a91461095a578063bdebaf071461093e578063cb77a8db14610856578063cca2a55c14610833578063d3c7c2c7146107eb578063d503324c146107c8578063db2308bd146107a2578063e637e8c214610768578063e8e8ca541461074a578063f161674214610670578063f18dd7d914610310578063f2fde38b14610292578063fac573ca14610201578063fd9d609f146101fc5763ff155467146101c1573861000f565b346101f75760203660031901126101f75760043560038110156101f757600401546040516001600160a01b039091168152602090f35b600080fd5b61123f565b346101f75760603660031901126101f75761021a611229565b60443567ffffffffffffffff81116101f75761025b7f6571c0fc51c0eeca3f501b0a4eb26f2a26a5f8a994f6008a5845079d0b3aa3a291369060040161125d565b909261027260018060a01b03600054163314611416565b61028d60405192839260018060a01b031695600435846115ce565b0390a2005b346101f75760203660031901126101f7576102ab611213565b6000546001600160a01b038116916102c4338414611416565b6001600160a01b03169182906102db82151561144e565b7f8be0079c531659141344cd1fd0a4f28419497f9722a3daafe3b4186f6b6457e0600080a36001600160a01b03191617600055005b346101f75761031e3661128b565b61032b8392931515611572565b61033e6103393683866114a5565b6116c9565b6040516323b872dd60e01b81523360048201523060248201526044810182905290939060208160648160007329219dd400f2bf60e5a23d13be72b486d40388945af190811561050e57600091610651575b50156106155760198402948415958581046019148717156105ff57600f860290868204600f148817156105ff57603287029787890460321417156105ff5760025460405163a9059cbb60e01b81526001600160a01b0390911660048201526064909104602482015260208160448160007329219dd400f2bf60e5a23d13be72b486d40388945af1801561050e576105e2575b5060ff6007541661051a575b5060035460405163a9059cbb60e01b81526001600160a01b0390911660048201526064909604602487015260208660448160007329219dd400f2bf60e5a23d13be72b486d40388945af195861561050e57827f0da8e031922d6bdf36a83b26ef74cd487e4ec7945a6abf37b9b8cf1b194788fd956104c99386937329219dd400f2bf60e5a23d13be72b486d40388949a6104df575b50336117be565b6104da6040519283923396846115ce565b0390a3005b6105009060203d602011610507575b6104f881836112dd565b8101906114dc565b508a6104c2565b503d6104ee565b6040513d6000823e3d90fd5b6064600391979593979694929604049560005b60038110156105d55760048101548891906001600160a01b031660008161055b575b5050600191500161052d565b5060405163a9059cbb60e01b81526001600160a01b03919091166004820152602481019290925260208260448160007329219dd400f2bf60e5a23d13be72b486d40388945af191821561050e576001926105b7575b899261054f565b6105ce9060203d8111610507576104f881836112dd565b50896105b0565b509193955091938661042d565b6105fa9060203d602011610507576104f881836112dd565b610421565b634e487b7160e01b600052601160045260246000fd5b60405162461bcd60e51b81526020600482015260146024820152731554d110c81d1c985b9cd9995c8819985a5b195960621b6044820152606490fd5b61066a915060203d602011610507576104f881836112dd565b8661038f565b346101f75761067e3661128b565b9161068a811515611572565b33600052600a6020526040600020541561070e5733600052600a60205260406000209182549460001986019586116105ff5784826104da946106f2936000997f0da8e031922d6bdf36a83b26ef74cd487e4ec7945a6abf37b9b8cf1b194788fd9855336117be565b60405191829186835260406020840152339560408401916115ad565b60405162461bcd60e51b81526020600482015260146024820152734e6f206372656469747320617661696c61626c6560601b6044820152606490fd5b346101f75760003660031901126101f7576020604051621e84808152f35b346101f75760203660031901126101f7576001600160a01b03610789611213565b1660005260096020526020604060002054604051908152f35b346101f75760003660031901126101f75760408051620f42408152621e84806020820152f35b346101f75760003660031901126101f7576020604051670de0b6b3a76400008152f35b346101f75760003660031901126101f7576040805173039e2fb66102314ce7b64ce5ce3e5183bc94ad3881527329219dd400f2bf60e5a23d13be72b486d40388946020820152f35b346101f75760003660031901126101f757602060ff600754166040519015158152f35b346101f75760803660031901126101f757366064116101f7576064358015158091036101f75761089160018060a01b03600054163314611416565b600060045b60038210610918578260ff196007541660ff821617600755604051908160046000915b600383106108ee577f1252441462c706793cd4cfed52f0d215259c8b3af75da3f78112618e52bcbc92608086866060820152a1005b81356001600160a01b03811691908290036101f757602081600193829352019201920191906108b9565b8035916001600160a01b03831683036101f7576020600192019281600401550190610896565b346101f75760003660031901126101f7576020604051600f8152f35b346101f75760003660031901126101f757602060405173039e2fb66102314ce7b64ce5ce3e5183bc94ad388152f35b346101f7576109973661128b565b6109a48392931515611572565b6109b76109b23683866114a5565b6115e5565b6040516323b872dd60e01b815233600482015230602482015260448101829052909390602081606481600073039e2fb66102314ce7b64ce5ce3e5183bc94ad385af190811561050e57600091610c5f575b5015610c265760198402948415958581046019148717156105ff57600f860290868204600f148817156105ff57603287029787890460321417156105ff5760025460405163a9059cbb60e01b81526001600160a01b03909116600482015260649091046024820152602081604481600073039e2fb66102314ce7b64ce5ce3e5183bc94ad385af1801561050e57610c09575b5060ff60075416610b41575b5060035460405163a9059cbb60e01b81526001600160a01b03909116600482015260649096046024870152602086604481600073039e2fb66102314ce7b64ce5ce3e5183bc94ad385af195861561050e57827f0da8e031922d6bdf36a83b26ef74cd487e4ec7945a6abf37b9b8cf1b194788fd956104c993869373039e2fb66102314ce7b64ce5ce3e5183bc94ad389a6104df5750336117be565b6064600391979593979694929604049560005b6003811015610bfc5760048101548891906001600160a01b0316600081610b82575b50506001915001610b54565b5060405163a9059cbb60e01b81526001600160a01b039190911660048201526024810192909252602082604481600073039e2fb66102314ce7b64ce5ce3e5183bc94ad385af191821561050e57600192610bde575b8992610b76565b610bf59060203d8111610507576104f881836112dd565b5089610bd7565b5091939550919386610aa6565b610c219060203d602011610507576104f881836112dd565b610a9a565b60405162461bcd60e51b815260206004820152601160248201527014c81d1c985b9cd9995c8819985a5b1959607a1b6044820152606490fd5b610c78915060203d602011610507576104f881836112dd565b86610a08565b346101f75760003660031901126101f757610ca460018060a01b03600054163314611416565b60008080808073dc2b0d2dd2b7759d97d50db4eabdc369731108305af13d15610d36573d610cd181611489565b90610cdf60405192836112dd565b8152600060203d92013e5b15610cf157005b60405162461bcd60e51b815260206004820152601860248201527f4665654d20726567697374726174696f6e206661696c656400000000000000006044820152606490fd5b610cea565b346101f75760003660031901126101f7576020604051600a8152f35b346101f75760403660031901126101f757610d70611213565b600054602435916001600160a01b0390911690610d8e338314611416565b6001600160a01b03169081610dc857505060008080809360018060a01b03825416828215610dbf575bf11561050e57005b506108fc610db7565b60405163a9059cbb60e01b81526001600160a01b039190911660048201526024810192909252602090829060449082906000905af1801561050e57610e0957005b61001b9060203d602011610507576104f881836112dd565b346101f75760403660031901126101f757610e3a611213565b610e42611229565b90610e5860018060a01b03600054163314611416565b6001600160a01b031680151580610ea6575b610e739061144e565b6001600160601b0360a01b600254161760025560018060a01b03166001600160601b0360a01b6003541617600355600080f35b506001600160a01b0382161515610e6a565b346101f75760003660031901126101f7576002546040516001600160a01b039091168152602090f35b346101f75760003660031901126101f7576003546040516001600160a01b039091168152602090f35b346101f75760003660031901126101f7576000546040516001600160a01b039091168152602090f35b346101f75760003660031901126101f7576020610f4e6114f4565b6040519015158152f35b346101f75760003660031901126101f75760206040517329219dd400f2bf60e5a23d13be72b486d40388948152f35b346101f75760403660031901126101f757610fa0611213565b60243590610fb960018060a01b03600054163314611416565b6001600160a01b03166000818152600a60205260409020805491928281019283106105ff577fed46984c46e11f42ec323727ba7d99dc16be2d248a8aaa8982d492688497f09d9260209255604051908152a2005b346101f75760203660031901126101f75760043567ffffffffffffffff81116101f75761033961105e611046604093369060040161125d565b92906110566109b23686846114a5565b9336916114a5565b82519182526020820152f35b346101f75760203660031901126101f757611083611213565b61109860018060a01b03600054163314611416565b6001600160a01b03166110ac81151561144e565b6001600160601b0360a01b6001541617600155600080f35b346101f75760203660031901126101f75760406001600160a01b036110e7611213565b16806000526009602052816000205490600052600a602052816000205482519182526020820152f35b346101f75760203660031901126101f757602061113361112e611213565b6113a3565b604051908152f35b346101f75760003660031901126101f757602060405160198152f35b346101f75760003660031901126101f7576020600854604051908152f35b346101f75760203660031901126101f7576020611133611193611213565b611315565b346101f75760003660031901126101f757602060405160328152f35b346101f75760003660031901126101f7576001546040516001600160a01b039091168152602090f35b346101f75760203660031901126101f7576020906001600160a01b03611201611213565b16600052600a82526040600020548152f35b600435906001600160a01b03821682036101f757565b602435906001600160a01b03821682036101f757565b346101f75760003660031901126101f7576020604051620f42408152f35b9181601f840112156101f75782359167ffffffffffffffff83116101f757602083818601950101116101f757565b60406003198201126101f75760043567ffffffffffffffff81116101f757816112b69160040161125d565b929092916024359067ffffffffffffffff82116101f7576112d99160040161125d565b9091565b90601f8019910116810190811067ffffffffffffffff8211176112ff57604052565b634e487b7160e01b600052604160045260246000fd5b6001546001600160a01b0316908161132e575050600090565b604051631516778560e11b81526001600160a01b03909116600482015290602090829060249082905afa6000918161136f575b5061136c5750600090565b90565b9091506020813d60201161139b575b8161138b602093836112dd565b810103126101f757519038611361565b3d915061137e565b6001600160a01b03168015611411576020602491604051928380926370a0823160e01b82523060048301525afa90811561050e576000916113e2575090565b90506020813d602011611409575b816113fd602093836112dd565b810103126101f7575190565b3d91506113f0565b504790565b1561141d57565b60405162461bcd60e51b81526020600482015260096024820152682737ba1037bbb732b960b91b6044820152606490fd5b1561145557565b60405162461bcd60e51b815260206004820152600c60248201526b5a65726f206164647265737360a01b6044820152606490fd5b67ffffffffffffffff81116112ff57601f01601f191660200190565b9291926114b182611489565b916114bf60405193846112dd565b8294818452818301116101f7578281602093846000960137010152565b908160209103126101f7575180151581036101f75790565b6001546001600160a01b0316801561156c576020602491604051928380926375151b6360e01b82527329219dd400f2bf60e5a23d13be72b486d403889460048301525afa6000918161154b575061136c5750600090565b61156591925060203d602011610507576104f881836112dd565b9038611361565b50600090565b1561157957565b60405162461bcd60e51b815260206004820152600c60248201526b115b5c1d1e481c1c9bdb5c1d60a21b6044820152606490fd5b908060209392818452848401376000828201840152601f01601f1916010190565b60409061136c9492815281602082015201916115ad565b600090602081519101209050600560206040516116036040826112dd565b8281520164766964656f60d81b815220146000146116c057621e84805b6001546001600160a01b03169081611641575b5050670de0b6b3a764000090565b60209060446040518094819363968534bf60e01b835273039e2fb66102314ce7b64ce5ce3e5183bc94ad38600484015260248301525afa6000918161168c575b5061136c5780611633565b9091506020813d6020116116b8575b816116a8602093836112dd565b810103126101f757519038611681565b3d915061169b565b620f4240611620565b60009060208151910120600560206040516116e56040826112dd565b8281520164766964656f60d81b815220146000146117a657621e84805b6001546001600160a01b0316908161171f575b505050620f424090565b60209060446040518094819363968534bf60e01b83527329219dd400f2bf60e5a23d13be72b486d4038894600484015260248301525afa82918161176e575b506117695780611715565b905090565b9091506020813d60201161179e575b8161178a602093836112dd565b8101031261179a5751903861175e565b8280fd5b3d915061177d565b620f4240611702565b60001981146105ff5760010190565b936118427fe1d13bef5d7b05d92d047ca981937627ae93cac1631142181f429dd54eac1f4794959392936117f36008546117af565b60085560018060a01b031695866000526009602052604060002061181781546117af565b9055600854926118346040519687966060885260608801916115ad565b9185830360208701526115ad565b9060408301520390a256fea164736f6c634300081b000a",
  "linkReferences": {},
  "deployedLinkReferences": {}
}