{
  "_format": "hh-sol-artifact-1",
  "contractName": "SrvcfloMarketplace",
  "sourceName": "Contracts/SrvcfloMarketplace.sol",
  "abi": [
    {
      "inputs": [
        {
          "internalType": "address",
          "name": "initialOwner",
          "type": "address"
        },
        {
          "internalType": "address",
          "name": "_inftPackagesContract",
          "type": "address"
        },
        {
          "internalType": "address",
          "name": "_generatedNFTContract",
          "type": "address"
        },
        {
          "internalType": "address",
          "name": "_feeRecipient",
          "type": "address"
        }
      ],
      "stateMutability": "nonpayable",
      "type": "constructor"
    },
    {
      "inputs": [],
      "name": "EnforcedPause",
      "type": "error"
    },
    {
      "inputs": [],
      "name": "ExpectedPause",
      "type": "error"
    },
    {
      "inputs": [
        {
          "internalType": "address",
          "name": "owner",
          "type": "address"
        }
      ],
      "name": "OwnableInvalidOwner",
      "type": "error"
    },
    {
      "inputs": [
        {
          "internalType": "address",
          "name": "account",
          "type": "address"
        }
      ],
      "name": "OwnableUnauthorizedAccount",
      "type": "error"
    },
    {
      "inputs": [],
      "name": "ReentrancyGuardReentrantCall",
      "type": "error"
    },
    {
      "inputs": [
        {
          "internalType": "address",
          "name": "token",
          "type": "address"
        }
      ],
      "name": "SafeERC20FailedOperation",
      "type": "error"
    },
    {
      "anonymous": false,
      "inputs": [
        {
          "indexed": true,
          "internalType": "bytes32",
          "name": "auctionId",
          "type": "bytes32"
        },
        {
          "indexed": true,
          "internalType": "address",
          "name": "seller",
          "type": "address"
        },
        {
          "indexed": true,
          "internalType": "uint256",
          "name": "tokenId",
          "type": "uint256"
        },
        {
          "indexed": false,
          "internalType": "uint256",
          "name": "startingPrice",
          "type": "uint256"
        },
        {
          "indexed": false,
          "internalType": "uint256",
          "name": "endTime",
          "type": "uint256"
        },
        {
          "indexed": false,
          "internalType": "enum SrvcfloMarketplace.ListingType",
          "name": "listingType",
          "type": "uint8"
        }
      ],
      "name": "AuctionCreated",
      "type": "event"
    },
    {
      "anonymous": false,
      "inputs": [
        {
          "indexed": true,
          "internalType": "bytes32",
          "name": "auctionId",
          "type": "bytes32"
        },
        {
          "indexed": true,
          "internalType": "address",
          "name": "winner",
          "type": "address"
        },
        {
          "indexed": false,
          "internalType": "uint256",
          "name": "winningBid",
          "type": "uint256"
        }
      ],
      "name": "AuctionEnded",
      "type": "event"
    },
    {
      "anonymous": false,
      "inputs": [
        {
          "indexed": true,
          "internalType": "bytes32",
          "name": "listingId",
          "type": "bytes32"
        },
        {
          "indexed": true,
          "internalType": "address",
          "name": "bidder",
          "type": "address"
        },
        {
          "indexed": false,
          "internalType": "uint256",
          "name": "amount",
          "type": "uint256"
        },
        {
          "indexed": false,
          "internalType": "enum SrvcfloMarketplace.PaymentToken",
          "name": "paymentToken",
          "type": "uint8"
        }
      ],
      "name": "BidPlaced",
      "type": "event"
    },
    {
      "anonymous": false,
      "inputs": [
        {
          "indexed": true,
          "internalType": "bytes32",
          "name": "listingId",
          "type": "bytes32"
        },
        {
          "indexed": true,
          "internalType": "address",
          "name": "seller",
          "type": "address"
        },
        {
          "indexed": true,
          "internalType": "uint256",
          "name": "tokenId",
          "type": "uint256"
        },
        {
          "indexed": false,
          "internalType": "uint256",
          "name": "price",
          "type": "uint256"
        },
        {
          "indexed": false,
          "internalType": "enum SrvcfloMarketplace.PaymentToken",
          "name": "paymentToken",
          "type": "uint8"
        },
        {
          "indexed": false,
          "internalType": "enum SrvcfloMarketplace.ListingType",
          "name": "listingType",
          "type": "uint8"
        }
      ],
      "name": "Listed",
      "type": "event"
    },
    {
      "anonymous": false,
      "inputs": [
        {
          "indexed": true,
          "internalType": "bytes32",
          "name": "listingId",
          "type": "bytes32"
        }
      ],
      "name": "ListingCancelled",
      "type": "event"
    },
    {
      "anonymous": false,
      "inputs": [
        {
          "indexed": true,
          "internalType": "address",
          "name": "previousOwner",
          "type": "address"
        },
        {
          "indexed": true,
          "internalType": "address",
          "name": "newOwner",
          "type": "address"
        }
      ],
      "name": "OwnershipTransferred",
      "type": "event"
    },
    {
      "anonymous": false,
      "inputs": [
        {
          "indexed": false,
          "internalType": "address",
          "name": "account",
          "type": "address"
        }
      ],
      "name": "Paused",
      "type": "event"
    },
    {
      "anonymous": false,
      "inputs": [
        {
          "indexed": true,
          "internalType": "bytes32",
          "name": "listingId",
          "type": "bytes32"
        },
        {
          "indexed": true,
          "internalType": "address",
          "name": "seller",
          "type": "address"
        },
        {
          "indexed": true,
          "internalType": "address",
          "name": "buyer",
          "type": "address"
        },
        {
          "indexed": false,
          "internalType": "uint256",
          "name": "tokenId",
          "type": "uint256"
        },
        {
          "indexed": false,
          "internalType": "uint256",
          "name": "price",
          "type": "uint256"
        },
        {
          "indexed": false,
          "internalType": "enum SrvcfloMarketplace.PaymentToken",
          "name": "paymentToken",
          "type": "uint8"
        },
        {
          "indexed": false,
          "internalType": "enum SrvcfloMarketplace.ListingType",
          "name": "listingType",
          "type": "uint8"
        }
      ],
      "name": "Sold",
      "type": "event"
    },
    {
      "anonymous": false,
      "inputs": [
        {
          "indexed": false,
          "internalType": "address",
          "name": "account",
          "type": "address"
        }
      ],
      "name": "Unpaused",
      "type": "event"
    },
    {
      "inputs": [],
      "name": "FEE_DENOMINATOR",
      "outputs": [
        {
          "internalType": "uint256",
          "name": "",
          "type": "uint256"
        }
      ],
      "stateMutability": "view",
      "type": "function"
    },
    {
      "inputs": [],
      "name": "MARKETPLACE_FEE",
      "outputs": [
        {
          "internalType": "uint256",
          "name": "",
          "type": "uint256"
        }
      ],
      "stateMutability": "view",
      "type": "function"
    },
    {
      "inputs": [],
      "name": "SSSTT",
      "outputs": [
        {
          "internalType": "contract IERC20",
          "name": "",
          "type": "address"
        }
      ],
      "stateMutability": "view",
      "type": "function"
    },
    {
      "inputs": [],
      "name": "USDC",
      "outputs": [
        {
          "internalType": "contract IERC20",
          "name": "",
          "type": "address"
        }
      ],
      "stateMutability": "view",
      "type": "function"
    },
    {
      "inputs": [],
      "name": "WS_TOKEN",
      "outputs": [
        {
          "internalType": "contract IERC20",
          "name": "",
          "type": "address"
        }
      ],
      "stateMutability": "view",
      "type": "function"
    },
    {
      "inputs": [
        {
          "internalType": "bytes32",
          "name": "listingId",
          "type": "bytes32"
        },
        {
          "internalType": "uint256",
          "name": "bidIndex",
          "type": "uint256"
        }
      ],
      "name": "acceptBid",
      "outputs": [],
      "stateMutability": "nonpayable",
      "type": "function"
    },
    {
      "inputs": [
        {
          "internalType": "bytes32",
          "name": "",
          "type": "bytes32"
        }
      ],
      "name": "auctions",
      "outputs": [
        {
          "internalType": "uint256",
          "name": "tokenId",
          "type": "uint256"
        },
        {
          "internalType": "address",
          "name": "seller",
          "type": "address"
        },
        {
          "internalType": "uint256",
          "name": "startingPrice",
          "type": "uint256"
        },
        {
          "internalType": "uint256",
          "name": "currentBid",
          "type": "uint256"
        },
        {
          "internalType": "address",
          "name": "currentBidder",
          "type": "address"
        },
        {
          "internalType": "enum SrvcfloMarketplace.PaymentToken",
          "name": "paymentToken",
          "type": "uint8"
        },
        {
          "internalType": "enum SrvcfloMarketplace.ListingType",
          "name": "listingType",
          "type": "uint8"
        },
        {
          "internalType": "uint256",
          "name": "amount",
          "type": "uint256"
        },
        {
          "internalType": "uint256",
          "name": "startTime",
          "type": "uint256"
        },
        {
          "internalType": "uint256",
          "name": "endTime",
          "type": "uint256"
        },
        {
          "internalType": "bool",
          "name": "active",
          "type": "bool"
        },
        {
          "internalType": "bool",
          "name": "ended",
          "type": "bool"
        }
      ],
      "stateMutability": "view",
      "type": "function"
    },
    {
      "inputs": [
        {
          "internalType": "bytes32",
          "name": "auctionId",
          "type": "bytes32"
        },
        {
          "internalType": "uint256",
          "name": "bidAmount",
          "type": "uint256"
        }
      ],
      "name": "bidOnAuction",
      "outputs": [],
      "stateMutability": "payable",
      "type": "function"
    },
    {
      "inputs": [
        {
          "internalType": "bytes32",
          "name": "",
          "type": "bytes32"
        },
        {
          "internalType": "uint256",
          "name": "",
          "type": "uint256"
        }
      ],
      "name": "bids",
      "outputs": [
        {
          "internalType": "address",
          "name": "bidder",
          "type": "address"
        },
        {
          "internalType": "uint256",
          "name": "amount",
          "type": "uint256"
        },
        {
          "internalType": "enum SrvcfloMarketplace.PaymentToken",
          "name": "paymentToken",
          "type": "uint8"
        },
        {
          "internalType": "uint256",
          "name": "createdAt",
          "type": "uint256"
        },
        {
          "internalType": "uint256",
          "name": "expiresAt",
          "type": "uint256"
        },
        {
          "internalType": "bool",
          "name": "active",
          "type": "bool"
        }
      ],
      "stateMutability": "view",
      "type": "function"
    },
    {
      "inputs": [
        {
          "internalType": "bytes32",
          "name": "listingId",
          "type": "bytes32"
        }
      ],
      "name": "buy",
      "outputs": [],
      "stateMutability": "payable",
      "type": "function"
    },
    {
      "inputs": [
        {
          "internalType": "bytes32",
          "name": "listingId",
          "type": "bytes32"
        }
      ],
      "name": "cancelListing",
      "outputs": [],
      "stateMutability": "nonpayable",
      "type": "function"
    },
    {
      "inputs": [
        {
          "internalType": "uint256",
          "name": "tokenId",
          "type": "uint256"
        },
        {
          "internalType": "uint256",
          "name": "startingPrice",
          "type": "uint256"
        },
        {
          "internalType": "enum SrvcfloMarketplace.PaymentToken",
          "name": "paymentToken",
          "type": "uint8"
        },
        {
          "internalType": "enum SrvcfloMarketplace.ListingType",
          "name": "listingType",
          "type": "uint8"
        },
        {
          "internalType": "uint256",
          "name": "duration",
          "type": "uint256"
        },
        {
          "internalType": "uint256",
          "name": "amount",
          "type": "uint256"
        }
      ],
      "name": "createAuction",
      "outputs": [],
      "stateMutability": "nonpayable",
      "type": "function"
    },
    {
      "inputs": [
        {
          "internalType": "address",
          "name": "token",
          "type": "address"
        },
        {
          "internalType": "uint256",
          "name": "amount",
          "type": "uint256"
        }
      ],
      "name": "emergencyWithdraw",
      "outputs": [],
      "stateMutability": "nonpayable",
      "type": "function"
    },
    {
      "inputs": [
        {
          "internalType": "bytes32",
          "name": "auctionId",
          "type": "bytes32"
        }
      ],
      "name": "endAuction",
      "outputs": [],
      "stateMutability": "nonpayable",
      "type": "function"
    },
    {
      "inputs": [],
      "name": "feeRecipient",
      "outputs": [
        {
          "internalType": "address",
          "name": "",
          "type": "address"
        }
      ],
      "stateMutability": "view",
      "type": "function"
    },
    {
      "inputs": [],
      "name": "generatedNFTContract",
      "outputs": [
        {
          "internalType": "contract ISrvcfloGeneratedNFT",
          "name": "",
          "type": "address"
        }
      ],
      "stateMutability": "view",
      "type": "function"
    },
    {
      "inputs": [
        {
          "internalType": "bytes32",
          "name": "listingId",
          "type": "bytes32"
        }
      ],
      "name": "getActiveBids",
      "outputs": [
        {
          "components": [
            {
              "internalType": "address",
              "name": "bidder",
              "type": "address"
            },
            {
              "internalType": "uint256",
              "name": "amount",
              "type": "uint256"
            },
            {
              "internalType": "enum SrvcfloMarketplace.PaymentToken",
              "name": "paymentToken",
              "type": "uint8"
            },
            {
              "internalType": "uint256",
              "name": "createdAt",
              "type": "uint256"
            },
            {
              "internalType": "uint256",
              "name": "expiresAt",
              "type": "uint256"
            },
            {
              "internalType": "bool",
              "name": "active",
              "type": "bool"
            }
          ],
          "internalType": "struct SrvcfloMarketplace.Bid[]",
          "name": "",
          "type": "tuple[]"
        }
      ],
      "stateMutability": "view",
      "type": "function"
    },
    {
      "inputs": [
        {
          "internalType": "bytes32",
          "name": "listingId",
          "type": "bytes32"
        }
      ],
      "name": "getBids",
      "outputs": [
        {
          "components": [
            {
              "internalType": "address",
              "name": "bidder",
              "type": "address"
            },
            {
              "internalType": "uint256",
              "name": "amount",
              "type": "uint256"
            },
            {
              "internalType": "enum SrvcfloMarketplace.PaymentToken",
              "name": "paymentToken",
              "type": "uint8"
            },
            {
              "internalType": "uint256",
              "name": "createdAt",
              "type": "uint256"
            },
            {
              "internalType": "uint256",
              "name": "expiresAt",
              "type": "uint256"
            },
            {
              "internalType": "bool",
              "name": "active",
              "type": "bool"
            }
          ],
          "internalType": "struct SrvcfloMarketplace.Bid[]",
          "name": "",
          "type": "tuple[]"
        }
      ],
      "stateMutability": "view",
      "type": "function"
    },
    {
      "inputs": [],
      "name": "inftPackagesContract",
      "outputs": [
        {
          "internalType": "contract ISrvcfloINFTPackages",
          "name": "",
          "type": "address"
        }
      ],
      "stateMutability": "view",
      "type": "function"
    },
    {
      "inputs": [
        {
          "internalType": "uint256",
          "name": "tokenId",
          "type": "uint256"
        },
        {
          "internalType": "uint256",
          "name": "amount",
          "type": "uint256"
        },
        {
          "internalType": "uint256",
          "name": "price",
          "type": "uint256"
        },
        {
          "internalType": "enum SrvcfloMarketplace.PaymentToken",
          "name": "paymentToken",
          "type": "uint8"
        },
        {
          "internalType": "uint256",
          "name": "duration",
          "type": "uint256"
        }
      ],
      "name": "listGeneratedContent",
      "outputs": [],
      "stateMutability": "nonpayable",
      "type": "function"
    },
    {
      "inputs": [
        {
          "internalType": "uint256",
          "name": "tokenId",
          "type": "uint256"
        },
        {
          "internalType": "uint256",
          "name": "price",
          "type": "uint256"
        },
        {
          "internalType": "enum SrvcfloMarketplace.PaymentToken",
          "name": "paymentToken",
          "type": "uint8"
        },
        {
          "internalType": "uint256",
          "name": "duration",
          "type": "uint256"
        }
      ],
      "name": "listINFTPackage",
      "outputs": [],
      "stateMutability": "nonpayable",
      "type": "function"
    },
    {
      "inputs": [
        {
          "internalType": "bytes32",
          "name": "",
          "type": "bytes32"
        }
      ],
      "name": "listings",
      "outputs": [
        {
          "internalType": "uint256",
          "name": "tokenId",
          "type": "uint256"
        },
        {
          "internalType": "address",
          "name": "seller",
          "type": "address"
        },
        {
          "internalType": "uint256",
          "name": "price",
          "type": "uint256"
        },
        {
          "internalType": "enum SrvcfloMarketplace.PaymentToken",
          "name": "paymentToken",
          "type": "uint8"
        },
        {
          "internalType": "enum SrvcfloMarketplace.ListingType",
          "name": "listingType",
          "type": "uint8"
        },
        {
          "internalType": "uint256",
          "name": "amount",
          "type": "uint256"
        },
        {
          "internalType": "bool",
          "name": "active",
          "type": "bool"
        },
        {
          "internalType": "uint256",
          "name": "createdAt",
          "type": "uint256"
        },
        {
          "internalType": "uint256",
          "name": "expiresAt",
          "type": "uint256"
        }
      ],
      "stateMutability": "view",
      "type": "function"
    },
    {
      "inputs": [],
      "name": "owner",
      "outputs": [
        {
          "internalType": "address",
          "name": "",
          "type": "address"
        }
      ],
      "stateMutability": "view",
      "type": "function"
    },
    {
      "inputs": [],
      "name": "pause",
      "outputs": [],
      "stateMutability": "nonpayable",
      "type": "function"
    },
    {
      "inputs": [],
      "name": "paused",
      "outputs": [
        {
          "internalType": "bool",
          "name": "",
          "type": "bool"
        }
      ],
      "stateMutability": "view",
      "type": "function"
    },
    {
      "inputs": [
        {
          "internalType": "bytes32",
          "name": "listingId",
          "type": "bytes32"
        },
        {
          "internalType": "uint256",
          "name": "bidAmount",
          "type": "uint256"
        },
        {
          "internalType": "uint256",
          "name": "duration",
          "type": "uint256"
        }
      ],
      "name": "placeBid",
      "outputs": [],
      "stateMutability": "nonpayable",
      "type": "function"
    },
    {
      "inputs": [],
      "name": "renounceOwnership",
      "outputs": [],
      "stateMutability": "nonpayable",
      "type": "function"
    },
    {
      "inputs": [
        {
          "internalType": "address",
          "name": "_inftPackagesContract",
          "type": "address"
        },
        {
          "internalType": "address",
          "name": "_generatedNFTContract",
          "type": "address"
        }
      ],
      "name": "setContracts",
      "outputs": [],
      "stateMutability": "nonpayable",
      "type": "function"
    },
    {
      "inputs": [
        {
          "internalType": "address",
          "name": "_feeRecipient",
          "type": "address"
        }
      ],
      "name": "setFeeRecipient",
      "outputs": [],
      "stateMutability": "nonpayable",
      "type": "function"
    },
    {
      "inputs": [
        {
          "internalType": "address",
          "name": "newOwner",
          "type": "address"
        }
      ],
      "name": "transferOwnership",
      "outputs": [],
      "stateMutability": "nonpayable",
      "type": "function"
    },
    {
      "inputs": [],
      "name": "unpause",
      "outputs": [],
      "stateMutability": "nonpayable",
      "type": "function"
    },
    {
      "inputs": [
        {
          "internalType": "address",
          "name": "",
          "type": "address"
        }
      ],
      "name": "userListingsCount",
      "outputs": [
        {
          "internalType": "uint256",
          "name": "",
          "type": "uint256"
        }
      ],
      "stateMutability": "view",
      "type": "function"
    },
    {
      "inputs": [
        {
          "internalType": "address",
          "name": "",
          "type": "address"
        }
      ],
      "name": "userPurchasesCount",
      "outputs": [
        {
          "internalType": "uint256",
          "name": "",
          "type": "uint256"
        }
      ],
      "stateMutability": "view",
      "type": "function"
    },
    {
      "stateMutability": "payable",
      "type": "receive"
    }
  ],
  "bytecode": "0x60803461012a57601f61353038819003918201601f19168301916001600160401b0383118484101761012f5780849260809460405283398101031261012a5761004781610145565b61005360208301610145565b9161006c606061006560408401610145565b9201610145565b60016000556001600160a01b0390921692831561011457600180546001600160a01b03198116861790915560405194906001600160a01b03167f8be0079c531659141344cd1fd0a4f28419497f9722a3daafe3b4186f6b6457e0600080a3600280546001600160a01b03199081166001600160a01b0393841617909155600380548216938316939093179092556004805490921692169190911790556133d6908161015a8239f35b631e4fbdf760e01b600052600060045260246000fd5b600080fd5b634e487b7160e01b600052604160045260246000fd5b51906001600160a01b038216820361012a5756fe6080604052600436101561001b575b361561001957600080fd5b005b6000803560e01c806301db46a01461272657806313f16c671461222a5780631edbc5be1461215d5780633f4ba83a146120ed57806346904840146120c4578063549b3a431461208b5780635c975abb14612065578063715018a614612008578063797ddf9014611df75780638456cb5914611d9457806389a3027114611d655780638d394396146117df5780638da5cb5b146117b65780639299e552146116a157806395ccea671461161857806396af5f8e146112f2578063989d7ecc146112c95780639c103c61146112ad5780639c9a106114610d625780639d4f988b14610c95578063a1f1ca7a14610c6c578063afd453e314610c33578063c18b8db414610b8f578063c9692bf714610b60578063cb85bc1614610914578063d73792a9146108f7578063d8952a491461088a578063ddeb1c8c1461085b578063e35daa7614610656578063e74b981b14610616578063e815fa83146102a8578063f2fde38b1461021f5763f7e65b1c14610192575061000e565b3461021c576101a036612b0e565b9190815260066020526040812090815483101561021c5760c06101c38484612bea565b5060018060a01b038154169060018101549060ff60028201541661020960038301549160ff60056004860154950154169460405196875260208701526040860190612b24565b60608401526080830152151560a0820152f35b80fd5b503461021c57602036600319011261021c57610239612b54565b610241613136565b6001600160a01b0316801561029457600180546001600160a01b0319811683179091556001600160a01b03167f8be0079c531659141344cd1fd0a4f28419497f9722a3daafe3b4186f6b6457e08380a380f35b631e4fbdf760e01b82526004829052602482fd5b503461021c5760a036600319011261021c57600435602435604435906064356004811015610612576102d8612fd2565b6102e0613116565b6102eb831515612f30565b81156105cd57600354604051627eeac760e11b8152336004820152602481018690526001600160a01b0390911690602081604481855afa80156105c25784908890610587575b61033d92501015612e67565b60405163e985e9c560e01b815233600482015230602482015290602090829060449082905afa801561057c5761037a91879161054d575b50612eaa565b6040516020810190600160f81b82528560218201526001600160601b03193360601b166041820152426055820152605581526103b7607582612cac565b519020916103c760843542612f23565b86604051926103d584612c8f565b87845260208401903382526040850188815260608601906103f68883612e47565b60016080880181815260a0890194855260c089018281524260e08b019081526101008b01998a528c89526005602052604090982099518a55955191890180546001600160a01b0319166001600160a01b0393909316929092179091559051600288015590516003870191906004811015610539576104749083612f7c565b5160028110156105255792600794926104bf926104f19998979561ff0082549160081b169061ff001916179055516004870155511515600586019060ff801983541691151516179055565b516006840155519101553386526008602052604086206104df8154612d73565b90556040519384526020840190612b24565b600160408301527f133b0c928d5b9f97d7d9c27e005fc0dc931e280bfcd5fbf4b00d6d97d66fdd2860603393a46001815580f35b634e487b7160e01b8c52602160045260248cfd5b634e487b7160e01b8d52602160045260248dfd5b61056f915060203d602011610575575b6105678183612cac565b810190612cce565b38610374565b503d61055d565b6040513d88823e3d90fd5b50506020813d6020116105ba575b816105a260209383612cac565b810103126105b5578361033d9151610331565b600080fd5b3d9150610595565b6040513d89823e3d90fd5b60405162461bcd60e51b815260206004820152601d60248201527f416d6f756e74206d7573742062652067726561746572207468616e20300000006044820152606490fd5b8480fd5b503461021c57602036600319011261021c57610630612b54565b610638613136565b60018060a01b03166001600160601b0360a01b600454161760045580f35b5061066036612b0e565b90610669612fd2565b610671613116565b80835260076020526040832061068d60ff600883015416612c1c565b600781015442116108265760018101546001600160a01b031633146107e157600381018054808511156107ae5760028301548510610769578460ff92600461072495019283549060018060a01b03821680610751575b5050506106fa8285855460a01c16309033906131e6565b5580546001600160a01b031916331790819055604051948552602085019160a09190911c16612b24565b7f27c39fd1c644c6b19a19b184e9af4050e7a28bd06d6369f2abf3a27ae82582a560403393a36001815580f35b6107619287309160a01c166131e6565b3880806106e3565b60405162461bcd60e51b815260206004820152601860248201527f4269642062656c6f77207374617274696e6720707269636500000000000000006044820152606490fd5b60405162461bcd60e51b815260206004820152600b60248201526a42696420746f6f206c6f7760a81b6044820152606490fd5b60405162461bcd60e51b815260206004820152601960248201527f43616e6e6f7420626964206f6e206f776e2061756374696f6e000000000000006044820152606490fd5b60405162461bcd60e51b815260206004820152600d60248201526c105d58dd1a5bdb88195b991959609a1b6044820152606490fd5b503461021c578060031936011261021c57602060405173039e2fb66102314ce7b64ce5ce3e5183bc94ad388152f35b503461021c57604036600319011261021c576108a4612b54565b6024356001600160a01b03811691908290036108f3576108c2613136565b60018060a01b03166001600160601b0360a01b60025416176002556001600160601b0360a01b600354161760035580f35b8280fd5b503461021c578060031936011261021c5760206040516127108152f35b503461021c57606036600319011261021c57602435600435610934612fd2565b61093c613116565b80835260056020526040832061095860ff600583015416612dc2565b6109686007820154421115612f94565b60018101546001600160a01b03163314610b1b578215610ad6576003016109978360ff835416309033906131e6565b81845260066020526040842060ff825416906109b560443542612f23565b604051926109c284612c5d565b33845260208401908782526109db604086019182612e47565b60608501914283526080860193845260a08601946001865280549068010000000000000000821015610ac25790610a1791600182018155612bea565b969096610aae575186546001600160a01b0319166001600160a01b0391909116178655516001860155516004811015610a9a576107249593610a88938693610a66600594600260ff9a01612f7c565b51600385015551600484015551151591019060ff801983541691151516179055565b54166040519384526020840190612b24565b634e487b7160e01b89526021600452602489fd5b634e487b7160e01b8b5260048b905260248bfd5b634e487b7160e01b8c52604160045260248cfd5b60405162461bcd60e51b815260206004820152601a60248201527f426964206d7573742062652067726561746572207468616e20300000000000006044820152606490fd5b60405162461bcd60e51b815260206004820152601960248201527f43616e6e6f7420626964206f6e206f776e206c697374696e67000000000000006044820152606490fd5b503461021c578060031936011261021c57602060405173c777fa50186362fe0ef9ccd579b6385ce7cb49f18152f35b503461021c57602036600319011261021c57604061012091600435815260056020522080549060018060a01b036001820154169060028101546003820154610c1a60048401549160ff60058601541693600760068701549601549660405198895260208901526040880152610c0a6060880160ff8316612b24565b60ff608088019160081c16612b47565b60a0850152151560c084015260e0830152610100820152f35b503461021c57602036600319011261021c576020906040906001600160a01b03610c5b612b54565b168152600883522054604051908152f35b503461021c578060031936011261021c576003546040516001600160a01b039091168152602090f35b503461021c57602036600319011261021c576004358152600660205260408120805490610cc182612e2f565b92610ccf6040519485612cac565b82845290815260208082209084015b838310610cf75760405180610cf38782612b6a565b0390f35b60066020600192604051610d0a81612c5d565b848060a01b0386541681528486015483820152610d3160ff60028801541660408301612e47565b600386015460608201526004860154608082015260ff600587015416151560a0820152815201920192019190610cde565b50602036600319011261021c57600435610d7a612fd2565b610d82613116565b8082526005602052604082206005810191610da060ff845416612dc2565b610db06007830154421115612f94565b6001820180549093906001600160a01b031633811461126f5760028401549460fa860286810460fa148715171561125b57612710900487908890600388019485549060ff8260081c16600281101561053957838660018e931461115b575b610e1d610e229260ff94612d17565b612d17565b9216600481101561053957908b828e9796959493156000146110ef57508680938193610e5183943410156131a7565b8282156110e6575bf1156110db5760045484918291829182916001600160a01b03168282156110d2575bf115610fa5578115908115806110c0575b611090575b5050505085341161105f575b60ff825460081c16600281101561104b57610fb4576002548154865489926001600160a01b03908116921690823b15610fb057604051632142170760e11b81526001600160a01b0392909216600483015233602483015260448201529082908290606490829084905af18015610fa557610f8c575b50507f8fc94b467b88412274e4fda8a2d7563d76bfe6eb8df79cbc14f28708a8b14ed5925b60ff198154169055338752600960205260408720610f558154612d73565b905560018060a01b039054169354905490610f82604051928392339860ff808460081c1693169185612e03565b0390a46001815580f35b81610f9691612cac565b610fa1578638610f12565b8680fd5b6040513d84823e3d90fd5b8380fd5b6003548154865460048801548a9391926001600160a01b039081169216803b1561061257610ffe9385809460405196879586948593637921219560e11b8552339060048601612d3a565b03925af18015610fa557611036575b50507f8fc94b467b88412274e4fda8a2d7563d76bfe6eb8df79cbc14f28708a8b14ed592610f37565b8161104091612cac565b610fa157863861100d565b634e487b7160e01b88526021600452602488fd5b8680808061106d8a34612d17565b818115611087575b3390f1610e9d576040513d88823e3d90fd5b506108fc611075565b83928392839283916110b6575b6001600160a01b031690f11561057c5786388080610e91565b6108fc915061109d565b506001600160a01b0381161515610e8c565b506108fc610e7b565b6040513d85823e3d90fd5b506108fc610e59565b61110d9297506111209493915061110590613265565b963388613367565b6004546001600160a01b03163386613367565b81151580611149575b611136575b505050610e9d565b611141923390613367565b38808061112e565b506001600160a01b0381161515611129565b50506003546040516301ffc9a760e01b815263152a902d60e11b600482015291506001600160a01b03168d602083602481855afa801561124e578e93829161122f575b506111ad575b50508386610e0e565b949650945060409060448c548351978893849263152a902d60e11b8452600484015260248301525afa80156110db57610e228460ff928e97899792916111fa575b5097509591508d6111a4565b610e1d9250611221915060403d604011611228575b6112198183612cac565b810190612cfa565b90916111ee565b503d61120f565b611248915060203d602011610575576105678183612cac565b3861119e565b50604051903d90823e3d90fd5b634e487b7160e01b88526011600452602488fd5b60405162461bcd60e51b815260206004820152601660248201527543616e6e6f7420627579206f776e206c697374696e6760501b6044820152606490fd5b503461021c578060031936011261021c57602060405160fa8152f35b503461021c578060031936011261021c576002546040516001600160a01b039091168152602090f35b503461021c57608036600319011261021c576004356024356044356004811015610fb05761131e612fd2565b611326613116565b611331821515612f30565b6002546040516331a9108f60e11b8152600481018590526001600160a01b0390911690602081602481855afa801561057c5786906115d9575b61137f91506001600160a01b03163314612ee5565b60405163e985e9c560e01b8152336004820152306024820152602081604481855afa90811561057c5786916115ba575b508015611533575b6113c19150612eaa565b60405160208101908582528460218201526001600160601b03193360601b166041820152426055820152605581526113fa607582612cac565b5190209061140a60643542612f23565b6040519061141782612c8f565b858252866020830133815260408401878152606085016114378782612e47565b60808601848152600160a0880181815260c089018281524260e08b019081526101008b01998a528c89526005602052604090982099518a55955191890180546001600160a01b0319166001600160a01b0393909316929092179091559251600288015590516003870191906004811015610539576114b59083612f7c565b5160028110156105255792600794926104bf926115009998979561ff0082549160081b169061ff001916179055516004870155511515600586019060ff801983541691151516179055565b8360408301527f133b0c928d5b9f97d7d9c27e005fc0dc931e280bfcd5fbf4b00d6d97d66fdd2860603393a46001815580f35b5060206024916040519283809263020604bf60e21b82528860048301525afa80156115af578590611574575b6113c191506001600160a01b031630146113b7565b506020813d6020116115a7575b8161158e60209383612cac565b81010312610612576115a26113c191612ce6565b61155f565b3d9150611581565b6040513d87823e3d90fd5b6115d3915060203d602011610575576105678183612cac565b386113af565b506020813d602011611610575b816115f360209383612cac565b8101031261160c5761160761137f91612ce6565b61136a565b8580fd5b3d91506115e6565b503461021c57604036600319011261021c5780611633612b54565b6024359061163f613136565b6001600160a01b0316806116875750600154829182918291906001600160a01b031682821561167e575bf1156116725780f35b604051903d90823e3d90fd5b506108fc611669565b60015461169e93506001600160a01b03169061315f565b80f35b503461021c57602036600319011261021c576004356116be612fd2565b80825260056020526005604083206116e360018060a01b036001830154163314612d82565b0180546116f260ff8216612dc2565b60ff19169055808252600660205260408220825b8154811015611789578060ff600561172060019486612bea565b5001541661172f575b01611706565b600561173b8285612bea565b5001805460ff1916905561178460ff60026117568487612bea565b500154166117648386612bea565b50848060a01b03905416846117798588612bea565b5001549130906131e6565b611729565b50507f9210d6774ad7b502b3da4d2c233cb4913c6254bedbae89dfa93e0594a36397578280a26001815580f35b503461021c578060031936011261021c576001546040516001600160a01b039091168152602090f35b503461021c5760c036600319011261021c576004356024356044356004811015610fb0576064356002811091821561160c576084359060a435611820612fd2565b611828613116565b808615611d12578315611ccd5784611c005750506002546040516331a9108f60e11b8152600481018890526001600160a01b0390911690602081602481855afa8015611bb6578990611bc1575b61188a91506001600160a01b03163314612ee5565b60405163e985e9c560e01b8152336004820152306024820152602081604481855afa908115611bb6578991611b97575b508015611b0c575b6118cc9150612eaa565b6001935b604051602081019115610a9a578460f81b82528760218201526001600160601b03193360601b16604182015242605582015260558152611911607582612cac565b5190209361191f8342612f23565b9060405192610180840184811067ffffffffffffffff821117611af857600194928b949289926040528b85526020850133815260408601918c835260608701888152608088019389855261197760a08a019384612e47565b60c089018d815260e08a01968752426101008b019081526101208b01998a526101408b019c8d526101608b018c8152988c5260076020526040909b2099518a55935160018a0180546001600160a01b03199081166001600160a01b0393841617909155915160028b0155915160038a015593516004808a0180549096169190921617845590519497949190821015611ae457825490516002811015611acf5760ff60a81b60a89190911b1660ff60a01b60a09390931b9290921661ffff60a01b199190911617179055516005840155516006830155516007820155915160089283018054925161ff0090151590941b9390931661ffff1990921660ff9115159190911617179055611aa29190611a8d9042612f23565b60405194855260208501526040840190612b47565b7f5bbb6934c83c1f475e63f5767dfaf0bdbb988c1975e83e621a4b083bc500d30c60603393a46001815580f35b50634e487b7160e01b8f52602160045260248ffd5b634e487b7160e01b8f52602160045260248ffd5b634e487b7160e01b8b52604160045260248bfd5b5060206024916040519283809263020604bf60e21b82528b60048301525afa8015611b8c578890611b4d575b6118cc91506001600160a01b031630146118c2565b506020813d602011611b84575b81611b6760209383612cac565b81010312611b8057611b7b6118cc91612ce6565b611b38565b8780fd5b3d9150611b5a565b6040513d8a823e3d90fd5b611bb0915060203d602011610575576105678183612cac565b386118ba565b6040513d8b823e3d90fd5b506020813d602011611bf8575b81611bdb60209383612cac565b81010312611bf457611bef61188a91612ce6565b611875565b8880fd5b3d9150611bce565b600354604051627eeac760e11b8152336004820152602481018a90529296926001600160a01b0390911691602082604481865afa8015611cc2578b90611c8e575b611c4d92501015612e67565b60405163e985e9c560e01b815233600482015230602482015290602090829060449082905afa8015611bb657611c89918a9161054d5750612eaa565b6118d0565b506020823d602011611cba575b81611ca860209383612cac565b810103126105b557611c4d9151611c41565b3d9150611c9b565b6040513d8d823e3d90fd5b60405162461bcd60e51b815260206004820152601f60248201527f4475726174696f6e206d7573742062652067726561746572207468616e2030006044820152606490fd5b60405162461bcd60e51b815260206004820152602560248201527f5374617274696e67207072696365206d75737420626520677265617465722074604482015264068616e20360dc1b6064820152608490fd5b503461021c578060031936011261021c57602060405173a4879fed32ecbef99399e5cbc247e533421c4ec68152f35b503461021c578060031936011261021c57611dad613136565b611db5613116565b6001805460ff60a01b1916600160a01b1790556040513381527f62e78cea01bee320cd4e420270b5ea74000d11b0c9f74754ebdbfc544b05a25890602090a180f35b503461021c57602036600319011261021c576004358152600660205260408120908154611e2381612e2f565b92611e316040519485612cac565b81845282526020808320839185015b838310611f9d57858580815b8351811015611ea55760a0611e618286612e53565b510151151580611e8d575b611e79575b600101611e4c565b90611e85600191612d73565b919050611e71565b506080611e9a8286612e53565b510151421115611e6c565b50611eaf81612e2f565b90611ebd6040519283612cac565b808252611ecc601f1991612e2f565b01825b818110611f62575050815b8351811015611f545760a0611eef8286612e53565b510151151580611f3c575b611f07575b600101611eda565b91611f34600191611f188587612e53565b51611f238286612e53565b52611f2e8185612e53565b50612d73565b929050611eff565b506080611f498286612e53565b510151421115611efa565b60405180610cf38482612b6a565b602090604051611f7181612c5d565b85815285838201528560408201528560608201528560808201528560a082015282828601015201611ecf565b60066020600192604051611fb081612c5d565b848060a01b0386541681528486015483820152611fd760ff60028801541660408301612e47565b600386015460608201526004860154608082015260ff600587015416151560a0820152815201920192019190611e40565b503461021c578060031936011261021c57612021613136565b600180546001600160a01b0319811690915581906001600160a01b03167f8be0079c531659141344cd1fd0a4f28419497f9722a3daafe3b4186f6b6457e08280a380f35b503461021c578060031936011261021c57602060ff60015460a01c166040519015158152f35b503461021c57602036600319011261021c576020906040906001600160a01b036120b3612b54565b168152600983522054604051908152f35b503461021c578060031936011261021c576004546040516001600160a01b039091168152602090f35b503461021c578060031936011261021c57612106613136565b60015460ff8160a01c161561214e5760ff60a01b19166001556040513381527f5db9ee0a495bf2e6ff9c91a7834c1ba4fdd244a5e8aa4e537bd38aeae4b073aa90602090a180f35b638dfc202b60e01b8252600482fd5b503461021c57602036600319011261021c57604061018091600435815260076020522060ff81549160018060a01b036001820154169060028101546003820154612200600484015460058501549260068601549460086007880154970154976040519a8b5260208b015260408a0152606089015260018060a01b03811660808901526121f160a08901888360a01c16612b24565b8660c089019160a81c16612b47565b60e0860152610100850152610120840152818116151561014084015260081c161515610160820152f35b503461021c5761223936612b0e565b9190612243612fd2565b61224b613116565b8082526005602052604082206001810180546001600160a01b03169490939091612276338714612d82565b600581019361228860ff865416612dc2565b808352600660205260408320548410156126ed5780835260066020526122b18460408520612bea565b50906005820160ff815416156126b757600483015442116126845760018301549060fa820282810460fa148315171561267057612710900497868790600388019a60ff8c5460081c16600281101561265c57600114612577575b91818360ff9d9e9f9361232590610e1d612332978b612d17565b60028b019e8f5416612ff4565b60ff8a5460081c16600281101561104b576124f7576002548b5486548854926001600160a01b03908116929181169116823b156124f357604051632142170760e11b81526001600160a01b03918216600482015291166024820152604481019290925288908290606490829084905af18015611b8c579088916124de575b50505b805460ff19908116909155815416905582546001600160a01b0316855260096020526040852080546123e490612d73565b905581855260066020526040852096855b88548110156124835780808a8a60019414158061246b575b61241a575b5050016123f5565b6002612440838360056124326124649760ff97612bea565b500185198154169055612bea565b500154168b84611779856124548185612bea565b50838060a01b0390541693612bea565b808a612412565b5060ff600561247a8484612bea565b5001541661240d565b50895493549454905489546040516001600160a01b039788169796909616957f8fc94b467b88412274e4fda8a2d7563d76bfe6eb8df79cbc14f28708a8b14ed59490938493610f829360081c60ff9081169391169185612e03565b816124e891612cac565b610fa15786386123b0565b8a80fd5b6003548b548654885460048a01549390926001600160a01b039182169282169116823b1561257357908b8094939261254560405197889687958694637921219560e11b865260048601612d3a565b03925af18015611b8c5790889161255e575b50506123b3565b8161256891612cac565b610fa1578638612557565b8b80fd5b6003546040516301ffc9a760e01b815263152a902d60e11b60048201526001600160a01b0390911690602081602481855afa908115612651578c91612632575b506125c3575b5061230b565b9150915060408854604482518094819363152a902d60e11b835260048301528960248301525afa8015611bb6579160ff9b9c9d91612332938b918c91612611575b50909350919d9c9b6125bd565b905061262c915060403d604011611228576112198183612cac565b38612604565b61264b915060203d602011610575576105678183612cac565b386125b7565b6040513d8e823e3d90fd5b634e487b7160e01b8b52602160045260248bfd5b634e487b7160e01b87526011600452602487fd5b60405162461bcd60e51b815260206004820152600b60248201526a109a5908195e1c1a5c995960aa1b6044820152606490fd5b60405162461bcd60e51b815260206004820152600e60248201526d426964206e6f742061637469766560901b6044820152606490fd5b60405162461bcd60e51b8152602060048201526011602482015270092dcecc2d8d2c840c4d2c840d2dcc8caf607b1b6044820152606490fd5b503461021c57602036600319011261021c57600435612743612fd2565b8082526007602052604082209060088201805461276260ff8216612c1c565b6007840154421115612ad25760ff8160081c16612a955761ffff191661010017905560048201805492846001600160a01b03851615612a7457506003810193845460fa810281810460fa148215171561125b5761271090049187889060ff8360a81c16600281101561265c576001869114612994575b81610e1d6127e99261280597612d17565b94600187019560ff60018060a01b038854169560a01c16612ff4565b825460ff8160a81c16600281101561104b5787939291906128f157506002549054845492546001600160a01b039384169391821692909116803b1561061257604051632142170760e11b81526001600160a01b039384166004820152939092166024840152604483015282908290606490829084905af18015610fa5576128dc575b505060206000805160206133aa833981519152915b80546001600160a01b03168652600982526040862080546128bc90612d73565b90555493546040519081526001600160a01b0390941693a35b6001815580f35b816128e691612cac565b610fb0578338612887565b600354915483546005909401549493926001600160a01b0390811692911690823b1561061257604051637921219560e11b815295869485938793859361294893909290916001600160a01b03169060048601612d3a565b03925af180156115af5761296f575b5060206000805160206133aa8339815191529161289c565b8461298c6000805160206133aa8339815191529396602093612cac565b949150612957565b506003546040516301ffc9a760e01b815263152a902d60e11b600482015294906001600160a01b0316602086602481845afa80156126515787968d91612a55575b506129e2575b50936127d8565b945091505060408554604482518096819363152a902d60e11b835260048301528560248301525afa928315611bb6576127e98591612805958c918d91612a30575b50929550929050816129db565b610e1d9250612a4e915060403d604011611228576112198183612cac565b9091612a23565b612a6e915060203d602011610575576105678183612cac565b386129d5565b935050506000805160206133aa8339815191526020604051848152a36128d5565b60405162461bcd60e51b8152602060048201526015602482015274105d58dd1a5bdb88185b1c9958591e48195b991959605a1b6044820152606490fd5b60405162461bcd60e51b815260206004820152601460248201527341756374696f6e207374696c6c2061637469766560601b6044820152606490fd5b60409060031901126105b5576004359060243590565b906004821015612b315752565b634e487b7160e01b600052602160045260246000fd5b906002821015612b315752565b600435906001600160a01b03821682036105b557565b602060408183019282815284518094520192019060005b818110612b8e5750505090565b909192602060c060019260a087518580831b0381511683528481015185840152612bc060408201516040850190612b24565b60608101516060840152608081015160808401520151151560a08201520194019101919091612b81565b8054821015612c06576000526006602060002091020190600090565b634e487b7160e01b600052603260045260246000fd5b15612c2357565b60405162461bcd60e51b815260206004820152601260248201527141756374696f6e206e6f742061637469766560701b6044820152606490fd5b60c0810190811067ffffffffffffffff821117612c7957604052565b634e487b7160e01b600052604160045260246000fd5b610120810190811067ffffffffffffffff821117612c7957604052565b90601f8019910116810190811067ffffffffffffffff821117612c7957604052565b908160209103126105b5575180151581036105b55790565b51906001600160a01b03821682036105b557565b91908260409103126105b5576020612d1183612ce6565b92015190565b91908203918211612d2457565b634e487b7160e01b600052601160045260246000fd5b6001600160a01b039182168152911660208201526040810191909152606081019190915260a06080820181905260009082015260c00190565b6000198114612d245760010190565b15612d8957565b60405162461bcd60e51b81526020600482015260116024820152702737ba103634b9ba34b7339037bbb732b960791b6044820152606490fd5b15612dc957565b60405162461bcd60e51b81526020600482015260126024820152714c697374696e67206e6f742061637469766560701b6044820152606490fd5b612e26612e2d946060939796946080840198845260208401526040830190612b24565b0190612b47565b565b67ffffffffffffffff8111612c795760051b60200190565b6004821015612b315752565b8051821015612c065760209160051b010190565b15612e6e57565b60405162461bcd60e51b8152602060048201526014602482015273496e73756666696369656e742062616c616e636560601b6044820152606490fd5b15612eb157565b60405162461bcd60e51b815260206004820152600c60248201526b139bdd08185c1c1c9bdd995960a21b6044820152606490fd5b15612eec57565b60405162461bcd60e51b815260206004820152600f60248201526e2737ba103a37b5b2b71037bbb732b960891b6044820152606490fd5b91908201809211612d2457565b15612f3757565b60405162461bcd60e51b815260206004820152601c60248201527f5072696365206d7573742062652067726561746572207468616e2030000000006044820152606490fd5b906004811015612b315760ff80198354169116179055565b15612f9b57565b60405162461bcd60e51b815260206004820152600f60248201526e131a5cdd1a5b99c8195e1c1a5c9959608a1b6044820152606490fd5b600260005414612fe3576002600055565b633ee5aeb560e01b60005260046000fd5b9490919293946004811015612b3157806130bc575060008080938193829082156130b2575b6001600160a01b031690f115613081576004546000918291829182916001600160a01b03168282156130a9575bf115613081578015801580613097575b61305f57505050565b600092839283928392839161308d575b6001600160a01b031690f11561308157565b6040513d6000823e3d90fd5b6108fc915061306f565b506001600160a01b0383161515613056565b506108fc613046565b6108fc9150613019565b6130e9926130d06130d79297959397613265565b968761315f565b6004546001600160a01b03168561315f565b81151580613104575b6130fb57505050565b612e2d9261315f565b506001600160a01b03811615156130f2565b60ff60015460a01c1661312557565b63d93c066560e01b60005260046000fd5b6001546001600160a01b0316330361314a57565b63118cdaa760e01b6000523360045260246000fd5b60405163a9059cbb60e01b60208201526001600160a01b0390921660248301526044820192909252612e2d916131a282606481015b03601f198101845283612cac565b61330c565b156131ae57565b60405162461bcd60e51b815260206004820152601060248201526f092dce6eaccccd2c6d2cadce8408aa8960831b6044820152606490fd5b929190926004811015612b315780613238575090916001600160a01b0316300361322b57600080809381938290821561308d576001600160a01b031690f11561308157565b50612e2d903410156131a7565b61324190613265565b926001600160a01b038116300361325c5750612e2d9261315f565b612e2d93613367565b6004811015612b31576001810361328f575073a4879fed32ecbef99399e5cbc247e533421c4ec690565b600281036132b0575073039e2fb66102314ce7b64ce5ce3e5183bc94ad3890565b6003146132f45760405162461bcd60e51b815260206004820152601560248201527424b73b30b634b2103830bcb6b2b73a103a37b5b2b760591b6044820152606490fd5b73c777fa50186362fe0ef9ccd579b6385ce7cb49f190565b906000602091828151910182855af115613081576000513d61335e57506001600160a01b0381163b155b61333d5750565b635274afe760e01b60009081526001600160a01b0391909116600452602490fd5b60011415613336565b6040516323b872dd60e01b60208201526001600160a01b0392831660248201529290911660448301526064820192909252612e2d916131a2826084810161319456fe4898413e58dd21ed9179dd98f8c9313f8359aae688bff5403ed56a6677bcfe97a164736f6c634300081b000a",
  "linkReferences": {},
  "deployedLinkReferences": {}
}