{
  "_format": "hh-sol-artifact-1",
  "contractName": "SrvcfloINFTPackagesV2",
  "sourceName": "Contracts/SrvcfloINFTPackagesV2.sol",
  "abi": [
    {
      "inputs": [
        {
          "internalType": "address",
          "name": "initialOwner",
          "type": "address"
        },
        {
          "internalType": "address",
          "name": "_devWallet",
          "type": "address"
        },
        {
          "internalType": "address",
          "name": "_stakingContract",
          "type": "address"
        }
      ],
      "stateMutability": "nonpayable",
      "type": "constructor"
    },
    {
      "inputs": [
        {
          "internalType": "address",
          "name": "sender",
          "type": "address"
        },
        {
          "internalType": "uint256",
          "name": "tokenId",
          "type": "uint256"
        },
        {
          "internalType": "address",
          "name": "owner",
          "type": "address"
        }
      ],
      "name": "ERC721IncorrectOwner",
      "type": "error"
    },
    {
      "inputs": [
        {
          "internalType": "address",
          "name": "operator",
          "type": "address"
        },
        {
          "internalType": "uint256",
          "name": "tokenId",
          "type": "uint256"
        }
      ],
      "name": "ERC721InsufficientApproval",
      "type": "error"
    },
    {
      "inputs": [
        {
          "internalType": "address",
          "name": "approver",
          "type": "address"
        }
      ],
      "name": "ERC721InvalidApprover",
      "type": "error"
    },
    {
      "inputs": [
        {
          "internalType": "address",
          "name": "operator",
          "type": "address"
        }
      ],
      "name": "ERC721InvalidOperator",
      "type": "error"
    },
    {
      "inputs": [
        {
          "internalType": "address",
          "name": "owner",
          "type": "address"
        }
      ],
      "name": "ERC721InvalidOwner",
      "type": "error"
    },
    {
      "inputs": [
        {
          "internalType": "address",
          "name": "receiver",
          "type": "address"
        }
      ],
      "name": "ERC721InvalidReceiver",
      "type": "error"
    },
    {
      "inputs": [
        {
          "internalType": "address",
          "name": "sender",
          "type": "address"
        }
      ],
      "name": "ERC721InvalidSender",
      "type": "error"
    },
    {
      "inputs": [
        {
          "internalType": "uint256",
          "name": "tokenId",
          "type": "uint256"
        }
      ],
      "name": "ERC721NonexistentToken",
      "type": "error"
    },
    {
      "inputs": [],
      "name": "EnforcedPause",
      "type": "error"
    },
    {
      "inputs": [],
      "name": "ExpectedPause",
      "type": "error"
    },
    {
      "inputs": [
        {
          "internalType": "address",
          "name": "owner",
          "type": "address"
        }
      ],
      "name": "OwnableInvalidOwner",
      "type": "error"
    },
    {
      "inputs": [
        {
          "internalType": "address",
          "name": "account",
          "type": "address"
        }
      ],
      "name": "OwnableUnauthorizedAccount",
      "type": "error"
    },
    {
      "inputs": [],
      "name": "ReentrancyGuardReentrantCall",
      "type": "error"
    },
    {
      "anonymous": false,
      "inputs": [
        {
          "indexed": true,
          "internalType": "address",
          "name": "owner",
          "type": "address"
        },
        {
          "indexed": true,
          "internalType": "address",
          "name": "approved",
          "type": "address"
        },
        {
          "indexed": true,
          "internalType": "uint256",
          "name": "tokenId",
          "type": "uint256"
        }
      ],
      "name": "Approval",
      "type": "event"
    },
    {
      "anonymous": false,
      "inputs": [
        {
          "indexed": true,
          "internalType": "address",
          "name": "owner",
          "type": "address"
        },
        {
          "indexed": true,
          "internalType": "address",
          "name": "operator",
          "type": "address"
        },
        {
          "indexed": false,
          "internalType": "bool",
          "name": "approved",
          "type": "bool"
        }
      ],
      "name": "ApprovalForAll",
      "type": "event"
    },
    {
      "anonymous": false,
      "inputs": [
        {
          "indexed": true,
          "internalType": "uint256",
          "name": "tokenId",
          "type": "uint256"
        },
        {
          "indexed": false,
          "internalType": "uint256",
          "name": "creditsUsed",
          "type": "uint256"
        },
        {
          "indexed": false,
          "internalType": "uint256",
          "name": "remaining",
          "type": "uint256"
        }
      ],
      "name": "CreditsUsed",
      "type": "event"
    },
    {
      "anonymous": false,
      "inputs": [
        {
          "indexed": true,
          "internalType": "address",
          "name": "previousOwner",
          "type": "address"
        },
        {
          "indexed": true,
          "internalType": "address",
          "name": "newOwner",
          "type": "address"
        }
      ],
      "name": "OwnershipTransferred",
      "type": "event"
    },
    {
      "anonymous": false,
      "inputs": [
        {
          "indexed": true,
          "internalType": "uint256",
          "name": "packageId",
          "type": "uint256"
        },
        {
          "indexed": false,
          "internalType": "uint256",
          "name": "totalCredits",
          "type": "uint256"
        },
        {
          "indexed": false,
          "internalType": "uint256",
          "name": "priceS",
          "type": "uint256"
        },
        {
          "indexed": false,
          "internalType": "uint256",
          "name": "priceUSDC",
          "type": "uint256"
        }
      ],
      "name": "PackageCreated",
      "type": "event"
    },
    {
      "anonymous": false,
      "inputs": [
        {
          "indexed": true,
          "internalType": "address",
          "name": "buyer",
          "type": "address"
        },
        {
          "indexed": true,
          "internalType": "uint256",
          "name": "tokenId",
          "type": "uint256"
        },
        {
          "indexed": false,
          "internalType": "uint256",
          "name": "packageId",
          "type": "uint256"
        },
        {
          "indexed": false,
          "internalType": "uint256",
          "name": "credits",
          "type": "uint256"
        }
      ],
      "name": "PackagePurchased",
      "type": "event"
    },
    {
      "anonymous": false,
      "inputs": [
        {
          "indexed": false,
          "internalType": "address",
          "name": "account",
          "type": "address"
        }
      ],
      "name": "Paused",
      "type": "event"
    },
    {
      "anonymous": false,
      "inputs": [
        {
          "indexed": true,
          "internalType": "uint256",
          "name": "packageId",
          "type": "uint256"
        },
        {
          "indexed": false,
          "internalType": "uint256",
          "name": "newPriceS",
          "type": "uint256"
        }
      ],
      "name": "PriceUpdated",
      "type": "event"
    },
    {
      "anonymous": false,
      "inputs": [
        {
          "indexed": true,
          "internalType": "address",
          "name": "from",
          "type": "address"
        },
        {
          "indexed": true,
          "internalType": "address",
          "name": "to",
          "type": "address"
        },
        {
          "indexed": true,
          "internalType": "uint256",
          "name": "tokenId",
          "type": "uint256"
        }
      ],
      "name": "Transfer",
      "type": "event"
    },
    {
      "anonymous": false,
      "inputs": [
        {
          "indexed": false,
          "internalType": "address",
          "name": "account",
          "type": "address"
        }
      ],
      "name": "Unpaused",
      "type": "event"
    },
    {
      "inputs": [],
      "name": "CREATOR_PACKAGE",
      "outputs": [
        {
          "internalType": "uint256",
          "name": "",
          "type": "uint256"
        }
      ],
      "stateMutability": "view",
      "type": "function"
    },
    {
      "inputs": [],
      "name": "ENTERPRISE_PACKAGE",
      "outputs": [
        {
          "internalType": "uint256",
          "name": "",
          "type": "uint256"
        }
      ],
      "stateMutability": "view",
      "type": "function"
    },
    {
      "inputs": [],
      "name": "PROFESSIONAL_PACKAGE",
      "outputs": [
        {
          "internalType": "uint256",
          "name": "",
          "type": "uint256"
        }
      ],
      "stateMutability": "view",
      "type": "function"
    },
    {
      "inputs": [],
      "name": "STARTER_PACKAGE",
      "outputs": [
        {
          "internalType": "uint256",
          "name": "",
          "type": "uint256"
        }
      ],
      "stateMutability": "view",
      "type": "function"
    },
    {
      "inputs": [],
      "name": "USDC",
      "outputs": [
        {
          "internalType": "contract IERC20",
          "name": "",
          "type": "address"
        }
      ],
      "stateMutability": "view",
      "type": "function"
    },
    {
      "inputs": [
        {
          "internalType": "address",
          "name": "to",
          "type": "address"
        },
        {
          "internalType": "uint256",
          "name": "tokenId",
          "type": "uint256"
        }
      ],
      "name": "approve",
      "outputs": [],
      "stateMutability": "nonpayable",
      "type": "function"
    },
    {
      "inputs": [
        {
          "internalType": "address",
          "name": "owner",
          "type": "address"
        }
      ],
      "name": "balanceOf",
      "outputs": [
        {
          "internalType": "uint256",
          "name": "",
          "type": "uint256"
        }
      ],
      "stateMutability": "view",
      "type": "function"
    },
    {
      "inputs": [],
      "name": "devWallet",
      "outputs": [
        {
          "internalType": "address",
          "name": "",
          "type": "address"
        }
      ],
      "stateMutability": "view",
      "type": "function"
    },
    {
      "inputs": [
        {
          "internalType": "uint256",
          "name": "tokenId",
          "type": "uint256"
        }
      ],
      "name": "getApproved",
      "outputs": [
        {
          "internalType": "address",
          "name": "",
          "type": "address"
        }
      ],
      "stateMutability": "view",
      "type": "function"
    },
    {
      "inputs": [
        {
          "internalType": "uint256",
          "name": "packageId",
          "type": "uint256"
        }
      ],
      "name": "getPackageInfo",
      "outputs": [
        {
          "components": [
            {
              "internalType": "uint256",
              "name": "totalCredits",
              "type": "uint256"
            },
            {
              "internalType": "uint256",
              "name": "priceS",
              "type": "uint256"
            },
            {
              "internalType": "uint256",
              "name": "priceUSDC",
              "type": "uint256"
            },
            {
              "internalType": "bool",
              "name": "isActive",
              "type": "bool"
            },
            {
              "internalType": "string",
              "name": "aiModels",
              "type": "string"
            },
            {
              "internalType": "string",
              "name": "description",
              "type": "string"
            }
          ],
          "internalType": "struct SrvcfloINFTPackagesV2.PackageInfo",
          "name": "",
          "type": "tuple"
        }
      ],
      "stateMutability": "view",
      "type": "function"
    },
    {
      "inputs": [
        {
          "internalType": "uint256",
          "name": "tokenId",
          "type": "uint256"
        }
      ],
      "name": "getRemainingCredits",
      "outputs": [
        {
          "internalType": "uint256",
          "name": "",
          "type": "uint256"
        }
      ],
      "stateMutability": "view",
      "type": "function"
    },
    {
      "inputs": [
        {
          "internalType": "address",
          "name": "owner",
          "type": "address"
        },
        {
          "internalType": "address",
          "name": "operator",
          "type": "address"
        }
      ],
      "name": "isApprovedForAll",
      "outputs": [
        {
          "internalType": "bool",
          "name": "",
          "type": "bool"
        }
      ],
      "stateMutability": "view",
      "type": "function"
    },
    {
      "inputs": [],
      "name": "name",
      "outputs": [
        {
          "internalType": "string",
          "name": "",
          "type": "string"
        }
      ],
      "stateMutability": "view",
      "type": "function"
    },
    {
      "inputs": [],
      "name": "owner",
      "outputs": [
        {
          "internalType": "address",
          "name": "",
          "type": "address"
        }
      ],
      "stateMutability": "view",
      "type": "function"
    },
    {
      "inputs": [
        {
          "internalType": "uint256",
          "name": "tokenId",
          "type": "uint256"
        }
      ],
      "name": "ownerOf",
      "outputs": [
        {
          "internalType": "address",
          "name": "",
          "type": "address"
        }
      ],
      "stateMutability": "view",
      "type": "function"
    },
    {
      "inputs": [
        {
          "internalType": "uint256",
          "name": "",
          "type": "uint256"
        }
      ],
      "name": "packageCredits",
      "outputs": [
        {
          "internalType": "uint256",
          "name": "",
          "type": "uint256"
        }
      ],
      "stateMutability": "view",
      "type": "function"
    },
    {
      "inputs": [
        {
          "internalType": "uint256",
          "name": "",
          "type": "uint256"
        }
      ],
      "name": "packageType",
      "outputs": [
        {
          "internalType": "uint256",
          "name": "",
          "type": "uint256"
        }
      ],
      "stateMutability": "view",
      "type": "function"
    },
    {
      "inputs": [
        {
          "internalType": "uint256",
          "name": "",
          "type": "uint256"
        }
      ],
      "name": "packages",
      "outputs": [
        {
          "internalType": "uint256",
          "name": "totalCredits",
          "type": "uint256"
        },
        {
          "internalType": "uint256",
          "name": "priceS",
          "type": "uint256"
        },
        {
          "internalType": "uint256",
          "name": "priceUSDC",
          "type": "uint256"
        },
        {
          "internalType": "bool",
          "name": "isActive",
          "type": "bool"
        },
        {
          "internalType": "string",
          "name": "aiModels",
          "type": "string"
        },
        {
          "internalType": "string",
          "name": "description",
          "type": "string"
        }
      ],
      "stateMutability": "view",
      "type": "function"
    },
    {
      "inputs": [],
      "name": "pause",
      "outputs": [],
      "stateMutability": "nonpayable",
      "type": "function"
    },
    {
      "inputs": [],
      "name": "paused",
      "outputs": [
        {
          "internalType": "bool",
          "name": "",
          "type": "bool"
        }
      ],
      "stateMutability": "view",
      "type": "function"
    },
    {
      "inputs": [
        {
          "internalType": "uint256",
          "name": "packageId",
          "type": "uint256"
        },
        {
          "internalType": "address",
          "name": "recipient",
          "type": "address"
        }
      ],
      "name": "purchasePackageWithNativeS",
      "outputs": [],
      "stateMutability": "payable",
      "type": "function"
    },
    {
      "inputs": [
        {
          "internalType": "uint256",
          "name": "packageId",
          "type": "uint256"
        },
        {
          "internalType": "address",
          "name": "recipient",
          "type": "address"
        }
      ],
      "name": "purchasePackageWithUSDC",
      "outputs": [],
      "stateMutability": "nonpayable",
      "type": "function"
    },
    {
      "inputs": [],
      "name": "renounceOwnership",
      "outputs": [],
      "stateMutability": "nonpayable",
      "type": "function"
    },
    {
      "inputs": [
        {
          "internalType": "address",
          "name": "from",
          "type": "address"
        },
        {
          "internalType": "address",
          "name": "to",
          "type": "address"
        },
        {
          "internalType": "uint256",
          "name": "tokenId",
          "type": "uint256"
        }
      ],
      "name": "safeTransferFrom",
      "outputs": [],
      "stateMutability": "nonpayable",
      "type": "function"
    },
    {
      "inputs": [
        {
          "internalType": "address",
          "name": "from",
          "type": "address"
        },
        {
          "internalType": "address",
          "name": "to",
          "type": "address"
        },
        {
          "internalType": "uint256",
          "name": "tokenId",
          "type": "uint256"
        },
        {
          "internalType": "bytes",
          "name": "data",
          "type": "bytes"
        }
      ],
      "name": "safeTransferFrom",
      "outputs": [],
      "stateMutability": "nonpayable",
      "type": "function"
    },
    {
      "inputs": [
        {
          "internalType": "address",
          "name": "operator",
          "type": "address"
        },
        {
          "internalType": "bool",
          "name": "approved",
          "type": "bool"
        }
      ],
      "name": "setApprovalForAll",
      "outputs": [],
      "stateMutability": "nonpayable",
      "type": "function"
    },
    {
      "inputs": [],
      "name": "stakingContract",
      "outputs": [
        {
          "internalType": "address",
          "name": "",
          "type": "address"
        }
      ],
      "stateMutability": "view",
      "type": "function"
    },
    {
      "inputs": [
        {
          "internalType": "bytes4",
          "name": "interfaceId",
          "type": "bytes4"
        }
      ],
      "name": "supportsInterface",
      "outputs": [
        {
          "internalType": "bool",
          "name": "",
          "type": "bool"
        }
      ],
      "stateMutability": "view",
      "type": "function"
    },
    {
      "inputs": [],
      "name": "symbol",
      "outputs": [
        {
          "internalType": "string",
          "name": "",
          "type": "string"
        }
      ],
      "stateMutability": "view",
      "type": "function"
    },
    {
      "inputs": [
        {
          "internalType": "uint256",
          "name": "tokenId",
          "type": "uint256"
        }
      ],
      "name": "tokenURI",
      "outputs": [
        {
          "internalType": "string",
          "name": "",
          "type": "string"
        }
      ],
      "stateMutability": "view",
      "type": "function"
    },
    {
      "inputs": [],
      "name": "totalSupply",
      "outputs": [
        {
          "internalType": "uint256",
          "name": "",
          "type": "uint256"
        }
      ],
      "stateMutability": "view",
      "type": "function"
    },
    {
      "inputs": [
        {
          "internalType": "address",
          "name": "from",
          "type": "address"
        },
        {
          "internalType": "address",
          "name": "to",
          "type": "address"
        },
        {
          "internalType": "uint256",
          "name": "tokenId",
          "type": "uint256"
        }
      ],
      "name": "transferFrom",
      "outputs": [],
      "stateMutability": "nonpayable",
      "type": "function"
    },
    {
      "inputs": [
        {
          "internalType": "address",
          "name": "newOwner",
          "type": "address"
        }
      ],
      "name": "transferOwnership",
      "outputs": [],
      "stateMutability": "nonpayable",
      "type": "function"
    },
    {
      "inputs": [],
      "name": "unpause",
      "outputs": [],
      "stateMutability": "nonpayable",
      "type": "function"
    },
    {
      "inputs": [
        {
          "internalType": "address",
          "name": "newDevWallet",
          "type": "address"
        }
      ],
      "name": "updateDevWallet",
      "outputs": [],
      "stateMutability": "nonpayable",
      "type": "function"
    },
    {
      "inputs": [
        {
          "internalType": "uint256",
          "name": "packageId",
          "type": "uint256"
        },
        {
          "internalType": "uint256",
          "name": "newPriceS",
          "type": "uint256"
        }
      ],
      "name": "updatePackagePriceS",
      "outputs": [],
      "stateMutability": "nonpayable",
      "type": "function"
    },
    {
      "inputs": [
        {
          "internalType": "address",
          "name": "newStakingContract",
          "type": "address"
        }
      ],
      "name": "updateStakingContract",
      "outputs": [],
      "stateMutability": "nonpayable",
      "type": "function"
    },
    {
      "inputs": [
        {
          "internalType": "uint256",
          "name": "tokenId",
          "type": "uint256"
        },
        {
          "internalType": "uint256",
          "name": "creditsToUse",
          "type": "uint256"
        }
      ],
      "name": "useCredits",
      "outputs": [],
      "stateMutability": "nonpayable",
      "type": "function"
    },
    {
      "inputs": [],
      "name": "wS_TOKEN",
      "outputs": [
        {
          "internalType": "contract IERC20",
          "name": "",
          "type": "address"
        }
      ],
      "stateMutability": "view",
      "type": "function"
    },
    {
      "inputs": [
        {
          "internalType": "uint256",
          "name": "amount",
          "type": "uint256"
        }
      ],
      "name": "withdrawNativeS",
      "outputs": [],
      "stateMutability": "nonpayable",
      "type": "function"
    },
    {
      "inputs": [
        {
          "internalType": "uint256",
          "name": "amount",
          "type": "uint256"
        }
      ],
      "name": "withdrawUSDC",
      "outputs": [],
      "stateMutability": "nonpayable",
      "type": "function"
    }
  ],
  "bytecode": "0x608060405234611200576131556060813803918261001c81611224565b9384928339810103126112005761003281611249565b9061004b604061004460208401611249565b9201611249565b906100566040611224565b92601c84527f53657276696365466c6f7720414920494e4654205061636b6167657300000000602085015261008b6040611224565b600681526514d19253919560d21b6020820152845190946001600160401b038211610ab15760005490600182811c921680156111f6575b6020831014610a915781601f849311611187575b50602090601f831160011461112157600092611116575b50508160011b916000199060031b1c1916176000555b83516001600160401b038111610ab157600154600181811c9116801561110c575b6020821014610a9157601f81116110a7575b50602094601f821160011461104057948192939495600092611035575b50508160011b916000199060031b1c1916176001555b6001600160a01b0316801561101f57600680546001600160a01b0319811683179091556001600160a01b03167f8be0079c531659141344cd1fd0a4f28419497f9722a3daafe3b4186f6b6457e0600080a36001600755600880546001600160a01b039283166001600160a01b031991821617909155600980549390921692169190911790556101f6611205565b6103e881526020810167de0b6b3a7640000081526040820191624c4b40835260608101600181526102276040611224565b93601b85527f436c6f7564666c6172652041492c204261736963204d6f64656c7300000000006020860152608083019485526102636080611224565b93604185527f5374617274657220414920496d6167652047656e65726174696f6e202d20426160208601527f73696320757361676520666f7220696e646976696475616c2063726561746f726040860152607360f81b606086015260a084019485526001600052600a602052604060002093518455516001840155516002830155600382019051151560ff8019835416911617905560048101925192835160018060401b038111610ab1578154600181811c91168015611015575b6020821014610a9157601f8111610fcd575b506020601f8211600114610f6457819060059596600092610f59575b50508160011b916000199060031b1c19161790555b01905190815160018060401b038111610ab1578154600181811c91168015610f4f575b6020821014610a9157601f8111610f07575b50602092601f8211600114610ea45792819293600092610e99575b50508160011b916000199060031b1c19161790555b6103ce611205565b6127108152602081016808ba52e6fc45e40000815260408201916302faf080835260608101600181526104016060611224565b93603e85527f4f70656e41492044414c4c2d452d322c20466c7578205363686e656c6c2c205360208601527f7461626c6520446966667573696f6e20584c2c2047656d696e692050726f00006040860152608083019485526104636060611224565b93603d85527f43726561746f722041492047656e65726174696f6e202d205072656d69756d2060208601527f6d6f64656c73202b20636f6c6c656374696f6e20696e666c75656e6365000000604086015260a084019485526002600052600a602052604060002093518455516001840155516002830155600382019051151560ff8019835416911617905560048101925192835160018060401b038111610ab1578154600181811c91168015610e8f575b6020821014610a9157601f8111610e47575b506020601f8211600114610dde57819060059596600092610dd3575b50508160011b916000199060031b1c19161790555b01905190815160018060401b038111610ab1578154600181811c91168015610dc9575b6020821014610a9157601f8111610d81575b50602092601f8211600114610d1e5792819293600092610d13575b50508160011b916000199060031b1c19161790555b6105c4611205565b620186a08152602081016822f72c52a4bef4000081526040820191630bebc200835260608101600181526105f86060611224565b93603f85527f4f70656e41492044414c4c2d452d332c20466c7578204465762c20416c6c205060208601527f72656d69756d204d6f64656c732c20566964656f2047656e65726174696f6e0060408601526080830194855261065a6060611224565b93603d85527f50726f66657373696f6e616c2041492047656e65726174696f6e202d2046756c60208601527f6c206d6f64656c2061636365737320666f7220627573696e6573736573000000604086015260a084019485526003600052600a602052604060002093518455516001840155516002830155600382019051151560ff8019835416911617905560048101925192835160018060401b038111610ab1578154600181811c91168015610d09575b6020821014610a9157601f8111610cc1575b506020601f8211600114610c5857819060059596600092610c4d575b50508160011b916000199060031b1c19161790555b01905190815160018060401b038111610ab1578154600181811c91168015610c43575b6020821014610a9157601f8111610bfb575b50602092601f8211600114610b985792819293600092610b8d575b50508160011b916000199060031b1c19161790555b6107bb611205565b620445c0815260208101690106529d7de1133c0000815260408201916359682f00835260608101600181526107f06080611224565b93604985527f4f70656e4149204750542d352c2044414c4c2d452d332c20456e74657270726960208601527f7365204d6f64656c732c20437573746f6d2046696e652d74756e696e672c204160408601526850492041636365737360b81b6060860152608083019485526108646080611224565b93604685527f456e74657270726973652041492047656e65726174696f6e202d20556e6c696d60208601527f69746564206361706162696c697469657320666f72206c61726765206f7065726040860152656174696f6e7360d01b606086015260a084019485526004600052600a602052604060002093518455516001840155516002830155600382019051151560ff8019835416911617905560048101925192835160018060401b038111610ab1578154600181811c91168015610b83575b6020821014610a9157601f8111610b3b575b506020601f8211600114610ad257819060059596600092610ac7575b50508160011b916000199060031b1c19161790555b01905190815160018060401b038111610ab1578154600181811c91168015610aa7575b6020821014610a9157601f8111610a49575b50602092601f82116001146109e657928192936000926109db575b50508160011b916000199060031b1c19161790555b604051611ef7908161125e8239f35b0151905038806109b7565b601f1982169383600052806000209160005b868110610a315750836001959610610a18575b505050811b0190556109cc565b015160001960f88460031b161c19169055388080610a0b565b919260206001819286850151815501940192016109f8565b826000526020600020601f830160051c81019160208410610a87575b601f0160051c01905b818110610a7b575061099c565b60008155600101610a6e565b9091508190610a65565b634e487b7160e01b600052602260045260246000fd5b90607f169061098a565b634e487b7160e01b600052604160045260246000fd5b015190503880610952565b601f1982169583600052816000209660005b818110610b235750916005969791846001959410610b0a575b505050811b019055610967565b015160001960f88460031b161c19169055388080610afd565b83830151895560019098019760209384019301610ae4565b826000526020600020601f830160051c81019160208410610b79575b601f0160051c01905b818110610b6d5750610936565b60008155600101610b60565b9091508190610b57565b90607f1690610924565b01519050388061079e565b601f1982169383600052806000209160005b868110610be35750836001959610610bca575b505050811b0190556107b3565b015160001960f88460031b161c19169055388080610bbd565b91926020600181928685015181550194019201610baa565b826000526020600020601f830160051c81019160208410610c39575b601f0160051c01905b818110610c2d5750610783565b60008155600101610c20565b9091508190610c17565b90607f1690610771565b015190503880610739565b601f1982169583600052816000209660005b818110610ca95750916005969791846001959410610c90575b505050811b01905561074e565b015160001960f88460031b161c19169055388080610c83565b83830151895560019098019760209384019301610c6a565b826000526020600020601f830160051c81019160208410610cff575b601f0160051c01905b818110610cf3575061071d565b60008155600101610ce6565b9091508190610cdd565b90607f169061070b565b0151905038806105a7565b601f1982169383600052806000209160005b868110610d695750836001959610610d50575b505050811b0190556105bc565b015160001960f88460031b161c19169055388080610d43565b91926020600181928685015181550194019201610d30565b826000526020600020601f830160051c81019160208410610dbf575b601f0160051c01905b818110610db3575061058c565b60008155600101610da6565b9091508190610d9d565b90607f169061057a565b015190503880610542565b601f1982169583600052816000209660005b818110610e2f5750916005969791846001959410610e16575b505050811b019055610557565b015160001960f88460031b161c19169055388080610e09565b83830151895560019098019760209384019301610df0565b826000526020600020601f830160051c81019160208410610e85575b601f0160051c01905b818110610e795750610526565b60008155600101610e6c565b9091508190610e63565b90607f1690610514565b0151905038806103b1565b601f1982169383600052806000209160005b868110610eef5750836001959610610ed6575b505050811b0190556103c6565b015160001960f88460031b161c19169055388080610ec9565b91926020600181928685015181550194019201610eb6565b826000526020600020601f830160051c81019160208410610f45575b601f0160051c01905b818110610f395750610396565b60008155600101610f2c565b9091508190610f23565b90607f1690610384565b01519050388061034c565b601f1982169583600052816000209660005b818110610fb55750916005969791846001959410610f9c575b505050811b019055610361565b015160001960f88460031b161c19169055388080610f8f565b83830151895560019098019760209384019301610f76565b826000526020600020601f830160051c8101916020841061100b575b601f0160051c01905b818110610fff5750610330565b60008155600101610ff2565b9091508190610fe9565b90607f169061031e565b631e4fbdf760e01b600052600060045260246000fd5b015190503880610153565b601f198216956001600052806000209160005b88811061108f57508360019596979810611076575b505050811b01600155610169565b015160001960f88460031b161c19169055388080611068565b91926020600181928685015181550194019201611053565b60016000527fb10e2d527612073b26eecdfd717e6a320cf44b4afac2b0732d9fcbe2b7fa0cf6601f830160051c81019160208410611102575b601f0160051c01905b8181106110f65750610136565b600081556001016110e9565b90915081906110e0565b90607f1690610124565b0151905038806100ed565b60008080528281209350601f198516905b81811061116f5750908460019594939210611156575b505050811b01600055610103565b015160001960f88460031b161c19169055388080611148565b92936020600181928786015181550195019301611132565b600080529091507f290decd9548b62a8d60345a988386fc84ba6bc95484008f6362f93160ef3e563601f840160051c810191602085106111ec575b90601f859493920160051c01905b8181106111dd57506100d6565b600081558493506001016111d0565b90915081906111c2565b91607f16916100c2565b600080fd5b6040519060c082016001600160401b03811183821017610ab157604052565b6040519190601f01601f191682016001600160401b03811183821017610ab157604052565b51906001600160a01b03821682036112005756fe608080604052600436101561001357600080fd5b600090813560e01c90816301ffc9a7146115aa5750806306419e301461158e57806306fdde03146114f0578063081812fc146114b3578063095ea7b3146113cb57806318160ddd146113ad5780631816467f1461136d5780631c3499601461129b5780631f557ec41461127157806323b872dd14611259578063260ee66c146111ae5780633347e4d61461116e5780633f4ba83a146110fe57806342842e0e146110ce5780635c5006bb146110b25780635c975abb1461108c5780636352211e1461105b57806364e4ffb414610f605780636f9920cd14610d435780636fbfcf4f14610ce457806370a0823114610c91578063715018a614610c345780637f4cfb3614610c1857806380603d2c1461090b5780638456cb59146108a857806389a30271146108795780638da5cb5b146108505780638ea5220f1461082757806395d89b411461071a578063982de932146106eb578063a22cb4651461064d578063b3b05f0714610605578063b88d4fde14610566578063c216212a146104d9578063c87b56dd1461047d578063d6dfbe1e14610453578063db81f99b1461030f578063e55de2c6146102f3578063e985e9c514610299578063ee99205c146102705763f2fde38b146101e457600080fd5b3461026d57602036600319011261026d576101fd611658565b610205611af9565b6001600160a01b0316801561025957600680546001600160a01b0319811683179091556001600160a01b03167f8be0079c531659141344cd1fd0a4f28419497f9722a3daafe3b4186f6b6457e0600080a380f35b631e4fbdf760e01b82526004829052602482fd5b80fd5b503461026d578060031936011261026d576009546040516001600160a01b039091168152602090f35b503461026d57604036600319011261026d5760406102b5611658565b916102be611673565b9260018060a01b031681526005602052209060018060a01b0316600052602052602060ff604060002054166040519015158152f35b503461026d578060031936011261026d57602060405160048152f35b503461026d57602036600319011261026d5760043561032c611af9565b6040516370a0823160e01b81523060048201526020816024817329219dd400f2bf60e5a23d13be72b486d40388945afa908115610448578391610410575b508161037d6020926103b1941115611a67565b60065460405163a9059cbb60e01b81526001600160a01b039091166004820152602481019190915291829081906044820190565b0381857329219dd400f2bf60e5a23d13be72b486d40388945af18015610405576103d9575080f35b6103fa9060203d6020116103fe575b6103f2818361170b565b810190611aaa565b5080f35b503d6103e8565b6040513d84823e3d90fd5b90506020813d602011610440575b8161042b6020938361170b565b8101031261043c57516103b161036a565b8280fd5b3d915061041e565b6040513d85823e3d90fd5b503461026d57602036600319011261026d5760406020916004358152600c83522054604051908152f35b503461026d57602036600319011261026d5761049a600435611ac2565b50806040516104aa60208261170b565b52506104d56040516104bd60208261170b565b60008152604051918291602083526020830190611617565b0390f35b503461026d57602036600319011261026d576040906004358152600a6020522080546104d560018301549261055860028201549160ff60038201541661052d600561052660048501611749565b9301611749565b936040519788978852602088015260408701521515606086015260c0608086015260c0850190611617565b9083820360a0850152611617565b503461026d57608036600319011261026d57610580611658565b610588611673565b6044356064359167ffffffffffffffff8311610601573660238401121561060157826004013593856105b98661172d565b946105c7604051968761170b565b86865236602488830101116105fd57866105fa9760246020930183890137860101526105f483838361187f565b33611dc1565b80f35b5080fd5b8480fd5b503461026d57602036600319011261026d576040602091600435600d5481111580610644575b61063490611819565b8152600b83522054604051908152f35b5080151561062b565b503461026d57604036600319011261026d57610667611658565b6024359081151580920361043c576001600160a01b03169081156106d7573383526005602052604083208284526020526040832060ff1981541660ff83161790556040519081527f17307eab39ab6107e8899845ad3d59bd9653f200f220920489ca2b5937696c3160203392a380f35b630b61174360e31b83526004829052602483fd5b503461026d578060031936011261026d57602060405173039e2fb66102314ce7b64ce5ce3e5183bc94ad388152f35b503461026d578060031936011261026d576040519080600154908160011c9160018116801561081d575b602084108114610809578386529081156107e25750600114610785575b6104d5846107718186038261170b565b604051918291602083526020830190611617565b600181527fb10e2d527612073b26eecdfd717e6a320cf44b4afac2b0732d9fcbe2b7fa0cf6939250905b8082106107c85750909150810160200161077182610761565b9192600181602092548385880101520191019092916107af565b60ff191660208087019190915292151560051b850190920192506107719150839050610761565b634e487b7160e01b83526022600452602483fd5b92607f1692610744565b503461026d578060031936011261026d576008546040516001600160a01b039091168152602090f35b503461026d578060031936011261026d576006546040516001600160a01b039091168152602090f35b503461026d578060031936011261026d5760206040517329219dd400f2bf60e5a23d13be72b486d40388948152f35b503461026d578060031936011261026d576108c1611af9565b6108c9611b44565b6006805460ff60a01b1916600160a01b1790556040513381527f62e78cea01bee320cd4e420270b5ea74000d11b0c9f74754ebdbfc544b05a25890602090a180f35b503461026d57604036600319011261026d57600435610928611673565b90610931611b22565b610939611b44565b808352600a6020526040832091604051610952816116d9565b83548152600184015460208201526109ab6002850154946040830195865261099e600560ff6003840154169260608601931515845261099360048201611749565b608087015201611749565b60a0840152511515611a26565b8351604051906323b872dd60e01b82523360048301523060248301526044820152602081606481897329219dd400f2bf60e5a23d13be72b486d40388945af18015610ba057610bfb575b50610a0281518484611b64565b935160328102811590828104603214821715610bd3576019830291838304601914811715610be757600f8402938404600f141715610bd35760085460405163a9059cbb60e01b81526001600160a01b039091166004820152606490910460248201526020816044818b7329219dd400f2bf60e5a23d13be72b486d40388945af18015610bc857610bab575b506009546001600160a01b03169182610ae6575b5050507f129a0377f5862974e93e873169fd1e8cf0681916d5b8b04338cb4224af00f02491604091518251948552602085015260018060a01b031692a3600160075580f35b91610afd602092606480610b2b9896049104611db4565b60405163a9059cbb60e01b81526001600160a01b039092166004830152602482015293849081906044820190565b0381897329219dd400f2bf60e5a23d13be72b486d40388945af1918215610ba0577f129a0377f5862974e93e873169fd1e8cf0681916d5b8b04338cb4224af00f02493604093610b81575b829450819350610aa1565b610b999060203d6020116103fe576103f2818361170b565b5038610b76565b6040513d88823e3d90fd5b610bc39060203d6020116103fe576103f2818361170b565b610a8d565b6040513d8a823e3d90fd5b634e487b7160e01b88526011600452602488fd5b634e487b7160e01b89526011600452602489fd5b610c139060203d6020116103fe576103f2818361170b565b6109f5565b503461026d578060031936011261026d57602060405160018152f35b503461026d578060031936011261026d57610c4d611af9565b600680546001600160a01b0319811690915581906001600160a01b03167f8be0079c531659141344cd1fd0a4f28419497f9722a3daafe3b4186f6b6457e08280a380f35b503461026d57602036600319011261026d576001600160a01b03610cb3611658565b168015610cd0578160409160209352600383522054604051908152f35b6322718ad960e21b82526004829052602482fd5b503461026d57602036600319011261026d5780808080600435610d05611af9565b610d1147821115611a67565b6006546001600160a01b0316828215610d3a575bf115610d2e5780f35b604051903d90823e3d90fd5b506108fc610d25565b50604036600319011261026d57600435610d5b611673565b90610d64611b22565b610d6c611b44565b808352600a6020526040832091604051610d85816116d9565b83548152610dc6600185015494602083019586526002810154604084015261099e600560ff6003840154169260608601931515845261099360048201611749565b83513410610f2457610dda81518484611b64565b9360323402341590348104603214821715610bd357606490046019340290348204601914831715610be757600f340292348404600f141715610be75790888080808097969560018060a01b0360085416828215610f1b575bf1156104485760095484926001600160a01b039091169182610ed8575b5050505051803411610ea0575b50507f129a0377f5862974e93e873169fd1e8cf0681916d5b8b04338cb4224af00f02491604091518251948552602085015260018060a01b031692a3600160075580f35b8180610ead81933461185c565b818115610ecf575b3390f115610ec4578438610e5c565b6040513d86823e3d90fd5b506108fc610eb5565b8392610eed8493926064808695049104611db4565b90828215610f12575bf115610f055781388080610e4f565b50604051903d90823e3d90fd5b506108fc610ef6565b506108fc610e32565b60405162461bcd60e51b8152602060048201526014602482015273125b9cdd59999a58da595b9d081c185e5b595b9d60621b6044820152606490fd5b503461026d57602036600319011261026d57604090606060a08351610f84816116d9565b8381528360208201528385820152838382015282608082015201526004358152600a60205220604051610fb6816116d9565b815481526104d5600183015492602083019384526110486002820154916040850192835260ff60038201541660608601901515815261100a6005610ffc60048501611749565b936080890194855201611749565b9360a087019485526040519788976020895251602089015251604088015251606087015251151560808601525160c060a086015260e0850190611617565b9051838203601f190160c0850152611617565b503461026d57602036600319011261026d57602061107a600435611ac2565b6040516001600160a01b039091168152f35b503461026d578060031936011261026d57602060ff60065460a01c166040519015158152f35b503461026d578060031936011261026d57602060405160038152f35b503461026d576105fa6110e03661169f565b90604051926110f060208561170b565b8584526105f483838361187f565b503461026d578060031936011261026d57611117611af9565b60065460ff8160a01c161561115f5760ff60a01b19166006556040513381527f5db9ee0a495bf2e6ff9c91a7834c1ba4fdd244a5e8aa4e537bd38aeae4b073aa90602090a180f35b638dfc202b60e01b8252600482fd5b503461026d57602036600319011261026d57611188611658565b611190611af9565b60018060a01b03166001600160601b0360a01b600954161760095580f35b503461026d576111bd36611689565b6111c5611af9565b818352600a60205260ff6003604085200154161561121b5760207f945c1c4e99aa89f648fbfe3df471b916f719e16d960fcec0737d4d56bd69683891838552600a8252806001604087200155604051908152a280f35b60405162461bcd60e51b8152602060048201526016602482015275141858dad859d948191bd95cc81b9bdd08195e1a5cdd60521b6044820152606490fd5b503461026d576105fa61126b3661169f565b9161187f565b503461026d57602036600319011261026d5760406020916004358152600b83522054604051908152f35b503461026d576112aa36611689565b600d5482111580611364575b6112bf90611819565b818352600b602052806040842054106113285760407f54fd328e77dd121f941e79d52a2685e4ec06193473ddb0e3bfc8d6d559b1313591838552600b60205281852061130c82825461185c565b9055838552600b6020528185205482519182526020820152a280f35b60405162461bcd60e51b8152602060048201526014602482015273496e73756666696369656e74206372656469747360601b6044820152606490fd5b508115156112b6565b503461026d57602036600319011261026d57611387611658565b61138f611af9565b60018060a01b03166001600160601b0360a01b600854161760085580f35b503461026d578060031936011261026d576020600d54604051908152f35b503461026d57604036600319011261026d576113e5611658565b6024356113f181611ac2565b331515806114a0575b80611475575b6114625781906001600160a01b0384811691167f8c5be1e5ebec7d5bd14f71427d1e84f3dd0314c0f7b2291e5b200ac8c7c3b9258680a4825260046020526040822080546001600160a01b0319166001600160a01b0390921691909117905580f35b63a9fbf51f60e01b845233600452602484fd5b506001600160a01b038116845260056020908152604080862033875290915284205460ff1615611400565b506001600160a01b0381163314156113fa565b503461026d57602036600319011261026d576020906004356114d481611ac2565b50815260048252604060018060a01b0391205416604051908152f35b503461026d578060031936011261026d5760405190808054908160011c91600181168015611584575b602084108114610809578386529081156107e25750600114611545576104d5846107718186038261170b565b80805260208120939250905b80821061156a5750909150810160200161077182610761565b919260018160209254838588010152019101909291611551565b92607f1692611519565b503461026d578060031936011261026d57602060405160028152f35b9050346105fd5760203660031901126105fd5760043563ffffffff60e01b811680910361043c57602092506380ac58cd60e01b8114908115611606575b81156115f5575b5015158152f35b6301ffc9a760e01b149050386115ee565b635b5e139f60e01b811491506115e7565b919082519283825260005b848110611643575050826000602080949584010152601f8019910116010190565b80602080928401015182828601015201611622565b600435906001600160a01b038216820361166e57565b600080fd5b602435906001600160a01b038216820361166e57565b604090600319011261166e576004359060243590565b606090600319011261166e576004356001600160a01b038116810361166e57906024356001600160a01b038116810361166e579060443590565b60c0810190811067ffffffffffffffff8211176116f557604052565b634e487b7160e01b600052604160045260246000fd5b90601f8019910116810190811067ffffffffffffffff8211176116f557604052565b67ffffffffffffffff81116116f557601f01601f191660200190565b906040519160008154918260011c9260018116801561180f575b6020851081146117fb578487528693929181156117d95750600114611792575b506117909250038361170b565b565b90506000929192526020600020906000915b8183106117bd5750509060206117909282010138611783565b60209193508060019154838589010152019101909184926117a4565b90506020925061179094915060ff191682840152151560051b82010138611783565b634e487b7160e01b84526022600452602484fd5b93607f1693611763565b1561182057565b60405162461bcd60e51b8152602060048201526014602482015273151bdad95b88191bd95cc81b9bdd08195e1a5cdd60621b6044820152606490fd5b9190820391821161186957565b634e487b7160e01b600052601160045260246000fd5b6001600160a01b0390911691908215611a10576000828152600260205260408120546001600160a01b0316938391859033151580611978575b507fddf252ad1be2c89b69c2b068fc378daa952ba7f163c4a11628f55a4df523b3ef9082611943575b83815260036020526040812060018154019055848152600260205260408120846001600160601b0360a01b82541617905580a46001600160a01b031680830361192957505050565b6364283d7b60e01b60005260045260245260445260646000fd5b600085815260046020526040902080546001600160a01b031916905582815260036020526040812080546000190190556118e1565b9150919250806119c1575b156119925790848492386118b8565b8390856119ab57602491637e27328960e01b8252600452fd5b60449163177e802f60e01b825233600452602452fd5b5033851480156119ef575b806119835750838152600460205260408120546001600160a01b03163314611983565b5084815260056020908152604080832033845290915281205460ff166119cc565b633250574960e11b600052600060045260246000fd5b15611a2d57565b60405162461bcd60e51b81526020600482015260126024820152715061636b616765206e6f742061637469766560701b6044820152606490fd5b15611a6e57565b60405162461bcd60e51b8152602060048201526014602482015273496e73756666696369656e742062616c616e636560601b6044820152606490fd5b9081602091031261166e5751801515810361166e5790565b6000818152600260205260409020546001600160a01b0316908115611ae5575090565b637e27328960e01b60005260045260246000fd5b6006546001600160a01b03163303611b0d57565b63118cdaa760e01b6000523360045260246000fd5b600260075414611b33576002600755565b633ee5aeb560e01b60005260046000fd5b60ff60065460a01c16611b5357565b63d93c066560e01b60005260046000fd5b929190600d546000198114611869576001019182600d55602090604051611b8b838261170b565b600081526001600160a01b038716968715611a105760008681526002855260018060a01b03604082205416878a827fddf252ad1be2c89b69c2b068fc378daa952ba7f163c4a11628f55a4df523b3ef8115159586611d80575b83815260038b5260408082208054600101905585825260028c52812080546001600160a01b0319168517905580a450611d6a573b611c41575b5083600c9394959650600052600b8252604060002055836000525260406000205590565b82611c8091604097969594975180938192630a85bd0160e11b835233600484015260006024840152886044840152608060648401526084830190611617565b038160008b5af18091600091611d2c575b5090611cea5786863d15611ce2573d90611caa8261172d565b91611cb8604051938461170b565b82523d60008284013e5b81519182611cdf5783633250574960e11b60005260045260246000fd5b01fd5b606090611cc2565b939592949193919290916001600160e01b03191663757a42ff60e11b01611d1857508493929190600c611c1d565b633250574960e11b60005260045260246000fd5b8781813d8311611d63575b611d41818361170b565b810103126105fd5751906001600160e01b03198216820361026d575038611c91565b503d611d37565b6339e3563760e11b600052600060045260246000fd5b600085815260046020526040902080546001600160a01b031916905582815260038b52604081208054600019019055611be4565b9190820180921161186957565b823b611dcf575b5050505050565b604051630a85bd0160e11b81526001600160a01b039182166004820152918116602483015260448201939093526080606482015291169160209082908190611e1b906084830190611617565b03816000865af18091600091611ea7575b5090611e8557503d15611e7e573d611e438161172d565b90611e51604051928361170b565b81523d6000602083013e5b80519081611e795782633250574960e11b60005260045260246000fd5b602001fd5b6060611e5c565b6001600160e01b03191663757a42ff60e11b01611d1857503880808080611dc8565b6020813d602011611ee2575b81611ec06020938361170b565b810103126105fd5751906001600160e01b03198216820361026d575038611e2c565b3d9150611eb356fea164736f6c634300081b000a",
  "linkReferences": {},
  "deployedLinkReferences": {}
}