{
  "_format": "hh-sol-artifact-1",
  "contractName": "SrvcfloCreditsNFTMainnet",
  "sourceName": "Contracts/SrvcfloCreditsNFTMainnet.sol",
  "abi": [
    {
      "inputs": [
        {
          "internalType": "address",
          "name": "initialOwner",
          "type": "address"
        }
      ],
      "stateMutability": "nonpayable",
      "type": "constructor"
    },
    {
      "inputs": [
        {
          "internalType": "address",
          "name": "sender",
          "type": "address"
        },
        {
          "internalType": "uint256",
          "name": "balance",
          "type": "uint256"
        },
        {
          "internalType": "uint256",
          "name": "needed",
          "type": "uint256"
        },
        {
          "internalType": "uint256",
          "name": "tokenId",
          "type": "uint256"
        }
      ],
      "name": "ERC1155InsufficientBalance",
      "type": "error"
    },
    {
      "inputs": [
        {
          "internalType": "address",
          "name": "approver",
          "type": "address"
        }
      ],
      "name": "ERC1155InvalidApprover",
      "type": "error"
    },
    {
      "inputs": [
        {
          "internalType": "uint256",
          "name": "idsLength",
          "type": "uint256"
        },
        {
          "internalType": "uint256",
          "name": "valuesLength",
          "type": "uint256"
        }
      ],
      "name": "ERC1155InvalidArrayLength",
      "type": "error"
    },
    {
      "inputs": [
        {
          "internalType": "address",
          "name": "operator",
          "type": "address"
        }
      ],
      "name": "ERC1155InvalidOperator",
      "type": "error"
    },
    {
      "inputs": [
        {
          "internalType": "address",
          "name": "receiver",
          "type": "address"
        }
      ],
      "name": "ERC1155InvalidReceiver",
      "type": "error"
    },
    {
      "inputs": [
        {
          "internalType": "address",
          "name": "sender",
          "type": "address"
        }
      ],
      "name": "ERC1155InvalidSender",
      "type": "error"
    },
    {
      "inputs": [
        {
          "internalType": "address",
          "name": "operator",
          "type": "address"
        },
        {
          "internalType": "address",
          "name": "owner",
          "type": "address"
        }
      ],
      "name": "ERC1155MissingApprovalForAll",
      "type": "error"
    },
    {
      "inputs": [],
      "name": "EnforcedPause",
      "type": "error"
    },
    {
      "inputs": [],
      "name": "ExpectedPause",
      "type": "error"
    },
    {
      "inputs": [
        {
          "internalType": "address",
          "name": "owner",
          "type": "address"
        }
      ],
      "name": "OwnableInvalidOwner",
      "type": "error"
    },
    {
      "inputs": [
        {
          "internalType": "address",
          "name": "account",
          "type": "address"
        }
      ],
      "name": "OwnableUnauthorizedAccount",
      "type": "error"
    },
    {
      "anonymous": false,
      "inputs": [
        {
          "indexed": true,
          "internalType": "address",
          "name": "account",
          "type": "address"
        },
        {
          "indexed": true,
          "internalType": "address",
          "name": "operator",
          "type": "address"
        },
        {
          "indexed": false,
          "internalType": "bool",
          "name": "approved",
          "type": "bool"
        }
      ],
      "name": "ApprovalForAll",
      "type": "event"
    },
    {
      "anonymous": false,
      "inputs": [
        {
          "indexed": true,
          "internalType": "address",
          "name": "previousOwner",
          "type": "address"
        },
        {
          "indexed": true,
          "internalType": "address",
          "name": "newOwner",
          "type": "address"
        }
      ],
      "name": "OwnershipTransferred",
      "type": "event"
    },
    {
      "anonymous": false,
      "inputs": [
        {
          "indexed": false,
          "internalType": "address",
          "name": "account",
          "type": "address"
        }
      ],
      "name": "Paused",
      "type": "event"
    },
    {
      "anonymous": false,
      "inputs": [
        {
          "indexed": true,
          "internalType": "address",
          "name": "operator",
          "type": "address"
        },
        {
          "indexed": true,
          "internalType": "address",
          "name": "from",
          "type": "address"
        },
        {
          "indexed": true,
          "internalType": "address",
          "name": "to",
          "type": "address"
        },
        {
          "indexed": false,
          "internalType": "uint256[]",
          "name": "ids",
          "type": "uint256[]"
        },
        {
          "indexed": false,
          "internalType": "uint256[]",
          "name": "values",
          "type": "uint256[]"
        }
      ],
      "name": "TransferBatch",
      "type": "event"
    },
    {
      "anonymous": false,
      "inputs": [
        {
          "indexed": true,
          "internalType": "address",
          "name": "operator",
          "type": "address"
        },
        {
          "indexed": true,
          "internalType": "address",
          "name": "from",
          "type": "address"
        },
        {
          "indexed": true,
          "internalType": "address",
          "name": "to",
          "type": "address"
        },
        {
          "indexed": false,
          "internalType": "uint256",
          "name": "id",
          "type": "uint256"
        },
        {
          "indexed": false,
          "internalType": "uint256",
          "name": "value",
          "type": "uint256"
        }
      ],
      "name": "TransferSingle",
      "type": "event"
    },
    {
      "anonymous": false,
      "inputs": [
        {
          "indexed": false,
          "internalType": "string",
          "name": "value",
          "type": "string"
        },
        {
          "indexed": true,
          "internalType": "uint256",
          "name": "id",
          "type": "uint256"
        }
      ],
      "name": "URI",
      "type": "event"
    },
    {
      "anonymous": false,
      "inputs": [
        {
          "indexed": false,
          "internalType": "address",
          "name": "account",
          "type": "address"
        }
      ],
      "name": "Unpaused",
      "type": "event"
    },
    {
      "inputs": [
        {
          "internalType": "address",
          "name": "account",
          "type": "address"
        },
        {
          "internalType": "uint256",
          "name": "id",
          "type": "uint256"
        }
      ],
      "name": "balanceOf",
      "outputs": [
        {
          "internalType": "uint256",
          "name": "",
          "type": "uint256"
        }
      ],
      "stateMutability": "view",
      "type": "function"
    },
    {
      "inputs": [
        {
          "internalType": "address[]",
          "name": "accounts",
          "type": "address[]"
        },
        {
          "internalType": "uint256[]",
          "name": "ids",
          "type": "uint256[]"
        }
      ],
      "name": "balanceOfBatch",
      "outputs": [
        {
          "internalType": "uint256[]",
          "name": "",
          "type": "uint256[]"
        }
      ],
      "stateMutability": "view",
      "type": "function"
    },
    {
      "inputs": [
        {
          "internalType": "address",
          "name": "account",
          "type": "address"
        },
        {
          "internalType": "uint256",
          "name": "id",
          "type": "uint256"
        },
        {
          "internalType": "uint256",
          "name": "value",
          "type": "uint256"
        }
      ],
      "name": "burn",
      "outputs": [],
      "stateMutability": "nonpayable",
      "type": "function"
    },
    {
      "inputs": [
        {
          "internalType": "address",
          "name": "account",
          "type": "address"
        },
        {
          "internalType": "uint256[]",
          "name": "ids",
          "type": "uint256[]"
        },
        {
          "internalType": "uint256[]",
          "name": "values",
          "type": "uint256[]"
        }
      ],
      "name": "burnBatch",
      "outputs": [],
      "stateMutability": "nonpayable",
      "type": "function"
    },
    {
      "inputs": [
        {
          "internalType": "uint256",
          "name": "id",
          "type": "uint256"
        }
      ],
      "name": "exists",
      "outputs": [
        {
          "internalType": "bool",
          "name": "",
          "type": "bool"
        }
      ],
      "stateMutability": "view",
      "type": "function"
    },
    {
      "inputs": [
        {
          "internalType": "address",
          "name": "account",
          "type": "address"
        },
        {
          "internalType": "address",
          "name": "operator",
          "type": "address"
        }
      ],
      "name": "isApprovedForAll",
      "outputs": [
        {
          "internalType": "bool",
          "name": "",
          "type": "bool"
        }
      ],
      "stateMutability": "view",
      "type": "function"
    },
    {
      "inputs": [
        {
          "internalType": "address",
          "name": "account",
          "type": "address"
        },
        {
          "internalType": "uint256",
          "name": "id",
          "type": "uint256"
        },
        {
          "internalType": "uint256",
          "name": "amount",
          "type": "uint256"
        },
        {
          "internalType": "bytes",
          "name": "data",
          "type": "bytes"
        }
      ],
      "name": "mint",
      "outputs": [],
      "stateMutability": "nonpayable",
      "type": "function"
    },
    {
      "inputs": [
        {
          "internalType": "address",
          "name": "to",
          "type": "address"
        },
        {
          "internalType": "uint256[]",
          "name": "ids",
          "type": "uint256[]"
        },
        {
          "internalType": "uint256[]",
          "name": "amounts",
          "type": "uint256[]"
        },
        {
          "internalType": "bytes",
          "name": "data",
          "type": "bytes"
        }
      ],
      "name": "mintBatch",
      "outputs": [],
      "stateMutability": "nonpayable",
      "type": "function"
    },
    {
      "inputs": [],
      "name": "owner",
      "outputs": [
        {
          "internalType": "address",
          "name": "",
          "type": "address"
        }
      ],
      "stateMutability": "view",
      "type": "function"
    },
    {
      "inputs": [],
      "name": "pause",
      "outputs": [],
      "stateMutability": "nonpayable",
      "type": "function"
    },
    {
      "inputs": [],
      "name": "paused",
      "outputs": [
        {
          "internalType": "bool",
          "name": "",
          "type": "bool"
        }
      ],
      "stateMutability": "view",
      "type": "function"
    },
    {
      "inputs": [],
      "name": "renounceOwnership",
      "outputs": [],
      "stateMutability": "nonpayable",
      "type": "function"
    },
    {
      "inputs": [
        {
          "internalType": "address",
          "name": "from",
          "type": "address"
        },
        {
          "internalType": "address",
          "name": "to",
          "type": "address"
        },
        {
          "internalType": "uint256[]",
          "name": "ids",
          "type": "uint256[]"
        },
        {
          "internalType": "uint256[]",
          "name": "values",
          "type": "uint256[]"
        },
        {
          "internalType": "bytes",
          "name": "data",
          "type": "bytes"
        }
      ],
      "name": "safeBatchTransferFrom",
      "outputs": [],
      "stateMutability": "nonpayable",
      "type": "function"
    },
    {
      "inputs": [
        {
          "internalType": "address",
          "name": "from",
          "type": "address"
        },
        {
          "internalType": "address",
          "name": "to",
          "type": "address"
        },
        {
          "internalType": "uint256",
          "name": "id",
          "type": "uint256"
        },
        {
          "internalType": "uint256",
          "name": "value",
          "type": "uint256"
        },
        {
          "internalType": "bytes",
          "name": "data",
          "type": "bytes"
        }
      ],
      "name": "safeTransferFrom",
      "outputs": [],
      "stateMutability": "nonpayable",
      "type": "function"
    },
    {
      "inputs": [
        {
          "internalType": "address",
          "name": "operator",
          "type": "address"
        },
        {
          "internalType": "bool",
          "name": "approved",
          "type": "bool"
        }
      ],
      "name": "setApprovalForAll",
      "outputs": [],
      "stateMutability": "nonpayable",
      "type": "function"
    },
    {
      "inputs": [
        {
          "internalType": "string",
          "name": "newuri",
          "type": "string"
        }
      ],
      "name": "setURI",
      "outputs": [],
      "stateMutability": "nonpayable",
      "type": "function"
    },
    {
      "inputs": [
        {
          "internalType": "bytes4",
          "name": "interfaceId",
          "type": "bytes4"
        }
      ],
      "name": "supportsInterface",
      "outputs": [
        {
          "internalType": "bool",
          "name": "",
          "type": "bool"
        }
      ],
      "stateMutability": "view",
      "type": "function"
    },
    {
      "inputs": [],
      "name": "totalSupply",
      "outputs": [
        {
          "internalType": "uint256",
          "name": "",
          "type": "uint256"
        }
      ],
      "stateMutability": "view",
      "type": "function"
    },
    {
      "inputs": [
        {
          "internalType": "uint256",
          "name": "id",
          "type": "uint256"
        }
      ],
      "name": "totalSupply",
      "outputs": [
        {
          "internalType": "uint256",
          "name": "",
          "type": "uint256"
        }
      ],
      "stateMutability": "view",
      "type": "function"
    },
    {
      "inputs": [
        {
          "internalType": "address",
          "name": "newOwner",
          "type": "address"
        }
      ],
      "name": "transferOwnership",
      "outputs": [],
      "stateMutability": "nonpayable",
      "type": "function"
    },
    {
      "inputs": [],
      "name": "unpause",
      "outputs": [],
      "stateMutability": "nonpayable",
      "type": "function"
    },
    {
      "inputs": [
        {
          "internalType": "uint256",
          "name": "",
          "type": "uint256"
        }
      ],
      "name": "uri",
      "outputs": [
        {
          "internalType": "string",
          "name": "",
          "type": "string"
        }
      ],
      "stateMutability": "view",
      "type": "function"
    }
  ],
  "bytecode": "0x60806040523461025a57604051600090611af93881900390601f8201601f191683016001600160401b03811184821017610246579180849260209460405283398101031261024257516001600160a01b038116919082900361023f5760405190606082016001600160401b0381118382101761022b57604052603882527f68747470733a2f2f6170692e73657276696365666c6f7761692e636f6d2f6d6560208301527f7461646174612f637265646974732f7b69647d2e6a736f6e0000000000000000604083015250600254600190600181811c91168015610221575b602082101461020b57601f81116101a4575b50506020906002600052816000209160005b6020811061018c575001516001600160401b03191690556071600255801561017657600380546001600160a01b03198116831790915560405191906001600160a01b03167f8be0079c531659141344cd1fd0a4f28419497f9722a3daafe3b4186f6b6457e0600080a361189990816102608239f35b631e4fbdf760e01b600052600060045260246000fd5b90926020600181928686015181550194019101610101565b6002600052601f0160051c7f405787fa12a823e0f2b7631cc41b3ba8828b3321ca811111fa75cd3aa3bb5ace017f405787fa12a823e0f2b7631cc41b3ba8828b3321ca811111fa75cd3aa3bb5ad05b81811061020057506100ef565b6000815582016101f3565b634e487b7160e01b600052602260045260246000fd5b90607f16906100dd565b634e487b7160e01b82526041600452602482fd5b80fd5b5080fd5b634e487b7160e01b85526041600452602485fd5b600080fdfe6080604052600436101561001257600080fd5b60003560e01c8062fdd58e1461017657806301ffc9a71461017157806302fe53051461016c5780630e89341c1461016757806318160ddd146101625780631f7fdffa1461015d5780632eb2c2d6146101585780633f4ba83a146101535780634e1273f41461014e5780634f558e79146101495780635c975abb146101445780636b20c4541461013f578063715018a61461013a578063731133e9146101355780638456cb59146101305780638da5cb5b1461012b578063a22cb46514610126578063bd85b03914610121578063e985e9c51461011c578063f242432a14610117578063f2fde38b146101125763f5298aca1461010d57600080fd5b610e13565b610d89565b610cbd565b610c60565b610c34565b610b7a565b610b51565b610aef565b610a67565b610a0a565b610928565b610902565b6108d4565b610815565b61075f565b6106d5565b610626565b610579565b61049b565b61031b565b61021f565b6101c0565b600435906001600160a01b038216820361019157565b600080fd5b602435906001600160a01b038216820361019157565b35906001600160a01b038216820361019157565b346101915760403660031901126101915760206102046101de61017b565b6024356000526000835260406000209060018060a01b0316600052602052604060002090565b54604051908152f35b6001600160e01b031981160361019157565b3461019157602036600319011261019157602060043561023e8161020d565b63ffffffff60e01b16636cdb3d1360e11b811490811561027c575b811561026b575b506040519015158152f35b6301ffc9a760e01b14905038610260565b6303a24d0760e21b81149150610259565b634e487b7160e01b600052604160045260246000fd5b90601f801991011681019081106001600160401b038211176102c457604052565b61028d565b6001600160401b0381116102c457601f01601f191660200190565b9291926102f0826102c9565b916102fe60405193846102a3565b829481845281830111610191578281602093846000960137010152565b34610191576020366003190112610191576004356001600160401b03811161019157366023820112156101915761035c9036906024816004013591016102e4565b61036461102a565b80516001600160401b0381116102c45761038881610383600254610eaf565b611053565b602091601f82116001146103c8576103b892600091836103bd575b50508160011b916000199060031b1c19161790565b600255005b0151905038806103a3565b6002600052601f198216927f405787fa12a823e0f2b7631cc41b3ba8828b3321ca811111fa75cd3aa3bb5ace9160005b85811061042e57508360019510610415575b505050811b01600255005b015160001960f88460031b161c1916905538808061040a565b919260206001819286850151815501940192016103f8565b919082519283825260005b848110610472575050826000602080949584010152601f8019910116010190565b80602080928401015182828601015201610451565b906020610498928181520190610446565b90565b346101915760203660031901126101915760405160006002546104bd81610eaf565b808452906001811690811561055557506001146104f5575b6104f1836104e5818503826102a3565b60405191829182610487565b0390f35b91905060026000527f405787fa12a823e0f2b7631cc41b3ba8828b3321ca811111fa75cd3aa3bb5ace916000905b80821061053b575090915081016020016104e56104d5565b919260018160209254838588010152019101909291610523565b60ff191660208086019190915291151560051b840190910191506104e590506104d5565b34610191576000366003190112610191576020600554604051908152f35b6001600160401b0381116102c45760051b60200190565b9080601f830112156101915781356105c581610597565b926105d360405194856102a3565b81845260208085019260051b82010192831161019157602001905b8282106105fb5750505090565b81358152602091820191016105ee565b9080601f8301121561019157816020610498933591016102e4565b346101915760803660031901126101915761063f61017b565b6024356001600160401b0381116101915761065e9036906004016105ae565b6044356001600160401b0381116101915761067d9036906004016105ae565b6064356001600160401b0381116101915761069c90369060040161060b565b916106a561102a565b6001600160a01b038416156106bf576106bd9361118a565b005b632bfa23e760e11b600052600060045260246000fd5b346101915760a0366003190112610191576106ee61017b565b6106f6610196565b906044356001600160401b038111610191576107169036906004016105ae565b6064356001600160401b038111610191576107359036906004016105ae565b90608435936001600160401b038511610191576107596106bd95369060040161060b565b93610ee9565b346101915760003660031901126101915761077861102a565b60035460ff8160a01c16156107bf5760ff60a01b19166003556040513381527f5db9ee0a495bf2e6ff9c91a7834c1ba4fdd244a5e8aa4e537bd38aeae4b073aa90602090a1005b638dfc202b60e01b60005260046000fd5b906020808351928381520192019060005b8181106107ee5750505090565b82518452602093840193909201916001016107e1565b9060206104989281815201906107d0565b34610191576040366003190112610191576004356001600160401b03811161019157366023820112156101915780600401359061085182610597565b9161085f60405193846102a3565b8083526024602084019160051b8301019136831161019157602401905b8282106108bc57836024356001600160401b038111610191576104f1916108aa6108b09236906004016105ae565b90610f72565b60405191829182610804565b602080916108c9846101ac565b81520191019061087c565b3461019157602036600319011261019157600435600052600460205260206040600020541515604051908152f35b3461019157600036600319011261019157602060ff60035460a01c166040519015158152f35b346101915760603660031901126101915761094161017b565b6024356001600160401b038111610191576109609036906004016105ae565b906044356001600160401b038111610191576109809036906004016105ae565b6001600160a01b03821633811415806109e6575b6109ce57156109b9576106bd92604051926109b06020856102a3565b600084526110a6565b626a0d4560e21b600052600060045260246000fd5b63711bec9160e11b6000523360045260245260446000fd5b50600081815260016020908152604080832033845290915290205460ff1615610994565b3461019157600036600319011261019157610a2361102a565b600380546001600160a01b031981169091556000906001600160a01b03167f8be0079c531659141344cd1fd0a4f28419497f9722a3daafe3b4186f6b6457e08280a3005b3461019157608036600319011261019157610a8061017b565b602435604435916064356001600160401b03811161019157610aa690369060040161060b565b91610aaf61102a565b6001600160a01b038216156106bf576106bd93610ae960405192600184526020840152604083019160018352606084015260808301604052565b9161118a565b3461019157600036600319011261019157610b0861102a565b610b106113df565b6003805460ff60a01b1916600160a01b1790556040513381527f62e78cea01bee320cd4e420270b5ea74000d11b0c9f74754ebdbfc544b05a25890602090a1005b34610191576000366003190112610191576003546040516001600160a01b039091168152602090f35b3461019157604036600319011261019157610b9361017b565b602435801515808203610191576001600160a01b038316928315610c1f573360009081526001602090815260408083206001600160a01b039094168352929052209060ff801983541691161790557f17307eab39ab6107e8899845ad3d59bd9653f200f220920489ca2b5937696c3160405180610c1a339482919091602081019215159052565b0390a3005b62ced3e160e81b600052600060045260246000fd5b346101915760203660031901126101915760043560005260046020526020604060002054604051908152f35b3461019157604036600319011261019157602060ff610cb1610c8061017b565b610c88610196565b6001600160a01b0391821660009081526001865260408082209290931681526020919091522090565b54166040519015158152f35b346101915760a036600319011261019157610cd661017b565b610cde610196565b60443590606435926084356001600160401b03811161019157610d0590369060040161060b565b926001600160a01b0382163381141580610d65575b6109ce576001600160a01b038416156106bf57156109b9576106bd94610d5d60405192600184526020840152604083019160018352606084015260808301604052565b9290916112ab565b50600081815260016020908152604080832033845290915290205460ff1615610d1a565b3461019157602036600319011261019157610da261017b565b610daa61102a565b6001600160a01b03168015610dfd57600380546001600160a01b0319811683179091556001600160a01b03167f8be0079c531659141344cd1fd0a4f28419497f9722a3daafe3b4186f6b6457e0600080a3005b631e4fbdf760e01b600052600060045260246000fd5b3461019157606036600319011261019157610e2c61017b565b604435906024356001600160a01b0382163381141580610e8b575b6109ce57156109b9576106bd92610e7b60405192600184526020840152604083019160018352606084015260808301604052565b90604051926109b06020856102a3565b50600081815260016020908152604080832033845290915290205460ff1615610e47565b90600182811c92168015610edf575b6020831014610ec957565b634e487b7160e01b600052602260045260246000fd5b91607f1691610ebe565b939291906001600160a01b0385163381141580610f24575b6109ce576001600160a01b038216156106bf57156109b957610f22946112ab565b565b50600081815260016020908152604080832033845290915290205460ff1615610f01565b8051821015610f5c5760209160051b010190565b634e487b7160e01b600052603260045260246000fd5b91909180518351808203611013575050805190610f8e82610597565b91610f9c60405193846102a3565b808352610fab601f1991610597565b0136602084013760005b815181101561100c5780610ffb60019260051b60208082870101519189010151906000918252602082815260408084206001600160a01b03909316845291905290205490565b6110058286610f48565b5201610fb5565b5090925050565b635b05999160e01b60005260045260245260446000fd5b6003546001600160a01b0316330361103e57565b63118cdaa760e01b6000523360045260246000fd5b601f811161105f575050565b60026000526020600020906020601f840160051c8301931061109c575b601f0160051c01905b818110611090575050565b60008155600101611085565b909150819061107c565b90919392506110b8848360008461168f565b6001600160a01b03161561111d575b6000805b825182101561110b576001908260051b906110fc602080848a01015193870101516000526004602052604060002090565b828154039055019101906110cb565b915050610f2291925060055403600555565b6000805b825182101561116f576111676001918360051b90611155602080848b01015193880101516000526004602052604060002090565b61116083825461166c565b905561166c565b910190611121565b61118591506111809060055461166c565b600555565b6110c7565b9391909161119b828487600061168f565b600094855b84518710156111dc576111d46001918860051b90611155602080848a010151938a0101516000526004602052604060002090565b9601956111a0565b6111f19195949296506111809060055461166c565b6001600160a01b0384161580611248575b1561120e575b50505050565b8051600103611237579060208061122e95930151910151916000336115cc565b38808080611208565b61124393600033611497565b61122e565b9360009591936000965b8551881015611292576001908860051b90611283602080848a010151938a0101516000526004602052604060002090565b82815403905501970196611252565b6112a6919593975095919560055403600555565b611202565b919392906112bb8286838661168f565b6001600160a01b03831615611381575b6001600160a01b0381161580611320575b156112e9575b5050505050565b845160010361130f5760208061130596015192015192336115cc565b38808080806112e2565b61131b94919233611497565b611305565b94936000939091845b8651861015611369576001908660051b9061135a602080848a010151938b0101516000526004602052604060002090565b82815403905501950194611329565b61137c9193969792955060055403600555565b6112dc565b9392600092835b85518510156113c4576113bc6001918660051b90611155602080848a010151938b0101516000526004602052604060002090565b940193611388565b6113da919450611180909692959660055461166c565b6112cb565b60ff60035460a01c166113ee57565b63d93c066560e01b60005260046000fd5b9081602091031261019157516104988161020d565b6001600160a01b0391821681529116602082015260a0604082018190526104989491939192611459929161144b91908601906107d0565b9084820360608601526107d0565b916080818403910152610446565b3d15611492573d90611478826102c9565b9161148660405193846102a3565b82523d6000602084013e565b606090565b9091949293853b6114ab575b505050505050565b6020936114cd91604051968795869563bc197c8160e01b875260048701611414565b038160006001600160a01b0387165af160009181611562575b5061152257506114f4611467565b805191908261151b57632bfa23e760e11b6000526001600160a01b03821660045260246000fd5b6020915001fd5b6001600160e01b0319166343e6837f60e01b0161154557503880808080806114a3565b632bfa23e760e11b6000526001600160a01b031660045260246000fd5b61158591925060203d60201161158c575b61157d81836102a3565b8101906113ff565b90386114e6565b503d611573565b6001600160a01b039182168152911660208201526040810191909152606081019190915260a06080820181905261049892910190610446565b9091949293853b6115df57505050505050565b60209361160191604051968795869563f23a6e6160e01b875260048701611593565b038160006001600160a01b0387165af16000918161164b575b5061162857506114f4611467565b6001600160e01b031916630dc5919f60e01b0161154557503880808080806114a3565b61166591925060203d60201161158c5761157d81836102a3565b903861161a565b9190820180921161167957565b634e487b7160e01b600052601160045260246000fd5b93919261169a6113df565b83518151908181036118505750506001600160a01b038581169485151594918416801515929060005b83518110156117c4578060051b90888887602080868a010151958b0101519261173d575b936001946116f9575b505050016116c3565b6117339161171461172b926000526000602052604060002090565b9060018060a01b0316600052602052604060002090565b91825461166c565b90553888816116f0565b505090916117598c611714836000526000602052604060002090565b5482811061178d578291888e611784600197968e950391611714856000526000602052604060002090565b559094506116e7565b6040516303dee4c560e01b81526001600160a01b038e16600482015260248101919091526044810183905260648101829052608490fd5b50969550965091925050600181511460001461181d5760209081015191810151604080519384529183015233917fc3d58168c5ae7397731d063d5bbf3d657854427343f4c083240f7aacaa2d0f6291819081015b0390a4565b60405133927f4a39dc06d4c0dbc64b70af90fd698a233a518aa5d07e595d983b8c0526c8f7fb9282916118189183611867565b635b05999160e01b60005260045260245260446000fd5b909161187e610498936040845260408401906107d0565b9160208184039101526107d056fea164736f6c634300081b000a",
  "linkReferences": {},
  "deployedLinkReferences": {}
}