{
  "_format": "hh-sol-artifact-1",
  "contractName": "TestBanditKidzNFT",
  "sourceName": "Contracts/TestNFT.sol",
  "abi": [
    {
      "inputs": [],
      "stateMutability": "nonpayable",
      "type": "constructor"
    },
    {
      "anonymous": false,
      "inputs": [
        {
          "indexed": true,
          "internalType": "address",
          "name": "owner",
          "type": "address"
        },
        {
          "indexed": true,
          "internalType": "address",
          "name": "approved",
          "type": "address"
        },
        {
          "indexed": true,
          "internalType": "uint256",
          "name": "tokenId",
          "type": "uint256"
        }
      ],
      "name": "Approval",
      "type": "event"
    },
    {
      "anonymous": false,
      "inputs": [
        {
          "indexed": true,
          "internalType": "address",
          "name": "owner",
          "type": "address"
        },
        {
          "indexed": true,
          "internalType": "address",
          "name": "operator",
          "type": "address"
        },
        {
          "indexed": false,
          "internalType": "bool",
          "name": "approved",
          "type": "bool"
        }
      ],
      "name": "ApprovalForAll",
      "type": "event"
    },
    {
      "anonymous": false,
      "inputs": [
        {
          "indexed": true,
          "internalType": "address",
          "name": "previousOwner",
          "type": "address"
        },
        {
          "indexed": true,
          "internalType": "address",
          "name": "newOwner",
          "type": "address"
        }
      ],
      "name": "OwnershipTransferred",
      "type": "event"
    },
    {
      "anonymous": false,
      "inputs": [
        {
          "indexed": true,
          "internalType": "address",
          "name": "from",
          "type": "address"
        },
        {
          "indexed": true,
          "internalType": "address",
          "name": "to",
          "type": "address"
        },
        {
          "indexed": true,
          "internalType": "uint256",
          "name": "tokenId",
          "type": "uint256"
        }
      ],
      "name": "Transfer",
      "type": "event"
    },
    {
      "inputs": [
        {
          "internalType": "address",
          "name": "to",
          "type": "address"
        },
        {
          "internalType": "uint256",
          "name": "tokenId",
          "type": "uint256"
        }
      ],
      "name": "approve",
      "outputs": [],
      "stateMutability": "nonpayable",
      "type": "function"
    },
    {
      "inputs": [
        {
          "internalType": "address",
          "name": "owner",
          "type": "address"
        }
      ],
      "name": "balanceOf",
      "outputs": [
        {
          "internalType": "uint256",
          "name": "",
          "type": "uint256"
        }
      ],
      "stateMutability": "view",
      "type": "function"
    },
    {
      "inputs": [
        {
          "internalType": "uint256",
          "name": "tokenId",
          "type": "uint256"
        }
      ],
      "name": "getApproved",
      "outputs": [
        {
          "internalType": "address",
          "name": "",
          "type": "address"
        }
      ],
      "stateMutability": "view",
      "type": "function"
    },
    {
      "inputs": [
        {
          "internalType": "address",
          "name": "owner",
          "type": "address"
        },
        {
          "internalType": "address",
          "name": "operator",
          "type": "address"
        }
      ],
      "name": "isApprovedForAll",
      "outputs": [
        {
          "internalType": "bool",
          "name": "",
          "type": "bool"
        }
      ],
      "stateMutability": "view",
      "type": "function"
    },
    {
      "inputs": [
        {
          "internalType": "address",
          "name": "to",
          "type": "address"
        }
      ],
      "name": "mint",
      "outputs": [
        {
          "internalType": "uint256",
          "name": "",
          "type": "uint256"
        }
      ],
      "stateMutability": "nonpayable",
      "type": "function"
    },
    {
      "inputs": [
        {
          "internalType": "address",
          "name": "to",
          "type": "address"
        },
        {
          "internalType": "uint256",
          "name": "amount",
          "type": "uint256"
        }
      ],
      "name": "mintBatch",
      "outputs": [
        {
          "internalType": "uint256[]",
          "name": "",
          "type": "uint256[]"
        }
      ],
      "stateMutability": "nonpayable",
      "type": "function"
    },
    {
      "inputs": [],
      "name": "name",
      "outputs": [
        {
          "internalType": "string",
          "name": "",
          "type": "string"
        }
      ],
      "stateMutability": "view",
      "type": "function"
    },
    {
      "inputs": [],
      "name": "owner",
      "outputs": [
        {
          "internalType": "address",
          "name": "",
          "type": "address"
        }
      ],
      "stateMutability": "view",
      "type": "function"
    },
    {
      "inputs": [
        {
          "internalType": "uint256",
          "name": "tokenId",
          "type": "uint256"
        }
      ],
      "name": "ownerOf",
      "outputs": [
        {
          "internalType": "address",
          "name": "",
          "type": "address"
        }
      ],
      "stateMutability": "view",
      "type": "function"
    },
    {
      "inputs": [
        {
          "internalType": "address",
          "name": "from",
          "type": "address"
        },
        {
          "internalType": "address",
          "name": "to",
          "type": "address"
        },
        {
          "internalType": "uint256",
          "name": "tokenId",
          "type": "uint256"
        }
      ],
      "name": "safeTransferFrom",
      "outputs": [],
      "stateMutability": "nonpayable",
      "type": "function"
    },
    {
      "inputs": [
        {
          "internalType": "address",
          "name": "from",
          "type": "address"
        },
        {
          "internalType": "address",
          "name": "to",
          "type": "address"
        },
        {
          "internalType": "uint256",
          "name": "tokenId",
          "type": "uint256"
        },
        {
          "internalType": "bytes",
          "name": "data",
          "type": "bytes"
        }
      ],
      "name": "safeTransferFrom",
      "outputs": [],
      "stateMutability": "nonpayable",
      "type": "function"
    },
    {
      "inputs": [
        {
          "internalType": "address",
          "name": "operator",
          "type": "address"
        },
        {
          "internalType": "bool",
          "name": "approved",
          "type": "bool"
        }
      ],
      "name": "setApprovalForAll",
      "outputs": [],
      "stateMutability": "nonpayable",
      "type": "function"
    },
    {
      "inputs": [
        {
          "internalType": "bytes4",
          "name": "interfaceId",
          "type": "bytes4"
        }
      ],
      "name": "supportsInterface",
      "outputs": [
        {
          "internalType": "bool",
          "name": "",
          "type": "bool"
        }
      ],
      "stateMutability": "view",
      "type": "function"
    },
    {
      "inputs": [],
      "name": "symbol",
      "outputs": [
        {
          "internalType": "string",
          "name": "",
          "type": "string"
        }
      ],
      "stateMutability": "view",
      "type": "function"
    },
    {
      "inputs": [
        {
          "internalType": "uint256",
          "name": "tokenId",
          "type": "uint256"
        }
      ],
      "name": "tokenURI",
      "outputs": [
        {
          "internalType": "string",
          "name": "",
          "type": "string"
        }
      ],
      "stateMutability": "view",
      "type": "function"
    },
    {
      "inputs": [],
      "name": "totalSupply",
      "outputs": [
        {
          "internalType": "uint256",
          "name": "",
          "type": "uint256"
        }
      ],
      "stateMutability": "view",
      "type": "function"
    },
    {
      "inputs": [
        {
          "internalType": "address",
          "name": "from",
          "type": "address"
        },
        {
          "internalType": "address",
          "name": "to",
          "type": "address"
        },
        {
          "internalType": "uint256",
          "name": "tokenId",
          "type": "uint256"
        }
      ],
      "name": "transferFrom",
      "outputs": [],
      "stateMutability": "nonpayable",
      "type": "function"
    },
    {
      "inputs": [
        {
          "internalType": "address",
          "name": "newOwner",
          "type": "address"
        }
      ],
      "name": "transferOwnership",
      "outputs": [],
      "stateMutability": "nonpayable",
      "type": "function"
    }
  ],
  "bytecode": "0x60806040523461011b57600080546001600160a01b0319163317905560065461002790610120565b601f81116100d1575b507f546573742042616e6469744b69647a000000000000000000000000000000001e60065560075461006190610120565b601f8111610087575b6008632a2125ad60e11b016007556040516114a1908161015b8239f35b6007600052601f0160051c7fa66cc928b5edb82af9bd49922954155ab7b0942694bea4ce44661d9a8736c688908101905b8181106100c5575061006a565b600081556001016100b8565b6006600052601f0160051c7ff652222313e28459528d920b65115c16c04f3efc82aaedc97be59f3f377c0d3f908101905b81811061010f5750610030565b60008155600101610102565b600080fd5b90600182811c92168015610150575b602083101461013a57565b634e487b7160e01b600052602260045260246000fd5b91607f169161012f56fe6080604052600436101561001257600080fd5b60003560e01c806301ffc9a71461013757806306fdde0314610132578063081812fc1461012d578063095ea7b31461012857806318160ddd1461012357806323b872dd1461011e578063248b71fc1461011957806342842e0e146101145780636352211e1461010f5780636a6278421461010a57806370a08231146101055780638da5cb5b1461010057806395d89b41146100fb578063a22cb465146100f6578063b88d4fde146100f1578063c87b56dd146100ec578063e985e9c5146100e75763f2fde38b146100e257600080fd5b610a53565b6109f6565b610920565b610897565b61075e565b6106a6565b61067d565b6105e3565b6105b8565b61059a565b610570565b6104e4565b610481565b610429565b610357565b6102fb565b610205565b610153565b6001600160e01b031981160361014e57565b600080fd5b3461014e57602036600319011261014e5760206004356101728161013c565b63ffffffff60e01b166380ac58cd60e01b8114908115610198575b506040519015158152f35b6301ffc9a760e01b1490503861018d565b60005b8381106101bc5750506000910152565b81810151838201526020016101ac565b906020916101e5815180928185528580860191016101a9565b601f01601f1916010190565b9060206102029281815201906101cc565b90565b3461014e57600036600319011261014e5760405160006006548060011c90600181169081156102f1575b6020831082146102dd5782855260208501919081156102c45750600114610271575b61026d8461026181860382610854565b604051918291826101f1565b0390f35b600660009081529250907ff652222313e28459528d920b65115c16c04f3efc82aaedc97be59f3f377c0d3f5b8184106102b05750500161026182610251565b80548484015260209093019260010161029d565b60ff191682525090151560051b01905061026182610251565b634e487b7160e01b84526022600452602484fd5b91607f169161022f565b3461014e57602036600319011261014e576020610319600435610b2e565b6040516001600160a01b039091168152f35b600435906001600160a01b038216820361014e57565b602435906001600160a01b038216820361014e57565b3461014e57604036600319011261014e5761037061032b565b6024356001600160a01b0361038482610ca8565b16916001600160a01b03811683146103e457826103b393331480156103b5575b6103ae9150610bb7565b610f39565b005b50600090815260046020908152604080832033845290915290206103ae906103df905b5460ff1690565b6103a4565b60405162461bcd60e51b815260206004820152601960248201527f417070726f76616c20746f2063757272656e74206f776e6572000000000000006044820152606490fd5b3461014e57600036600319011261014e576020600554604051908152f35b606090600319011261014e576004356001600160a01b038116810361014e57906024356001600160a01b038116810361014e579060443590565b3461014e576103b361049236610447565b916104a56104a08433610fa5565b610c1c565b6110c0565b602060408183019282815284518094520192019060005b8181106104ce5750505090565b82518452602093840193909201916001016104c1565b3461014e57604036600319011261014e576104fd61032b565b60243561050981610c7a565b916105176040519384610854565b818352601f1961052683610c7a565b0136602085013760005b828110610545576040518061026d86826104aa565b61054e82610d42565b90845181101561056b5760019160208260051b8701015201610530565b610c92565b3461014e576103b361058136610447565b9060405192610591602085610854565b60008452610e86565b3461014e57602036600319011261014e576020610319600435610ca8565b3461014e57602036600319011261014e5760206105db6105d661032b565b610d42565b604051908152f35b3461014e57602036600319011261014e576001600160a01b0361060461032b565b16801561062d57600052600260205261026d604060002054604051918291829190602083019252565b60405162461bcd60e51b815260206004820152602260248201527f42616c616e636520717565727920666f7220746865207a65726f206164647265604482015261737360f01b6064820152608490fd5b3461014e57600036600319011261014e576000546040516001600160a01b039091168152602090f35b3461014e57600036600319011261014e5760405160006007548060011c9060018116908115610754575b6020831082146102dd5782855260208501919081156102c457506001146107015761026d8461026181860382610854565b600760009081529250907fa66cc928b5edb82af9bd49922954155ab7b0942694bea4ce44661d9a8736c6885b8184106107405750500161026182610251565b80548484015260209093019260010161072d565b91607f16916106d0565b3461014e57604036600319011261014e5761077761032b565b602435801515810361014e576001600160a01b0382169133831461080557816107c26107d39233600052600460205260406000209060018060a01b0316600052602052604060002090565b9060ff801983541691151516179055565b604051901515815233907f17307eab39ab6107e8899845ad3d59bd9653f200f220920489ca2b5937696c3190602090a3005b60405162461bcd60e51b815260206004820152601160248201527020b8383937bb32903a379031b0b63632b960791b6044820152606490fd5b634e487b7160e01b600052604160045260246000fd5b90601f8019910116810190811067ffffffffffffffff82111761087657604052565b61083e565b67ffffffffffffffff811161087657601f01601f191660200190565b3461014e57608036600319011261014e576108b061032b565b6108b8610341565b906044356064359267ffffffffffffffff841161014e573660238501121561014e578360040135926108e98461087b565b936108f76040519586610854565b808552366024828801011161014e5760208160009260246103b399018389013786010152610e86565b3461014e57602036600319011261014e576004356000818152600160205260409020546001600160a01b0316156109b1576109a361026161096361026d9361129c565b6040519283917f68747470733a2f2f6170692e746573746e66742e636f6d2f6d657461646174616020840152602f60f81b60408401526041830190610ece565b03601f198101835282610854565b60405162461bcd60e51b815260206004820152601f60248201527f55524920717565727920666f72206e6f6e6578697374656e7420746f6b656e006044820152606490fd5b3461014e57604036600319011261014e57602060ff610a47610a1661032b565b610a1e610341565b6001600160a01b0391821660009081526004865260408082209290931681526020919091522090565b54166040519015158152f35b3461014e57602036600319011261014e57610a6c61032b565b6000546001600160a01b0381169133839003610afd576001600160a01b0316918215610ac95782907f8be0079c531659141344cd1fd0a4f28419497f9722a3daafe3b4186f6b6457e0600080a36001600160a01b03191617600055005b60405162461bcd60e51b815260206004820152600c60248201526b5a65726f206164647265737360a01b6044820152606490fd5b60405162461bcd60e51b81526020600482015260096024820152682737ba1037bbb732b960b91b6044820152606490fd5b6000818152600160205260409020546001600160a01b031615610b66576000908152600360205260409020546001600160a01b031690565b60405162461bcd60e51b8152602060048201526024808201527f417070726f76656420717565727920666f72206e6f6e6578697374656e74207460448201526337b5b2b760e11b6064820152608490fd5b15610bbe57565b60405162461bcd60e51b815260206004820152603060248201527f417070726f76652063616c6c6572206973206e6f74206f776e6572206e6f722060448201526f185c1c1c9bdd995908199bdc88185b1b60821b6064820152608490fd5b15610c2357565b60405162461bcd60e51b815260206004820152602960248201527f5472616e736665722063616c6c6572206973206e6f74206f776e6572206e6f7260448201526808185c1c1c9bdd995960ba1b6064820152608490fd5b67ffffffffffffffff81116108765760051b60200190565b634e487b7160e01b600052603260045260246000fd5b6000908152600160205260409020546001600160a01b03168015610cc95790565b60405162461bcd60e51b815260206004820152602160248201527f4f776e657220717565727920666f72206e6f6e6578697374656e7420746f6b656044820152603760f91b6064820152608490fd5b634e487b7160e01b600052601160045260246000fd5b6000198114610d3d5760010190565b610d18565b610d4d600554610d2e565b6005819055906001600160a01b0381168015610e41576000838152600160205260409020546001600160a01b0316610e05576001600160a01b03821660009081526002602052604090208392610ddc91610da781546110a4565b9055610dbd846000526001602052604060002090565b80546001600160a01b0319166001600160a01b03909216919091179055565b60007fddf252ad1be2c89b69c2b068fc378daa952ba7f163c4a11628f55a4df523b3ef8180a490565b60405162461bcd60e51b8152602060048201526014602482015273151bdad95b88185b1c9958591e481b5a5b9d195960621b6044820152606490fd5b60405162461bcd60e51b815260206004820152601860248201527f4d696e7420746f20746865207a65726f206164647265737300000000000000006044820152606490fd5b90610eaa939291610e9a6104a08433610fa5565b610ea58383836110c0565b6113ca565b15610eb157565b60405162461bcd60e51b815280610eca6004820161120e565b0390fd5b90610ee1602092828151948592016101a9565b0190565b600081815260036020526040812080546001600160a01b03191690556001600160a01b03610f1283610ca8565b167f8c5be1e5ebec7d5bd14f71427d1e84f3dd0314c0f7b2291e5b200ac8c7c3b9258280a4565b600082815260036020526040902080546001600160a01b0319166001600160a01b0383161790556001600160a01b03610f7183610ca8565b6001600160a01b0390921691167f8c5be1e5ebec7d5bd14f71427d1e84f3dd0314c0f7b2291e5b200ac8c7c3b925600080a4565b6000828152600160205260409020546001600160a01b03161561104457610fcb82610ca8565b6001600160a01b038281169082168114938415611026575b50508215610ff057505090565b6001600160a01b0316600090815260046020526040902061020292506103d89160018060a01b0316600052602052604060002090565b61103291929450610b2e565b6001600160a01b031614913880610fe3565b60405162461bcd60e51b8152602060048201526024808201527f4f70657261746f7220717565727920666f72206e6f6e6578697374656e74207460448201526337b5b2b760e11b6064820152608490fd5b600019810191908211610d3d57565b9060018201809211610d3d57565b6030019081603011610d3d57565b6110c983610ca8565b6001600160a01b038083169291168290036111c9576001600160a01b0383169283156111845761111961115d926110ff87610ee5565b6001600160a01b0316600090815260026020526040902090565b6111238154611095565b90556001600160a01b038116600090815260026020526040902061114781546110a4565b9055610dbd856000526001602052604060002090565b7fddf252ad1be2c89b69c2b068fc378daa952ba7f163c4a11628f55a4df523b3ef600080a4565b60405162461bcd60e51b815260206004820152601c60248201527f5472616e7366657220746f20746865207a65726f2061646472657373000000006044820152606490fd5b60405162461bcd60e51b815260206004820152601d60248201527f5472616e736665722066726f6d20696e636f7272656374206f776e65720000006044820152606490fd5b60809060208152602a60208201527f5472616e7366657220746f206e6f6e204552433732315265636569766572206960408201526936b83632b6b2b73a32b960b11b60608201520190565b906112638261087b565b6112706040519182610854565b8281528092611281601f199161087b565b0190602036910137565b90815181101561056b570160200190565b90811561133357600082805b6113145750806112b88492611259565b915b6112c357509150565b6112cf61130d91611095565b936112f86112e86112e2600a84066110b2565b60ff1690565b60f81b6001600160f81b03191690565b60001a611305868561128b565b53600a900490565b92836112ba565b929061132261132a91610d2e565b93600a900490565b809391936112a8565b9050604051611343604082610854565b60018152600360fc1b602082015290565b9081602091031261014e57516102028161013c565b6001600160a01b039182168152911660208201526040810191909152608060608201819052610202929101906101cc565b3d156113c5573d906113ab8261087b565b916113b96040519384610854565b82523d6000602084013e565b606090565b919290803b1561148b576113fb93600060209460405196879586948593630a85bd0160e11b85523360048601611369565b03926001600160a01b03165af16000918161145a575b506114445761141e61139a565b8051908161143f5760405162461bcd60e51b815280610eca6004820161120e565b602001fd5b6001600160e01b031916630a85bd0160e11b1490565b61147d91925060203d602011611484575b6114758183610854565b810190611354565b9038611411565b503d61146b565b5050505060019056fea164736f6c634300081b000a",
  "linkReferences": {},
  "deployedLinkReferences": {}
}