{
  "_format": "hh-sol-artifact-1",
  "contractName": "SonicMainnetPayment",
  "sourceName": "Contracts/SonicMainnetPayment.sol",
  "abi": [
    {
      "inputs": [
        {
          "internalType": "address",
          "name": "initialOwner",
          "type": "address"
        },
        {
          "internalType": "address",
          "name": "_usdc",
          "type": "address"
        },
        {
          "internalType": "address",
          "name": "_wsToken",
          "type": "address"
        },
        {
          "internalType": "address",
          "name": "_creditsNFT",
          "type": "address"
        },
        {
          "internalType": "address",
          "name": "_stakingContract",
          "type": "address"
        },
        {
          "internalType": "address",
          "name": "_devWallet",
          "type": "address"
        }
      ],
      "stateMutability": "nonpayable",
      "type": "constructor"
    },
    {
      "inputs": [],
      "name": "EnforcedPause",
      "type": "error"
    },
    {
      "inputs": [],
      "name": "ExpectedPause",
      "type": "error"
    },
    {
      "inputs": [
        {
          "internalType": "address",
          "name": "owner",
          "type": "address"
        }
      ],
      "name": "OwnableInvalidOwner",
      "type": "error"
    },
    {
      "inputs": [
        {
          "internalType": "address",
          "name": "account",
          "type": "address"
        }
      ],
      "name": "OwnableUnauthorizedAccount",
      "type": "error"
    },
    {
      "inputs": [],
      "name": "ReentrancyGuardReentrantCall",
      "type": "error"
    },
    {
      "inputs": [
        {
          "internalType": "address",
          "name": "token",
          "type": "address"
        }
      ],
      "name": "SafeERC20FailedOperation",
      "type": "error"
    },
    {
      "anonymous": false,
      "inputs": [
        {
          "indexed": true,
          "internalType": "address",
          "name": "user",
          "type": "address"
        },
        {
          "indexed": true,
          "internalType": "uint256",
          "name": "packageId",
          "type": "uint256"
        },
        {
          "indexed": false,
          "internalType": "uint256",
          "name": "credits",
          "type": "uint256"
        },
        {
          "indexed": false,
          "internalType": "address",
          "name": "token",
          "type": "address"
        },
        {
          "indexed": false,
          "internalType": "uint256",
          "name": "amount",
          "type": "uint256"
        }
      ],
      "name": "CreditsPurchased",
      "type": "event"
    },
    {
      "anonymous": false,
      "inputs": [
        {
          "indexed": true,
          "internalType": "address",
          "name": "previousOwner",
          "type": "address"
        },
        {
          "indexed": true,
          "internalType": "address",
          "name": "newOwner",
          "type": "address"
        }
      ],
      "name": "OwnershipTransferred",
      "type": "event"
    },
    {
      "anonymous": false,
      "inputs": [
        {
          "indexed": true,
          "internalType": "uint256",
          "name": "packageId",
          "type": "uint256"
        },
        {
          "indexed": false,
          "internalType": "uint256",
          "name": "usdcPrice",
          "type": "uint256"
        },
        {
          "indexed": false,
          "internalType": "uint256",
          "name": "usdcCredits",
          "type": "uint256"
        },
        {
          "indexed": false,
          "internalType": "uint256",
          "name": "wsCredits",
          "type": "uint256"
        }
      ],
      "name": "PackageUpdated",
      "type": "event"
    },
    {
      "anonymous": false,
      "inputs": [
        {
          "indexed": false,
          "internalType": "address",
          "name": "account",
          "type": "address"
        }
      ],
      "name": "Paused",
      "type": "event"
    },
    {
      "anonymous": false,
      "inputs": [
        {
          "indexed": false,
          "internalType": "address",
          "name": "account",
          "type": "address"
        }
      ],
      "name": "Unpaused",
      "type": "event"
    },
    {
      "inputs": [],
      "name": "USDC",
      "outputs": [
        {
          "internalType": "contract IERC20",
          "name": "",
          "type": "address"
        }
      ],
      "stateMutability": "view",
      "type": "function"
    },
    {
      "inputs": [],
      "name": "WS_TOKEN",
      "outputs": [
        {
          "internalType": "contract IERC20",
          "name": "",
          "type": "address"
        }
      ],
      "stateMutability": "view",
      "type": "function"
    },
    {
      "inputs": [
        {
          "internalType": "uint256",
          "name": "",
          "type": "uint256"
        }
      ],
      "name": "creditPackages",
      "outputs": [
        {
          "internalType": "uint256",
          "name": "usdcPrice",
          "type": "uint256"
        },
        {
          "internalType": "uint256",
          "name": "usdcCredits",
          "type": "uint256"
        },
        {
          "internalType": "uint256",
          "name": "wsCredits",
          "type": "uint256"
        },
        {
          "internalType": "bool",
          "name": "active",
          "type": "bool"
        }
      ],
      "stateMutability": "view",
      "type": "function"
    },
    {
      "inputs": [],
      "name": "creditsNFT",
      "outputs": [
        {
          "internalType": "contract SrvcfloCreditsNFTMainnet",
          "name": "",
          "type": "address"
        }
      ],
      "stateMutability": "view",
      "type": "function"
    },
    {
      "inputs": [],
      "name": "devWallet",
      "outputs": [
        {
          "internalType": "address",
          "name": "",
          "type": "address"
        }
      ],
      "stateMutability": "view",
      "type": "function"
    },
    {
      "inputs": [
        {
          "internalType": "address",
          "name": "token",
          "type": "address"
        },
        {
          "internalType": "uint256",
          "name": "amount",
          "type": "uint256"
        }
      ],
      "name": "emergencyWithdraw",
      "outputs": [],
      "stateMutability": "nonpayable",
      "type": "function"
    },
    {
      "inputs": [],
      "name": "owner",
      "outputs": [
        {
          "internalType": "address",
          "name": "",
          "type": "address"
        }
      ],
      "stateMutability": "view",
      "type": "function"
    },
    {
      "inputs": [],
      "name": "pause",
      "outputs": [],
      "stateMutability": "nonpayable",
      "type": "function"
    },
    {
      "inputs": [],
      "name": "paused",
      "outputs": [
        {
          "internalType": "bool",
          "name": "",
          "type": "bool"
        }
      ],
      "stateMutability": "view",
      "type": "function"
    },
    {
      "inputs": [
        {
          "internalType": "uint256",
          "name": "packageId",
          "type": "uint256"
        }
      ],
      "name": "purchaseCreditsWithUSDC",
      "outputs": [],
      "stateMutability": "nonpayable",
      "type": "function"
    },
    {
      "inputs": [
        {
          "internalType": "uint256",
          "name": "packageId",
          "type": "uint256"
        },
        {
          "internalType": "uint256",
          "name": "wsAmount",
          "type": "uint256"
        }
      ],
      "name": "purchaseCreditsWithWS",
      "outputs": [],
      "stateMutability": "nonpayable",
      "type": "function"
    },
    {
      "inputs": [],
      "name": "renounceOwnership",
      "outputs": [],
      "stateMutability": "nonpayable",
      "type": "function"
    },
    {
      "inputs": [],
      "name": "stakingContract",
      "outputs": [
        {
          "internalType": "address",
          "name": "",
          "type": "address"
        }
      ],
      "stateMutability": "view",
      "type": "function"
    },
    {
      "inputs": [
        {
          "internalType": "address",
          "name": "newOwner",
          "type": "address"
        }
      ],
      "name": "transferOwnership",
      "outputs": [],
      "stateMutability": "nonpayable",
      "type": "function"
    },
    {
      "inputs": [],
      "name": "unpause",
      "outputs": [],
      "stateMutability": "nonpayable",
      "type": "function"
    },
    {
      "inputs": [
        {
          "internalType": "uint256",
          "name": "packageId",
          "type": "uint256"
        },
        {
          "internalType": "uint256",
          "name": "usdcPrice",
          "type": "uint256"
        },
        {
          "internalType": "uint256",
          "name": "usdcCredits",
          "type": "uint256"
        },
        {
          "internalType": "uint256",
          "name": "wsCredits",
          "type": "uint256"
        },
        {
          "internalType": "bool",
          "name": "active",
          "type": "bool"
        }
      ],
      "name": "updatePackage",
      "outputs": [],
      "stateMutability": "nonpayable",
      "type": "function"
    }
  ],
  "bytecode": "0x6101206040523461049f57604051601f6111cd38819003918201601f19168301916001600160401b038311848410176104a45780849260c09460405283398101031261049f5761004e816104d9565b9061005b602082016104d9565b91610068604083016104d9565b610074606084016104d9565b9061008d60a0610086608087016104d9565b95016104d9565b946001600160a01b03841680156104895760008054610100600160a81b03198116600897881b610100600160a81b0316178255604051961c6001600160a01b0316907f8be0079c531659141344cd1fd0a4f28419497f9722a3daafe3b4186f6b6457e09080a3600180556001600160a01b031692831561044757506001600160a01b0316908115610402576001600160a01b03169182156103bd576001600160a01b03841615610378576001600160a01b038516156103335760805260a05260c05260e0526101005261015e6104ba565b624c4b408152600360208201916102ee8352604081016103e8815260608201936001855260016000526002602052604060002092518355516001830155516002820155019051151560ff801983541691161790556101ba6104ba565b6302faf080815260036020820191611f40835260408101612710815260608201936001855260026000526002602052604060002092518355516001830155516002820155019051151560ff801983541691161790556102176104ba565b631dcd6500815260036020820191620186a08352604081016201c1388152606082019360018552836000526002602052604060002092518355516001830155516002820155019051151560ff801983541691161790556102756104ba565b634a817c808152600360208201916203f7a083526040810162046cd0815260608201936001855260046000526002602052604060002092518355516001830155516002820155019051151560ff80198354169116179055604051610cdf90816104ee823960805181818161022b01526107e4015260a051818181610446015261054f015260c051818181610276015281816105940152610882015260e05181818161017e0152610c080152610100518181816107740152610c320152f35b60405162461bcd60e51b815260206004820152601a60248201527f496e76616c6964206465762077616c6c657420616464726573730000000000006044820152606490fd5b60405162461bcd60e51b815260206004820152601760248201527f496e76616c6964207374616b696e6720616464726573730000000000000000006044820152606490fd5b60405162461bcd60e51b815260206004820152601b60248201527f496e76616c69642063726564697473204e4654206164647265737300000000006044820152606490fd5b60405162461bcd60e51b815260206004820152601860248201527f496e76616c696420775320746f6b656e206164647265737300000000000000006044820152606490fd5b62461bcd60e51b815260206004820152601460248201527f496e76616c6964205553444320616464726573730000000000000000000000006044820152606490fd5b631e4fbdf760e01b600052600060045260246000fd5b600080fd5b634e487b7160e01b600052604160045260246000fd5b60405190608082016001600160401b038111838210176104a457604052565b51906001600160a01b038216820361049f5756fe6080604052600436101561001257600080fd5b6000803560e01c80633f4ba83a146109315780635c975abb1461090f578063715018a6146108b15780637356ea871461086c5780638456cb591461081357806389a30271146107ce5780638da5cb5b146107a35780638ea5220f1461075e57806395ccea67146106d1578063bfcc0a56146104c7578063d124d1bc14610475578063ddeb1c8c14610430578063e342a5131461036a578063e3512583146101ad578063ee99205c146101685763f2fde38b146100cd57600080fd5b34610165576020366003190112610165576100e6610997565b6100ee610a85565b6001600160a01b038116908115610151578254610100600160a81b03198116600892831b610100600160a81b0316178455901c6001600160a01b03167f8be0079c531659141344cd1fd0a4f28419497f9722a3daafe3b4186f6b6457e08380a380f35b631e4fbdf760e01b83526004839052602483fd5b80fd5b50346101655780600319360112610165576040517f00000000000000000000000000000000000000000000000000000000000000006001600160a01b03168152602090f35b5034610165576020366003190112610165576004356101ca610af3565b6101d2610b10565b808252600260205260408220604051906101eb826109b2565b8054825261021d60ff600360018401549360208601948552600281015460408701520154161515806060850152610a06565b61022982511515610a47565b7f00000000000000000000000000000000000000000000000000000000000000006102578351303384610b32565b82516001600160a01b0390911690610270908290610b99565b815185907f00000000000000000000000000000000000000000000000000000000000000006001600160a01b0316803b156103665760405163731133e960e01b815233600482015260248101889052604481019290925260806064830152600060848301528290829060a490829084905af1801561035b57610342575b505090519151604080519384526001600160a01b0390921660208401529082015233907f56db9ee4117df1bc33b66e390f6fc953e7211bf8561653891b545db9a5ce6b559080606081015b0390a36001805580f35b8161034c916109e4565b6103575784386102ed565b8480fd5b6040513d84823e3d90fd5b8280fd5b50346101655760a03660031901126101655760043560243560443590606435906084359182151580930361042c577fcf3c45a1b96aafd224a5f311d810fd3e2ac9bf44bc27d3b260a2c5300173f66b936060936103c5610a85565b60036040516103d3816109b2565b8581526020810184815260408201908682528883019485528a8c52600260205260408c2092518355516001830155516002820155019051151560ff8019835416911617905560405192835260208301526040820152a280f35b8580fd5b50346101655780600319360112610165576040517f00000000000000000000000000000000000000000000000000000000000000006001600160a01b03168152602090f35b5034610165576020366003190112610165576040608091600435815260026020522080549060018101549060ff6003600283015492015416916040519384526020840152604083015215156060820152f35b5034610165576040366003190112610165576004356024356104e7610af3565b6104ef610b10565b8183526002602052604083209061053b606060405161050d816109b2565b845481526001850154602082015260ff60036002870154966040840197885201541615159182910152610a06565b61054782511515610a47565b8015610698577f000000000000000000000000000000000000000000000000000000000000000061057a82303384610b32565b6001600160a01b03169161058e8383610b99565b805185907f00000000000000000000000000000000000000000000000000000000000000006001600160a01b031690813b156103665760405163731133e960e01b815233600482015260248101889052604481019190915260806064820152600060848201529190829060a490829084905af1801561068d57610657575b5051604080519182526001600160a01b0390931660208201529182015233907f56db9ee4117df1bc33b66e390f6fc953e7211bf8561653891b545db9a5ce6b55908060608101610338565b94610685817f56db9ee4117df1bc33b66e390f6fc953e7211bf8561653891b545db9a5ce6b559493976109e4565b94909161060c565b6040513d88823e3d90fd5b60405162461bcd60e51b8152602060048201526011602482015270125b9d985b1a59081dd4c8185b5bdd5b9d607a1b6044820152606490fd5b503461016557604036600319011261016557806106ec610997565b602435906106f8610a85565b6001600160a01b031680610742575081548291829182919060081c6001600160a01b0316828215610739575bf11561072d5780f35b604051903d90823e3d90fd5b506108fc610724565b835461075b935060081c6001600160a01b031690610ab1565b80f35b50346101655780600319360112610165576040517f00000000000000000000000000000000000000000000000000000000000000006001600160a01b03168152602090f35b50346101655780600319360112610165575460405160089190911c6001600160a01b03168152602090f35b50346101655780600319360112610165576040517f00000000000000000000000000000000000000000000000000000000000000006001600160a01b03168152602090f35b503461016557806003193601126101655761082c610a85565b610834610af3565b600160ff198254161781557f62e78cea01bee320cd4e420270b5ea74000d11b0c9f74754ebdbfc544b05a2586020604051338152a180f35b50346101655780600319360112610165576040517f00000000000000000000000000000000000000000000000000000000000000006001600160a01b03168152602090f35b50346101655780600319360112610165576108ca610a85565b8054610100600160a81b031981168255819060081c6001600160a01b03167f8be0079c531659141344cd1fd0a4f28419497f9722a3daafe3b4186f6b6457e08280a380f35b503461016557806003193601126101655760ff60209154166040519015158152f35b503461016557806003193601126101655761094a610a85565b805460ff8116156109885760ff191681557f5db9ee0a495bf2e6ff9c91a7834c1ba4fdd244a5e8aa4e537bd38aeae4b073aa6020604051338152a180f35b638dfc202b60e01b8252600482fd5b600435906001600160a01b03821682036109ad57565b600080fd5b6080810190811067ffffffffffffffff8211176109ce57604052565b634e487b7160e01b600052604160045260246000fd5b90601f8019910116810190811067ffffffffffffffff8211176109ce57604052565b15610a0d57565b60405162461bcd60e51b81526020600482015260126024820152715061636b616765206e6f742061637469766560701b6044820152606490fd5b15610a4e57565b60405162461bcd60e51b815260206004820152600f60248201526e496e76616c6964207061636b61676560881b6044820152606490fd5b60005460081c6001600160a01b03163303610a9c57565b63118cdaa760e01b6000523360045260246000fd5b60405163a9059cbb60e01b60208201526001600160a01b039092166024830152604480830193909352918152610af191610aec6064836109e4565b610c6b565b565b60ff60005416610aff57565b63d93c066560e01b60005260046000fd5b600260015414610b21576002600155565b633ee5aeb560e01b60005260046000fd5b6040516323b872dd60e01b60208201526001600160a01b039283166024820152929091166044830152606480830193909352918152610af191610aec6084836109e4565b91908203918211610b8357565b634e487b7160e01b600052601160045260246000fd5b6001600160a01b039091169080159060198082029082820414831715610b8357606490049160328202828104603214821715610b83576064900491600f810291818304600f141715610b8357610c05610c2d91610c0085610c006064899704988994610b76565b610b76565b917f000000000000000000000000000000000000000000000000000000000000000086610ab1565b610c597f0000000000000000000000000000000000000000000000000000000000000000928386610ab1565b8201809211610b8357610af192610ab1565b906000602091828151910182855af115610cc6576000513d610cbd57506001600160a01b0381163b155b610c9c5750565b635274afe760e01b60009081526001600160a01b0391909116600452602490fd5b60011415610c95565b6040513d6000823e3d90fdfea164736f6c634300081b000a",
  "linkReferences": {},
  "deployedLinkReferences": {}
}