{
  "_format": "hh-sol-artifact-1",
  "contractName": "SonicMainnetPaymentWithOracle",
  "sourceName": "Contracts/SonicMainnetPaymentWithOracle.sol",
  "abi": [
    {
      "inputs": [
        {
          "internalType": "address",
          "name": "initialOwner",
          "type": "address"
        },
        {
          "internalType": "address",
          "name": "_usdc",
          "type": "address"
        },
        {
          "internalType": "address payable",
          "name": "_creditsNFT",
          "type": "address"
        },
        {
          "internalType": "address",
          "name": "_stakingContract",
          "type": "address"
        },
        {
          "internalType": "address",
          "name": "_devWallet",
          "type": "address"
        }
      ],
      "stateMutability": "nonpayable",
      "type": "constructor"
    },
    {
      "inputs": [],
      "name": "EnforcedPause",
      "type": "error"
    },
    {
      "inputs": [],
      "name": "ExpectedPause",
      "type": "error"
    },
    {
      "inputs": [
        {
          "internalType": "address",
          "name": "owner",
          "type": "address"
        }
      ],
      "name": "OwnableInvalidOwner",
      "type": "error"
    },
    {
      "inputs": [
        {
          "internalType": "address",
          "name": "account",
          "type": "address"
        }
      ],
      "name": "OwnableUnauthorizedAccount",
      "type": "error"
    },
    {
      "inputs": [],
      "name": "ReentrancyGuardReentrantCall",
      "type": "error"
    },
    {
      "anonymous": false,
      "inputs": [
        {
          "indexed": true,
          "internalType": "address",
          "name": "user",
          "type": "address"
        },
        {
          "indexed": false,
          "internalType": "uint256",
          "name": "packageId",
          "type": "uint256"
        },
        {
          "indexed": false,
          "internalType": "uint256",
          "name": "creditsReceived",
          "type": "uint256"
        },
        {
          "indexed": false,
          "internalType": "uint256",
          "name": "sonicPaid",
          "type": "uint256"
        },
        {
          "indexed": false,
          "internalType": "uint256",
          "name": "usdValue",
          "type": "uint256"
        }
      ],
      "name": "CreditsPurchasedSonic",
      "type": "event"
    },
    {
      "anonymous": false,
      "inputs": [
        {
          "indexed": true,
          "internalType": "address",
          "name": "user",
          "type": "address"
        },
        {
          "indexed": false,
          "internalType": "uint256",
          "name": "packageId",
          "type": "uint256"
        },
        {
          "indexed": false,
          "internalType": "uint256",
          "name": "creditsReceived",
          "type": "uint256"
        },
        {
          "indexed": false,
          "internalType": "uint256",
          "name": "usdcPaid",
          "type": "uint256"
        }
      ],
      "name": "CreditsPurchasedUSDC",
      "type": "event"
    },
    {
      "anonymous": false,
      "inputs": [
        {
          "indexed": true,
          "internalType": "address",
          "name": "user",
          "type": "address"
        },
        {
          "indexed": false,
          "internalType": "uint256",
          "name": "credits",
          "type": "uint256"
        },
        {
          "indexed": false,
          "internalType": "string",
          "name": "generationType",
          "type": "string"
        },
        {
          "indexed": false,
          "internalType": "uint256",
          "name": "generationId",
          "type": "uint256"
        }
      ],
      "name": "CreditsSpent",
      "type": "event"
    },
    {
      "anonymous": false,
      "inputs": [
        {
          "indexed": true,
          "internalType": "address",
          "name": "previousOwner",
          "type": "address"
        },
        {
          "indexed": true,
          "internalType": "address",
          "name": "newOwner",
          "type": "address"
        }
      ],
      "name": "OwnershipTransferred",
      "type": "event"
    },
    {
      "anonymous": false,
      "inputs": [
        {
          "indexed": true,
          "internalType": "uint256",
          "name": "packageId",
          "type": "uint256"
        },
        {
          "indexed": false,
          "internalType": "uint256",
          "name": "usdcPrice",
          "type": "uint256"
        },
        {
          "indexed": false,
          "internalType": "uint256",
          "name": "usdValueForS",
          "type": "uint256"
        },
        {
          "indexed": false,
          "internalType": "uint256",
          "name": "usdcCredits",
          "type": "uint256"
        },
        {
          "indexed": false,
          "internalType": "uint256",
          "name": "sonicCredits",
          "type": "uint256"
        }
      ],
      "name": "PackageUpdated",
      "type": "event"
    },
    {
      "anonymous": false,
      "inputs": [
        {
          "indexed": false,
          "internalType": "address",
          "name": "account",
          "type": "address"
        }
      ],
      "name": "Paused",
      "type": "event"
    },
    {
      "anonymous": false,
      "inputs": [
        {
          "indexed": false,
          "internalType": "address",
          "name": "account",
          "type": "address"
        }
      ],
      "name": "Unpaused",
      "type": "event"
    },
    {
      "stateMutability": "payable",
      "type": "fallback"
    },
    {
      "inputs": [],
      "name": "BEEFY_ORACLE",
      "outputs": [
        {
          "internalType": "contract IBeefyOracle",
          "name": "",
          "type": "address"
        }
      ],
      "stateMutability": "view",
      "type": "function"
    },
    {
      "inputs": [],
      "name": "S_TOKEN_FOR_ORACLE",
      "outputs": [
        {
          "internalType": "address",
          "name": "",
          "type": "address"
        }
      ],
      "stateMutability": "view",
      "type": "function"
    },
    {
      "inputs": [],
      "name": "USDC",
      "outputs": [
        {
          "internalType": "contract IERC20",
          "name": "",
          "type": "address"
        }
      ],
      "stateMutability": "view",
      "type": "function"
    },
    {
      "inputs": [
        {
          "internalType": "uint256",
          "name": "",
          "type": "uint256"
        }
      ],
      "name": "creditPackages",
      "outputs": [
        {
          "internalType": "uint256",
          "name": "usdcPrice",
          "type": "uint256"
        },
        {
          "internalType": "uint256",
          "name": "usdValueForS",
          "type": "uint256"
        },
        {
          "internalType": "uint256",
          "name": "usdcCredits",
          "type": "uint256"
        },
        {
          "internalType": "uint256",
          "name": "sonicCredits",
          "type": "uint256"
        },
        {
          "internalType": "bool",
          "name": "active",
          "type": "bool"
        }
      ],
      "stateMutability": "view",
      "type": "function"
    },
    {
      "inputs": [],
      "name": "creditsNFT",
      "outputs": [
        {
          "internalType": "contract SrvcfloCreditsNFTWithRoyalties",
          "name": "",
          "type": "address"
        }
      ],
      "stateMutability": "view",
      "type": "function"
    },
    {
      "inputs": [],
      "name": "currentGenerationId",
      "outputs": [
        {
          "internalType": "uint256",
          "name": "",
          "type": "uint256"
        }
      ],
      "stateMutability": "view",
      "type": "function"
    },
    {
      "inputs": [],
      "name": "devWallet",
      "outputs": [
        {
          "internalType": "address",
          "name": "",
          "type": "address"
        }
      ],
      "stateMutability": "view",
      "type": "function"
    },
    {
      "inputs": [],
      "name": "emergencyWithdraw",
      "outputs": [],
      "stateMutability": "nonpayable",
      "type": "function"
    },
    {
      "inputs": [
        {
          "internalType": "address",
          "name": "token",
          "type": "address"
        },
        {
          "internalType": "uint256",
          "name": "amount",
          "type": "uint256"
        }
      ],
      "name": "emergencyWithdrawERC20",
      "outputs": [],
      "stateMutability": "nonpayable",
      "type": "function"
    },
    {
      "inputs": [
        {
          "internalType": "uint256",
          "name": "packageId",
          "type": "uint256"
        }
      ],
      "name": "getPackageWithDynamicPricing",
      "outputs": [
        {
          "internalType": "uint256",
          "name": "usdcPrice",
          "type": "uint256"
        },
        {
          "internalType": "uint256",
          "name": "usdValueForS",
          "type": "uint256"
        },
        {
          "internalType": "uint256",
          "name": "currentSTokensRequired",
          "type": "uint256"
        },
        {
          "internalType": "uint256",
          "name": "usdcCredits",
          "type": "uint256"
        },
        {
          "internalType": "uint256",
          "name": "sonicCredits",
          "type": "uint256"
        },
        {
          "internalType": "bool",
          "name": "active",
          "type": "bool"
        }
      ],
      "stateMutability": "view",
      "type": "function"
    },
    {
      "inputs": [
        {
          "internalType": "uint256",
          "name": "packageId",
          "type": "uint256"
        }
      ],
      "name": "getRequiredSTokensForPackage",
      "outputs": [
        {
          "internalType": "uint256",
          "name": "sTokensRequired",
          "type": "uint256"
        },
        {
          "internalType": "uint256",
          "name": "currentPrice",
          "type": "uint256"
        }
      ],
      "stateMutability": "view",
      "type": "function"
    },
    {
      "inputs": [
        {
          "internalType": "address",
          "name": "user",
          "type": "address"
        },
        {
          "internalType": "uint256",
          "name": "packageId",
          "type": "uint256"
        }
      ],
      "name": "getUserAvailableNFTCredits",
      "outputs": [
        {
          "internalType": "uint256",
          "name": "",
          "type": "uint256"
        }
      ],
      "stateMutability": "view",
      "type": "function"
    },
    {
      "inputs": [
        {
          "internalType": "address",
          "name": "user",
          "type": "address"
        },
        {
          "internalType": "uint256",
          "name": "packageId",
          "type": "uint256"
        }
      ],
      "name": "getUserNFTCredits",
      "outputs": [
        {
          "internalType": "uint256",
          "name": "",
          "type": "uint256"
        }
      ],
      "stateMutability": "view",
      "type": "function"
    },
    {
      "inputs": [
        {
          "internalType": "address",
          "name": "user",
          "type": "address"
        }
      ],
      "name": "getUserTotalCredits",
      "outputs": [
        {
          "internalType": "uint256",
          "name": "total",
          "type": "uint256"
        }
      ],
      "stateMutability": "view",
      "type": "function"
    },
    {
      "inputs": [
        {
          "internalType": "address[]",
          "name": "recipients",
          "type": "address[]"
        },
        {
          "internalType": "uint256",
          "name": "credits",
          "type": "uint256"
        }
      ],
      "name": "giveawayERC20Credits",
      "outputs": [],
      "stateMutability": "nonpayable",
      "type": "function"
    },
    {
      "inputs": [
        {
          "internalType": "address",
          "name": "recipient",
          "type": "address"
        },
        {
          "internalType": "uint256",
          "name": "packageId",
          "type": "uint256"
        },
        {
          "internalType": "uint256",
          "name": "credits",
          "type": "uint256"
        }
      ],
      "name": "giveawayNFTCredits",
      "outputs": [],
      "stateMutability": "nonpayable",
      "type": "function"
    },
    {
      "inputs": [],
      "name": "owner",
      "outputs": [
        {
          "internalType": "address",
          "name": "",
          "type": "address"
        }
      ],
      "stateMutability": "view",
      "type": "function"
    },
    {
      "inputs": [],
      "name": "pause",
      "outputs": [],
      "stateMutability": "nonpayable",
      "type": "function"
    },
    {
      "inputs": [],
      "name": "paused",
      "outputs": [
        {
          "internalType": "bool",
          "name": "",
          "type": "bool"
        }
      ],
      "stateMutability": "view",
      "type": "function"
    },
    {
      "inputs": [
        {
          "internalType": "uint256",
          "name": "packageId",
          "type": "uint256"
        }
      ],
      "name": "purchaseCreditsWithSonic",
      "outputs": [],
      "stateMutability": "payable",
      "type": "function"
    },
    {
      "inputs": [
        {
          "internalType": "uint256",
          "name": "packageId",
          "type": "uint256"
        }
      ],
      "name": "purchaseCreditsWithUSDC",
      "outputs": [],
      "stateMutability": "nonpayable",
      "type": "function"
    },
    {
      "inputs": [],
      "name": "renounceOwnership",
      "outputs": [],
      "stateMutability": "nonpayable",
      "type": "function"
    },
    {
      "inputs": [
        {
          "internalType": "address",
          "name": "user",
          "type": "address"
        },
        {
          "internalType": "uint256",
          "name": "credits",
          "type": "uint256"
        },
        {
          "internalType": "string",
          "name": "generationType",
          "type": "string"
        }
      ],
      "name": "spendERC20Credits",
      "outputs": [],
      "stateMutability": "nonpayable",
      "type": "function"
    },
    {
      "inputs": [
        {
          "internalType": "address",
          "name": "user",
          "type": "address"
        },
        {
          "internalType": "uint256",
          "name": "packageId",
          "type": "uint256"
        },
        {
          "internalType": "uint256",
          "name": "credits",
          "type": "uint256"
        },
        {
          "internalType": "string",
          "name": "generationType",
          "type": "string"
        }
      ],
      "name": "spendNFTCredits",
      "outputs": [],
      "stateMutability": "nonpayable",
      "type": "function"
    },
    {
      "inputs": [],
      "name": "stakingContract",
      "outputs": [
        {
          "internalType": "address",
          "name": "",
          "type": "address"
        }
      ],
      "stateMutability": "view",
      "type": "function"
    },
    {
      "inputs": [],
      "name": "totalGenerations",
      "outputs": [
        {
          "internalType": "uint256",
          "name": "",
          "type": "uint256"
        }
      ],
      "stateMutability": "view",
      "type": "function"
    },
    {
      "inputs": [
        {
          "internalType": "address",
          "name": "newOwner",
          "type": "address"
        }
      ],
      "name": "transferOwnership",
      "outputs": [],
      "stateMutability": "nonpayable",
      "type": "function"
    },
    {
      "inputs": [],
      "name": "unpause",
      "outputs": [],
      "stateMutability": "nonpayable",
      "type": "function"
    },
    {
      "inputs": [
        {
          "internalType": "uint256",
          "name": "packageId",
          "type": "uint256"
        },
        {
          "internalType": "uint256",
          "name": "usdcPrice",
          "type": "uint256"
        },
        {
          "internalType": "uint256",
          "name": "usdValueForS",
          "type": "uint256"
        },
        {
          "internalType": "uint256",
          "name": "usdcCredits",
          "type": "uint256"
        },
        {
          "internalType": "uint256",
          "name": "sonicCredits",
          "type": "uint256"
        },
        {
          "internalType": "bool",
          "name": "active",
          "type": "bool"
        }
      ],
      "name": "updatePackage",
      "outputs": [],
      "stateMutability": "nonpayable",
      "type": "function"
    },
    {
      "inputs": [
        {
          "internalType": "address",
          "name": "",
          "type": "address"
        }
      ],
      "name": "userCredits",
      "outputs": [
        {
          "internalType": "uint256",
          "name": "",
          "type": "uint256"
        }
      ],
      "stateMutability": "view",
      "type": "function"
    },
    {
      "inputs": [
        {
          "internalType": "address",
          "name": "",
          "type": "address"
        }
      ],
      "name": "userGenerations",
      "outputs": [
        {
          "internalType": "uint256",
          "name": "",
          "type": "uint256"
        }
      ],
      "stateMutability": "view",
      "type": "function"
    },
    {
      "inputs": [
        {
          "internalType": "address",
          "name": "",
          "type": "address"
        },
        {
          "internalType": "uint256",
          "name": "",
          "type": "uint256"
        }
      ],
      "name": "userNFTCreditsSpent",
      "outputs": [
        {
          "internalType": "uint256",
          "name": "",
          "type": "uint256"
        }
      ],
      "stateMutability": "view",
      "type": "function"
    },
    {
      "stateMutability": "payable",
      "type": "receive"
    }
  ],
  "bytecode": "0x6101006040523461048d57604051601f61234638819003918201601f19168301916001600160401b038311848410176104925780849260a09460405283398101031261048d5761004e816104c7565b9061005b602082016104c7565b60408201516001600160a01b038116919082900361048d5761008b6080610084606086016104c7565b94016104c7565b936001600160a01b031690811561047757600080546001600160a01b031981168417825560405193916001600160a01b03909116907f8be0079c531659141344cd1fd0a4f28419497f9722a3daafe3b4186f6b6457e09080a3600180556001600160a01b0316908115610435575081156103f0576001600160a01b038316156103ab576001600160a01b038416156103665760805260a05260c05260e0526101316104a8565b624c4b40815260046020820191624c4b408352604081016102ee815260608201906103e8825260808301946001865260016000526005602052604060002093518455516001840155516002830155516003820155019051151560ff8019835416911617905561019e6104a8565b6302faf0808152600460208201916302faf080835260408101611f4081526060820190612710825260808301946001865260026000526005602052604060002093518455516001840155516002830155516003820155019051151560ff8019835416911617905561020d6104a8565b631dcd6500815260046020820191631dcd6500835260408101620186a0815260608201906201c138825260808301946001865260036000526005602052604060002093518455516001840155516002830155516003820155019051151560ff8019835416911617905561027e6104a8565b634a817c80815260046020820191634a817c808352604081016203f7a08152606082019062046cd08252608083019460018652846000526005602052604060002093518455516001840155516002830155516003820155019051151560ff80198354169116179055604051611e6a90816104dc8239608051818181610937015261109c015260a05181818161043b0152818161071901528181610e2501528181610f850152818161113c015281816114fc0152611ab2015260c0518181816103b5015281816106a401526109c7015260e0518181816103f101528181610a2a0152610ef90152f35b60405162461bcd60e51b815260206004820152601a60248201527f496e76616c6964206465762077616c6c657420616464726573730000000000006044820152606490fd5b60405162461bcd60e51b815260206004820152601760248201527f496e76616c6964207374616b696e6720616464726573730000000000000000006044820152606490fd5b60405162461bcd60e51b815260206004820152601b60248201527f496e76616c69642063726564697473204e4654206164647265737300000000006044820152606490fd5b62461bcd60e51b815260206004820152601460248201527f496e76616c6964205553444320616464726573730000000000000000000000006044820152606490fd5b631e4fbdf760e01b600052600060045260246000fd5b600080fd5b634e487b7160e01b600052604160045260246000fd5b6040519060a082016001600160401b0381118382101761049257604052565b51906001600160a01b038216820361048d5756fe60806040526004361015610050575b361561004e5760405162461bcd60e51b8152602060048201526012602482015271119d5b98dd1a5bdb881b9bdd08199bdd5b9960721b6044820152606490fd5b005b6000803560e01c806302bb357014611a375780630afd492314611a0857806312cfb5151461192657806320babb92146118ed5780632fd199e6146118cf57806330aa1e7e146118a0578063314395cc146117445780633401b5b5146115fb5780633db35ffb146115dd5780633f4ba83a1461157557806346413c24146114a957806348664c8d1461131d5780635c975abb146112fa578063715018a6146112a057806372086c151461116b5780637356ea87146111265780638456cb59146110cb57806389a30271146110865780638b9783cd14610f4f5780638da5cb5b14610f285780638ea5220f14610ee3578063946ccdb714610dd6578063c7209f2514610d93578063d124d1bc14610d37578063db2e21bc14610cbc578063df29b98214610c27578063e35125831461088c578063e637e8c214610853578063e98e4cff146106d3578063ee99205c1461068e578063f07af1b6146102445763f2fde38b146101bc575061000e565b34610241576020366003190112610241576101d5611bbb565b6101dd611df5565b6001600160a01b0316801561022d5781546001600160a01b03198116821783556001600160a01b03167f8be0079c531659141344cd1fd0a4f28419497f9722a3daafe3b4186f6b6457e08380a380f35b631e4fbdf760e01b82526004829052602482fd5b80fd5b5060203660031901126102415760043561025c611e1e565b610264611e3b565b80825260056020526040822060405161027c81611bff565b815481526102bc6080600184015492602081019384526002850154604082015260ff60046003870154966060840197885201541615159182910152611d31565b6102c882511515611db7565b6040516341976e0960e01b815273039e2fb66102314ce7b64ce5ce3e5183bc94ad38600482015260208160248173bc4a342b0c057501e081484a2d24e576e854f8235afa90811561068357859161064c575b5080156105fd5781516c0c9f2c9cd04674edea400000008102908082046c0c9f2c9cd04674edea4000000014901517156105e9579061035891611d72565b908134106105a4576019340234159034810460191482171561059057606490046032340234810460321483171561057c576064900491600f340290348204600f14171561057c57908780808060648197960494818115610573575b7f00000000000000000000000000000000000000000000000000000000000000006001600160a01b031690f115610552578280808060018060a01b037f000000000000000000000000000000000000000000000000000000000000000016958682821561056a575bf11561055257828092918192828215610561575bf11561052557825185907f00000000000000000000000000000000000000000000000000000000000000006001600160a01b0316803b1561055d5760405163731133e960e01b815233600482015260248101889052604481019290925260806064830152600060848301528290829060a490829084905af1801561055257610539575b5050813411610507575b9151915160408051948552602085019390935291830152606082015233907fb6990b3b13c7f899fbde21a9aea7794517a92877cf7670946e287d702762cf5190608090a26001805580f35b848080806105158634611d92565b818115610530575b3390f16104bc575b6040513d86823e3d90fd5b506108fc61051d565b8161054391611c31565b61054e5784386104b2565b8480fd5b6040513d84823e3d90fd5b8280fd5b506108fc61042f565b506108fc61041b565b506108fc6103b3565b634e487b7160e01b88526011600452602488fd5b634e487b7160e01b87526011600452602487fd5b60405162461bcd60e51b815260206004820152601a60248201527f496e73756666696369656e7420536f6e6963207061796d656e740000000000006044820152606490fd5b634e487b7160e01b86526011600452602486fd5b60405162461bcd60e51b815260206004820152602160248201527f496e76616c6964205320746f6b656e2070726963652066726f6d206f7261636c6044820152606560f81b6064820152608490fd5b90506020813d60201161067b575b8161066760209383611c31565b8101031261067657513861031a565b600080fd5b3d915061065a565b6040513d87823e3d90fd5b50346102415780600319360112610241576040517f00000000000000000000000000000000000000000000000000000000000000006001600160a01b03168152602090f35b5034610241576060366003190112610241576106ed611bbb565b6024356044356106fb611df5565b6001600160a01b03831692831561081a57610717821515611cb9565b7f00000000000000000000000000000000000000000000000000000000000000006001600160a01b0316908590823b156108165760405163731133e960e01b81526001600160a01b039190911660048201526024810185905260448101849052608060648201526000608482015291829060a490829084905af18015610683576107dd575b507fb6990b3b13c7f899fbde21a9aea7794517a92877cf7670946e287d702762cf51916080916040519182526020820152846040820152846060820152a280f35b918461080d608093967fb6990b3b13c7f899fbde21a9aea7794517a92877cf7670946e287d702762cf5195611c31565b9491509161079c565b5080fd5b60405162461bcd60e51b8152602060048201526011602482015270125b9d985b1a59081c9958da5c1a595b9d607a1b6044820152606490fd5b5034610241576020366003190112610241576020906040906001600160a01b0361087b611bbb565b168152600883522054604051908152f35b5034610241576020366003190112610241576004356108a9611e1e565b6108b1611e3b565b808252600560205260408220604051906108ca82611bff565b805482526001810154602083015261090660ff600460028401549360408601948552600381015460608701520154161515806080850152611d31565b61091281511515611db7565b81516040516323b872dd60e01b815233600482015230602482015260448101919091527f00000000000000000000000000000000000000000000000000000000000000006001600160a01b03169060208160648189865af1908115610c1c578691610bfd575b5015610bc157825190601982029082159183810460191483171561057c576032840292848404603214811715610bad57600f8502948504600f14171561057c5760405163a9059cbb60e01b81527f00000000000000000000000000000000000000000000000000000000000000006001600160a01b031660048201526064909104602482015291906020836044818b855af1928315610ba257610a7193610b85575b5060405163a9059cbb60e01b81527f00000000000000000000000000000000000000000000000000000000000000006001600160a01b03811660048301526064909304602482015292602090849081906044820190565b03818b855af1888115610b7957610ac395602095606493610b5e575b5060405163a9059cbb60e01b81526001600160a01b03909516600486015291909104602484015291938492839182906044820190565b03925af1801561068357610b2f575b5080513385526003602052610aec60408620918254611c53565b905551905190604051928352602083015260408201527f0ba0c504c492b86ce42fa87998d2a7efb496e36fbdd2bf266200c0df6f8483df60603392a26001805580f35b610b509060203d602011610b57575b610b488183611c31565b810190611d9f565b5038610ad2565b503d610b3e565b610b7490873d8911610b5757610b488183611c31565b610a8d565b604051903d90823e3d90fd5b610b9d9060203d602011610b5757610b488183611c31565b610a1a565b6040513d8a823e3d90fd5b634e487b7160e01b89526011600452602489fd5b60405162461bcd60e51b81526020600482015260146024820152731554d110c81d1c985b9cd9995c8819985a5b195960621b6044820152606490fd5b610c16915060203d602011610b5757610b488183611c31565b38610978565b6040513d88823e3d90fd5b503461024157604036600319011261024157806020610c85610c47611bbb565b610c4f611df5565b835460405163a9059cbb60e01b81526001600160a01b039091166004820152602480359082015293849283919082906044820190565b03926001600160a01b03165af1801561055257610ca0575080f35b610cb89060203d602011610b5757610b488183611c31565b5080f35b5034610241578060031936011261024157610cd5611df5565b478015610cf957815482918291829182916001600160a01b031682f115610b795780f35b60405162461bcd60e51b81526020600482015260166024820152754e6f2062616c616e636520746f20776974686472617760501b6044820152606490fd5b503461024157602036600319011261024157604060a0916004358152600560205220805490600181015490600281015460ff60046003840154930154169260405194855260208501526040840152606083015215156080820152f35b5034610241576040366003190112610241576020906040906001600160a01b03610dbb611bbb565b16815260048352818120602435825283522054604051908152f35b503461024157604036600319011261024157610df0611bbb565b604051627eeac760e11b81526001600160a01b03821660048201526024803590820181905290929190602084806044810103817f00000000000000000000000000000000000000000000000000000000000000006001600160a01b03165afa918215610ed8578392610ea3575b6001600160a01b03168352600460209081526040808520928552918152908320549093509081811115610e9c57610e949250611d92565b604051908152f35b5050610e94565b91506020843d602011610ed0575b81610ebe60209383611c31565b8101031261055d576020935191610e5d565b3d9150610eb1565b6040513d85823e3d90fd5b50346102415780600319360112610241576040517f00000000000000000000000000000000000000000000000000000000000000006001600160a01b03168152602090f35b5034610241578060031936011261024157546040516001600160a01b039091168152602090f35b503461024157602036600319011261024157610f69611bbb565b6001600160a01b038181168084526003602052604084205492917f00000000000000000000000000000000000000000000000000000000000000001660015b6004811115610fbc57602085604051908152f35b604051627eeac760e11b81526001600160a01b038516600482015260248101829052602081604481865afa90811561107b578791611046575b50838752600460205260408720828852602052604087205490818111611026575b505061102190611c76565b610fa8565b9561103861103e926110219498611d92565b90611c53565b949038611016565b90506020813d8211611073575b8161106060209383611c31565b8101031261106f575138610ff5565b8680fd5b3d9150611053565b6040513d89823e3d90fd5b50346102415780600319360112610241576040517f00000000000000000000000000000000000000000000000000000000000000006001600160a01b03168152602090f35b50346102415780600319360112610241576110e4611df5565b6110ec611e1e565b600160ff1960025416176002557f62e78cea01bee320cd4e420270b5ea74000d11b0c9f74754ebdbfc544b05a2586020604051338152a180f35b50346102415780600319360112610241576040517f00000000000000000000000000000000000000000000000000000000000000006001600160a01b03168152602090f35b503461024157606036600319011261024157611185611bbb565b6024359060443567ffffffffffffffff811161129c576111a9903690600401611bd1565b916111b2611df5565b6001600160a01b0316808552600360205260408520549093908111611257576112517fddbfea9abebdf7848caaebeb978ee1f8e6047df6c2bcbbc6875982b465034dbd9385875260036020526040872061120d848254611d92565b905561121a600654611c76565b6006558587526008602052604087206112338154611c76565b9055611240600754611c76565b908160075560405194859485611c85565b0390a280f35b60405162461bcd60e51b815260206004820152601b60248201527f496e73756666696369656e74204552432d3230206372656469747300000000006044820152606490fd5b8380fd5b50346102415780600319360112610241576112b9611df5565b80546001600160a01b03198116825581906001600160a01b03167f8be0079c531659141344cd1fd0a4f28419497f9722a3daafe3b4186f6b6457e08280a380f35b5034610241578060031936011261024157602060ff600254166040519015158152f35b50346102415760203660031901126102415760043581526005602052604081206040519061134a82611bff565b80548252600181015491602081019283526002820154916040820192835260ff60046003830154926060850193845201541691608081019215158352604051956341976e0960e01b875273039e2fb66102314ce7b64ce5ce3e5183bc94ad38600488015260208760248173bc4a342b0c057501e081484a2d24e576e854f8235afa96871561149c578197611468575b50861561145e578551906c0c9f2c9cd04674edea400000008202918083046c0c9f2c9cd04674edea40000000149015171561144a575060c09661141b91611d72565b905b519451935191519251151593604051958652602086015260408501526060840152608083015260a0820152f35b634e487b7160e01b81526011600452602490fd5b60c096509061141d565b9096506020813d602011611494575b8161148460209383611c31565b8101031261106f575195386113d9565b3d9150611477565b50604051903d90823e3d90fd5b5034610241576040366003190112610241576114f860206114c8611bbb565b604051627eeac760e11b81526001600160a01b039091166004820152602480359082015291829081906044820190565b03817f00000000000000000000000000000000000000000000000000000000000000006001600160a01b03165afa90811561055257829161153f575b602082604051908152f35b90506020813d60201161156d575b8161155a60209383611c31565b8101031261081657602091505138611534565b3d915061154d565b503461024157806003193601126102415761158e611df5565b60025460ff8116156115ce5760ff19166002557f5db9ee0a495bf2e6ff9c91a7834c1ba4fdd244a5e8aa4e537bd38aeae4b073aa6020604051338152a180f35b638dfc202b60e01b8252600482fd5b50346102415780600319360112610241576020600754604051908152f35b5034610241576020366003190112610241576004358152600560205260408120611664608060405161162c81611bff565b8354815260ff600460018601549560208401968752600281015460408501526003810154606085015201541615159182910152611d31565b6040516341976e0960e01b815273039e2fb66102314ce7b64ce5ce3e5183bc94ad3860048201529060208260248173bc4a342b0c057501e081484a2d24e576e854f8235afa918215610ed8578392611710575b5081156117065751916c0c9f2c9cd04674edea400000008302928084046c0c9f2c9cd04674edea40000000149015171561144a57506116f881604093611d72565b905b82519182526020820152f35b50604091906116fa565b9091506020813d60201161173c575b8161172c60209383611c31565b8101031261055d575190386116b7565b3d915061171f565b50346102415760403660031901126102415760043567ffffffffffffffff8111610816573660238201121561081657806004013567ffffffffffffffff811161055d576024820191602436918360051b01011161055d576024356117a6611df5565b811561186b576117b7811515611cb9565b835b8281106117c4578480f35b6001906001600160a01b036117e26117dd838789611cf7565b611d1d565b166117ee575b016117b9565b818060a01b036118026117dd838789611cf7565b168652600360205260408620611819848254611c53565b9055818060a01b0361182f6117dd838789611cf7565b167f0ba0c504c492b86ce42fa87998d2a7efb496e36fbdd2bf266200c0df6f8483df6060604051898152866020820152896040820152a26117e8565b60405162461bcd60e51b815260206004820152600d60248201526c4e6f20726563697069656e747360981b6044820152606490fd5b5034610241578060031936011261024157602060405173039e2fb66102314ce7b64ce5ce3e5183bc94ad388152f35b50346102415780600319360112610241576020600654604051908152f35b5034610241576020366003190112610241576020906040906001600160a01b03611915611bbb565b168152600383522054604051908152f35b50346102415760c0366003190112610241576004356024356044356064359160843560a4359081151580920361106f577f652ab82a14694725f0cbcfa00fe4d99830c0d5026103a2bcddca21f96939bfab9461125192611984611df5565b600460405161199281611bff565b868152898b602083018a815260408085019288845260608601948a865260808701988952815260056020522093518455516001840155516002830155516003820155019051151560ff80198354169116179055604051948594859094939260609260808301968352602083015260408201520152565b5034610241578060031936011261024157602060405173bc4a342b0c057501e081484a2d24e576e854f8238152f35b503461024157608036600319011261024157611a51611bbb565b602435906044359060643567ffffffffffffffff811161054e57611a79903690600401611bd1565b929091611a84611df5565b604051627eeac760e11b81526001600160a01b038216600482015260248101869052602081806044810103817f00000000000000000000000000000000000000000000000000000000000000006001600160a01b03165afa801561107b5783918891611b86575b5010611b41577fddbfea9abebdf7848caaebeb978ee1f8e6047df6c2bcbbc6875982b465034dbd936112519160018060a01b0316958688526004602052604088209088526020526040872061120d848254611c53565b60405162461bcd60e51b815260206004820152601860248201527f496e73756666696369656e74204e4654206372656469747300000000000000006044820152606490fd5b9150506020813d602011611bb3575b81611ba260209383611c31565b8101031261106f5782905138611aeb565b3d9150611b95565b600435906001600160a01b038216820361067657565b9181601f840112156106765782359167ffffffffffffffff8311610676576020838186019501011161067657565b60a0810190811067ffffffffffffffff821117611c1b57604052565b634e487b7160e01b600052604160045260246000fd5b90601f8019910116810190811067ffffffffffffffff821117611c1b57604052565b91908201809211611c6057565b634e487b7160e01b600052601160045260246000fd5b6000198114611c605760010190565b94939280604093608093885260606020890152816060890152838801376000828288010152601f8019910116850101930152565b15611cc057565b60405162461bcd60e51b815260206004820152600f60248201526e496e76616c6964206372656469747360881b6044820152606490fd5b9190811015611d075760051b0190565b634e487b7160e01b600052603260045260246000fd5b356001600160a01b03811681036106765790565b15611d3857565b60405162461bcd60e51b81526020600482015260126024820152715061636b616765206e6f742061637469766560701b6044820152606490fd5b8115611d7c570490565b634e487b7160e01b600052601260045260246000fd5b91908203918211611c6057565b90816020910312610676575180151581036106765790565b15611dbe57565b60405162461bcd60e51b815260206004820152600f60248201526e496e76616c6964207061636b61676560881b6044820152606490fd5b6000546001600160a01b03163303611e0957565b63118cdaa760e01b6000523360045260246000fd5b60ff60025416611e2a57565b63d93c066560e01b60005260046000fd5b600260015414611e4c576002600155565b633ee5aeb560e01b60005260046000fdfea164736f6c634300081b000a",
  "linkReferences": {},
  "deployedLinkReferences": {}
}