{
  "_format": "hh-sol-artifact-1",
  "contractName": "ERC7857VerifiableINFT",
  "sourceName": "Contracts/ERC7857VerifiableINFT.sol",
  "abi": [
    {
      "inputs": [
        {
          "internalType": "string",
          "name": "name",
          "type": "string"
        },
        {
          "internalType": "string",
          "name": "symbol",
          "type": "string"
        },
        {
          "internalType": "string",
          "name": "_verificationEndpoint",
          "type": "string"
        }
      ],
      "stateMutability": "nonpayable",
      "type": "constructor"
    },
    {
      "inputs": [
        {
          "internalType": "address",
          "name": "sender",
          "type": "address"
        },
        {
          "internalType": "uint256",
          "name": "tokenId",
          "type": "uint256"
        },
        {
          "internalType": "address",
          "name": "owner",
          "type": "address"
        }
      ],
      "name": "ERC721IncorrectOwner",
      "type": "error"
    },
    {
      "inputs": [
        {
          "internalType": "address",
          "name": "operator",
          "type": "address"
        },
        {
          "internalType": "uint256",
          "name": "tokenId",
          "type": "uint256"
        }
      ],
      "name": "ERC721InsufficientApproval",
      "type": "error"
    },
    {
      "inputs": [
        {
          "internalType": "address",
          "name": "approver",
          "type": "address"
        }
      ],
      "name": "ERC721InvalidApprover",
      "type": "error"
    },
    {
      "inputs": [
        {
          "internalType": "address",
          "name": "operator",
          "type": "address"
        }
      ],
      "name": "ERC721InvalidOperator",
      "type": "error"
    },
    {
      "inputs": [
        {
          "internalType": "address",
          "name": "owner",
          "type": "address"
        }
      ],
      "name": "ERC721InvalidOwner",
      "type": "error"
    },
    {
      "inputs": [
        {
          "internalType": "address",
          "name": "receiver",
          "type": "address"
        }
      ],
      "name": "ERC721InvalidReceiver",
      "type": "error"
    },
    {
      "inputs": [
        {
          "internalType": "address",
          "name": "sender",
          "type": "address"
        }
      ],
      "name": "ERC721InvalidSender",
      "type": "error"
    },
    {
      "inputs": [
        {
          "internalType": "uint256",
          "name": "tokenId",
          "type": "uint256"
        }
      ],
      "name": "ERC721NonexistentToken",
      "type": "error"
    },
    {
      "inputs": [],
      "name": "EnforcedPause",
      "type": "error"
    },
    {
      "inputs": [],
      "name": "ExpectedPause",
      "type": "error"
    },
    {
      "inputs": [
        {
          "internalType": "address",
          "name": "owner",
          "type": "address"
        }
      ],
      "name": "OwnableInvalidOwner",
      "type": "error"
    },
    {
      "inputs": [
        {
          "internalType": "address",
          "name": "account",
          "type": "address"
        }
      ],
      "name": "OwnableUnauthorizedAccount",
      "type": "error"
    },
    {
      "inputs": [],
      "name": "ReentrancyGuardReentrantCall",
      "type": "error"
    },
    {
      "anonymous": false,
      "inputs": [
        {
          "indexed": true,
          "internalType": "uint256",
          "name": "tokenId",
          "type": "uint256"
        },
        {
          "indexed": false,
          "internalType": "bytes32",
          "name": "learningHash",
          "type": "bytes32"
        },
        {
          "indexed": false,
          "internalType": "uint256",
          "name": "version",
          "type": "uint256"
        }
      ],
      "name": "AgentLearningUpdate",
      "type": "event"
    },
    {
      "anonymous": false,
      "inputs": [
        {
          "indexed": true,
          "internalType": "address",
          "name": "owner",
          "type": "address"
        },
        {
          "indexed": true,
          "internalType": "address",
          "name": "approved",
          "type": "address"
        },
        {
          "indexed": true,
          "internalType": "uint256",
          "name": "tokenId",
          "type": "uint256"
        }
      ],
      "name": "Approval",
      "type": "event"
    },
    {
      "anonymous": false,
      "inputs": [
        {
          "indexed": true,
          "internalType": "address",
          "name": "owner",
          "type": "address"
        },
        {
          "indexed": true,
          "internalType": "address",
          "name": "operator",
          "type": "address"
        },
        {
          "indexed": false,
          "internalType": "bool",
          "name": "approved",
          "type": "bool"
        }
      ],
      "name": "ApprovalForAll",
      "type": "event"
    },
    {
      "anonymous": false,
      "inputs": [
        {
          "indexed": false,
          "internalType": "uint256",
          "name": "_fromTokenId",
          "type": "uint256"
        },
        {
          "indexed": false,
          "internalType": "uint256",
          "name": "_toTokenId",
          "type": "uint256"
        }
      ],
      "name": "BatchMetadataUpdate",
      "type": "event"
    },
    {
      "anonymous": false,
      "inputs": [
        {
          "indexed": false,
          "internalType": "uint256",
          "name": "_tokenId",
          "type": "uint256"
        }
      ],
      "name": "MetadataUpdate",
      "type": "event"
    },
    {
      "anonymous": false,
      "inputs": [
        {
          "indexed": true,
          "internalType": "uint256",
          "name": "tokenId",
          "type": "uint256"
        },
        {
          "indexed": false,
          "internalType": "bytes32",
          "name": "metadataHash",
          "type": "bytes32"
        },
        {
          "indexed": false,
          "internalType": "string",
          "name": "encryptedURI",
          "type": "string"
        }
      ],
      "name": "MetadataUpdate",
      "type": "event"
    },
    {
      "anonymous": false,
      "inputs": [
        {
          "indexed": true,
          "internalType": "uint256",
          "name": "tokenId",
          "type": "uint256"
        },
        {
          "indexed": false,
          "internalType": "address",
          "name": "from",
          "type": "address"
        },
        {
          "indexed": false,
          "internalType": "address",
          "name": "to",
          "type": "address"
        },
        {
          "indexed": false,
          "internalType": "bytes32",
          "name": "transferHash",
          "type": "bytes32"
        }
      ],
      "name": "OwnershipTransferInitiated",
      "type": "event"
    },
    {
      "anonymous": false,
      "inputs": [
        {
          "indexed": true,
          "internalType": "address",
          "name": "previousOwner",
          "type": "address"
        },
        {
          "indexed": true,
          "internalType": "address",
          "name": "newOwner",
          "type": "address"
        }
      ],
      "name": "OwnershipTransferred",
      "type": "event"
    },
    {
      "anonymous": false,
      "inputs": [
        {
          "indexed": false,
          "internalType": "address",
          "name": "account",
          "type": "address"
        }
      ],
      "name": "Paused",
      "type": "event"
    },
    {
      "anonymous": false,
      "inputs": [
        {
          "indexed": true,
          "internalType": "uint256",
          "name": "tokenId",
          "type": "uint256"
        },
        {
          "indexed": false,
          "internalType": "bytes32",
          "name": "proofHash",
          "type": "bytes32"
        },
        {
          "indexed": false,
          "internalType": "address",
          "name": "verifier",
          "type": "address"
        }
      ],
      "name": "ProofVerified",
      "type": "event"
    },
    {
      "anonymous": false,
      "inputs": [
        {
          "indexed": true,
          "internalType": "address",
          "name": "from",
          "type": "address"
        },
        {
          "indexed": true,
          "internalType": "address",
          "name": "to",
          "type": "address"
        },
        {
          "indexed": true,
          "internalType": "uint256",
          "name": "tokenId",
          "type": "uint256"
        }
      ],
      "name": "Transfer",
      "type": "event"
    },
    {
      "anonymous": false,
      "inputs": [
        {
          "indexed": false,
          "internalType": "address",
          "name": "account",
          "type": "address"
        }
      ],
      "name": "Unpaused",
      "type": "event"
    },
    {
      "inputs": [],
      "name": "MAX_SUPPLY",
      "outputs": [
        {
          "internalType": "uint256",
          "name": "",
          "type": "uint256"
        }
      ],
      "stateMutability": "view",
      "type": "function"
    },
    {
      "inputs": [],
      "name": "TRANSFER_DEADLINE",
      "outputs": [
        {
          "internalType": "uint256",
          "name": "",
          "type": "uint256"
        }
      ],
      "stateMutability": "view",
      "type": "function"
    },
    {
      "inputs": [
        {
          "internalType": "address",
          "name": "to",
          "type": "address"
        },
        {
          "internalType": "uint256",
          "name": "tokenId",
          "type": "uint256"
        }
      ],
      "name": "approve",
      "outputs": [],
      "stateMutability": "nonpayable",
      "type": "function"
    },
    {
      "inputs": [
        {
          "internalType": "address",
          "name": "",
          "type": "address"
        }
      ],
      "name": "authorizedVerifiers",
      "outputs": [
        {
          "internalType": "bool",
          "name": "",
          "type": "bool"
        }
      ],
      "stateMutability": "view",
      "type": "function"
    },
    {
      "inputs": [
        {
          "internalType": "address",
          "name": "owner",
          "type": "address"
        }
      ],
      "name": "balanceOf",
      "outputs": [
        {
          "internalType": "uint256",
          "name": "",
          "type": "uint256"
        }
      ],
      "stateMutability": "view",
      "type": "function"
    },
    {
      "inputs": [
        {
          "internalType": "uint256",
          "name": "tokenId",
          "type": "uint256"
        },
        {
          "internalType": "string",
          "name": "newEncryptedURI",
          "type": "string"
        },
        {
          "internalType": "bytes32",
          "name": "newContentHash",
          "type": "bytes32"
        }
      ],
      "name": "completeSecureTransfer",
      "outputs": [],
      "stateMutability": "nonpayable",
      "type": "function"
    },
    {
      "inputs": [],
      "name": "emergencyWithdraw",
      "outputs": [],
      "stateMutability": "nonpayable",
      "type": "function"
    },
    {
      "inputs": [
        {
          "internalType": "uint256",
          "name": "tokenId",
          "type": "uint256"
        }
      ],
      "name": "getAgentLearningData",
      "outputs": [
        {
          "components": [
            {
              "internalType": "bytes32",
              "name": "learningHash",
              "type": "bytes32"
            },
            {
              "internalType": "bytes32",
              "name": "skillsHash",
              "type": "bytes32"
            },
            {
              "internalType": "bytes32",
              "name": "preferencesHash",
              "type": "bytes32"
            },
            {
              "internalType": "uint256",
              "name": "learningVersion",
              "type": "uint256"
            },
            {
              "internalType": "uint256",
              "name": "interactions",
              "type": "uint256"
            },
            {
              "internalType": "uint256",
              "name": "lastLearningUpdate",
              "type": "uint256"
            },
            {
              "internalType": "bool",
              "name": "isActive",
              "type": "bool"
            }
          ],
          "internalType": "struct ERC7857VerifiableINFT.AgentLearningData",
          "name": "",
          "type": "tuple"
        }
      ],
      "stateMutability": "view",
      "type": "function"
    },
    {
      "inputs": [
        {
          "internalType": "uint256",
          "name": "tokenId",
          "type": "uint256"
        }
      ],
      "name": "getApproved",
      "outputs": [
        {
          "internalType": "address",
          "name": "",
          "type": "address"
        }
      ],
      "stateMutability": "view",
      "type": "function"
    },
    {
      "inputs": [
        {
          "internalType": "uint256",
          "name": "tokenId",
          "type": "uint256"
        }
      ],
      "name": "getPendingTransfer",
      "outputs": [
        {
          "components": [
            {
              "internalType": "bytes32",
              "name": "transferHash",
              "type": "bytes32"
            },
            {
              "internalType": "address",
              "name": "from",
              "type": "address"
            },
            {
              "internalType": "address",
              "name": "to",
              "type": "address"
            },
            {
              "internalType": "uint256",
              "name": "deadline",
              "type": "uint256"
            },
            {
              "internalType": "bool",
              "name": "isCompleted",
              "type": "bool"
            },
            {
              "internalType": "bytes",
              "name": "encryptionKeyHash",
              "type": "bytes"
            }
          ],
          "internalType": "struct ERC7857VerifiableINFT.TransferVerification",
          "name": "",
          "type": "tuple"
        }
      ],
      "stateMutability": "view",
      "type": "function"
    },
    {
      "inputs": [
        {
          "internalType": "uint256",
          "name": "tokenId",
          "type": "uint256"
        }
      ],
      "name": "getVerifiableMetadata",
      "outputs": [
        {
          "components": [
            {
              "internalType": "bytes32",
              "name": "contentHash",
              "type": "bytes32"
            },
            {
              "internalType": "bytes32",
              "name": "proofHash",
              "type": "bytes32"
            },
            {
              "internalType": "string",
              "name": "encryptedURI",
              "type": "string"
            },
            {
              "internalType": "uint256",
              "name": "version",
              "type": "uint256"
            },
            {
              "internalType": "uint256",
              "name": "lastUpdate",
              "type": "uint256"
            },
            {
              "internalType": "bool",
              "name": "isVerified",
              "type": "bool"
            },
            {
              "internalType": "address",
              "name": "lastVerifier",
              "type": "address"
            }
          ],
          "internalType": "struct ERC7857VerifiableINFT.VerifiableMetadata",
          "name": "",
          "type": "tuple"
        }
      ],
      "stateMutability": "view",
      "type": "function"
    },
    {
      "inputs": [
        {
          "internalType": "uint256",
          "name": "tokenId",
          "type": "uint256"
        },
        {
          "internalType": "address",
          "name": "to",
          "type": "address"
        },
        {
          "internalType": "bytes",
          "name": "encryptionKeyHash",
          "type": "bytes"
        }
      ],
      "name": "initiateSecureTransfer",
      "outputs": [],
      "stateMutability": "nonpayable",
      "type": "function"
    },
    {
      "inputs": [
        {
          "internalType": "address",
          "name": "owner",
          "type": "address"
        },
        {
          "internalType": "address",
          "name": "operator",
          "type": "address"
        }
      ],
      "name": "isApprovedForAll",
      "outputs": [
        {
          "internalType": "bool",
          "name": "",
          "type": "bool"
        }
      ],
      "stateMutability": "view",
      "type": "function"
    },
    {
      "inputs": [
        {
          "internalType": "address",
          "name": "to",
          "type": "address"
        },
        {
          "internalType": "string",
          "name": "encryptedURI",
          "type": "string"
        },
        {
          "internalType": "bytes32",
          "name": "contentHash",
          "type": "bytes32"
        },
        {
          "internalType": "bytes32",
          "name": "proofHash",
          "type": "bytes32"
        }
      ],
      "name": "mintVerifiableINFT",
      "outputs": [
        {
          "internalType": "uint256",
          "name": "",
          "type": "uint256"
        }
      ],
      "stateMutability": "nonpayable",
      "type": "function"
    },
    {
      "inputs": [],
      "name": "name",
      "outputs": [
        {
          "internalType": "string",
          "name": "",
          "type": "string"
        }
      ],
      "stateMutability": "view",
      "type": "function"
    },
    {
      "inputs": [],
      "name": "owner",
      "outputs": [
        {
          "internalType": "address",
          "name": "",
          "type": "address"
        }
      ],
      "stateMutability": "view",
      "type": "function"
    },
    {
      "inputs": [
        {
          "internalType": "uint256",
          "name": "tokenId",
          "type": "uint256"
        }
      ],
      "name": "ownerOf",
      "outputs": [
        {
          "internalType": "address",
          "name": "",
          "type": "address"
        }
      ],
      "stateMutability": "view",
      "type": "function"
    },
    {
      "inputs": [],
      "name": "pause",
      "outputs": [],
      "stateMutability": "nonpayable",
      "type": "function"
    },
    {
      "inputs": [],
      "name": "paused",
      "outputs": [
        {
          "internalType": "bool",
          "name": "",
          "type": "bool"
        }
      ],
      "stateMutability": "view",
      "type": "function"
    },
    {
      "inputs": [],
      "name": "renounceOwnership",
      "outputs": [],
      "stateMutability": "nonpayable",
      "type": "function"
    },
    {
      "inputs": [
        {
          "internalType": "address",
          "name": "from",
          "type": "address"
        },
        {
          "internalType": "address",
          "name": "to",
          "type": "address"
        },
        {
          "internalType": "uint256",
          "name": "tokenId",
          "type": "uint256"
        }
      ],
      "name": "safeTransferFrom",
      "outputs": [],
      "stateMutability": "nonpayable",
      "type": "function"
    },
    {
      "inputs": [
        {
          "internalType": "address",
          "name": "from",
          "type": "address"
        },
        {
          "internalType": "address",
          "name": "to",
          "type": "address"
        },
        {
          "internalType": "uint256",
          "name": "tokenId",
          "type": "uint256"
        },
        {
          "internalType": "bytes",
          "name": "data",
          "type": "bytes"
        }
      ],
      "name": "safeTransferFrom",
      "outputs": [],
      "stateMutability": "nonpayable",
      "type": "function"
    },
    {
      "inputs": [
        {
          "internalType": "address",
          "name": "operator",
          "type": "address"
        },
        {
          "internalType": "bool",
          "name": "approved",
          "type": "bool"
        }
      ],
      "name": "setApprovalForAll",
      "outputs": [],
      "stateMutability": "nonpayable",
      "type": "function"
    },
    {
      "inputs": [
        {
          "internalType": "address",
          "name": "verifier",
          "type": "address"
        },
        {
          "internalType": "bool",
          "name": "authorized",
          "type": "bool"
        }
      ],
      "name": "setAuthorizedVerifier",
      "outputs": [],
      "stateMutability": "nonpayable",
      "type": "function"
    },
    {
      "inputs": [
        {
          "internalType": "string",
          "name": "_verificationEndpoint",
          "type": "string"
        }
      ],
      "name": "setVerificationEndpoint",
      "outputs": [],
      "stateMutability": "nonpayable",
      "type": "function"
    },
    {
      "inputs": [
        {
          "internalType": "bytes4",
          "name": "interfaceId",
          "type": "bytes4"
        }
      ],
      "name": "supportsInterface",
      "outputs": [
        {
          "internalType": "bool",
          "name": "",
          "type": "bool"
        }
      ],
      "stateMutability": "view",
      "type": "function"
    },
    {
      "inputs": [],
      "name": "symbol",
      "outputs": [
        {
          "internalType": "string",
          "name": "",
          "type": "string"
        }
      ],
      "stateMutability": "view",
      "type": "function"
    },
    {
      "inputs": [
        {
          "internalType": "uint256",
          "name": "tokenId",
          "type": "uint256"
        }
      ],
      "name": "tokenURI",
      "outputs": [
        {
          "internalType": "string",
          "name": "",
          "type": "string"
        }
      ],
      "stateMutability": "view",
      "type": "function"
    },
    {
      "inputs": [
        {
          "internalType": "address",
          "name": "from",
          "type": "address"
        },
        {
          "internalType": "address",
          "name": "to",
          "type": "address"
        },
        {
          "internalType": "uint256",
          "name": "tokenId",
          "type": "uint256"
        }
      ],
      "name": "transferFrom",
      "outputs": [],
      "stateMutability": "nonpayable",
      "type": "function"
    },
    {
      "inputs": [
        {
          "internalType": "address",
          "name": "newOwner",
          "type": "address"
        }
      ],
      "name": "transferOwnership",
      "outputs": [],
      "stateMutability": "nonpayable",
      "type": "function"
    },
    {
      "inputs": [],
      "name": "unpause",
      "outputs": [],
      "stateMutability": "nonpayable",
      "type": "function"
    },
    {
      "inputs": [
        {
          "internalType": "uint256",
          "name": "tokenId",
          "type": "uint256"
        },
        {
          "internalType": "bytes32",
          "name": "learningHash",
          "type": "bytes32"
        },
        {
          "internalType": "bytes32",
          "name": "skillsHash",
          "type": "bytes32"
        },
        {
          "internalType": "bytes32",
          "name": "preferencesHash",
          "type": "bytes32"
        }
      ],
      "name": "updateAgentLearning",
      "outputs": [],
      "stateMutability": "nonpayable",
      "type": "function"
    },
    {
      "inputs": [
        {
          "internalType": "uint256",
          "name": "tokenId",
          "type": "uint256"
        },
        {
          "internalType": "string",
          "name": "newEncryptedURI",
          "type": "string"
        },
        {
          "internalType": "bytes32",
          "name": "newContentHash",
          "type": "bytes32"
        },
        {
          "internalType": "bytes",
          "name": "proofData",
          "type": "bytes"
        }
      ],
      "name": "updateMetadata",
      "outputs": [],
      "stateMutability": "nonpayable",
      "type": "function"
    },
    {
      "inputs": [
        {
          "internalType": "bytes32",
          "name": "",
          "type": "bytes32"
        }
      ],
      "name": "usedProofs",
      "outputs": [
        {
          "internalType": "bool",
          "name": "",
          "type": "bool"
        }
      ],
      "stateMutability": "view",
      "type": "function"
    },
    {
      "inputs": [],
      "name": "verificationEndpoint",
      "outputs": [
        {
          "internalType": "string",
          "name": "",
          "type": "string"
        }
      ],
      "stateMutability": "view",
      "type": "function"
    },
    {
      "inputs": [
        {
          "internalType": "uint256",
          "name": "tokenId",
          "type": "uint256"
        },
        {
          "internalType": "bytes",
          "name": "proofData",
          "type": "bytes"
        }
      ],
      "name": "verifyMetadata",
      "outputs": [],
      "stateMutability": "nonpayable",
      "type": "function"
    }
  ],
  "bytecode": "0x60806040523461050957612f25803803806100198161050e565b92833981016060828203126105095781516001600160401b0381116105095781610044918401610533565b60208301519092906001600160401b0381116105095782610066918301610533565b60408201519092906001600160401b038111610509576100869201610533565b82516001600160401b03811161031f57600054600181811c911680156104ff575b60208210146102ff57601f811161049b575b506020601f8211600114610435578192939460009261042a575b50508160011b916000199060031b1c1916176000555b81516001600160401b03811161031f57600154600181811c91168015610420575b60208210146102ff57601f81116103bb575b50602092601f8211600114610356579281929360009261034b575b50508160011b916000199060031b1c1916176001555b33156103355760078054336001600160a01b0319821681179092556001600160a01b03167f8be0079c531659141344cd1fd0a4f28419497f9722a3daafe3b4186f6b6457e0600080a360016008819055600f5580516001600160401b03811161031f57601054600181811c91168015610315575b60208210146102ff57601f811161029a575b50602091601f82116001146102365791819260009261022b575b50508160011b916000199060031b1c1916176010555b33600052600d6020526040600020600160ff19825416179055604051612986908161059f8239f35b0151905038806101ed565b601f198216926010600052806000209160005b85811061028257508360019510610269575b505050811b01601055610203565b015160001960f88460031b161c1916905538808061025b565b91926020600181928685015181550194019201610249565b60106000527f1b6847dc741a1b0cd08d278845f9d819d87b734759afb55fe2de5cb82a9ae672601f830160051c810191602084106102f5575b601f0160051c01905b8181106102e957506101d3565b600081556001016102dc565b90915081906102d3565b634e487b7160e01b600052602260045260246000fd5b90607f16906101c1565b634e487b7160e01b600052604160045260246000fd5b631e4fbdf760e01b600052600060045260246000fd5b015190503880610137565b601f198216936001600052806000209160005b8681106103a3575083600195961061038a575b505050811b0160015561014d565b015160001960f88460031b161c1916905538808061037c565b91926020600181928685015181550194019201610369565b60016000527fb10e2d527612073b26eecdfd717e6a320cf44b4afac2b0732d9fcbe2b7fa0cf6601f830160051c81019160208410610416575b601f0160051c01905b81811061040a575061011c565b600081556001016103fd565b90915081906103f4565b90607f169061010a565b0151905038806100d3565b601f1982169060008052806000209160005b8181106104835750958360019596971061046a575b505050811b016000556100e9565b015160001960f88460031b161c1916905538808061045c565b9192602060018192868b015181550194019201610447565b600080527f290decd9548b62a8d60345a988386fc84ba6bc95484008f6362f93160ef3e563601f830160051c810191602084106104f5575b601f0160051c01905b8181106104e957506100b9565b600081556001016104dc565b90915081906104d3565b90607f16906100a7565b600080fd5b6040519190601f01601f191682016001600160401b0381118382101761031f57604052565b81601f82011215610509578051906001600160401b03821161031f57610562601f8301601f191660200161050e565b92828452602083830101116105095760005b82811061058957505060206000918301015290565b8060208092840101518282870101520161057456fe608080604052600436101561001357600080fd5b60003560e01c90816301ffc9a71461206c5750806306fdde0314611fc7578063081812fc14611f89578063095ea7b314611e9a57806313a0192714611b6657806318aeb92114611a1d57806323b872dd14611a065780633134c2e9146118c157806332cb6b0c146118a35780633f4ba83a1461183a57806342842e0e1461180a5780635423ac8e146117ca578063551db4981461143a5780635c975abb146114175780636352211e146113e757806370a0823114611391578063715018a6146113345780638456cb59146112da5780638da5cb5b146112b157806395d89b41146112095780639a891716146111ca5780639eedcf3314611091578063a22cb46514610ffd578063a4dc782b14610ac8578063adb94f5314610884578063b88d4fde14610828578063bd3bc4281461069d578063bd89c7d5146105d0578063c30a0f251461059f578063c87b56dd1461054b578063db2e21bc146104fb578063e985e9c5146104a0578063ef62f67214610482578063f2fde38b146103f8578063f91a7b89146102b65763ff47db73146101ab57600080fd5b346102b15760203660031901126102b157600435600060c06040516101cf81612165565b8281528260208201528260408201528260608201528260808201528260a0820152015280600052600260205261021360018060a01b0360406000205416151561238e565b600052600b60205260e0604060002060405161022e81612165565b815491828252600181015460208301908152600282015460408401908152600383015490606085019182526004840154926080860193845260c060ff600660058801549760a08a01988952015416960195151586526040519687525160208701525160408601525160608501525160808401525160a083015251151560c0820152f35b600080fd5b346102b15760203660031901126102b157600435606060a06040516102da81612180565b60008152600060208201526000604082015260008382015260006080820152015280600052600260205261031c60018060a01b0360406000205416151561238e565b600052600c602052604060002060405161033581612180565b815481526103f4600560018060a01b03600185015416936020840194855260018060a01b0360028201541660408501908152600382015490606086019182526103a060ff6004850154169360808801941515855261039960405180978193016122bf565b038561219b565b60a086019384526040519687966020885251602088015260018060a01b03905116604087015260018060a01b03905116606086015251608085015251151560a08401525160c08084015260e0830190612114565b0390f35b346102b15760203660031901126102b157610411612139565b610419612721565b6001600160a01b0316801561046c57600780546001600160a01b0319811683179091556001600160a01b03167f8be0079c531659141344cd1fd0a4f28419497f9722a3daafe3b4186f6b6457e0600080a3005b631e4fbdf760e01b600052600060045260246000fd5b346102b15760003660031901126102b157602060405162093a808152f35b346102b15760403660031901126102b1576104b9612139565b6104c161214f565b9060018060a01b0316600052600560205260406000209060018060a01b0316600052602052602060ff604060002054166040519015158152f35b346102b15760003660031901126102b157610514612721565b600080808060018060a01b03600754164790828215610542575bf11561053657005b6040513d6000823e3d90fd5b506108fc61052e565b346102b15760203660031901126102b157600435600052600a6020526103f461058461058b6002604060002001604051928380926122bf565b038261219b565b604051918291602083526020830190612114565b346102b15760203660031901126102b157600435600052600e602052602060ff604060002054166040519015158152f35b346102b15760003660031901126102b15760405160006010546105f281612285565b8084529060018116908115610679575060011461061a575b6103f48361058b8185038261219b565b601060009081527f1b6847dc741a1b0cd08d278845f9d819d87b734759afb55fe2de5cb82a9ae672939250905b80821061065f5750909150810160200161058b61060a565b919260018160209254838588010152019101909291610647565b60ff191660208086019190915291151560051b8401909101915061058b905061060a565b346102b15760203660031901126102b1576004356001600160401b0381116102b1576106cd9036906004016121d7565b6106d5612721565b80516001600160401b038111610812576106f0601054612285565b601f81116107b8575b50602091601f821160011461073a5761072a926000918361072f575b50508160011b916000199060031b1c19161790565b601055005b015190508380610715565b601f1982169260106000527f1b6847dc741a1b0cd08d278845f9d819d87b734759afb55fe2de5cb82a9ae6729160005b8581106107a057508360019510610787575b505050811b01601055005b015160001960f88460031b161c1916905582808061077c565b9192602060018192868501518155019401920161076a565b6010600052610802907f1b6847dc741a1b0cd08d278845f9d819d87b734759afb55fe2de5cb82a9ae672601f840160051c81019160208510610808575b601f0160051c01906123d1565b826106f9565b90915081906107f5565b634e487b7160e01b600052604160045260246000fd5b346102b15760803660031901126102b157610841612139565b61084961214f565b90604435606435926001600160401b0384116102b1576108706108829436906004016121d7565b9261087c83838361244d565b33612767565b005b346102b15760803660031901126102b1576004356024356001600160401b0381116102b1576108b79036906004016121d7565b90604435916064356001600160401b0381116102b1576108db9036906004016121d7565b928260005260026020526108fd60018060a01b0360406000205416151561238e565b610906836126ea565b6001600160a01b031633148015610aaf575b610921906125de565b61092d8251151561265c565b61093881151561269e565b82600052600a6020526040600020936020815191012080600052600e60205261096960ff604060002054161561261b565b825194600281016001600160401b038711610812576109928761098c8354612285565b836123e8565b602096601f8111600114610a3857906109d6826005949360008051602061295a833981519152999a600091610a2d575b508160011b916000199060031b1c19161790565b90555b838155826001820155600381016109f08154612424565b90554260048201550160ff198154169055600052600e6020526040600020600160ff19825416179055610a2860405192839283612433565b0390a2005b90508801518b6109c2565b601f19811682600052886000209060005b818110610a9757509160019160008051602061295a833981519152999a82600597969510610a7e575b5050811b0190556109d9565b89015160001960f88460031b161c191690558a80610a72565b888b0151835560209a8b019a60019093019201610a49565b50336000908152600d602052604090205460ff16610918565b346102b15760803660031901126102b157610ae1612139565b6024356001600160401b0381116102b157610b009036906004016121d7565b6044359060643590610b10612721565b600260085414610fec576002600855610b2761274a565b600f5490620186a08211610fb257610b418151151561265c565b610b4c84151561269e565b82600052600e602052610b6760ff604060002054161561261b565b610b7082612424565b600f55602093604051610b83868261219b565b600081526001600160a01b038716968715610f9c576001600160a01b03610baa8683612890565b16610f86573b610e5f575b5090919293945060405193610bc985612165565b8185528585019481865260408101958487526060820191600183526080810142815260a08201936000855260c08301936000855289600052600a8c52604060002093518455516001840155600283019951998a519a6001600160401b038c11610812578b90610c4282610c3c8554612285565b856123e8565b8d601f819311600114610dd5575093610cba93600593610c948e9f8060008051602061295a8339815191529f9e9d9c9a96610cdd9c9a600092610dca5750508160011b916000199060031b1c19161790565b90555b5160038301555160048201550192511515839060ff801983541691151516179055565b518154610100600160a81b03191660089190911b610100600160a81b0316179055565b610d9460405188810190878252661a5b9a5d1a585b60ca1b604082015260278152610d0960478261219b565b51902060405190610d1982612165565b81526006878a808401600081526040850160008152606086019060018252608087019260008452600b60a089019542875260c08a0197600189526000525260406000209751885551600188015551600287015551600386015551600485015551600584015551151591019060ff801983541691151516179055565b600052600e86526040600020600160ff19825416179055610dba60405192839283612433565b0390a26001600855604051908152f35b015190503880610715565b91908d601f19168460005283600020936000905b828210610e475750509360018e9f60008051602061295a8339815191529e9d9c9b9995610cdd9b9995610cba99958360059a10610e2e575b505050811b019055610c97565b015160001960f88460031b161c19169055388080610e21565b80600186978294978701518155019601940190610de9565b85610e999160405180938192630a85bd0160e11b835233600484015260006024840152886044840152608060648401526084830190612114565b038160008b5af18091600091610f41575b5090610f035786863d15610efb573d90610ec3826121bc565b91610ed1604051938461219b565b82523d60008284013e5b81519182610ef85783633250574960e11b60005260045260246000fd5b01fd5b606090610edb565b630a85bd0160e1979293949596971b9063ffffffff60e01b1603610f2d5750908493929186610bb5565b633250574960e11b60005260045260246000fd5b8781813d8311610f7f575b610f56818361219b565b81010312610f7b5751906001600160e01b031982168203610f78575088610eaa565b80fd5b5080fd5b503d610f4c565b6339e3563760e11b600052600060045260246000fd5b633250574960e11b600052600060045260246000fd5b60405162461bcd60e51b815260206004820152601260248201527113585e081cdd5c1c1b1e481c995858da195960721b6044820152606490fd5b633ee5aeb560e01b60005260046000fd5b346102b15761100b36612256565b6001600160a01b0390911690811561107c5733600052600560205260406000208260005260205261104c8160406000209060ff801983541691151516179055565b60405190151581527f17307eab39ab6107e8899845ad3d59bd9653f200f220920489ca2b5937696c3160203392a3005b50630b61174360e31b60005260045260246000fd5b346102b15760403660031901126102b1576004356024356001600160401b0381116102b157604060016110e97ffed880c60cddbfe0dcacd9391d2813518d24ebeeba843e40124243f927d371f19336906004016121d7565b33600052600d60205260ff83600020541680156111b3575b61110a90612342565b846000526002602052611129828060a01b03846000205416151561238e565b84600052600a60205282600020906020815191012091829182600052600e60205261115b60ff8660002054161561261b565b600581018054610100600160a81b031984166001600160a81b0319909116173360081b610100600160a81b0316179055015580600052600e60205281600020600160ff198254161790558151908152336020820152a2005b5061110a828060a01b036007541633149050611101565b346102b15760203660031901126102b1576001600160a01b036111eb612139565b16600052600d602052602060ff604060002054166040519015158152f35b346102b15760003660031901126102b157604051600060015461122b81612285565b80845290600181169081156106795750600114611252576103f48361058b8185038261219b565b600160009081527fb10e2d527612073b26eecdfd717e6a320cf44b4afac2b0732d9fcbe2b7fa0cf6939250905b8082106112975750909150810160200161058b61060a565b91926001816020925483858801015201910190929161127f565b346102b15760003660031901126102b1576007546040516001600160a01b039091168152602090f35b346102b15760003660031901126102b1576112f3612721565b6112fb61274a565b600160ff1960095416176009557f62e78cea01bee320cd4e420270b5ea74000d11b0c9f74754ebdbfc544b05a2586020604051338152a1005b346102b15760003660031901126102b15761134d612721565b600780546001600160a01b031981169091556000906001600160a01b03167f8be0079c531659141344cd1fd0a4f28419497f9722a3daafe3b4186f6b6457e08280a3005b346102b15760203660031901126102b1576001600160a01b036113b2612139565b1680156113d15760005260036020526020604060002054604051908152f35b6322718ad960e21b600052600060045260246000fd5b346102b15760203660031901126102b15760206114056004356126ea565b6040516001600160a01b039091168152f35b346102b15760003660031901126102b157602060ff600954166040519015158152f35b346102b15760603660031901126102b15760043561145661214f565b6044356001600160401b0381116102b1576114759036906004016121d7565b600083815260026020526040902054611498906001600160a01b0316151561238e565b6114a1836126ea565b336001600160a01b0390911603611793576001600160a01b03821691821561175a573383146117155760405160208101918583523360601b60408301526001600160601b03199060601b166054820152426068820152611520608882855161150f8184840160208a016120f1565b81010301601f19810183528261219b565b5190209062093a8042018042116116ff576005906115d76040519161154483612180565b85835233602080850191825260408086018a81526060870194855260006080880181815260a089019a8b528d8252600c909452919091209551865591516001860180546001600160a01b039283166001600160a01b031991821617909155925160028701805491909216931692909217909155905160038401555160048301805460ff191691151560ff16919091179055565b0190518051906001600160401b038211610812576115f982610c3c8554612285565b602090601f83116001146116725782606095937f4ed2c3b8fc918b53ae1135e7403cdacd8ecee9a63d9686c0e9bcfb97892bd831979593611650936000926116675750508160011b916000199060031b1c19161790565b90555b6040519133835260208301526040820152a2005b015190508980610715565b90601f1983169184600052816000209260005b8181106116e75750926001928592606098967f4ed2c3b8fc918b53ae1135e7403cdacd8ecee9a63d9686c0e9bcfb97892bd8319a9896106116ce575b505050811b019055611653565b015160001960f88460031b161c191690558880806116c1565b92936020600181928786015181550195019301611685565b634e487b7160e01b600052601160045260246000fd5b60405162461bcd60e51b815260206004820152601760248201527f43616e6e6f74207472616e7366657220746f2073656c660000000000000000006044820152606490fd5b60405162461bcd60e51b8152602060048201526011602482015270125b9d985b1a59081c9958da5c1a595b9d607a1b6044820152606490fd5b60405162461bcd60e51b815260206004820152600f60248201526e2737ba103a37b5b2b71037bbb732b960891b6044820152606490fd5b346102b1576108826117db36612256565b906117e4612721565b60018060a01b0316600052600d60205260406000209060ff801983541691151516179055565b346102b15761088261181b3661221c565b906040519261182b60208561219b565b6000845261087c83838361244d565b346102b15760003660031901126102b157611853612721565b60095460ff8116156118925760ff19166009557f5db9ee0a495bf2e6ff9c91a7834c1ba4fdd244a5e8aa4e537bd38aeae4b073aa6020604051338152a1005b638dfc202b60e01b60005260046000fd5b346102b15760003660031901126102b1576020604051620186a08152f35b346102b15760803660031901126102b157600435600081815260026020526040902054602435906118fc906001600160a01b0316151561238e565b611905826126ea565b6001600160a01b0316331480156119ed575b611920906125de565b81600052600b602052604060002060ff600682015416156119a85781817fe222eb2f65c359b976ec834badeeb419bfbe71b5143e5d90d0bbe5c0c8c3f6e193604093556044356001820155606435600282015560038101906119828254612424565b809255600481016119938154612424565b905560054291015582519182526020820152a2005b60405162461bcd60e51b815260206004820152601c60248201527f4167656e74206c6561726e696e67206973206e6f7420616374697665000000006044820152606490fd5b50336000908152600d602052604090205460ff16611917565b346102b157610882611a173661221c565b9161244d565b346102b15760203660031901126102b157600435600060c0604051611a4181612165565b828152826020820152606060408201528260608201528260808201528260a08201520152806000526002602052611a8660018060a01b0360406000205416151561238e565b600052600a6020526040600020604051611a9f81612165565b815481526001820154916020820192835260405190611acc82611ac581600285016122bf565b038361219b565b6040830191825260038101549160608401928352600560048301549260808601938452015491611b3e60a086019260ff85161515845260c087019460018060a01b039060081c168552604051978897602089525160208901525160408801525160e06060880152610100870190612114565b935160808601525160a085015251151560c0840152516001600160a01b031660e08301520390f35b346102b15760603660031901126102b1576004356024356001600160401b0381116102b157611b999036906004016121d7565b906044359133600052600d60205260ff604060002054168015611e86575b611bc090612342565b600082815260026020526040902054611be3906001600160a01b0316151561238e565b6000828152600c602052604090206001810180549194916001600160a01b031615611e4b5760038501544211611e0657600485019060ff825416611dc15784600052600a60205260406000206002810185516001600160401b03811161081257611c5781611c518454612285565b846123e8565b6020601f8211600114611d5757816005949392611c8992600091611d4c57508160011b916000199060031b1c19161790565b90555b84815560038101611c9d8154612424565b905542600482015501805460ff19908116909155905460029096015482549091166001179091556001600160a01b0394851694168015610f9c576001600160a01b0390611ceb908590612890565b169384611d075783637e27328960e01b60005260045260246000fd5b808503611d2f57509060008051602061295a83398151915291610a2860405192839283612433565b9150506364283d7b60e01b60005260045260245260445260646000fd5b90508901518c6109c2565b601f1982169083600052806000209160005b8a828210611da9575050918391600596959460019410611d90575b5050811b019055611c8c565b8a015160001960f88460031b161c191690558b80611d84565b60018495602093958493015181550194019201611d69565b60405162461bcd60e51b815260206004820152601a60248201527f5472616e7366657220616c726561647920636f6d706c657465640000000000006044820152606490fd5b60405162461bcd60e51b815260206004820152601860248201527f5472616e7366657220646561646c696e652070617373656400000000000000006044820152606490fd5b60405162461bcd60e51b81526020600482015260136024820152722737903832b73234b733903a3930b739b332b960691b6044820152606490fd5b506007546001600160a01b03163314611bb7565b346102b15760403660031901126102b157611eb3612139565b602435611ebf816126ea565b33151580611f76575b80611f48575b611f335781906001600160a01b0384811691167f8c5be1e5ebec7d5bd14f71427d1e84f3dd0314c0f7b2291e5b200ac8c7c3b925600080a4600090815260046020526040902080546001600160a01b0319166001600160a01b03909216919091179055005b63a9fbf51f60e01b6000523360045260246000fd5b506001600160a01b038116600090815260056020908152604080832033845290915290205460ff1615611ece565b506001600160a01b038116331415611ec8565b346102b15760203660031901126102b157600435611fa6816126ea565b506000526004602052602060018060a01b0360406000205416604051908152f35b346102b15760003660031901126102b15760405160008054611fe881612285565b8084529060018116908115610679575060011461200f576103f48361058b8185038261219b565b60008080527f290decd9548b62a8d60345a988386fc84ba6bc95484008f6362f93160ef3e563939250905b8082106120525750909150810160200161058b61060a565b91926001816020925483858801015201910190929161203a565b346102b15760203660031901126102b1576004359063ffffffff60e01b82168092036102b157602091632483248360e11b81149081156120ae575b5015158152f35b6380ac58cd60e01b8114915081156120e0575b81156120cf575b50836120a7565b6301ffc9a760e01b149050836120c8565b635b5e139f60e01b811491506120c1565b60005b8381106121045750506000910152565b81810151838201526020016120f4565b9060209161212d815180928185528580860191016120f1565b601f01601f1916010190565b600435906001600160a01b03821682036102b157565b602435906001600160a01b03821682036102b157565b60e081019081106001600160401b0382111761081257604052565b60c081019081106001600160401b0382111761081257604052565b90601f801991011681019081106001600160401b0382111761081257604052565b6001600160401b03811161081257601f01601f191660200190565b81601f820112156102b1576020813591016121f1826121bc565b926121ff604051948561219b565b828452828201116102b15781600092602092838601378301015290565b60609060031901126102b1576004356001600160a01b03811681036102b157906024356001600160a01b03811681036102b1579060443590565b60409060031901126102b1576004356001600160a01b03811681036102b1579060243580151581036102b15790565b90600182811c921680156122b5575b602083101461229f57565b634e487b7160e01b600052602260045260246000fd5b91607f1691612294565b600092918154916122cf83612285565b808352926001811690811561232557506001146122eb57505050565b60009081526020812093945091925b83831061230b575060209250010190565b6001816020929493945483858701015201910191906122fa565b915050602093945060ff929192191683830152151560051b010190565b1561234957565b60405162461bcd60e51b815260206004820152601760248201527f4e6f7420617574686f72697a65642076657269666965720000000000000000006044820152606490fd5b1561239557565b60405162461bcd60e51b8152602060048201526014602482015273151bdad95b88191bd95cc81b9bdd08195e1a5cdd60621b6044820152606490fd5b8181106123dc575050565b600081556001016123d1565b9190601f81116123f757505050565b612422926000526020600020906020601f840160051c8301931061080857601f0160051c01906123d1565b565b60001981146116ff5760010190565b60409061244a939281528160208201520190612114565b90565b6001600160a01b0390911691908215610f9c576000828152600260205260408120546001600160a01b0316938391859033151580612546575b507fddf252ad1be2c89b69c2b068fc378daa952ba7f163c4a11628f55a4df523b3ef9082612511575b83815260036020526040812060018154019055848152600260205260408120846001600160601b0360a01b82541617905580a46001600160a01b03168083036124f757505050565b6364283d7b60e01b60005260045260245260445260646000fd5b600085815260046020526040902080546001600160a01b031916905582815260036020526040812080546000190190556124af565b91509192508061258f575b15612560579084849238612486565b83908561257957602491637e27328960e01b8252600452fd5b60449163177e802f60e01b825233600452602452fd5b5033851480156125bd575b806125515750838152600460205260408120546001600160a01b03163314612551565b5084815260056020908152604080832033845290915281205460ff1661259a565b156125e557565b60405162461bcd60e51b815260206004820152600e60248201526d139bdd08185d5d1a1bdc9a5e995960921b6044820152606490fd5b1561262257565b60405162461bcd60e51b8152602060048201526012602482015271141c9bdbd988185b1c9958591e481d5cd95960721b6044820152606490fd5b1561266357565b60405162461bcd60e51b81526020600482015260136024820152725552492063616e6e6f7420626520656d70747960681b6044820152606490fd5b156126a557565b60405162461bcd60e51b815260206004820152601b60248201527f436f6e74656e7420686173682063616e6e6f74206265207a65726f00000000006044820152606490fd5b6000818152600260205260409020546001600160a01b031690811561270d575090565b637e27328960e01b60005260045260246000fd5b6007546001600160a01b0316330361273557565b63118cdaa760e01b6000523360045260246000fd5b60ff6009541661275657565b63d93c066560e01b60005260046000fd5b823b612775575b5050505050565b604051630a85bd0160e11b81526001600160a01b0391821660048201529181166024830152604482019390935260806064820152911691602090829081906127c1906084830190612114565b03816000865af1809160009161284d575b509061282b57503d15612824573d6127e9816121bc565b906127f7604051928361219b565b81523d6000602083013e5b8051908161281f5782633250574960e11b60005260045260246000fd5b602001fd5b6060612802565b6001600160e01b03191663757a42ff60e11b01610f2d5750388080808061276e565b6020813d602011612888575b816128666020938361219b565b81010312610f7b5751906001600160e01b031982168203610f785750386127d2565b3d9150612859565b6000828152600260205260409020546001600160a01b0316919082612922575b6001600160a01b031680612908575b8160005260026020526040600020816001600160601b0360a01b825416179055827fddf252ad1be2c89b69c2b068fc378daa952ba7f163c4a11628f55a4df523b3ef600080a490565b8060005260036020526040600020600181540190556128bf565b600082815260046020526040902080546001600160a01b0319169055826000526003602052604060002060001981540190556128b056fe673c97364d9a0d1e3cfddc275f9b8f7ba975f4f3d98a5cde0c12ca596540f4aea164736f6c634300081b000a",
  "linkReferences": {},
  "deployedLinkReferences": {}
}