{
  "_format": "hh-sol-artifact-1",
  "contractName": "SrvcFLoAICollection",
  "sourceName": "Contracts/SrvcFLoAICollection.sol",
  "abi": [
    {
      "inputs": [
        {
          "internalType": "address",
          "name": "initialOwner",
          "type": "address"
        }
      ],
      "stateMutability": "nonpayable",
      "type": "constructor"
    },
    {
      "inputs": [
        {
          "internalType": "address",
          "name": "sender",
          "type": "address"
        },
        {
          "internalType": "uint256",
          "name": "balance",
          "type": "uint256"
        },
        {
          "internalType": "uint256",
          "name": "needed",
          "type": "uint256"
        },
        {
          "internalType": "uint256",
          "name": "tokenId",
          "type": "uint256"
        }
      ],
      "name": "ERC1155InsufficientBalance",
      "type": "error"
    },
    {
      "inputs": [
        {
          "internalType": "address",
          "name": "approver",
          "type": "address"
        }
      ],
      "name": "ERC1155InvalidApprover",
      "type": "error"
    },
    {
      "inputs": [
        {
          "internalType": "uint256",
          "name": "idsLength",
          "type": "uint256"
        },
        {
          "internalType": "uint256",
          "name": "valuesLength",
          "type": "uint256"
        }
      ],
      "name": "ERC1155InvalidArrayLength",
      "type": "error"
    },
    {
      "inputs": [
        {
          "internalType": "address",
          "name": "operator",
          "type": "address"
        }
      ],
      "name": "ERC1155InvalidOperator",
      "type": "error"
    },
    {
      "inputs": [
        {
          "internalType": "address",
          "name": "receiver",
          "type": "address"
        }
      ],
      "name": "ERC1155InvalidReceiver",
      "type": "error"
    },
    {
      "inputs": [
        {
          "internalType": "address",
          "name": "sender",
          "type": "address"
        }
      ],
      "name": "ERC1155InvalidSender",
      "type": "error"
    },
    {
      "inputs": [
        {
          "internalType": "address",
          "name": "operator",
          "type": "address"
        },
        {
          "internalType": "address",
          "name": "owner",
          "type": "address"
        }
      ],
      "name": "ERC1155MissingApprovalForAll",
      "type": "error"
    },
    {
      "inputs": [],
      "name": "EnforcedPause",
      "type": "error"
    },
    {
      "inputs": [],
      "name": "ExpectedPause",
      "type": "error"
    },
    {
      "inputs": [
        {
          "internalType": "address",
          "name": "owner",
          "type": "address"
        }
      ],
      "name": "OwnableInvalidOwner",
      "type": "error"
    },
    {
      "inputs": [
        {
          "internalType": "address",
          "name": "account",
          "type": "address"
        }
      ],
      "name": "OwnableUnauthorizedAccount",
      "type": "error"
    },
    {
      "anonymous": false,
      "inputs": [
        {
          "indexed": true,
          "internalType": "address",
          "name": "account",
          "type": "address"
        },
        {
          "indexed": true,
          "internalType": "address",
          "name": "operator",
          "type": "address"
        },
        {
          "indexed": false,
          "internalType": "bool",
          "name": "approved",
          "type": "bool"
        }
      ],
      "name": "ApprovalForAll",
      "type": "event"
    },
    {
      "anonymous": false,
      "inputs": [
        {
          "indexed": true,
          "internalType": "address",
          "name": "previousOwner",
          "type": "address"
        },
        {
          "indexed": true,
          "internalType": "address",
          "name": "newOwner",
          "type": "address"
        }
      ],
      "name": "OwnershipTransferred",
      "type": "event"
    },
    {
      "anonymous": false,
      "inputs": [
        {
          "indexed": false,
          "internalType": "address",
          "name": "account",
          "type": "address"
        }
      ],
      "name": "Paused",
      "type": "event"
    },
    {
      "anonymous": false,
      "inputs": [
        {
          "indexed": true,
          "internalType": "address",
          "name": "operator",
          "type": "address"
        },
        {
          "indexed": true,
          "internalType": "address",
          "name": "from",
          "type": "address"
        },
        {
          "indexed": true,
          "internalType": "address",
          "name": "to",
          "type": "address"
        },
        {
          "indexed": false,
          "internalType": "uint256[]",
          "name": "ids",
          "type": "uint256[]"
        },
        {
          "indexed": false,
          "internalType": "uint256[]",
          "name": "values",
          "type": "uint256[]"
        }
      ],
      "name": "TransferBatch",
      "type": "event"
    },
    {
      "anonymous": false,
      "inputs": [
        {
          "indexed": true,
          "internalType": "address",
          "name": "operator",
          "type": "address"
        },
        {
          "indexed": true,
          "internalType": "address",
          "name": "from",
          "type": "address"
        },
        {
          "indexed": true,
          "internalType": "address",
          "name": "to",
          "type": "address"
        },
        {
          "indexed": false,
          "internalType": "uint256",
          "name": "id",
          "type": "uint256"
        },
        {
          "indexed": false,
          "internalType": "uint256",
          "name": "value",
          "type": "uint256"
        }
      ],
      "name": "TransferSingle",
      "type": "event"
    },
    {
      "anonymous": false,
      "inputs": [
        {
          "indexed": false,
          "internalType": "string",
          "name": "value",
          "type": "string"
        },
        {
          "indexed": true,
          "internalType": "uint256",
          "name": "id",
          "type": "uint256"
        }
      ],
      "name": "URI",
      "type": "event"
    },
    {
      "anonymous": false,
      "inputs": [
        {
          "indexed": false,
          "internalType": "address",
          "name": "account",
          "type": "address"
        }
      ],
      "name": "Unpaused",
      "type": "event"
    },
    {
      "inputs": [],
      "name": "BUSINESS_CREDITS",
      "outputs": [
        {
          "internalType": "uint256",
          "name": "",
          "type": "uint256"
        }
      ],
      "stateMutability": "view",
      "type": "function"
    },
    {
      "inputs": [],
      "name": "CUSTOM_CREDITS",
      "outputs": [
        {
          "internalType": "uint256",
          "name": "",
          "type": "uint256"
        }
      ],
      "stateMutability": "view",
      "type": "function"
    },
    {
      "inputs": [],
      "name": "ENTERPRISE_CREDITS",
      "outputs": [
        {
          "internalType": "uint256",
          "name": "",
          "type": "uint256"
        }
      ],
      "stateMutability": "view",
      "type": "function"
    },
    {
      "inputs": [],
      "name": "PRO_CREDITS",
      "outputs": [
        {
          "internalType": "uint256",
          "name": "",
          "type": "uint256"
        }
      ],
      "stateMutability": "view",
      "type": "function"
    },
    {
      "inputs": [],
      "name": "STARTER_CREDITS",
      "outputs": [
        {
          "internalType": "uint256",
          "name": "",
          "type": "uint256"
        }
      ],
      "stateMutability": "view",
      "type": "function"
    },
    {
      "inputs": [
        {
          "internalType": "address",
          "name": "account",
          "type": "address"
        },
        {
          "internalType": "uint256",
          "name": "id",
          "type": "uint256"
        }
      ],
      "name": "balanceOf",
      "outputs": [
        {
          "internalType": "uint256",
          "name": "",
          "type": "uint256"
        }
      ],
      "stateMutability": "view",
      "type": "function"
    },
    {
      "inputs": [
        {
          "internalType": "address[]",
          "name": "accounts",
          "type": "address[]"
        },
        {
          "internalType": "uint256[]",
          "name": "ids",
          "type": "uint256[]"
        }
      ],
      "name": "balanceOfBatch",
      "outputs": [
        {
          "internalType": "uint256[]",
          "name": "",
          "type": "uint256[]"
        }
      ],
      "stateMutability": "view",
      "type": "function"
    },
    {
      "inputs": [
        {
          "internalType": "address",
          "name": "account",
          "type": "address"
        },
        {
          "internalType": "uint256",
          "name": "id",
          "type": "uint256"
        },
        {
          "internalType": "uint256",
          "name": "value",
          "type": "uint256"
        }
      ],
      "name": "burn",
      "outputs": [],
      "stateMutability": "nonpayable",
      "type": "function"
    },
    {
      "inputs": [
        {
          "internalType": "address",
          "name": "account",
          "type": "address"
        },
        {
          "internalType": "uint256[]",
          "name": "ids",
          "type": "uint256[]"
        },
        {
          "internalType": "uint256[]",
          "name": "values",
          "type": "uint256[]"
        }
      ],
      "name": "burnBatch",
      "outputs": [],
      "stateMutability": "nonpayable",
      "type": "function"
    },
    {
      "inputs": [
        {
          "internalType": "uint256",
          "name": "",
          "type": "uint256"
        }
      ],
      "name": "creditAmounts",
      "outputs": [
        {
          "internalType": "uint256",
          "name": "",
          "type": "uint256"
        }
      ],
      "stateMutability": "view",
      "type": "function"
    },
    {
      "inputs": [
        {
          "internalType": "uint256",
          "name": "id",
          "type": "uint256"
        }
      ],
      "name": "exists",
      "outputs": [
        {
          "internalType": "bool",
          "name": "",
          "type": "bool"
        }
      ],
      "stateMutability": "view",
      "type": "function"
    },
    {
      "inputs": [
        {
          "internalType": "uint256",
          "name": "tokenId",
          "type": "uint256"
        }
      ],
      "name": "getCreditAmount",
      "outputs": [
        {
          "internalType": "uint256",
          "name": "",
          "type": "uint256"
        }
      ],
      "stateMutability": "view",
      "type": "function"
    },
    {
      "inputs": [
        {
          "internalType": "address",
          "name": "account",
          "type": "address"
        },
        {
          "internalType": "address",
          "name": "operator",
          "type": "address"
        }
      ],
      "name": "isApprovedForAll",
      "outputs": [
        {
          "internalType": "bool",
          "name": "",
          "type": "bool"
        }
      ],
      "stateMutability": "view",
      "type": "function"
    },
    {
      "inputs": [
        {
          "internalType": "address",
          "name": "account",
          "type": "address"
        },
        {
          "internalType": "uint256",
          "name": "id",
          "type": "uint256"
        },
        {
          "internalType": "uint256",
          "name": "amount",
          "type": "uint256"
        },
        {
          "internalType": "bytes",
          "name": "data",
          "type": "bytes"
        }
      ],
      "name": "mint",
      "outputs": [],
      "stateMutability": "nonpayable",
      "type": "function"
    },
    {
      "inputs": [
        {
          "internalType": "address",
          "name": "to",
          "type": "address"
        },
        {
          "internalType": "uint256[]",
          "name": "ids",
          "type": "uint256[]"
        },
        {
          "internalType": "uint256[]",
          "name": "amounts",
          "type": "uint256[]"
        },
        {
          "internalType": "bytes",
          "name": "data",
          "type": "bytes"
        }
      ],
      "name": "mintBatch",
      "outputs": [],
      "stateMutability": "nonpayable",
      "type": "function"
    },
    {
      "inputs": [
        {
          "internalType": "address",
          "name": "account",
          "type": "address"
        },
        {
          "internalType": "uint256",
          "name": "creditAmount",
          "type": "uint256"
        },
        {
          "internalType": "bytes",
          "name": "data",
          "type": "bytes"
        }
      ],
      "name": "mintCustomCredits",
      "outputs": [],
      "stateMutability": "nonpayable",
      "type": "function"
    },
    {
      "inputs": [],
      "name": "owner",
      "outputs": [
        {
          "internalType": "address",
          "name": "",
          "type": "address"
        }
      ],
      "stateMutability": "view",
      "type": "function"
    },
    {
      "inputs": [],
      "name": "pause",
      "outputs": [],
      "stateMutability": "nonpayable",
      "type": "function"
    },
    {
      "inputs": [],
      "name": "paused",
      "outputs": [
        {
          "internalType": "bool",
          "name": "",
          "type": "bool"
        }
      ],
      "stateMutability": "view",
      "type": "function"
    },
    {
      "inputs": [],
      "name": "renounceOwnership",
      "outputs": [],
      "stateMutability": "nonpayable",
      "type": "function"
    },
    {
      "inputs": [
        {
          "internalType": "address",
          "name": "from",
          "type": "address"
        },
        {
          "internalType": "address",
          "name": "to",
          "type": "address"
        },
        {
          "internalType": "uint256[]",
          "name": "ids",
          "type": "uint256[]"
        },
        {
          "internalType": "uint256[]",
          "name": "values",
          "type": "uint256[]"
        },
        {
          "internalType": "bytes",
          "name": "data",
          "type": "bytes"
        }
      ],
      "name": "safeBatchTransferFrom",
      "outputs": [],
      "stateMutability": "nonpayable",
      "type": "function"
    },
    {
      "inputs": [
        {
          "internalType": "address",
          "name": "from",
          "type": "address"
        },
        {
          "internalType": "address",
          "name": "to",
          "type": "address"
        },
        {
          "internalType": "uint256",
          "name": "id",
          "type": "uint256"
        },
        {
          "internalType": "uint256",
          "name": "value",
          "type": "uint256"
        },
        {
          "internalType": "bytes",
          "name": "data",
          "type": "bytes"
        }
      ],
      "name": "safeTransferFrom",
      "outputs": [],
      "stateMutability": "nonpayable",
      "type": "function"
    },
    {
      "inputs": [
        {
          "internalType": "address",
          "name": "operator",
          "type": "address"
        },
        {
          "internalType": "bool",
          "name": "approved",
          "type": "bool"
        }
      ],
      "name": "setApprovalForAll",
      "outputs": [],
      "stateMutability": "nonpayable",
      "type": "function"
    },
    {
      "inputs": [
        {
          "internalType": "string",
          "name": "newuri",
          "type": "string"
        }
      ],
      "name": "setURI",
      "outputs": [],
      "stateMutability": "nonpayable",
      "type": "function"
    },
    {
      "inputs": [
        {
          "internalType": "bytes4",
          "name": "interfaceId",
          "type": "bytes4"
        }
      ],
      "name": "supportsInterface",
      "outputs": [
        {
          "internalType": "bool",
          "name": "",
          "type": "bool"
        }
      ],
      "stateMutability": "view",
      "type": "function"
    },
    {
      "inputs": [],
      "name": "totalSupply",
      "outputs": [
        {
          "internalType": "uint256",
          "name": "",
          "type": "uint256"
        }
      ],
      "stateMutability": "view",
      "type": "function"
    },
    {
      "inputs": [
        {
          "internalType": "uint256",
          "name": "id",
          "type": "uint256"
        }
      ],
      "name": "totalSupply",
      "outputs": [
        {
          "internalType": "uint256",
          "name": "",
          "type": "uint256"
        }
      ],
      "stateMutability": "view",
      "type": "function"
    },
    {
      "inputs": [
        {
          "internalType": "address",
          "name": "newOwner",
          "type": "address"
        }
      ],
      "name": "transferOwnership",
      "outputs": [],
      "stateMutability": "nonpayable",
      "type": "function"
    },
    {
      "inputs": [],
      "name": "unpause",
      "outputs": [],
      "stateMutability": "nonpayable",
      "type": "function"
    },
    {
      "inputs": [
        {
          "internalType": "uint256",
          "name": "",
          "type": "uint256"
        }
      ],
      "name": "uri",
      "outputs": [
        {
          "internalType": "string",
          "name": "",
          "type": "string"
        }
      ],
      "stateMutability": "view",
      "type": "function"
    },
    {
      "inputs": [
        {
          "internalType": "address",
          "name": "account",
          "type": "address"
        },
        {
          "internalType": "uint256",
          "name": "tokenId",
          "type": "uint256"
        },
        {
          "internalType": "uint256",
          "name": "creditsToUse",
          "type": "uint256"
        }
      ],
      "name": "useCredits",
      "outputs": [],
      "stateMutability": "nonpayable",
      "type": "function"
    },
    {
      "inputs": [
        {
          "internalType": "address",
          "name": "",
          "type": "address"
        }
      ],
      "name": "userCustomCredits",
      "outputs": [
        {
          "internalType": "uint256",
          "name": "",
          "type": "uint256"
        }
      ],
      "stateMutability": "view",
      "type": "function"
    }
  ],
  "bytecode": "0x6080604052346102ea57604051600090611fb53881900390601f8201601f191683016001600160401b038111848210176102d657918084926020946040528339810103126102d257516001600160a01b03811691908290036102cf5760405190606082016001600160401b038111838210176102bb57604052602d82527f68747470733a2f2f6170692e73727663666c6f2e636f6d2f637265646974732f60208301526c6d657461646174612f7b69647d60981b604083015250600254600190600181811c911680156102b1575b602082101461029b57601f8111610234575b50506020906002600052816000209160005b6020811061021c575001516001600160981b0319169055605b600255801561020657600380546001600160a01b03198116831790915560405191906001600160a01b03167f8be0079c531659141344cd1fd0a4f28419497f9722a3daafe3b4186f6b6457e0600080a360066020526102ee7f54cdd369e4e8a8515e52ca72ec816c2101831ad1f18bf44102ed171459c9b4f855611f407f3e5fec24aa4dc4e5aee2e025e51e1392c72a2500577559fae9665c6d52bd6a3155620186a07f8819ef417987f8ae7a81f42cdfb18815282fe989326fbff903d13cf0e03ace295560036000526203f7a07f75f96ab15d697e93042dc45b5c896c4b27e89bb6eaf39475c5c371cb2513f7d255611cc590816102f08239f35b631e4fbdf760e01b600052600060045260246000fd5b909260206001819286860151815501940191016100f1565b6002600052601f0160051c7f405787fa12a823e0f2b7631cc41b3ba8828b3321ca811111fa75cd3aa3bb5ace017f405787fa12a823e0f2b7631cc41b3ba8828b3321ca811111fa75cd3aa3bb5ad05b81811061029057506100df565b600081558201610283565b634e487b7160e01b600052602260045260246000fd5b90607f16906100cd565b634e487b7160e01b82526041600452602482fd5b80fd5b5080fd5b634e487b7160e01b85526041600452602485fd5b600080fdfe6080604052600436101561001257600080fd5b60003560e01c8062fdd58e1461021657806301ffc9a71461021157806302fe53051461020c5780630a82dc8f146102075780630e89341c1461020257806318160ddd146101fd5780631dedabca146101f85780631f7fdffa146101f35780632eb2c2d6146101ee5780633f4ba83a146101e95780634e1273f4146101e45780634f558e79146101df57806354c5ff85146101da5780635c975abb146101d557806363cee3c3146101d05780636b20c454146101cb578063715018a6146101c6578063731133e9146101c15780638456cb59146101bc5780638da5cb5b146101b7578063a22cb465146101b2578063bd85b039146101ad578063c50e67a3146101a8578063d5aefc17146101a3578063e985e9c51461019e578063f242432a14610199578063f2fde38b14610194578063f34062cd1461018f578063f43d5eca1461018a578063f5298aca14610185578063f9a57d60146101805763fcda311f1461017b57600080fd5b6111fd565b6111c3565b611152565b611136565b611110565b611086565b610fba565b610f5d565b610eca565b610eae565b610e82565b610dc8565b610d9f565b610d3d565b610cb5565b610c58565b610b76565b610af2565b610aa2565b610a86565b610a58565b610999565b6108e3565b610859565b61070e565b610653565b610635565b610557565b6104e6565b6103bb565b6102bf565b610260565b600435906001600160a01b038216820361023157565b600080fd5b602435906001600160a01b038216820361023157565b35906001600160a01b038216820361023157565b346102315760403660031901126102315760206102a461027e61021b565b6024356000526000835260406000209060018060a01b0316600052602052604060002090565b54604051908152f35b6001600160e01b031981160361023157565b346102315760203660031901126102315760206004356102de816102ad565b63ffffffff60e01b16636cdb3d1360e11b811490811561031c575b811561030b575b506040519015158152f35b6301ffc9a760e01b14905038610300565b6303a24d0760e21b811491506102f9565b634e487b7160e01b600052604160045260246000fd5b90601f801991011681019081106001600160401b0382111761036457604052565b61032d565b6001600160401b03811161036457601f01601f191660200190565b92919261039082610369565b9161039e6040519384610343565b829481845281830111610231578281602093846000960137010152565b34610231576020366003190112610231576004356001600160401b0381116102315736602382011215610231576103fc903690602481600401359101610384565b6104046113c0565b80516001600160401b0381116103645761042881610423600254611219565b6113e9565b602091601f821160011461046857610458926000918361045d575b50508160011b916000199060031b1c19161790565b600255005b015190503880610443565b6002600052601f198216927f405787fa12a823e0f2b7631cc41b3ba8828b3321ca811111fa75cd3aa3bb5ace9160005b8581106104ce575083600195106104b5575b505050811b01600255005b015160001960f88460031b161c191690553880806104aa565b91926020600181928685015181550194019201610498565b3461023157600036600319011261023157602060405160018152f35b919082519283825260005b84811061052e575050826000602080949584010152601f8019910116010190565b8060208092840101518282860101520161050d565b906020610554928181520190610502565b90565b3461023157602036600319011261023157604051600060025461057981611219565b808452906001811690811561061157506001146105b1575b6105ad836105a181850382610343565b60405191829182610543565b0390f35b91905060026000527f405787fa12a823e0f2b7631cc41b3ba8828b3321ca811111fa75cd3aa3bb5ace916000905b8082106105f7575090915081016020016105a1610591565b9192600181602092548385880101520191019092916105df565b60ff191660208086019190915291151560051b840190910191506105a19050610591565b34610231576000366003190112610231576020600554604051908152f35b346102315760203660031901126102315760043560005260066020526020604060002054604051908152f35b6001600160401b0381116103645760051b60200190565b9080601f830112156102315781356106ad8161067f565b926106bb6040519485610343565b81845260208085019260051b82010192831161023157602001905b8282106106e35750505090565b81358152602091820191016106d6565b9080601f830112156102315781602061055493359101610384565b346102315760803660031901126102315761072761021b565b6024356001600160401b03811161023157610746903690600401610696565b906044356001600160401b03811161023157610766903690600401610696565b906064356001600160401b038111610231576107869036906004016106f3565b9161078f6113c0565b6001600160a01b03821615610843576107ab8185846000611abb565b600091825b85518410156107fe576107f66001918560051b906107e46020808489010151938b0101516000526004602052604060002090565b6107ef838254611a98565b9055611a98565b9301926107b0565b82866108156108108894600554611a98565b600555565b8051600103610837579060208061083595930151910151916000336119f8565b005b610835936000336118c3565b632bfa23e760e11b600052600060045260246000fd5b346102315760a03660031901126102315761087261021b565b61087a610236565b906044356001600160401b0381116102315761089a903690600401610696565b6064356001600160401b038111610231576108b9903690600401610696565b90608435936001600160401b038511610231576108dd6108359536906004016106f3565b93611253565b34610231576000366003190112610231576108fc6113c0565b60035460ff8160a01c16156109435760ff60a01b19166003556040513381527f5db9ee0a495bf2e6ff9c91a7834c1ba4fdd244a5e8aa4e537bd38aeae4b073aa90602090a1005b638dfc202b60e01b60005260046000fd5b906020808351928381520192019060005b8181106109725750505090565b8251845260209384019390920191600101610965565b906020610554928181520190610954565b34610231576040366003190112610231576004356001600160401b0381116102315736602382011215610231578060040135906109d58261067f565b916109e36040519384610343565b8083526024602084019160051b8301019136831161023157602401905b828210610a4057836024356001600160401b038111610231576105ad91610a2e610a34923690600401610696565b906112dc565b60405191829182610988565b60208091610a4d8461024c565b815201910190610a00565b3461023157602036600319011261023157600435600052600460205260206040600020541515604051908152f35b3461023157600036600319011261023157602060405160028152f35b3461023157600036600319011261023157602060ff60035460a01c166040519015158152f35b6060906003190112610231576004356001600160a01b038116810361023157906024359060443590565b3461023157610b0036610ac8565b90610b096113c0565b6000818152602081815260408083206001600160a01b0387168452909152902082905410610b3a576108359261143c565b60405162461bcd60e51b8152602060048201526014602482015273496e73756666696369656e74206372656469747360601b6044820152606490fd5b3461023157606036600319011261023157610b8f61021b565b6024356001600160401b03811161023157610bae903690600401610696565b906044356001600160401b03811161023157610bce903690600401610696565b6001600160a01b0382163381141580610c34575b610c1c5715610c07576108359260405192610bfe602085610343565b600084526114e9565b626a0d4560e21b600052600060045260246000fd5b63711bec9160e11b6000523360045260245260446000fd5b50600081815260016020908152604080832033845290915290205460ff1615610be2565b3461023157600036600319011261023157610c716113c0565b600380546001600160a01b031981169091556000906001600160a01b03167f8be0079c531659141344cd1fd0a4f28419497f9722a3daafe3b4186f6b6457e08280a3005b3461023157608036600319011261023157610cce61021b565b602435604435916064356001600160401b03811161023157610cf49036906004016106f3565b91610cfd6113c0565b6001600160a01b038216156108435761083593610d3760405192600184526020840152604083019160018352606084015260808301604052565b916115b6565b3461023157600036600319011261023157610d566113c0565b610d5e61180b565b6003805460ff60a01b1916600160a01b1790556040513381527f62e78cea01bee320cd4e420270b5ea74000d11b0c9f74754ebdbfc544b05a25890602090a1005b34610231576000366003190112610231576003546040516001600160a01b039091168152602090f35b3461023157604036600319011261023157610de161021b565b602435801515808203610231576001600160a01b038316928315610e6d573360009081526001602090815260408083206001600160a01b039094168352929052209060ff801983541691161790557f17307eab39ab6107e8899845ad3d59bd9653f200f220920489ca2b5937696c3160405180610e68339482919091602081019215159052565b0390a3005b62ced3e160e81b600052600060045260246000fd5b346102315760203660031901126102315760043560005260046020526020604060002054604051908152f35b3461023157600036600319011261023157602060405160038152f35b3461023157606036600319011261023157610ee361021b565b602435906044356001600160401b03811161023157610f069036906004016106f3565b90610f0f6113c0565b6001600160a01b03811660008181526007602052604090208490551561084357610d376108359360049160405192600184526020840152604083019160018352606084015260808301604052565b3461023157604036600319011261023157602060ff610fae610f7d61021b565b610f85610236565b6001600160a01b0391821660009081526001865260408082209290931681526020919091522090565b54166040519015158152f35b346102315760a036600319011261023157610fd361021b565b610fdb610236565b60443590606435926084356001600160401b038111610231576110029036906004016106f3565b926001600160a01b0382163381141580611062575b610c1c576001600160a01b038416156108435715610c07576108359461105a60405192600184526020840152604083019160018352606084015260808301604052565b9290916116d7565b50600081815260016020908152604080832033845290915290205460ff1615611017565b346102315760203660031901126102315761109f61021b565b6110a76113c0565b6001600160a01b031680156110fa57600380546001600160a01b0319811683179091556001600160a01b03167f8be0079c531659141344cd1fd0a4f28419497f9722a3daafe3b4186f6b6457e0600080a3005b631e4fbdf760e01b600052600060045260246000fd5b3461023157602036600319011261023157602061112e600435611394565b604051908152f35b3461023157600036600319011261023157602060405160048152f35b346102315761116036610ac8565b6001600160a01b03831692909190338414158061119f575b61118657610835935061143c565b8363711bec9160e11b6000523360045260245260446000fd5b50600084815260016020908152604080832033845290915290205460ff1615611178565b34610231576020366003190112610231576001600160a01b036111e461021b565b1660005260076020526020604060002054604051908152f35b3461023157600036600319011261023157602060405160008152f35b90600182811c92168015611249575b602083101461123357565b634e487b7160e01b600052602260045260246000fd5b91607f1691611228565b939291906001600160a01b038516338114158061128e575b610c1c576001600160a01b038216156108435715610c075761128c946116d7565b565b50600081815260016020908152604080832033845290915290205460ff161561126b565b80518210156112c65760209160051b010190565b634e487b7160e01b600052603260045260246000fd5b9190918051835180820361137d5750508051906112f88261067f565b916113066040519384610343565b808352611315601f199161067f565b0136602084013760005b8151811015611376578061136560019260051b60208082870101519189010151906000918252602082815260408084206001600160a01b03909316845291905290205490565b61136f82866112b2565b520161131f565b5090925050565b635b05999160e01b60005260045260245260446000fd5b600481146113ad57600052600660205260406000205490565b5033600052600760205260406000205490565b6003546001600160a01b031633036113d457565b63118cdaa760e01b6000523360045260246000fd5b601f81116113f5575050565b60026000526020600020906020601f840160051c83019310611432575b601f0160051c01905b818110611426575050565b6000815560010161141b565b9091508190611412565b92916001600160a01b03841615610c075761147460405192600184526020840152604083019160018352606084015260808301604052565b611492818360006020978160405161148c8b82610343565b52611abb565b600090815b83518310156114d6576001908360051b906114c78880848701015193880101516000526004602052604060002090565b82815403905501920191611497565b9250505061128c91925060055403600555565b90919392506114fb8483600084611abb565b6001600160a01b031615611560575b6000805b825182101561154e576001908260051b9061153f602080848a01015193870101516000526004602052604060002090565b8281540390550191019061150e565b91505061128c91925060055403600555565b6000805b82518210156115a0576115986001918360051b906107e4602080848b01015193880101516000526004602052604060002090565b910190611564565b6115b1915061081090600554611a98565b61150a565b939190916115c78284876000611abb565b600094855b8451871015611608576116006001918860051b906107e4602080848a010151938a0101516000526004602052604060002090565b9601956115cc565b61161d91959492965061081090600554611a98565b6001600160a01b0384161580611674575b1561163a575b50505050565b8051600103611663579060208061165a95930151910151916000336119f8565b38808080611634565b61166f936000336118c3565b61165a565b9360009591936000965b85518810156116be576001908860051b906116af602080848a010151938a0101516000526004602052604060002090565b8281540390550197019661167e565b6116d2919593975095919560055403600555565b61162e565b919392906116e782868386611abb565b6001600160a01b038316156117ad575b6001600160a01b038116158061174c575b15611715575b5050505050565b845160010361173b5760208061173196015192015192336119f8565b388080808061170e565b611747949192336118c3565b611731565b94936000939091845b8651861015611795576001908660051b90611786602080848a010151938b0101516000526004602052604060002090565b82815403905501950194611755565b6117a89193969792955060055403600555565b611708565b9392600092835b85518510156117f0576117e86001918660051b906107e4602080848a010151938b0101516000526004602052604060002090565b9401936117b4565b6118069194506108109096929596600554611a98565b6116f7565b60ff60035460a01c1661181a57565b63d93c066560e01b60005260046000fd5b908160209103126102315751610554816102ad565b6001600160a01b0391821681529116602082015260a060408201819052610554949193919261188592916118779190860190610954565b908482036060860152610954565b916080818403910152610502565b3d156118be573d906118a482610369565b916118b26040519384610343565b82523d6000602084013e565b606090565b9091949293853b6118d7575b505050505050565b6020936118f991604051968795869563bc197c8160e01b875260048701611840565b038160006001600160a01b0387165af16000918161198e575b5061194e5750611920611893565b805191908261194757632bfa23e760e11b6000526001600160a01b03821660045260246000fd5b6020915001fd5b6001600160e01b0319166343e6837f60e01b0161197157503880808080806118cf565b632bfa23e760e11b6000526001600160a01b031660045260246000fd5b6119b191925060203d6020116119b8575b6119a98183610343565b81019061182b565b9038611912565b503d61199f565b6001600160a01b039182168152911660208201526040810191909152606081019190915260a06080820181905261055492910190610502565b9091949293853b611a0b57505050505050565b602093611a2d91604051968795869563f23a6e6160e01b8752600487016119bf565b038160006001600160a01b0387165af160009181611a77575b50611a545750611920611893565b6001600160e01b031916630dc5919f60e01b0161197157503880808080806118cf565b611a9191925060203d6020116119b8576119a98183610343565b9038611a46565b91908201809211611aa557565b634e487b7160e01b600052601160045260246000fd5b939192611ac661180b565b8351815190818103611c7c5750506001600160a01b038581169485151594918416801515929060005b8351811015611bf0578060051b90888887602080868a010151958b01015192611b69575b93600194611b25575b50505001611aef565b611b5f91611b40611b57926000526000602052604060002090565b9060018060a01b0316600052602052604060002090565b918254611a98565b9055388881611b1c565b50509091611b858c611b40836000526000602052604060002090565b54828110611bb9578291888e611bb0600197968e950391611b40856000526000602052604060002090565b55909450611b13565b6040516303dee4c560e01b81526001600160a01b038e16600482015260248101919091526044810183905260648101829052608490fd5b509695509650919250506001815114600014611c495760209081015191810151604080519384529183015233917fc3d58168c5ae7397731d063d5bbf3d657854427343f4c083240f7aacaa2d0f6291819081015b0390a4565b60405133927f4a39dc06d4c0dbc64b70af90fd698a233a518aa5d07e595d983b8c0526c8f7fb928291611c449183611c93565b635b05999160e01b60005260045260245260446000fd5b9091611caa61055493604084526040840190610954565b91602081840391015261095456fea164736f6c634300081b000a",
  "linkReferences": {},
  "deployedLinkReferences": {}
}