{
  "_format": "hh-sol-artifact-1",
  "contractName": "SonicMainnetPaymentV2",
  "sourceName": "Contracts/SonicMainnetPaymentV2.sol",
  "abi": [
    {
      "inputs": [
        {
          "internalType": "address",
          "name": "initialOwner",
          "type": "address"
        },
        {
          "internalType": "address",
          "name": "_usdc",
          "type": "address"
        },
        {
          "internalType": "address payable",
          "name": "_creditsNFT",
          "type": "address"
        },
        {
          "internalType": "address",
          "name": "_stakingContract",
          "type": "address"
        },
        {
          "internalType": "address",
          "name": "_devWallet",
          "type": "address"
        }
      ],
      "stateMutability": "nonpayable",
      "type": "constructor"
    },
    {
      "inputs": [],
      "name": "EnforcedPause",
      "type": "error"
    },
    {
      "inputs": [],
      "name": "ExpectedPause",
      "type": "error"
    },
    {
      "inputs": [
        {
          "internalType": "address",
          "name": "owner",
          "type": "address"
        }
      ],
      "name": "OwnableInvalidOwner",
      "type": "error"
    },
    {
      "inputs": [
        {
          "internalType": "address",
          "name": "account",
          "type": "address"
        }
      ],
      "name": "OwnableUnauthorizedAccount",
      "type": "error"
    },
    {
      "inputs": [],
      "name": "ReentrancyGuardReentrantCall",
      "type": "error"
    },
    {
      "inputs": [
        {
          "internalType": "address",
          "name": "token",
          "type": "address"
        }
      ],
      "name": "SafeERC20FailedOperation",
      "type": "error"
    },
    {
      "anonymous": false,
      "inputs": [
        {
          "indexed": true,
          "internalType": "address",
          "name": "recipient",
          "type": "address"
        },
        {
          "indexed": false,
          "internalType": "uint256",
          "name": "credits",
          "type": "uint256"
        },
        {
          "indexed": false,
          "internalType": "string",
          "name": "creditType",
          "type": "string"
        },
        {
          "indexed": false,
          "internalType": "string",
          "name": "reason",
          "type": "string"
        }
      ],
      "name": "CreditGifted",
      "type": "event"
    },
    {
      "anonymous": false,
      "inputs": [
        {
          "indexed": true,
          "internalType": "address",
          "name": "from",
          "type": "address"
        },
        {
          "indexed": true,
          "internalType": "address",
          "name": "to",
          "type": "address"
        },
        {
          "indexed": false,
          "internalType": "uint256",
          "name": "credits",
          "type": "uint256"
        },
        {
          "indexed": false,
          "internalType": "string",
          "name": "creditType",
          "type": "string"
        }
      ],
      "name": "CreditTransfer",
      "type": "event"
    },
    {
      "anonymous": false,
      "inputs": [
        {
          "indexed": true,
          "internalType": "address",
          "name": "user",
          "type": "address"
        },
        {
          "indexed": true,
          "internalType": "uint256",
          "name": "packageId",
          "type": "uint256"
        },
        {
          "indexed": false,
          "internalType": "string",
          "name": "tokenType",
          "type": "string"
        },
        {
          "indexed": false,
          "internalType": "uint256",
          "name": "credits",
          "type": "uint256"
        },
        {
          "indexed": false,
          "internalType": "uint256",
          "name": "amount",
          "type": "uint256"
        }
      ],
      "name": "CreditsPurchased",
      "type": "event"
    },
    {
      "anonymous": false,
      "inputs": [
        {
          "indexed": true,
          "internalType": "address",
          "name": "user",
          "type": "address"
        },
        {
          "indexed": false,
          "internalType": "uint256",
          "name": "credits",
          "type": "uint256"
        },
        {
          "indexed": false,
          "internalType": "string",
          "name": "generationType",
          "type": "string"
        },
        {
          "indexed": false,
          "internalType": "uint256",
          "name": "generationId",
          "type": "uint256"
        }
      ],
      "name": "CreditsSpent",
      "type": "event"
    },
    {
      "anonymous": false,
      "inputs": [
        {
          "indexed": true,
          "internalType": "address",
          "name": "previousOwner",
          "type": "address"
        },
        {
          "indexed": true,
          "internalType": "address",
          "name": "newOwner",
          "type": "address"
        }
      ],
      "name": "OwnershipTransferred",
      "type": "event"
    },
    {
      "anonymous": false,
      "inputs": [
        {
          "indexed": true,
          "internalType": "uint256",
          "name": "packageId",
          "type": "uint256"
        },
        {
          "indexed": false,
          "internalType": "uint256",
          "name": "usdcPrice",
          "type": "uint256"
        },
        {
          "indexed": false,
          "internalType": "uint256",
          "name": "usdValueForWS",
          "type": "uint256"
        },
        {
          "indexed": false,
          "internalType": "uint256",
          "name": "usdcCredits",
          "type": "uint256"
        },
        {
          "indexed": false,
          "internalType": "uint256",
          "name": "wsCredits",
          "type": "uint256"
        }
      ],
      "name": "PackageUpdated",
      "type": "event"
    },
    {
      "anonymous": false,
      "inputs": [
        {
          "indexed": false,
          "internalType": "address",
          "name": "account",
          "type": "address"
        }
      ],
      "name": "Paused",
      "type": "event"
    },
    {
      "anonymous": false,
      "inputs": [
        {
          "indexed": false,
          "internalType": "address",
          "name": "account",
          "type": "address"
        }
      ],
      "name": "Unpaused",
      "type": "event"
    },
    {
      "stateMutability": "payable",
      "type": "fallback"
    },
    {
      "inputs": [],
      "name": "USDC",
      "outputs": [
        {
          "internalType": "contract IERC20",
          "name": "",
          "type": "address"
        }
      ],
      "stateMutability": "view",
      "type": "function"
    },
    {
      "inputs": [
        {
          "internalType": "address[]",
          "name": "recipients",
          "type": "address[]"
        },
        {
          "internalType": "uint256",
          "name": "credits",
          "type": "uint256"
        },
        {
          "internalType": "string",
          "name": "reason",
          "type": "string"
        }
      ],
      "name": "bulkGiftERC20Credits",
      "outputs": [],
      "stateMutability": "nonpayable",
      "type": "function"
    },
    {
      "inputs": [
        {
          "internalType": "uint256",
          "name": "",
          "type": "uint256"
        }
      ],
      "name": "creditPackages",
      "outputs": [
        {
          "internalType": "uint256",
          "name": "usdcPrice",
          "type": "uint256"
        },
        {
          "internalType": "uint256",
          "name": "sonicPrice",
          "type": "uint256"
        },
        {
          "internalType": "uint256",
          "name": "usdcCredits",
          "type": "uint256"
        },
        {
          "internalType": "uint256",
          "name": "sonicCredits",
          "type": "uint256"
        },
        {
          "internalType": "bool",
          "name": "active",
          "type": "bool"
        }
      ],
      "stateMutability": "view",
      "type": "function"
    },
    {
      "inputs": [],
      "name": "creditsNFT",
      "outputs": [
        {
          "internalType": "contract SrvcfloCreditsNFTWithRoyalties",
          "name": "",
          "type": "address"
        }
      ],
      "stateMutability": "view",
      "type": "function"
    },
    {
      "inputs": [],
      "name": "currentGenerationId",
      "outputs": [
        {
          "internalType": "uint256",
          "name": "",
          "type": "uint256"
        }
      ],
      "stateMutability": "view",
      "type": "function"
    },
    {
      "inputs": [],
      "name": "devWallet",
      "outputs": [
        {
          "internalType": "address",
          "name": "",
          "type": "address"
        }
      ],
      "stateMutability": "view",
      "type": "function"
    },
    {
      "inputs": [
        {
          "internalType": "address",
          "name": "token",
          "type": "address"
        },
        {
          "internalType": "uint256",
          "name": "amount",
          "type": "uint256"
        }
      ],
      "name": "emergencyWithdraw",
      "outputs": [],
      "stateMutability": "nonpayable",
      "type": "function"
    },
    {
      "inputs": [
        {
          "internalType": "address",
          "name": "user",
          "type": "address"
        },
        {
          "internalType": "uint256",
          "name": "packageId",
          "type": "uint256"
        }
      ],
      "name": "getUserAvailableNFTCredits",
      "outputs": [
        {
          "internalType": "uint256",
          "name": "",
          "type": "uint256"
        }
      ],
      "stateMutability": "view",
      "type": "function"
    },
    {
      "inputs": [
        {
          "internalType": "address",
          "name": "user",
          "type": "address"
        },
        {
          "internalType": "uint256",
          "name": "packageId",
          "type": "uint256"
        }
      ],
      "name": "getUserNFTCredits",
      "outputs": [
        {
          "internalType": "uint256",
          "name": "",
          "type": "uint256"
        }
      ],
      "stateMutability": "view",
      "type": "function"
    },
    {
      "inputs": [
        {
          "internalType": "address",
          "name": "user",
          "type": "address"
        }
      ],
      "name": "getUserTotalCredits",
      "outputs": [
        {
          "internalType": "uint256",
          "name": "total",
          "type": "uint256"
        }
      ],
      "stateMutability": "view",
      "type": "function"
    },
    {
      "inputs": [
        {
          "internalType": "address",
          "name": "to",
          "type": "address"
        },
        {
          "internalType": "uint256",
          "name": "credits",
          "type": "uint256"
        },
        {
          "internalType": "string",
          "name": "reason",
          "type": "string"
        }
      ],
      "name": "giftERC20Credits",
      "outputs": [],
      "stateMutability": "nonpayable",
      "type": "function"
    },
    {
      "inputs": [
        {
          "internalType": "address",
          "name": "to",
          "type": "address"
        },
        {
          "internalType": "uint256",
          "name": "packageId",
          "type": "uint256"
        },
        {
          "internalType": "uint256",
          "name": "credits",
          "type": "uint256"
        },
        {
          "internalType": "string",
          "name": "reason",
          "type": "string"
        }
      ],
      "name": "giftNFTCredits",
      "outputs": [],
      "stateMutability": "nonpayable",
      "type": "function"
    },
    {
      "inputs": [],
      "name": "owner",
      "outputs": [
        {
          "internalType": "address",
          "name": "",
          "type": "address"
        }
      ],
      "stateMutability": "view",
      "type": "function"
    },
    {
      "inputs": [],
      "name": "pause",
      "outputs": [],
      "stateMutability": "nonpayable",
      "type": "function"
    },
    {
      "inputs": [],
      "name": "paused",
      "outputs": [
        {
          "internalType": "bool",
          "name": "",
          "type": "bool"
        }
      ],
      "stateMutability": "view",
      "type": "function"
    },
    {
      "inputs": [
        {
          "internalType": "uint256",
          "name": "packageId",
          "type": "uint256"
        }
      ],
      "name": "purchaseCreditsWithSonic",
      "outputs": [],
      "stateMutability": "payable",
      "type": "function"
    },
    {
      "inputs": [
        {
          "internalType": "uint256",
          "name": "packageId",
          "type": "uint256"
        }
      ],
      "name": "purchaseCreditsWithUSDC",
      "outputs": [],
      "stateMutability": "nonpayable",
      "type": "function"
    },
    {
      "inputs": [],
      "name": "renounceOwnership",
      "outputs": [],
      "stateMutability": "nonpayable",
      "type": "function"
    },
    {
      "inputs": [
        {
          "internalType": "address",
          "name": "user",
          "type": "address"
        },
        {
          "internalType": "uint256",
          "name": "credits",
          "type": "uint256"
        },
        {
          "internalType": "string",
          "name": "generationType",
          "type": "string"
        }
      ],
      "name": "spendERC20Credits",
      "outputs": [],
      "stateMutability": "nonpayable",
      "type": "function"
    },
    {
      "inputs": [
        {
          "internalType": "address",
          "name": "user",
          "type": "address"
        },
        {
          "internalType": "uint256",
          "name": "packageId",
          "type": "uint256"
        },
        {
          "internalType": "uint256",
          "name": "credits",
          "type": "uint256"
        },
        {
          "internalType": "string",
          "name": "generationType",
          "type": "string"
        }
      ],
      "name": "spendNFTCredits",
      "outputs": [],
      "stateMutability": "nonpayable",
      "type": "function"
    },
    {
      "inputs": [],
      "name": "stakingContract",
      "outputs": [
        {
          "internalType": "address",
          "name": "",
          "type": "address"
        }
      ],
      "stateMutability": "view",
      "type": "function"
    },
    {
      "inputs": [],
      "name": "totalGenerations",
      "outputs": [
        {
          "internalType": "uint256",
          "name": "",
          "type": "uint256"
        }
      ],
      "stateMutability": "view",
      "type": "function"
    },
    {
      "inputs": [
        {
          "internalType": "address",
          "name": "from",
          "type": "address"
        },
        {
          "internalType": "address",
          "name": "to",
          "type": "address"
        },
        {
          "internalType": "uint256",
          "name": "credits",
          "type": "uint256"
        }
      ],
      "name": "transferERC20Credits",
      "outputs": [],
      "stateMutability": "nonpayable",
      "type": "function"
    },
    {
      "inputs": [
        {
          "internalType": "address",
          "name": "newOwner",
          "type": "address"
        }
      ],
      "name": "transferOwnership",
      "outputs": [],
      "stateMutability": "nonpayable",
      "type": "function"
    },
    {
      "inputs": [],
      "name": "unpause",
      "outputs": [],
      "stateMutability": "nonpayable",
      "type": "function"
    },
    {
      "inputs": [
        {
          "internalType": "uint256",
          "name": "packageId",
          "type": "uint256"
        },
        {
          "internalType": "uint256",
          "name": "usdcPrice",
          "type": "uint256"
        },
        {
          "internalType": "uint256",
          "name": "sonicPrice",
          "type": "uint256"
        },
        {
          "internalType": "uint256",
          "name": "usdcCredits",
          "type": "uint256"
        },
        {
          "internalType": "uint256",
          "name": "sonicCredits",
          "type": "uint256"
        },
        {
          "internalType": "bool",
          "name": "active",
          "type": "bool"
        }
      ],
      "name": "updatePackage",
      "outputs": [],
      "stateMutability": "nonpayable",
      "type": "function"
    },
    {
      "inputs": [
        {
          "internalType": "address",
          "name": "",
          "type": "address"
        }
      ],
      "name": "userCredits",
      "outputs": [
        {
          "internalType": "uint256",
          "name": "",
          "type": "uint256"
        }
      ],
      "stateMutability": "view",
      "type": "function"
    },
    {
      "inputs": [
        {
          "internalType": "address",
          "name": "",
          "type": "address"
        }
      ],
      "name": "userGenerations",
      "outputs": [
        {
          "internalType": "uint256",
          "name": "",
          "type": "uint256"
        }
      ],
      "stateMutability": "view",
      "type": "function"
    },
    {
      "inputs": [
        {
          "internalType": "address",
          "name": "",
          "type": "address"
        },
        {
          "internalType": "uint256",
          "name": "",
          "type": "uint256"
        }
      ],
      "name": "userNFTCreditsSpent",
      "outputs": [
        {
          "internalType": "uint256",
          "name": "",
          "type": "uint256"
        }
      ],
      "stateMutability": "view",
      "type": "function"
    },
    {
      "stateMutability": "payable",
      "type": "receive"
    }
  ],
  "bytecode": "0x610100604052346104ab57604051601f61201338819003918201601f19168301916001600160401b038311848410176104b05780849260a0946040528339810103126104ab5761004e816104e5565b9061005b602082016104e5565b604082015190926001600160a01b038216918290036104ab5761008c6080610085606086016104e5565b94016104e5565b936001600160a01b03821680156104955760008054610100600160a81b03198116600895861b610100600160a81b0316178255604051941c6001600160a01b0316907f8be0079c531659141344cd1fd0a4f28419497f9722a3daafe3b4186f6b6457e09080a3600180556001600160a01b03169081156104535750811561040e576001600160a01b038316156103c9576001600160a01b038416156103845760805260a05260c05260e05261013f6104c6565b624c4b40815260046020820191674563918244f400008352604081016102ee815260608201906103e88252608083019460018652600160005284602052604060002093518455516001840155516002830155516003820155019051151560ff801983541691161790556101b06104c6565b6302faf0808152600460208201916802b5e3af16b1880000835260408101611f40815260608201906127108252608083019460018652600260005284602052604060002093518455516001840155516002830155516003820155019051151560ff801983541691161790556102236104c6565b631dcd6500815260046020820191681b1ae4d6e2ef500000835260408101620186a0815260608201906201c1388252608083019460018652600360005284602052604060002093518455516001840155516002830155516003820155019051151560ff801983541691161790556102986104c6565b634a817c808152600460208201916843c33c1937564800008352604081016203f7a08152606082019062046cd082526080830194600186528460005284602052604060002093518455516001840155516002830155516003820155019051151560ff80198354169116179055604051611b1990816104fa823960805181818161064a0152610d75015260a0518181816103be01528181610b0201528181610c6001528181610e4b01528181610fae015281816111ad01526115e1015260c05181818161032e0152818161055a015261071a015260e05181818161036a015281816107440152610bd00152f35b60405162461bcd60e51b815260206004820152601a60248201527f496e76616c6964206465762077616c6c657420616464726573730000000000006044820152606490fd5b60405162461bcd60e51b815260206004820152601760248201527f496e76616c6964207374616b696e6720616464726573730000000000000000006044820152606490fd5b60405162461bcd60e51b815260206004820152601b60248201527f496e76616c69642063726564697473204e4654206164647265737300000000006044820152606490fd5b62461bcd60e51b815260206004820152601460248201527f496e76616c6964205553444320616464726573730000000000000000000000006044820152606490fd5b631e4fbdf760e01b600052600060045260246000fd5b600080fd5b634e487b7160e01b600052604160045260246000fd5b6040519060a082016001600160401b038111838210176104b057604052565b51906001600160a01b03821682036104ab5756fe60806040526004361015610050575b361561004e5760405162461bcd60e51b8152602060048201526012602482015271119d5b98dd1a5bdb881b9bdd08199bdd5b9960721b6044820152606490fd5b005b6000803560e01c806302bb35701461159757806312cfb515146114c157806320babb921461148857806322bcca96146114175780632fd199e6146113f95780633db35ffb146113db5780633ead6a46146112905780633f4ba83a1461122a57806346413c241461115a5780635c975abb14611138578063715018a6146110da57806372086c1514610fdd5780637356ea8714610f985780637d177fdb14610dfd5780638456cb5914610da457806389a3027114610d5f5780638b9783cd14610c2a5780638da5cb5b14610bff5780638ea5220f14610bba578063946ccdb714610ab357806395ccea6714610a26578063c7209f25146109e3578063d124d1bc14610987578063ddd898471461080f578063e3512583146105c2578063e637e8c214610589578063ee99205c14610544578063f07af1b6146102365763f2fde38b1461019b575061000e565b34610233576020366003190112610233576101b46116ea565b6101bc6119d7565b6001600160a01b03811690811561021f578254610100600160a81b03198116600892831b610100600160a81b0316178455901c6001600160a01b03167f8be0079c531659141344cd1fd0a4f28419497f9722a3daafe3b4186f6b6457e08380a380f35b631e4fbdf760e01b83526004839052602483fd5b80fd5b5060203660031901126102335760043561024e611a46565b610256611a63565b80825260046020526040822060405161026e816117bd565b815481526102ae6080600184015492602081019384526002850154604082015260ff60046003870154966060840197885201541615159182910152611958565b6102ba82511515611999565b5134106104ff57601934023415903481046019148217156104eb5760649004603234023481046032148317156104d7576064900491600f340290348204600f1417156104d7579060648693920490838080806103238661031e8961031e893461194b565b61194b565b948181156104ce575b7f00000000000000000000000000000000000000000000000000000000000000006001600160a01b031690f1156104ba578380808060018060a01b037f00000000000000000000000000000000000000000000000000000000000000001696878282156104c5575bf1156104ba5783926103a98493928493611811565b908282156104b1575bf1156104a657805183907f00000000000000000000000000000000000000000000000000000000000000006001600160a01b0316803b156104a25760405163731133e960e01b815233600482015260248101869052604481019290925260806064830152600060848301528290829060a490829084905af180156104a65761048d575b50505160405190606082526005606083015264534f4e494360d81b608083015260208201523460408201527f584025facd13fd8c85b196165ff1eb1aa666d47ecbf0ad2ca2b33b2fc79827d260a03392a36001805580f35b81610497916117ef565b6104a2578238610435565b8280fd5b6040513d84823e3d90fd5b506108fc6103b2565b6040513d85823e3d90fd5b506108fc610394565b506108fc61032c565b634e487b7160e01b86526011600452602486fd5b634e487b7160e01b85526011600452602485fd5b60405162461bcd60e51b815260206004820152601a60248201527f496e73756666696369656e7420536f6e6963207061796d656e740000000000006044820152606490fd5b50346102335780600319360112610233576040517f00000000000000000000000000000000000000000000000000000000000000006001600160a01b03168152602090f35b5034610233576020366003190112610233576020906040906001600160a01b036105b16116ea565b168152600783522054604051908152f35b5034610233576020366003190112610233576004356105df611a46565b6105e7611a63565b80825260046020526040822060405190610600826117bd565b805482526001810154602083015261063c60ff600460028401549360408601948552600381015460608701520154161515806080850152611958565b61064882511515611999565b7f00000000000000000000000000000000000000000000000000000000000000006106a58351604051906323b872dd60e01b602083015233602483015230604483015260648201526064815261069f6084826117ef565b82611a85565b82516001600160a01b0390911690801590601980820290828204148317156107fb576064900490603281028181046032148417156107e7576064900492600f820290828204600f1417156107e757918061073f6107176107709461031e8861031e60646107769c9b9a0496879461194b565b927f000000000000000000000000000000000000000000000000000000000000000087611a03565b61076b7f0000000000000000000000000000000000000000000000000000000000000000948587611a03565b611811565b91611a03565b8051338552600260205261078f60408620918254611811565b9055519051604051916060835260046060840152635553444360e01b6080840152602083015260408201527f584025facd13fd8c85b196165ff1eb1aa666d47ecbf0ad2ca2b33b2fc79827d260a03392a36001805580f35b634e487b7160e01b89526011600452602489fd5b634e487b7160e01b88526011600452602488fd5b5034610233576060366003190112610233576108296116ea565b6024356001600160a01b03811691908290036104a2576044359061084b6119d7565b6001600160a01b0316908115158061097e575b156109455781845260026020528060408520541061090957806108a37f63234fe6b657367bceb435c98db53918c16ab7ff474d9d11e86deeb69a75c3969215156118c7565b8285526002602052604085206108ba82825461194b565b90558385526002602052604085206108d3828254611811565b90556040519081526040602082015280610903604082016040906005815264045524332360dc1b60208201520190565b0390a380f35b60405162461bcd60e51b8152602060048201526014602482015273496e73756666696369656e74206372656469747360601b6044820152606490fd5b60405162461bcd60e51b8152602060048201526011602482015270496e76616c69642061646472657373657360781b6044820152606490fd5b5082151561085e565b503461023357602036600319011261023357604060a0916004358152600460205220805490600181015490600281015460ff60046003840154930154169260405194855260208501526040840152606083015215156080820152f35b5034610233576040366003190112610233576020906040906001600160a01b03610a0b6116ea565b16815260038352818120602435825283522054604051908152f35b50346102335760403660031901126102335780610a416116ea565b60243590610a4d6119d7565b6001600160a01b031680610a97575081548291829182919060081c6001600160a01b0316828215610a8e575bf115610a825780f35b604051903d90823e3d90fd5b506108fc610a79565b8354610ab0935060081c6001600160a01b031690611a03565b80f35b503461023357604036600319011261023357610acd6116ea565b604051627eeac760e11b81526001600160a01b03821660048201526024803590820181905290929190602084806044810103817f00000000000000000000000000000000000000000000000000000000000000006001600160a01b03165afa9182156104ba578392610b80575b6001600160a01b03168352600360209081526040808520928552918152908320549093509081811115610b7957610b71925061194b565b604051908152f35b5050610b71565b91506020843d602011610bb2575b81610b9b602093836117ef565b81010312610bad576020935191610b3a565b600080fd5b3d9150610b8e565b50346102335780600319360112610233576040517f00000000000000000000000000000000000000000000000000000000000000006001600160a01b03168152602090f35b50346102335780600319360112610233575460405160089190911c6001600160a01b03168152602090f35b503461023357602036600319011261023357610c446116ea565b6001600160a01b038181168084526002602052604084205492917f00000000000000000000000000000000000000000000000000000000000000001660015b6004811115610c9757602085604051908152f35b604051627eeac760e11b81526001600160a01b038516600482015260248101829052602081604481865afa908115610d54578791610d21575b50838752600360205260408720828852602052604087205490818111610d01575b5050610cfc90611834565b610c83565b95610d13610d1992610cfc949861194b565b90611811565b949038610cf1565b905060203d8111610d4d575b610d3781836117ef565b6020826000928101031261023357505138610cd0565b503d610d2d565b6040513d89823e3d90fd5b50346102335780600319360112610233576040517f00000000000000000000000000000000000000000000000000000000000000006001600160a01b03168152602090f35b5034610233578060031936011261023357610dbd6119d7565b610dc5611a46565b600160ff198254161781557f62e78cea01bee320cd4e420270b5ea74000d11b0c9f74754ebdbfc544b05a2586020604051338152a180f35b503461023357610e0c3661172e565b91909493610e186119d7565b6001600160a01b03811693610e2e851515611887565b610e398315156118c7565b600181101580610f8d575b15610f53577f00000000000000000000000000000000000000000000000000000000000000006001600160a01b031691823b15610f4f5760405163731133e960e01b81526001600160a01b039190911660048201526024810191909152604481018390526080606482015260006084820152908590829060a490829084905af18015610f4457610f1e575b50610f18600080516020611aed833981519152939495604051938493845260606020850152600360608501526213919560ea1b608085015260a0604085015260a0840191611843565b0390a280f35b84610f3c600080516020611aed8339815191529596610f18936117ef565b949350610ecf565b6040513d87823e3d90fd5b8680fd5b60405162461bcd60e51b8152602060048201526012602482015271125b9d985b1a59081c1858dad859d948125160721b6044820152606490fd5b506004811115610e44565b50346102335780600319360112610233576040517f00000000000000000000000000000000000000000000000000000000000000006001600160a01b03168152602090f35b503461023357610fec3661177a565b9192610ff66119d7565b6001600160a01b031680855260026020526040852054909390811161109557610f187fddbfea9abebdf7848caaebeb978ee1f8e6047df6c2bcbbc6875982b465034dbd9385875260026020526040872061105184825461194b565b905561105e600554611834565b6005558587526007602052604087206110778154611834565b9055611084600654611834565b908160065560405194859485611864565b60405162461bcd60e51b815260206004820152601b60248201527f496e73756666696369656e74204552432d3230206372656469747300000000006044820152606490fd5b50346102335780600319360112610233576110f36119d7565b8054610100600160a81b031981168255819060081c6001600160a01b03167f8be0079c531659141344cd1fd0a4f28419497f9722a3daafe3b4186f6b6457e08280a380f35b503461023357806003193601126102335760ff60209154166040519015158152f35b5034610233576040366003190112610233576111a960206111796116ea565b604051627eeac760e11b81526001600160a01b039091166004820152602480359082015291829081906044820190565b03817f00000000000000000000000000000000000000000000000000000000000000006001600160a01b03165afa9081156104a65782916111f0575b602082604051908152f35b90506020813d602011611222575b8161120b602093836117ef565b8101031261121e576020915051386111e5565b5080fd5b3d91506111fe565b50346102335780600319360112610233576112436119d7565b805460ff8116156112815760ff191681557f5db9ee0a495bf2e6ff9c91a7834c1ba4fdd244a5e8aa4e537bd38aeae4b073aa6020604051338152a180f35b638dfc202b60e01b8252600482fd5b50346102335760603660031901126102335760043567ffffffffffffffff811161121e573660238201121561121e5780600401359067ffffffffffffffff82116104a2573660248360051b830101116104a2576024359060443567ffffffffffffffff81116113d757611307903690600401611700565b916113106119d7565b84156113a2576113218415156118c7565b855b8581101561139e576024600582901b830101356001600160a01b038116919082900361139a5781600192611359575b5001611323565b808952600260205260408920611370888254611811565b9055600080516020611aed8339815191526040518061139189898c8461190b565b0390a238611352565b8780fd5b8680f35b60405162461bcd60e51b815260206004820152600d60248201526c4e6f20726563697069656e747360981b6044820152606490fd5b8480fd5b50346102335780600319360112610233576020600654604051908152f35b50346102335780600319360112610233576020600554604051908152f35b503461023357610f18600080516020611aed8339815191526114383661177a565b9490926114436119d7565b6001600160a01b031694611458861515611887565b6114638315156118c7565b85875260026020526040872061147a848254611811565b90556040519384938461190b565b5034610233576020366003190112610233576020906040906001600160a01b036114b06116ea565b168152600283522054604051908152f35b50346102335760c036600319011261023357600435602435604435906064359060843560a43592831515809403610f4f577f652ab82a14694725f0cbcfa00fe4d99830c0d5026103a2bcddca21f96939bfab9460809461151f6119d7565b600460405161152d816117bd565b868152898b6020830186815260408085019289845260608601948b86528d87019889528152866020522093518455516001840155516002830155516003820155019051151560ff80198354169116179055604051938452602084015260408301526060820152a280f35b5034610233576115a63661172e565b92936115b39291926119d7565b604051627eeac760e11b81526001600160a01b038216600482015260248101869052602081806044810103817f00000000000000000000000000000000000000000000000000000000000000006001600160a01b03165afa8015610d5457839188916116b5575b5010611670577fddbfea9abebdf7848caaebeb978ee1f8e6047df6c2bcbbc6875982b465034dbd93610f189160018060a01b03169586885260036020526040882090885260205260408720611051848254611811565b60405162461bcd60e51b815260206004820152601860248201527f496e73756666696369656e74204e4654206372656469747300000000000000006044820152606490fd5b9150506020813d6020116116e2575b816116d1602093836117ef565b81010312610f4f578290513861161a565b3d91506116c4565b600435906001600160a01b0382168203610bad57565b9181601f84011215610bad5782359167ffffffffffffffff8311610bad5760208381860195010111610bad57565b906080600319830112610bad576004356001600160a01b0381168103610bad579160243591604435916064359067ffffffffffffffff8211610bad5761177691600401611700565b9091565b6060600319820112610bad576004356001600160a01b0381168103610bad5791602435916044359067ffffffffffffffff8211610bad5761177691600401611700565b60a0810190811067ffffffffffffffff8211176117d957604052565b634e487b7160e01b600052604160045260246000fd5b90601f8019910116810190811067ffffffffffffffff8211176117d957604052565b9190820180921161181e57565b634e487b7160e01b600052601160045260246000fd5b600019811461181e5760010190565b908060209392818452848401376000828201840152601f01601f1916010190565b94939291604092611882928752606060208801526060870191611843565b930152565b1561188e57565b60405162461bcd60e51b8152602060048201526011602482015270125b9d985b1a59081c9958da5c1a595b9d607a1b6044820152606490fd5b156118ce57565b60405162461bcd60e51b8152602060048201526015602482015274125b9d985b1a590818dc99591a5d08185b5bdd5b9d605a1b6044820152606490fd5b91611948939183526060602084015261193a606084016040906005815264045524332360dc1b60208201520190565b926040818503910152611843565b90565b9190820391821161181e57565b1561195f57565b60405162461bcd60e51b81526020600482015260126024820152715061636b616765206e6f742061637469766560701b6044820152606490fd5b156119a057565b60405162461bcd60e51b815260206004820152600f60248201526e496e76616c6964207061636b61676560881b6044820152606490fd5b60005460081c6001600160a01b031633036119ee57565b63118cdaa760e01b6000523360045260246000fd5b60405163a9059cbb60e01b60208201526001600160a01b03929092166024830152604480830193909352918152611a4491611a3f6064836117ef565b611a85565b565b60ff60005416611a5257565b63d93c066560e01b60005260046000fd5b600260015414611a74576002600155565b633ee5aeb560e01b60005260046000fd5b906000602091828151910182855af115611ae0576000513d611ad757506001600160a01b0381163b155b611ab65750565b635274afe760e01b60009081526001600160a01b0391909116600452602490fd5b60011415611aaf565b6040513d6000823e3d90fdfe30e490b244259e23c8b057d40b0d13805e03afeba18d1660c0229d1173fa567aa164736f6c634300081b000a",
  "linkReferences": {},
  "deployedLinkReferences": {}
}