{
  "_format": "hh-sol-artifact-1",
  "contractName": "SonicPaymentTestnet",
  "sourceName": "Contracts/SonicPaymentTestnet.sol",
  "abi": [
    {
      "inputs": [
        {
          "internalType": "address",
          "name": "_srvcfloStaking",
          "type": "address"
        },
        {
          "internalType": "address",
          "name": "_devWallet",
          "type": "address"
        },
        {
          "internalType": "address",
          "name": "_coralToken",
          "type": "address"
        },
        {
          "internalType": "address",
          "name": "_priceOracle",
          "type": "address"
        }
      ],
      "stateMutability": "nonpayable",
      "type": "constructor"
    },
    {
      "anonymous": false,
      "inputs": [
        {
          "indexed": true,
          "internalType": "address",
          "name": "user",
          "type": "address"
        },
        {
          "indexed": false,
          "internalType": "uint256",
          "name": "amount",
          "type": "uint256"
        }
      ],
      "name": "CreditsAdded",
      "type": "event"
    },
    {
      "anonymous": false,
      "inputs": [
        {
          "indexed": true,
          "internalType": "address",
          "name": "user",
          "type": "address"
        },
        {
          "indexed": false,
          "internalType": "uint256",
          "name": "generationId",
          "type": "uint256"
        },
        {
          "indexed": false,
          "internalType": "string",
          "name": "resultUrl",
          "type": "string"
        }
      ],
      "name": "GenerationCompleted",
      "type": "event"
    },
    {
      "anonymous": false,
      "inputs": [
        {
          "indexed": true,
          "internalType": "address",
          "name": "user",
          "type": "address"
        },
        {
          "indexed": false,
          "internalType": "string",
          "name": "prompt",
          "type": "string"
        },
        {
          "indexed": false,
          "internalType": "string",
          "name": "generationType",
          "type": "string"
        },
        {
          "indexed": false,
          "internalType": "uint256",
          "name": "generationId",
          "type": "uint256"
        }
      ],
      "name": "GenerationRequested",
      "type": "event"
    },
    {
      "anonymous": false,
      "inputs": [
        {
          "indexed": false,
          "internalType": "address[3]",
          "name": "winners",
          "type": "address[3]"
        },
        {
          "indexed": false,
          "internalType": "bool",
          "name": "thresholdMet",
          "type": "bool"
        }
      ],
      "name": "LeaderboardUpdated",
      "type": "event"
    },
    {
      "anonymous": false,
      "inputs": [
        {
          "indexed": true,
          "internalType": "address",
          "name": "previousOwner",
          "type": "address"
        },
        {
          "indexed": true,
          "internalType": "address",
          "name": "newOwner",
          "type": "address"
        }
      ],
      "name": "OwnershipTransferred",
      "type": "event"
    },
    {
      "anonymous": false,
      "inputs": [
        {
          "indexed": true,
          "internalType": "address",
          "name": "payer",
          "type": "address"
        },
        {
          "indexed": true,
          "internalType": "address",
          "name": "token",
          "type": "address"
        },
        {
          "indexed": false,
          "internalType": "uint256",
          "name": "amount",
          "type": "uint256"
        },
        {
          "indexed": false,
          "internalType": "string",
          "name": "generationType",
          "type": "string"
        }
      ],
      "name": "PaymentReceived",
      "type": "event"
    },
    {
      "inputs": [],
      "name": "BANDIT_KIDZ_PERCENT",
      "outputs": [
        {
          "internalType": "uint256",
          "name": "",
          "type": "uint256"
        }
      ],
      "stateMutability": "view",
      "type": "function"
    },
    {
      "inputs": [],
      "name": "CONTRACT_PERCENT",
      "outputs": [
        {
          "internalType": "uint256",
          "name": "",
          "type": "uint256"
        }
      ],
      "stateMutability": "view",
      "type": "function"
    },
    {
      "inputs": [],
      "name": "DEV_PERCENT",
      "outputs": [
        {
          "internalType": "uint256",
          "name": "",
          "type": "uint256"
        }
      ],
      "stateMutability": "view",
      "type": "function"
    },
    {
      "inputs": [],
      "name": "FALLBACK_CORAL_COST",
      "outputs": [
        {
          "internalType": "uint256",
          "name": "",
          "type": "uint256"
        }
      ],
      "stateMutability": "view",
      "type": "function"
    },
    {
      "inputs": [],
      "name": "FALLBACK_SSSTT_COST",
      "outputs": [
        {
          "internalType": "uint256",
          "name": "",
          "type": "uint256"
        }
      ],
      "stateMutability": "view",
      "type": "function"
    },
    {
      "inputs": [],
      "name": "FALLBACK_S_COST",
      "outputs": [
        {
          "internalType": "uint256",
          "name": "",
          "type": "uint256"
        }
      ],
      "stateMutability": "view",
      "type": "function"
    },
    {
      "inputs": [],
      "name": "FALLBACK_USDC_COST",
      "outputs": [
        {
          "internalType": "uint256",
          "name": "",
          "type": "uint256"
        }
      ],
      "stateMutability": "view",
      "type": "function"
    },
    {
      "inputs": [],
      "name": "IMAGE_GENERATION_USD",
      "outputs": [
        {
          "internalType": "uint256",
          "name": "",
          "type": "uint256"
        }
      ],
      "stateMutability": "view",
      "type": "function"
    },
    {
      "inputs": [],
      "name": "LEADERBOARD_PERCENT",
      "outputs": [
        {
          "internalType": "uint256",
          "name": "",
          "type": "uint256"
        }
      ],
      "stateMutability": "view",
      "type": "function"
    },
    {
      "inputs": [],
      "name": "SSSTT",
      "outputs": [
        {
          "internalType": "contract IERC20",
          "name": "",
          "type": "address"
        }
      ],
      "stateMutability": "view",
      "type": "function"
    },
    {
      "inputs": [],
      "name": "S_TOKEN",
      "outputs": [
        {
          "internalType": "contract IERC20",
          "name": "",
          "type": "address"
        }
      ],
      "stateMutability": "view",
      "type": "function"
    },
    {
      "inputs": [],
      "name": "USDC",
      "outputs": [
        {
          "internalType": "contract IERC20",
          "name": "",
          "type": "address"
        }
      ],
      "stateMutability": "view",
      "type": "function"
    },
    {
      "inputs": [],
      "name": "VIDEO_GENERATION_USD",
      "outputs": [
        {
          "internalType": "uint256",
          "name": "",
          "type": "uint256"
        }
      ],
      "stateMutability": "view",
      "type": "function"
    },
    {
      "inputs": [
        {
          "internalType": "address",
          "name": "user",
          "type": "address"
        },
        {
          "internalType": "uint256",
          "name": "amount",
          "type": "uint256"
        }
      ],
      "name": "addCredits",
      "outputs": [],
      "stateMutability": "nonpayable",
      "type": "function"
    },
    {
      "inputs": [
        {
          "internalType": "uint256",
          "name": "generationId",
          "type": "uint256"
        },
        {
          "internalType": "address",
          "name": "user",
          "type": "address"
        },
        {
          "internalType": "string",
          "name": "resultUrl",
          "type": "string"
        }
      ],
      "name": "completeGeneration",
      "outputs": [],
      "stateMutability": "nonpayable",
      "type": "function"
    },
    {
      "inputs": [],
      "name": "coralToken",
      "outputs": [
        {
          "internalType": "contract IERC20",
          "name": "",
          "type": "address"
        }
      ],
      "stateMutability": "view",
      "type": "function"
    },
    {
      "inputs": [],
      "name": "devWallet",
      "outputs": [
        {
          "internalType": "address",
          "name": "",
          "type": "address"
        }
      ],
      "stateMutability": "view",
      "type": "function"
    },
    {
      "inputs": [
        {
          "internalType": "address",
          "name": "token",
          "type": "address"
        },
        {
          "internalType": "uint256",
          "name": "amount",
          "type": "uint256"
        }
      ],
      "name": "emergencyWithdraw",
      "outputs": [],
      "stateMutability": "nonpayable",
      "type": "function"
    },
    {
      "inputs": [
        {
          "internalType": "address",
          "name": "token",
          "type": "address"
        }
      ],
      "name": "getContractBalance",
      "outputs": [
        {
          "internalType": "uint256",
          "name": "",
          "type": "uint256"
        }
      ],
      "stateMutability": "view",
      "type": "function"
    },
    {
      "inputs": [
        {
          "internalType": "string",
          "name": "generationType",
          "type": "string"
        }
      ],
      "name": "getPaymentCosts",
      "outputs": [
        {
          "internalType": "uint256",
          "name": "sssttCost",
          "type": "uint256"
        },
        {
          "internalType": "uint256",
          "name": "coralCost",
          "type": "uint256"
        },
        {
          "internalType": "uint256",
          "name": "sCost",
          "type": "uint256"
        },
        {
          "internalType": "uint256",
          "name": "usdcCost",
          "type": "uint256"
        }
      ],
      "stateMutability": "view",
      "type": "function"
    },
    {
      "inputs": [],
      "name": "getServicePricing",
      "outputs": [
        {
          "internalType": "uint256",
          "name": "imageGenerationUSD",
          "type": "uint256"
        },
        {
          "internalType": "uint256",
          "name": "videoGenerationUSD",
          "type": "uint256"
        }
      ],
      "stateMutability": "pure",
      "type": "function"
    },
    {
      "inputs": [],
      "name": "getSupportedTokens",
      "outputs": [
        {
          "internalType": "address",
          "name": "ssstt",
          "type": "address"
        },
        {
          "internalType": "address",
          "name": "coral",
          "type": "address"
        },
        {
          "internalType": "address",
          "name": "sToken",
          "type": "address"
        },
        {
          "internalType": "address",
          "name": "usdc",
          "type": "address"
        }
      ],
      "stateMutability": "view",
      "type": "function"
    },
    {
      "inputs": [
        {
          "internalType": "address",
          "name": "token",
          "type": "address"
        }
      ],
      "name": "getTokenPriceUSD",
      "outputs": [
        {
          "internalType": "uint256",
          "name": "",
          "type": "uint256"
        }
      ],
      "stateMutability": "view",
      "type": "function"
    },
    {
      "inputs": [
        {
          "internalType": "address",
          "name": "user",
          "type": "address"
        }
      ],
      "name": "getUserStats",
      "outputs": [
        {
          "internalType": "uint256",
          "name": "generations",
          "type": "uint256"
        },
        {
          "internalType": "uint256",
          "name": "credits",
          "type": "uint256"
        }
      ],
      "stateMutability": "view",
      "type": "function"
    },
    {
      "inputs": [],
      "name": "isOracleActive",
      "outputs": [
        {
          "internalType": "bool",
          "name": "",
          "type": "bool"
        }
      ],
      "stateMutability": "view",
      "type": "function"
    },
    {
      "inputs": [],
      "name": "leaderboardThresholdMet",
      "outputs": [
        {
          "internalType": "bool",
          "name": "",
          "type": "bool"
        }
      ],
      "stateMutability": "view",
      "type": "function"
    },
    {
      "inputs": [
        {
          "internalType": "uint256",
          "name": "",
          "type": "uint256"
        }
      ],
      "name": "leaderboardWinners",
      "outputs": [
        {
          "internalType": "address",
          "name": "",
          "type": "address"
        }
      ],
      "stateMutability": "view",
      "type": "function"
    },
    {
      "inputs": [],
      "name": "owner",
      "outputs": [
        {
          "internalType": "address",
          "name": "",
          "type": "address"
        }
      ],
      "stateMutability": "view",
      "type": "function"
    },
    {
      "inputs": [
        {
          "internalType": "string",
          "name": "prompt",
          "type": "string"
        },
        {
          "internalType": "string",
          "name": "generationType",
          "type": "string"
        }
      ],
      "name": "payWithCORAL",
      "outputs": [],
      "stateMutability": "nonpayable",
      "type": "function"
    },
    {
      "inputs": [
        {
          "internalType": "string",
          "name": "prompt",
          "type": "string"
        },
        {
          "internalType": "string",
          "name": "generationType",
          "type": "string"
        }
      ],
      "name": "payWithS",
      "outputs": [],
      "stateMutability": "nonpayable",
      "type": "function"
    },
    {
      "inputs": [
        {
          "internalType": "string",
          "name": "prompt",
          "type": "string"
        },
        {
          "internalType": "string",
          "name": "generationType",
          "type": "string"
        }
      ],
      "name": "payWithSSStt",
      "outputs": [],
      "stateMutability": "nonpayable",
      "type": "function"
    },
    {
      "inputs": [
        {
          "internalType": "string",
          "name": "prompt",
          "type": "string"
        },
        {
          "internalType": "string",
          "name": "generationType",
          "type": "string"
        }
      ],
      "name": "payWithUSDC",
      "outputs": [],
      "stateMutability": "nonpayable",
      "type": "function"
    },
    {
      "inputs": [],
      "name": "priceOracle",
      "outputs": [
        {
          "internalType": "contract IPriceOracle",
          "name": "",
          "type": "address"
        }
      ],
      "stateMutability": "view",
      "type": "function"
    },
    {
      "inputs": [
        {
          "internalType": "address",
          "name": "_srvcfloStaking",
          "type": "address"
        },
        {
          "internalType": "address",
          "name": "_devWallet",
          "type": "address"
        }
      ],
      "name": "setAddresses",
      "outputs": [],
      "stateMutability": "nonpayable",
      "type": "function"
    },
    {
      "inputs": [
        {
          "internalType": "address",
          "name": "_coralToken",
          "type": "address"
        }
      ],
      "name": "setCoralToken",
      "outputs": [],
      "stateMutability": "nonpayable",
      "type": "function"
    },
    {
      "inputs": [
        {
          "internalType": "address[3]",
          "name": "winners",
          "type": "address[3]"
        },
        {
          "internalType": "bool",
          "name": "thresholdMet",
          "type": "bool"
        }
      ],
      "name": "setLeaderboard",
      "outputs": [],
      "stateMutability": "nonpayable",
      "type": "function"
    },
    {
      "inputs": [
        {
          "internalType": "address",
          "name": "_priceOracle",
          "type": "address"
        }
      ],
      "name": "setPriceOracle",
      "outputs": [],
      "stateMutability": "nonpayable",
      "type": "function"
    },
    {
      "inputs": [],
      "name": "srvcfloStaking",
      "outputs": [
        {
          "internalType": "address",
          "name": "",
          "type": "address"
        }
      ],
      "stateMutability": "view",
      "type": "function"
    },
    {
      "inputs": [],
      "name": "totalGenerations",
      "outputs": [
        {
          "internalType": "uint256",
          "name": "",
          "type": "uint256"
        }
      ],
      "stateMutability": "view",
      "type": "function"
    },
    {
      "inputs": [
        {
          "internalType": "address",
          "name": "newOwner",
          "type": "address"
        }
      ],
      "name": "transferOwnership",
      "outputs": [],
      "stateMutability": "nonpayable",
      "type": "function"
    },
    {
      "inputs": [
        {
          "internalType": "string",
          "name": "prompt",
          "type": "string"
        },
        {
          "internalType": "string",
          "name": "generationType",
          "type": "string"
        }
      ],
      "name": "useCredits",
      "outputs": [],
      "stateMutability": "nonpayable",
      "type": "function"
    },
    {
      "inputs": [
        {
          "internalType": "address",
          "name": "",
          "type": "address"
        }
      ],
      "name": "userCredits",
      "outputs": [
        {
          "internalType": "uint256",
          "name": "",
          "type": "uint256"
        }
      ],
      "stateMutability": "view",
      "type": "function"
    },
    {
      "inputs": [
        {
          "internalType": "address",
          "name": "",
          "type": "address"
        }
      ],
      "name": "userGenerations",
      "outputs": [
        {
          "internalType": "uint256",
          "name": "",
          "type": "uint256"
        }
      ],
      "stateMutability": "view",
      "type": "function"
    },
    {
      "stateMutability": "payable",
      "type": "receive"
    }
  ],
  "bytecode": "0x60803461010157601f61233638819003918201601f19168301916001600160401b0383118484101761010657808492608094604052833981010312610101576100478161011c565b906100546020820161011c565b61006c60606100656040850161011c565b930161011c565b600080546001600160a01b031990811633179091556003805482166001600160a01b0396871617905560048054909116928516929092179091559116806100e7575b506001600160a01b0316806100cd575b60405161220590816101318239f35b600280546001600160a01b031916919091179055386100be565b600180546001600160a01b031916919091179055386100ae565b600080fd5b634e487b7160e01b600052604160045260246000fd5b51906001600160a01b03821682036101015756fe608080604052600436101561001d575b50361561001b57600080fd5b005b60003560e01c90816320babb9214611864575080632630c12f1461183b57806327532d271461181f578063295164dc1461023e5780632a2cef0a146117fc5780632fd199e6146117de5780633112104e146114b357806337d337c91461149757806343ab265f1461146c5780634e43603a14611420578063530e784f146113c6578063537482e11461132f578063871ff405146112a957806387e5566b1461125057806389a302711461127a5780638a22fb2c146112555780638d6b493a146112505780638da5cb5b146112275780638ea5220f146111fe57806390107afe1461116757806395ccea671461109d578063984c95ed14611081578063abac016114610d9b578063ac54b4a914610d6c578063bba2e14014610d43578063bdebaf0714610d27578063c9692bf714610cf8578063cb77a8db14610c10578063cca2a55c14610bed578063d3c7c2c714610b79578063d503324c14610b56578063d65414ab1461086c578063db2308bd14610846578063e637e8c21461080c578063e648e625146107b2578063e8e8ca5414610794578063f1616742146106cc578063f18dd7d91461037b578063f2fde38b146102fd578063f70e383d146102d4578063fac573ca14610243578063fd9d609f1461023e5763ff15546714610203573861000f565b3461023957602036600319011261023957600435600381101561023957600501546040516001600160a01b039091168152602090f35b600080fd5b6118c6565b346102395760603660031901126102395761025c6118b0565b60443567ffffffffffffffff81116102395761029d7f6571c0fc51c0eeca3f501b0a4eb26f2a26a5f8a994f6008a5845079d0b3aa3a29136906004016118e4565b90926102b460018060a01b03600054163314611b92565b6102cf60405192839260018060a01b03169560043584611b08565b0390a2005b34610239576000366003190112610239576003546040516001600160a01b039091168152602090f35b346102395760203660031901126102395761031661189a565b6000546001600160a01b0381169161032f338414611b92565b6001600160a01b0316918290610346821515611bca565b7f8be0079c531659141344cd1fd0a4f28419497f9722a3daafe3b4186f6b6457e0600080a36001600160a01b03191617600055005b346102395761038936611912565b6103968392931515611a4d565b6103a96103a4368386611a88565b611e86565b6040516323b872dd60e01b815233600482015230602482015260448101829052909390602081606481600073a4879fed32ecbef99399e5cbc247e533421c4ec65af190811561056a576000916106ad575b501561067157601984029484159585810460191487171561065b57600f860290868204600f1488171561065b576032870297878904603214171561065b5760035460405163a9059cbb60e01b81526001600160a01b03909116600482015260649091046024820152602081604481600073a4879fed32ecbef99399e5cbc247e533421c4ec65af1801561056a5761063e575b5060ff60085416610576575b506004805460405163a9059cbb60e01b81526001600160a01b039091169181019190915260649096046024870152602086604481600073a4879fed32ecbef99399e5cbc247e533421c4ec65af195861561056a57826000805160206121d98339815191529561052593869373a4879fed32ecbef99399e5cbc247e533421c4ec69a61053b575b5033612149565b610536604051928392339684611b08565b0390a3005b61055c9060203d602011610563575b6105548183611987565b810190611acf565b508a61051e565b503d61054a565b6040513d6000823e3d90fd5b6064600391979593979694929604049560005b60038110156106315760058101548891906001600160a01b03166000816105b7575b50506001915001610589565b5060405163a9059cbb60e01b81526001600160a01b039190911660048201526024810192909252602082604481600073a4879fed32ecbef99399e5cbc247e533421c4ec65af191821561056a57600192610613575b89926105ab565b61062a9060203d8111610563576105548183611987565b508961060c565b5091939550919386610498565b6106569060203d602011610563576105548183611987565b61048c565b634e487b7160e01b600052601160045260246000fd5b60405162461bcd60e51b81526020600482015260146024820152731554d110c81d1c985b9cd9995c8819985a5b195960621b6044820152606490fd5b6106c6915060203d602011610563576105548183611987565b866103fa565b34610239576106da36611912565b916106e6811515611a4d565b33600052600b602052604060002054156107585733600052600b602052604060002091825494600019860195861161065b5784826105369461073c936000996000805160206121d9833981519152985533612149565b6040519182918683526040602084015233956040840191611ae7565b60405162461bcd60e51b81526020600482015260146024820152734e6f206372656469747320617661696c61626c6560601b6044820152606490fd5b34610239576000366003190112610239576020604051621e84808152f35b34610239576020366003190112610239576107cb61189a565b6107e060018060a01b03600054163314611b92565b6001600160a01b03166107f4811515611bca565b6001600160601b0360a01b6001541617600155600080f35b34610239576020366003190112610239576001600160a01b0361082d61189a565b16600052600a6020526020604060002054604051908152f35b346102395760003660031901126102395760408051620f42408152621e84806020820152f35b346102395761087a36611912565b6108878392931515611a4d565b61089a610895368386611a88565b611c83565b6040516323b872dd60e01b815233600482015230602482015260448101829052909390602081606481600073c777fa50186362fe0ef9ccd579b6385ce7cb49f15af190811561056a57600091610b37575b5015610afa57601984029484159585810460191487171561065b57600f860290868204600f1488171561065b576032870297878904603214171561065b5760035460405163a9059cbb60e01b81526001600160a01b03909116600482015260649091046024820152602081604481600073c777fa50186362fe0ef9ccd579b6385ce7cb49f15af1801561056a57610add575b5060ff60085416610a15575b506004805460405163a9059cbb60e01b81526001600160a01b039091169181019190915260649096046024870152602086604481600073c777fa50186362fe0ef9ccd579b6385ce7cb49f15af195861561056a57826000805160206121d98339815191529561052593869373c777fa50186362fe0ef9ccd579b6385ce7cb49f19a61053b575033612149565b6064600391979593979694929604049560005b6003811015610ad05760058101548891906001600160a01b0316600081610a56575b50506001915001610a28565b5060405163a9059cbb60e01b81526001600160a01b039190911660048201526024810192909252602082604481600073c777fa50186362fe0ef9ccd579b6385ce7cb49f15af191821561056a57600192610ab2575b8992610a4a565b610ac99060203d8111610563576105548183611987565b5089610aab565b5091939550919386610989565b610af59060203d602011610563576105548183611987565b61097d565b60405162461bcd60e51b815260206004820152601560248201527414d4d4dd1d081d1c985b9cd9995c8819985a5b1959605a1b6044820152606490fd5b610b50915060203d602011610563576105548183611987565b866108eb565b346102395760003660031901126102395760206040516729a2241af62c00008152f35b3461023957600036600319011261023957608060018060a01b03600154166040519073c777fa50186362fe0ef9ccd579b6385ce7cb49f18252602082015273039e2fb66102314ce7b64ce5ce3e5183bc94ad38604082015273a4879fed32ecbef99399e5cbc247e533421c4ec66060820152f35b3461023957600036600319011261023957602060ff600854166040519015158152f35b3461023957608036600319011261023957366064116102395760643580151580910361023957610c4b60018060a01b03600054163314611b92565b600060045b60038210610cd2578260ff196008541660ff821617600855604051908160046000915b60038310610ca8577f1252441462c706793cd4cfed52f0d215259c8b3af75da3f78112618e52bcbc92608086866060820152a1005b81356001600160a01b03811691908290036102395760208160019382935201920192019190610c73565b8035916001600160a01b0383168303610239576020600192019281600501550190610c50565b3461023957600036600319011261023957602060405173c777fa50186362fe0ef9ccd579b6385ce7cb49f18152f35b34610239576000366003190112610239576020604051600f8152f35b34610239576000366003190112610239576001546040516001600160a01b039091168152602090f35b3461023957600036600319011261023957602060405173039e2fb66102314ce7b64ce5ce3e5183bc94ad388152f35b3461023957610da936611912565b610db68392931515611a4d565b610dc9610dc4368386611a88565b611d67565b6040516323b872dd60e01b815233600482015230602482015260448101829052909390602081606481600073039e2fb66102314ce7b64ce5ce3e5183bc94ad385af190811561056a57600091611062575b501561102957601984029484159585810460191487171561065b57600f860290868204600f1488171561065b576032870297878904603214171561065b5760035460405163a9059cbb60e01b81526001600160a01b03909116600482015260649091046024820152602081604481600073039e2fb66102314ce7b64ce5ce3e5183bc94ad385af1801561056a5761100c575b5060ff60085416610f44575b506004805460405163a9059cbb60e01b81526001600160a01b039091169181019190915260649096046024870152602086604481600073039e2fb66102314ce7b64ce5ce3e5183bc94ad385af195861561056a57826000805160206121d98339815191529561052593869373039e2fb66102314ce7b64ce5ce3e5183bc94ad389a61053b575033612149565b6064600391979593979694929604049560005b6003811015610fff5760058101548891906001600160a01b0316600081610f85575b50506001915001610f57565b5060405163a9059cbb60e01b81526001600160a01b039190911660048201526024810192909252602082604481600073039e2fb66102314ce7b64ce5ce3e5183bc94ad385af191821561056a57600192610fe1575b8992610f79565b610ff89060203d8111610563576105548183611987565b5089610fda565b5091939550919386610eb8565b6110249060203d602011610563576105548183611987565b610eac565b60405162461bcd60e51b815260206004820152601160248201527014c81d1c985b9cd9995c8819985a5b1959607a1b6044820152606490fd5b61107b915060203d602011610563576105548183611987565b86610e1a565b34610239576000366003190112610239576020604051600a8152f35b34610239576040366003190112610239576110b661189a565b600054602435916001600160a01b03909116906110d4338314611b92565b6001600160a01b0316908161110e57505060008080809360018060a01b03825416828215611105575bf11561056a57005b506108fc6110fd565b60405163a9059cbb60e01b81526001600160a01b039190911660048201526024810192909252602090829060449082906000905af1801561056a5761114f57005b61001b9060203d602011610563576105548183611987565b346102395760403660031901126102395761118061189a565b6111886118b0565b9061119e60018060a01b03600054163314611b92565b6001600160a01b0316801515806111ec575b6111b990611bca565b6001600160601b0360a01b600354161760035560018060a01b03166001600160601b0360a01b6004541617600455600080f35b506001600160a01b03821615156111b0565b34610239576000366003190112610239576004546040516001600160a01b039091168152602090f35b34610239576000366003190112610239576000546040516001600160a01b039091168152602090f35b611964565b34610239576000366003190112610239576020611270611c05565b6040519015158152f35b3461023957600036600319011261023957602060405173a4879fed32ecbef99399e5cbc247e533421c4ec68152f35b34610239576040366003190112610239576112c261189a565b602435906112db60018060a01b03600054163314611b92565b6001600160a01b03166000818152600b602052604090208054919282810192831061065b577fed46984c46e11f42ec323727ba7d99dc16be2d248a8aaa8982d492688497f09d9260209255604051908152a2005b346102395760203660031901126102395760043567ffffffffffffffff81116102395761136260809136906004016118e4565b90611371610895368484611a88565b916113ae6103a461139760018060a01b0360015416611391368688611a88565b90611f97565b936113a6610dc4368684611a88565b933691611a88565b91604051938452602084015260408301526060820152f35b34610239576020366003190112610239576113df61189a565b6113f460018060a01b03600054163314611b92565b6001600160a01b0316611408811515611bca565b6001600160601b0360a01b6002541617600255600080f35b346102395760203660031901126102395760406001600160a01b0361144361189a565b1680600052600a602052816000205490600052600b602052816000205482519182526020820152f35b3461023957602036600319011261023957602061148f61148a61189a565b611b1f565b604051908152f35b3461023957600036600319011261023957602060405160198152f35b34610239576114c136611912565b6114cf839294931515611a4d565b6001546001600160a01b03169283156117a3576114f66114f0368488611a88565b85611f97565b6040516323b872dd60e01b8152336004820152306024820152604481018290529094602090829060649082906000905af190811561056a57600091611784575b5015611747576001548415906001600160a01b03166019868102908782041483171561065b57600f870290878204600f1484171561065b576032880293888504603214171561065b5760035460405163a9059cbb60e01b81526001600160a01b039091166004820152606490910460248201526020816044816000875af1801561056a5761172a575b5060ff60085416611670575b506004805460405163a9059cbb60e01b81526001600160a01b039091169181019190915260649092046024830152602090829081600081604481015b03925af1801561056a576000805160206121d9833981519152946116349385938993611651575033612149565b60018060a01b036001541693610536604051928392339684611b08565b6116699060203d602011610563576105548183611987565b508961051e565b6064600391989592969397949804049660005b60038110156117175760058101548991906001600160a01b03166000816116b1575b50506001915001611683565b5060405163a9059cbb60e01b81526001600160a01b03919091166004820152602481019290925260208260448160008c5af191821561056a576001926116f9575b8a926116a5565b6117109060203d8111610563576105548183611987565b508a6116f2565b50939650919490939192916116076115cb565b6117429060203d602011610563576105548183611987565b6115bf565b60405162461bcd60e51b815260206004820152601560248201527410d3d49053081d1c985b9cd9995c8819985a5b1959605a1b6044820152606490fd5b61179d915060203d602011610563576105548183611987565b86611536565b60405162461bcd60e51b815260206004820152601360248201527210d3d49053081d1bdad95b881b9bdd081cd95d606a1b6044820152606490fd5b34610239576000366003190112610239576020600954604051908152f35b3461023957602036600319011261023957602061148f61181a61189a565b6119bf565b3461023957600036600319011261023957602060405160328152f35b34610239576000366003190112610239576002546040516001600160a01b039091168152602090f35b34610239576020366003190112610239576020906001600160a01b0361188861189a565b16600052600b82526040600020548152f35b600435906001600160a01b038216820361023957565b602435906001600160a01b038216820361023957565b34610239576000366003190112610239576020604051620f42408152f35b9181601f840112156102395782359167ffffffffffffffff8311610239576020838186019501011161023957565b60406003198201126102395760043567ffffffffffffffff8111610239578161193d916004016118e4565b929092916024359067ffffffffffffffff821161023957611960916004016118e4565b9091565b34610239576000366003190112610239576020604051670de0b6b3a76400008152f35b90601f8019910116810190811067ffffffffffffffff8211176119a957604052565b634e487b7160e01b600052604160045260246000fd5b6002546001600160a01b031690816119d8575050600090565b604051631516778560e11b81526001600160a01b03909116600482015290602090829060249082905afa60009181611a19575b50611a165750600090565b90565b9091506020813d602011611a45575b81611a3560209383611987565b8101031261023957519038611a0b565b3d9150611a28565b15611a5457565b60405162461bcd60e51b815260206004820152600c60248201526b115b5c1d1e481c1c9bdb5c1d60a21b6044820152606490fd5b92919267ffffffffffffffff82116119a95760405191611ab2601f8201601f191660200184611987565b829481845281830111610239578281602093846000960137010152565b90816020910312610239575180151581036102395790565b908060209392818452848401376000828201840152601f01601f1916010190565b604090611a16949281528160208201520191611ae7565b6001600160a01b03168015611b8d576020602491604051928380926370a0823160e01b82523060048301525afa90811561056a57600091611b5e575090565b90506020813d602011611b85575b81611b7960209383611987565b81010312610239575190565b3d9150611b6c565b504790565b15611b9957565b60405162461bcd60e51b81526020600482015260096024820152682737ba1037bbb732b960b91b6044820152606490fd5b15611bd157565b60405162461bcd60e51b815260206004820152600c60248201526b5a65726f206164647265737360a01b6044820152606490fd5b6002546001600160a01b03168015611c7d576020602491604051928380926375151b6360e01b825273a4879fed32ecbef99399e5cbc247e533421c4ec660048301525afa60009181611c5c5750611a165750600090565b611c7691925060203d602011610563576105548183611987565b9038611a0b565b50600090565b60009060208151910120905060056020604051611ca1604082611987565b8281520164766964656f60d81b81522014600014611d5e57621e84805b6002546001600160a01b03169081611cdf575b5050670de0b6b3a764000090565b60209060446040518094819363968534bf60e01b835273c777fa50186362fe0ef9ccd579b6385ce7cb49f1600484015260248301525afa60009181611d2a575b50611a165780611cd1565b9091506020813d602011611d56575b81611d4660209383611987565b8101031261023957519038611d1f565b3d9150611d39565b620f4240611cbe565b6000906020815191012060056020604051611d83604082611987565b8281520164766964656f60d81b81522014600014611e7d57621e84805b6002546001600160a01b03169081611df6575b50506001546001600160a01b031673039e2fb66102314ce7b64ce5ce3e5183bc94ad3814159050611dea57670de0b6b3a764000090565b6729a2241af62c000090565b60209060446040518094819363968534bf60e01b835273039e2fb66102314ce7b64ce5ce3e5183bc94ad38600484015260248301525afa829181611e45575b50611e405780611db3565b905090565b9091506020813d602011611e75575b81611e6160209383611987565b81010312611e7157519038611e35565b8280fd5b3d9150611e54565b620f4240611da0565b6000906020815191012060056020604051611ea2604082611987565b8281520164766964656f60d81b81522014600014611f8e57621e84805b6002546001600160a01b03169081611f10575b50506001546001600160a01b031673a4879fed32ecbef99399e5cbc247e533421c4ec614159050611f0957670de0b6b3a764000090565b620f424090565b60209060446040518094819363968534bf60e01b835273a4879fed32ecbef99399e5cbc247e533421c4ec6600484015260248301525afa829181611f5a575b50611e405780611ed2565b9091506020813d602011611f86575b81611f7660209383611987565b81010312611e7157519038611f4f565b3d9150611f69565b620f4240611ebf565b9060009060208151910120905060056020604051611fb6604082611987565b8281520164766964656f60d81b8152201460001461213157621e84805b6002546001600160a01b0316806120b9575b50506001600160a01b031673c777fa50186362fe0ef9ccd579b6385ce7cb49f181036120185750670de0b6b3a764000090565b6001546001600160a01b031681036120375750670de0b6b3a764000090565b73039e2fb66102314ce7b64ce5ce3e5183bc94ad38810361205f57506729a2241af62c000090565b73a4879fed32ecbef99399e5cbc247e533421c4ec60361208057620f424090565b60405162461bcd60e51b81526020600482015260116024820152702ab739bab83837b93a32b2103a37b5b2b760791b6044820152606490fd5b60405163968534bf60e01b81526001600160a01b03841660048201526024810192909252602090829060449082905afa600091816120fd575b50611e405780611fe5565b9091506020813d602011612129575b8161211960209383611987565b81010312610239575190386120f2565b3d915061210c565b620f4240611fd3565b600019811461065b5760010190565b936121cd7fe1d13bef5d7b05d92d047ca981937627ae93cac1631142181f429dd54eac1f47949593929361217e60095461213a565b60095560018060a01b03169586600052600a60205260406000206121a2815461213a565b9055600954926121bf604051968796606088526060880191611ae7565b918583036020870152611ae7565b9060408301520390a256fe0da8e031922d6bdf36a83b26ef74cd487e4ec7945a6abf37b9b8cf1b194788fda164736f6c634300081b000a",
  "linkReferences": {},
  "deployedLinkReferences": {}
}