{
  "_format": "hh-sol-artifact-1",
  "contractName": "SonicPriceOracle",
  "sourceName": "Contracts/SonicPriceOracle.sol",
  "abi": [
    {
      "inputs": [],
      "stateMutability": "nonpayable",
      "type": "constructor"
    },
    {
      "anonymous": false,
      "inputs": [
        {
          "indexed": true,
          "internalType": "address",
          "name": "token",
          "type": "address"
        },
        {
          "indexed": false,
          "internalType": "uint256",
          "name": "price",
          "type": "uint256"
        },
        {
          "indexed": false,
          "internalType": "uint256",
          "name": "timestamp",
          "type": "uint256"
        }
      ],
      "name": "PriceUpdated",
      "type": "event"
    },
    {
      "anonymous": false,
      "inputs": [
        {
          "indexed": true,
          "internalType": "address",
          "name": "updater",
          "type": "address"
        }
      ],
      "name": "PriceUpdaterAdded",
      "type": "event"
    },
    {
      "anonymous": false,
      "inputs": [
        {
          "indexed": true,
          "internalType": "address",
          "name": "updater",
          "type": "address"
        }
      ],
      "name": "PriceUpdaterRemoved",
      "type": "event"
    },
    {
      "anonymous": false,
      "inputs": [
        {
          "indexed": true,
          "internalType": "address",
          "name": "token",
          "type": "address"
        },
        {
          "indexed": false,
          "internalType": "string",
          "name": "symbol",
          "type": "string"
        }
      ],
      "name": "TokenAdded",
      "type": "event"
    },
    {
      "anonymous": false,
      "inputs": [
        {
          "indexed": true,
          "internalType": "address",
          "name": "token",
          "type": "address"
        }
      ],
      "name": "TokenRemoved",
      "type": "event"
    },
    {
      "inputs": [],
      "name": "PRICE_STALENESS_THRESHOLD",
      "outputs": [
        {
          "internalType": "uint256",
          "name": "",
          "type": "uint256"
        }
      ],
      "stateMutability": "view",
      "type": "function"
    },
    {
      "inputs": [
        {
          "internalType": "address",
          "name": "updater",
          "type": "address"
        }
      ],
      "name": "addPriceUpdater",
      "outputs": [],
      "stateMutability": "nonpayable",
      "type": "function"
    },
    {
      "inputs": [
        {
          "internalType": "address",
          "name": "token",
          "type": "address"
        }
      ],
      "name": "addSupportedToken",
      "outputs": [],
      "stateMutability": "nonpayable",
      "type": "function"
    },
    {
      "inputs": [
        {
          "internalType": "address",
          "name": "token",
          "type": "address"
        },
        {
          "internalType": "uint256",
          "name": "priceUSD",
          "type": "uint256"
        }
      ],
      "name": "emergencyUpdatePrice",
      "outputs": [],
      "stateMutability": "nonpayable",
      "type": "function"
    },
    {
      "inputs": [],
      "name": "getAllTokens",
      "outputs": [
        {
          "internalType": "address[]",
          "name": "tokens",
          "type": "address[]"
        },
        {
          "internalType": "uint256[]",
          "name": "prices",
          "type": "uint256[]"
        },
        {
          "internalType": "uint256[]",
          "name": "timestamps",
          "type": "uint256[]"
        },
        {
          "internalType": "bool[]",
          "name": "staleFlags",
          "type": "bool[]"
        }
      ],
      "stateMutability": "view",
      "type": "function"
    },
    {
      "inputs": [
        {
          "internalType": "address",
          "name": "token",
          "type": "address"
        },
        {
          "internalType": "uint256",
          "name": "usdAmount",
          "type": "uint256"
        }
      ],
      "name": "getTokenAmountForUSD",
      "outputs": [
        {
          "internalType": "uint256",
          "name": "",
          "type": "uint256"
        }
      ],
      "stateMutability": "view",
      "type": "function"
    },
    {
      "inputs": [
        {
          "internalType": "address",
          "name": "token",
          "type": "address"
        }
      ],
      "name": "getTokenInfo",
      "outputs": [
        {
          "internalType": "bool",
          "name": "supported",
          "type": "bool"
        },
        {
          "internalType": "uint256",
          "name": "priceUSD",
          "type": "uint256"
        },
        {
          "internalType": "uint256",
          "name": "lastUpdatedTime",
          "type": "uint256"
        },
        {
          "internalType": "bool",
          "name": "stale",
          "type": "bool"
        }
      ],
      "stateMutability": "view",
      "type": "function"
    },
    {
      "inputs": [
        {
          "internalType": "address",
          "name": "token",
          "type": "address"
        }
      ],
      "name": "getTokenPriceUSD",
      "outputs": [
        {
          "internalType": "uint256",
          "name": "",
          "type": "uint256"
        }
      ],
      "stateMutability": "view",
      "type": "function"
    },
    {
      "inputs": [
        {
          "internalType": "address",
          "name": "token",
          "type": "address"
        }
      ],
      "name": "isPriceStale",
      "outputs": [
        {
          "internalType": "bool",
          "name": "",
          "type": "bool"
        }
      ],
      "stateMutability": "view",
      "type": "function"
    },
    {
      "inputs": [
        {
          "internalType": "address",
          "name": "token",
          "type": "address"
        }
      ],
      "name": "isTokenSupported",
      "outputs": [
        {
          "internalType": "bool",
          "name": "",
          "type": "bool"
        }
      ],
      "stateMutability": "view",
      "type": "function"
    },
    {
      "inputs": [
        {
          "internalType": "address",
          "name": "",
          "type": "address"
        }
      ],
      "name": "lastUpdated",
      "outputs": [
        {
          "internalType": "uint256",
          "name": "",
          "type": "uint256"
        }
      ],
      "stateMutability": "view",
      "type": "function"
    },
    {
      "inputs": [],
      "name": "owner",
      "outputs": [
        {
          "internalType": "address",
          "name": "",
          "type": "address"
        }
      ],
      "stateMutability": "view",
      "type": "function"
    },
    {
      "inputs": [
        {
          "internalType": "address",
          "name": "",
          "type": "address"
        }
      ],
      "name": "priceUpdaters",
      "outputs": [
        {
          "internalType": "bool",
          "name": "",
          "type": "bool"
        }
      ],
      "stateMutability": "view",
      "type": "function"
    },
    {
      "inputs": [
        {
          "internalType": "address",
          "name": "updater",
          "type": "address"
        }
      ],
      "name": "removePriceUpdater",
      "outputs": [],
      "stateMutability": "nonpayable",
      "type": "function"
    },
    {
      "inputs": [
        {
          "internalType": "address",
          "name": "token",
          "type": "address"
        }
      ],
      "name": "removeSupportedToken",
      "outputs": [],
      "stateMutability": "nonpayable",
      "type": "function"
    },
    {
      "inputs": [
        {
          "internalType": "address",
          "name": "",
          "type": "address"
        }
      ],
      "name": "supportedTokens",
      "outputs": [
        {
          "internalType": "bool",
          "name": "",
          "type": "bool"
        }
      ],
      "stateMutability": "view",
      "type": "function"
    },
    {
      "inputs": [
        {
          "internalType": "address",
          "name": "",
          "type": "address"
        }
      ],
      "name": "tokenPricesUSD",
      "outputs": [
        {
          "internalType": "uint256",
          "name": "",
          "type": "uint256"
        }
      ],
      "stateMutability": "view",
      "type": "function"
    },
    {
      "inputs": [
        {
          "internalType": "address",
          "name": "newOwner",
          "type": "address"
        }
      ],
      "name": "transferOwnership",
      "outputs": [],
      "stateMutability": "nonpayable",
      "type": "function"
    },
    {
      "inputs": [
        {
          "internalType": "address",
          "name": "token",
          "type": "address"
        },
        {
          "internalType": "uint256",
          "name": "priceUSD",
          "type": "uint256"
        }
      ],
      "name": "updatePrice",
      "outputs": [],
      "stateMutability": "nonpayable",
      "type": "function"
    },
    {
      "inputs": [
        {
          "internalType": "address[]",
          "name": "tokens",
          "type": "address[]"
        },
        {
          "internalType": "uint256[]",
          "name": "prices",
          "type": "uint256[]"
        }
      ],
      "name": "updatePrices",
      "outputs": [],
      "stateMutability": "nonpayable",
      "type": "function"
    }
  ],
  "bytecode": "0x608080604052346065573360018060a01b031960005416176000553360005260016020526040600020600160ff19825416179055337f5104d28bdf2a63480d70f73ae04afa86476ff93d6306f6d13c6f85eb593c4726600080a2610f21908161006b8239f35b600080fdfe608080604052600436101561001357600080fd5b60003560e01c9081630a6f93e614610bb157508063125dfb0914610b7257806317fdb62f14610b4a57806319089a0d14610b105780631f69565f14610a965780632a2cef0a14610a365780632a5c792a1461091e5780632df31108146108ab578063457972de1461087557806368c4ac26146108365780636d69fcaf146106725780637437ba9f1461063657806375151b63146105dd578063763191901461056a5780638da5cb5b14610541578063968534bf146103aa57806396f77060146101f5578063e88456e714610173578063f25b9caa146101565763f2fde38b146100fb57600080fd5b3461015157602036600319011261015157610114610be7565b6000549061012c336001600160a01b03841614610d19565b6001600160a01b031690610141821515610e56565b6001600160a01b03191617600055005b600080fd5b3461015157600036600319011261015157602060405161012c8152f35b346101515760203660031901126101515761018c610be7565b6101a160018060a01b03600054163314610d19565b6001600160a01b03166101b5811515610e56565b8060005260016020526040600020600160ff198254161790557f5104d28bdf2a63480d70f73ae04afa86476ff93d6306f6d13c6f85eb593c4726600080a2005b346101515760403660031901126101515760043567ffffffffffffffff811161015157610226903690600401610c31565b60243567ffffffffffffffff811161015157610246903690600401610c31565b9133600052600160205261026160ff60406000205416610d51565b82810361036d5760005b81811061027457005b6001906001600160a01b0361029261028d83868a610eb4565b610eda565b1660005260046020526102ac60ff60406000205416610c62565b6102c26102ba828787610eb4565b351515610d9d565b6102cd818686610eb4565b35828060a01b036102e261028d84878b610eb4565b166000526002602052604060002055818060a01b0361030561028d83868a610eb4565b1660005260036020524260406000205561032361028d828589610eb4565b7fb556fac599c3c70efb9ab1fa725ecace6c81cc48d1455f886607def065f3e0c06040610351848989610eb4565b35928151938452426020850152858060a01b031692a20161026b565b60405162461bcd60e51b8152602060048201526015602482015274082e4e4c2f240d8cadccee8d040dad2e6dac2e8c6d605b1b6044820152606490fd5b34610151576040366003190112610151576103c3610be7565b6001600160a01b038116600081815260046020526040902054602435906103ec9060ff16610c62565b8015610507578160005260026020526040600020549182156104cc5761041c610416600495610eee565b15610ca4565b60206012916040519586809263313ce56760e01b82525afa6000948161048b575b509360ff929394610483575b5016604d811161046d57600a0a8082029182040361046d5760209160405191048152f35b634e487b7160e01b600052601160045260246000fd5b905084610449565b6020813d6020116104c4575b816104a460209383610ce1565b810103126104c0575160ff811681036104c057945060ff61043d565b8580fd5b3d9150610497565b60405162461bcd60e51b81526020600482015260136024820152725072696365206e6f7420617661696c61626c6560681b6044820152606490fd5b60405162461bcd60e51b8152602060048201526012602482015271125b9d985b1a59081554d108185b5bdd5b9d60721b6044820152606490fd5b34610151576000366003190112610151576000546040516001600160a01b039091168152602090f35b3461015157602036600319011261015157610583610be7565b61059860018060a01b03600054163314610d19565b6001600160a01b03166000818152600460205260408120805460ff191690557f4c910b69fe65a61f7531b9c5042b2329ca7179c77290aa7e2eb3afa3c8511fd39080a2005b346101515760203660031901126101515760206105f8610be7565b6001600160a01b038116600090815260048352604090205460ff169081610625575b506040519015158152f35b61062f9150610eee565b158261061a565b3461015157604036600319011261015157610670610652610be7565b61066760018060a01b03600054163314610d19565b60243590610dd9565b005b346101515760203660031901126101515761068b610be7565b6106a060018060a01b03600054163314610d19565b6001600160a01b03166106b4811515610e56565b8060005260046020526040600020600160ff198254161790556040516395d89b4160e01b8152600081600481855afa6000918161078a575b5061073657507f7afee0f1b802cc0f66c67890e26b4566251859cf2cd8de79b86aed7251d9756a60606040516020815260076020820152662aa725a727aba760c91b6040820152a2005b7f7afee0f1b802cc0f66c67890e26b4566251859cf2cd8de79b86aed7251d9756a906040805180926020825261077b8151809281602086015260208686019101610e91565b601f01601f19168101030190a2005b90913d8082843e61079b8184610ce1565b82019160208184031261082e5780519067ffffffffffffffff8211610832570182601f8201121561082e5780519167ffffffffffffffff831161081a57604051936107f0601f8501601f191660200186610ce1565b838552602084840101116108175750906108109160208085019101610e91565b90836106ec565b80fd5b634e487b7160e01b81526041600452602490fd5b5080fd5b8280fd5b34610151576020366003190112610151576001600160a01b03610857610be7565b166000526004602052602060ff604060002054166040519015158152f35b3461015157604036600319011261015157610670610891610be7565b33600052600160205261066760ff60406000205416610d51565b34610151576020366003190112610151576108c4610be7565b6108d960018060a01b03600054163314610d19565b6001600160a01b03166000818152600160205260408120805460ff191690557fff7dbb85c77ca68ca1f894d6498570e3d5095cd19466f07ee8d222b337e4068c9080a2005b3461015157600036600319011261015157604051602061093e8183610ce1565b600082526000368137604051906109558183610ce1565b6000825260003681376040519061096c8183610ce1565b600082526000368137604051916109838284610ce1565b600083526000368137604051948594608086016080875282518091528460a0880193019060005b818110610a1657505050816109c991876109d795940386890152610bfd565b908582036040870152610bfd565b838103606085015281808451928381520193019160005b8281106109fd57505050500390f35b83511515855286955093810193928101926001016109ee565b82516001600160a01b0316855289985093860193918601916001016109aa565b3461015157602036600319011261015157610a4f610be7565b610a7e61041660018060a01b03831692836000526004602052610a7960ff60406000205416610c62565b610eee565b60005260026020526020604060002054604051908152f35b34610151576020366003190112610151576080610ab1610be7565b60018060a01b03811680600052600460205260ff6040600020541691816000526002602052604060002054916000526003602052610af460406000205491610eee565b9160405193151584526020840152604083015215156060820152f35b34610151576020366003190112610151576001600160a01b03610b31610be7565b1660005260026020526020604060002054604051908152f35b34610151576020366003190112610151576020610b68610a79610be7565b6040519015158152f35b34610151576020366003190112610151576001600160a01b03610b93610be7565b166000526001602052602060ff604060002054166040519015158152f35b34610151576020366003190112610151576020906001600160a01b03610bd5610be7565b16600052600382526040600020548152f35b600435906001600160a01b038216820361015157565b906020808351928381520192019060005b818110610c1b5750505090565b8251845260209384019390920191600101610c0e565b9181601f840112156101515782359167ffffffffffffffff8311610151576020808501948460051b01011161015157565b15610c6957565b60405162461bcd60e51b8152602060048201526013602482015272151bdad95b881b9bdd081cdd5c1c1bdc9d1959606a1b6044820152606490fd5b15610cab57565b60405162461bcd60e51b815260206004820152600e60248201526d5072696365206973207374616c6560901b6044820152606490fd5b90601f8019910116810190811067ffffffffffffffff821117610d0357604052565b634e487b7160e01b600052604160045260246000fd5b15610d2057565b60405162461bcd60e51b81526020600482015260096024820152682737ba1037bbb732b960b91b6044820152606490fd5b15610d5857565b60405162461bcd60e51b815260206004820152601c60248201527f4e6f7420617574686f72697a65642070726963652075706461746572000000006044820152606490fd5b15610da457565b60405162461bcd60e51b815260206004820152600d60248201526c496e76616c696420707269636560981b6044820152606490fd5b60407fb556fac599c3c70efb9ab1fa725ecace6c81cc48d1455f886607def065f3e0c09160018060a01b031692836000526004602052610e1f60ff836000205416610c62565b610e2a811515610d9d565b8360005260026020528082600020558360005260036020524282600020558151908152426020820152a2565b15610e5d57565b60405162461bcd60e51b815260206004820152600c60248201526b5a65726f206164647265737360a01b6044820152606490fd5b60005b838110610ea45750506000910152565b8181015183820152602001610e94565b9190811015610ec45760051b0190565b634e487b7160e01b600052603260045260246000fd5b356001600160a01b03811681036101515790565b60018060a01b03166000526003602052604060002054420342811161046d5761012c109056fea164736f6c634300081b000a",
  "linkReferences": {},
  "deployedLinkReferences": {}
}