{
  "_format": "hh-sol-artifact-1",
  "contractName": "SrvcfloStaking",
  "sourceName": "Contracts/SrvcfloStaking.sol",
  "abi": [
    {
      "inputs": [
        {
          "internalType": "address",
          "name": "_stakedNFT",
          "type": "address"
        },
        {
          "internalType": "address",
          "name": "_penaltyWallet",
          "type": "address"
        }
      ],
      "stateMutability": "nonpayable",
      "type": "constructor"
    },
    {
      "inputs": [],
      "name": "AccessControlBadConfirmation",
      "type": "error"
    },
    {
      "inputs": [
        {
          "internalType": "address",
          "name": "account",
          "type": "address"
        },
        {
          "internalType": "bytes32",
          "name": "neededRole",
          "type": "bytes32"
        }
      ],
      "name": "AccessControlUnauthorizedAccount",
      "type": "error"
    },
    {
      "inputs": [],
      "name": "EnforcedPause",
      "type": "error"
    },
    {
      "inputs": [],
      "name": "ExpectedPause",
      "type": "error"
    },
    {
      "inputs": [],
      "name": "FailedCall",
      "type": "error"
    },
    {
      "inputs": [
        {
          "internalType": "uint256",
          "name": "balance",
          "type": "uint256"
        },
        {
          "internalType": "uint256",
          "name": "needed",
          "type": "uint256"
        }
      ],
      "name": "InsufficientBalance",
      "type": "error"
    },
    {
      "inputs": [],
      "name": "ReentrancyGuardReentrantCall",
      "type": "error"
    },
    {
      "inputs": [
        {
          "internalType": "address",
          "name": "token",
          "type": "address"
        }
      ],
      "name": "SafeERC20FailedOperation",
      "type": "error"
    },
    {
      "anonymous": false,
      "inputs": [
        {
          "indexed": true,
          "internalType": "uint256",
          "name": "distributionId",
          "type": "uint256"
        },
        {
          "indexed": false,
          "internalType": "uint256",
          "name": "amount",
          "type": "uint256"
        },
        {
          "indexed": false,
          "internalType": "address",
          "name": "token",
          "type": "address"
        },
        {
          "indexed": false,
          "internalType": "uint256",
          "name": "totalStaked",
          "type": "uint256"
        },
        {
          "indexed": false,
          "internalType": "uint256",
          "name": "totalBonusPoints",
          "type": "uint256"
        }
      ],
      "name": "DistributionAdded",
      "type": "event"
    },
    {
      "anonymous": false,
      "inputs": [
        {
          "indexed": true,
          "internalType": "address",
          "name": "token",
          "type": "address"
        },
        {
          "indexed": false,
          "internalType": "uint256",
          "name": "amount",
          "type": "uint256"
        },
        {
          "indexed": true,
          "internalType": "address",
          "name": "to",
          "type": "address"
        }
      ],
      "name": "EmergencyWithdraw",
      "type": "event"
    },
    {
      "anonymous": false,
      "inputs": [
        {
          "indexed": false,
          "internalType": "address",
          "name": "account",
          "type": "address"
        }
      ],
      "name": "Paused",
      "type": "event"
    },
    {
      "anonymous": false,
      "inputs": [
        {
          "indexed": true,
          "internalType": "address",
          "name": "oldWallet",
          "type": "address"
        },
        {
          "indexed": true,
          "internalType": "address",
          "name": "newWallet",
          "type": "address"
        }
      ],
      "name": "PenaltyWalletUpdated",
      "type": "event"
    },
    {
      "anonymous": false,
      "inputs": [
        {
          "indexed": true,
          "internalType": "address",
          "name": "user",
          "type": "address"
        },
        {
          "indexed": true,
          "internalType": "uint256",
          "name": "distributionId",
          "type": "uint256"
        },
        {
          "indexed": false,
          "internalType": "uint256",
          "name": "amount",
          "type": "uint256"
        },
        {
          "indexed": false,
          "internalType": "address",
          "name": "token",
          "type": "address"
        }
      ],
      "name": "RewardsClaimed",
      "type": "event"
    },
    {
      "anonymous": false,
      "inputs": [
        {
          "indexed": true,
          "internalType": "bytes32",
          "name": "role",
          "type": "bytes32"
        },
        {
          "indexed": true,
          "internalType": "bytes32",
          "name": "previousAdminRole",
          "type": "bytes32"
        },
        {
          "indexed": true,
          "internalType": "bytes32",
          "name": "newAdminRole",
          "type": "bytes32"
        }
      ],
      "name": "RoleAdminChanged",
      "type": "event"
    },
    {
      "anonymous": false,
      "inputs": [
        {
          "indexed": true,
          "internalType": "bytes32",
          "name": "role",
          "type": "bytes32"
        },
        {
          "indexed": true,
          "internalType": "address",
          "name": "account",
          "type": "address"
        },
        {
          "indexed": true,
          "internalType": "address",
          "name": "sender",
          "type": "address"
        }
      ],
      "name": "RoleGranted",
      "type": "event"
    },
    {
      "anonymous": false,
      "inputs": [
        {
          "indexed": true,
          "internalType": "bytes32",
          "name": "role",
          "type": "bytes32"
        },
        {
          "indexed": true,
          "internalType": "address",
          "name": "account",
          "type": "address"
        },
        {
          "indexed": true,
          "internalType": "address",
          "name": "sender",
          "type": "address"
        }
      ],
      "name": "RoleRevoked",
      "type": "event"
    },
    {
      "anonymous": false,
      "inputs": [
        {
          "indexed": true,
          "internalType": "address",
          "name": "user",
          "type": "address"
        },
        {
          "indexed": true,
          "internalType": "uint256",
          "name": "tokenId",
          "type": "uint256"
        },
        {
          "indexed": false,
          "internalType": "uint256",
          "name": "timestamp",
          "type": "uint256"
        },
        {
          "indexed": false,
          "internalType": "uint256",
          "name": "lockPeriod",
          "type": "uint256"
        },
        {
          "indexed": false,
          "internalType": "uint256",
          "name": "bonusMultiplier",
          "type": "uint256"
        }
      ],
      "name": "Staked",
      "type": "event"
    },
    {
      "anonymous": false,
      "inputs": [
        {
          "indexed": false,
          "internalType": "bool",
          "name": "enabled",
          "type": "bool"
        }
      ],
      "name": "StakingToggled",
      "type": "event"
    },
    {
      "anonymous": false,
      "inputs": [
        {
          "indexed": false,
          "internalType": "address",
          "name": "account",
          "type": "address"
        }
      ],
      "name": "Unpaused",
      "type": "event"
    },
    {
      "anonymous": false,
      "inputs": [
        {
          "indexed": true,
          "internalType": "address",
          "name": "user",
          "type": "address"
        },
        {
          "indexed": true,
          "internalType": "uint256",
          "name": "tokenId",
          "type": "uint256"
        },
        {
          "indexed": false,
          "internalType": "uint256",
          "name": "timestamp",
          "type": "uint256"
        },
        {
          "indexed": false,
          "internalType": "bool",
          "name": "earlyUnstake",
          "type": "bool"
        },
        {
          "indexed": false,
          "internalType": "uint256",
          "name": "penalty",
          "type": "uint256"
        }
      ],
      "name": "Unstaked",
      "type": "event"
    },
    {
      "stateMutability": "payable",
      "type": "fallback"
    },
    {
      "inputs": [],
      "name": "ADMIN_ROLE",
      "outputs": [
        {
          "internalType": "bytes32",
          "name": "",
          "type": "bytes32"
        }
      ],
      "stateMutability": "view",
      "type": "function"
    },
    {
      "inputs": [],
      "name": "BASE_MULTIPLIER",
      "outputs": [
        {
          "internalType": "uint256",
          "name": "",
          "type": "uint256"
        }
      ],
      "stateMutability": "view",
      "type": "function"
    },
    {
      "inputs": [],
      "name": "BONUS_120_DAYS",
      "outputs": [
        {
          "internalType": "uint256",
          "name": "",
          "type": "uint256"
        }
      ],
      "stateMutability": "view",
      "type": "function"
    },
    {
      "inputs": [],
      "name": "BONUS_30_DAYS",
      "outputs": [
        {
          "internalType": "uint256",
          "name": "",
          "type": "uint256"
        }
      ],
      "stateMutability": "view",
      "type": "function"
    },
    {
      "inputs": [],
      "name": "BONUS_365_DAYS",
      "outputs": [
        {
          "internalType": "uint256",
          "name": "",
          "type": "uint256"
        }
      ],
      "stateMutability": "view",
      "type": "function"
    },
    {
      "inputs": [],
      "name": "BONUS_60_DAYS",
      "outputs": [
        {
          "internalType": "uint256",
          "name": "",
          "type": "uint256"
        }
      ],
      "stateMutability": "view",
      "type": "function"
    },
    {
      "inputs": [],
      "name": "BONUS_90_DAYS",
      "outputs": [
        {
          "internalType": "uint256",
          "name": "",
          "type": "uint256"
        }
      ],
      "stateMutability": "view",
      "type": "function"
    },
    {
      "inputs": [],
      "name": "DEFAULT_ADMIN_ROLE",
      "outputs": [
        {
          "internalType": "bytes32",
          "name": "",
          "type": "bytes32"
        }
      ],
      "stateMutability": "view",
      "type": "function"
    },
    {
      "inputs": [],
      "name": "DISTRIBUTOR_ROLE",
      "outputs": [
        {
          "internalType": "bytes32",
          "name": "",
          "type": "bytes32"
        }
      ],
      "stateMutability": "view",
      "type": "function"
    },
    {
      "inputs": [],
      "name": "EARLY_UNSTAKE_PENALTY",
      "outputs": [
        {
          "internalType": "uint256",
          "name": "",
          "type": "uint256"
        }
      ],
      "stateMutability": "view",
      "type": "function"
    },
    {
      "inputs": [],
      "name": "EMERGENCY_ROLE",
      "outputs": [
        {
          "internalType": "bytes32",
          "name": "",
          "type": "bytes32"
        }
      ],
      "stateMutability": "view",
      "type": "function"
    },
    {
      "inputs": [],
      "name": "LOCK_120_DAYS",
      "outputs": [
        {
          "internalType": "uint256",
          "name": "",
          "type": "uint256"
        }
      ],
      "stateMutability": "view",
      "type": "function"
    },
    {
      "inputs": [],
      "name": "LOCK_30_DAYS",
      "outputs": [
        {
          "internalType": "uint256",
          "name": "",
          "type": "uint256"
        }
      ],
      "stateMutability": "view",
      "type": "function"
    },
    {
      "inputs": [],
      "name": "LOCK_365_DAYS",
      "outputs": [
        {
          "internalType": "uint256",
          "name": "",
          "type": "uint256"
        }
      ],
      "stateMutability": "view",
      "type": "function"
    },
    {
      "inputs": [],
      "name": "LOCK_60_DAYS",
      "outputs": [
        {
          "internalType": "uint256",
          "name": "",
          "type": "uint256"
        }
      ],
      "stateMutability": "view",
      "type": "function"
    },
    {
      "inputs": [],
      "name": "LOCK_90_DAYS",
      "outputs": [
        {
          "internalType": "uint256",
          "name": "",
          "type": "uint256"
        }
      ],
      "stateMutability": "view",
      "type": "function"
    },
    {
      "inputs": [
        {
          "internalType": "uint256",
          "name": "amount",
          "type": "uint256"
        },
        {
          "internalType": "address",
          "name": "token",
          "type": "address"
        }
      ],
      "name": "addDistribution",
      "outputs": [],
      "stateMutability": "payable",
      "type": "function"
    },
    {
      "inputs": [
        {
          "internalType": "uint256[]",
          "name": "distributionIds",
          "type": "uint256[]"
        }
      ],
      "name": "claimRewards",
      "outputs": [],
      "stateMutability": "nonpayable",
      "type": "function"
    },
    {
      "inputs": [],
      "name": "currentDistributionId",
      "outputs": [
        {
          "internalType": "uint256",
          "name": "",
          "type": "uint256"
        }
      ],
      "stateMutability": "view",
      "type": "function"
    },
    {
      "inputs": [
        {
          "internalType": "address",
          "name": "",
          "type": "address"
        },
        {
          "internalType": "uint256",
          "name": "",
          "type": "uint256"
        }
      ],
      "name": "distributionClaimed",
      "outputs": [
        {
          "internalType": "bool",
          "name": "",
          "type": "bool"
        }
      ],
      "stateMutability": "view",
      "type": "function"
    },
    {
      "inputs": [
        {
          "internalType": "uint256",
          "name": "",
          "type": "uint256"
        }
      ],
      "name": "distributions",
      "outputs": [
        {
          "internalType": "uint256",
          "name": "amount",
          "type": "uint256"
        },
        {
          "internalType": "address",
          "name": "token",
          "type": "address"
        },
        {
          "internalType": "uint256",
          "name": "timestamp",
          "type": "uint256"
        },
        {
          "internalType": "uint256",
          "name": "totalStakedAtDistribution",
          "type": "uint256"
        },
        {
          "internalType": "uint256",
          "name": "totalBonusPoints",
          "type": "uint256"
        },
        {
          "internalType": "bool",
          "name": "distributed",
          "type": "bool"
        }
      ],
      "stateMutability": "view",
      "type": "function"
    },
    {
      "inputs": [
        {
          "internalType": "uint256",
          "name": "tokenId",
          "type": "uint256"
        }
      ],
      "name": "emergencyUnstake",
      "outputs": [],
      "stateMutability": "nonpayable",
      "type": "function"
    },
    {
      "inputs": [
        {
          "internalType": "address",
          "name": "token",
          "type": "address"
        },
        {
          "internalType": "uint256",
          "name": "amount",
          "type": "uint256"
        },
        {
          "internalType": "address",
          "name": "to",
          "type": "address"
        }
      ],
      "name": "emergencyWithdraw",
      "outputs": [],
      "stateMutability": "nonpayable",
      "type": "function"
    },
    {
      "inputs": [],
      "name": "getDistributionCount",
      "outputs": [
        {
          "internalType": "uint256",
          "name": "",
          "type": "uint256"
        }
      ],
      "stateMutability": "view",
      "type": "function"
    },
    {
      "inputs": [],
      "name": "getLockPeriodsAndBonuses",
      "outputs": [
        {
          "internalType": "uint256[]",
          "name": "periods",
          "type": "uint256[]"
        },
        {
          "internalType": "uint256[]",
          "name": "bonuses",
          "type": "uint256[]"
        }
      ],
      "stateMutability": "pure",
      "type": "function"
    },
    {
      "inputs": [
        {
          "internalType": "bytes32",
          "name": "role",
          "type": "bytes32"
        }
      ],
      "name": "getRoleAdmin",
      "outputs": [
        {
          "internalType": "bytes32",
          "name": "",
          "type": "bytes32"
        }
      ],
      "stateMutability": "view",
      "type": "function"
    },
    {
      "inputs": [
        {
          "internalType": "uint256",
          "name": "tokenId",
          "type": "uint256"
        }
      ],
      "name": "getStakeInfo",
      "outputs": [
        {
          "components": [
            {
              "internalType": "address",
              "name": "staker",
              "type": "address"
            },
            {
              "internalType": "uint256",
              "name": "stakedAt",
              "type": "uint256"
            },
            {
              "internalType": "uint256",
              "name": "unstakedAt",
              "type": "uint256"
            },
            {
              "internalType": "uint256",
              "name": "lockPeriod",
              "type": "uint256"
            },
            {
              "internalType": "uint256",
              "name": "lockEndTime",
              "type": "uint256"
            },
            {
              "internalType": "uint256",
              "name": "bonusMultiplier",
              "type": "uint256"
            },
            {
              "internalType": "bool",
              "name": "earlyUnstake",
              "type": "bool"
            },
            {
              "internalType": "uint256",
              "name": "lastClaimedDistribution",
              "type": "uint256"
            }
          ],
          "internalType": "struct SrvcfloStaking.StakeInfo",
          "name": "stakeInfo",
          "type": "tuple"
        },
        {
          "internalType": "bool",
          "name": "isLocked",
          "type": "bool"
        },
        {
          "internalType": "uint256",
          "name": "timeUntilUnlock",
          "type": "uint256"
        }
      ],
      "stateMutability": "view",
      "type": "function"
    },
    {
      "inputs": [
        {
          "internalType": "address",
          "name": "user",
          "type": "address"
        },
        {
          "internalType": "uint256",
          "name": "distributionId",
          "type": "uint256"
        }
      ],
      "name": "getUserBonusPointsAtDistribution",
      "outputs": [
        {
          "internalType": "uint256",
          "name": "",
          "type": "uint256"
        }
      ],
      "stateMutability": "view",
      "type": "function"
    },
    {
      "inputs": [
        {
          "internalType": "address",
          "name": "user",
          "type": "address"
        }
      ],
      "name": "getUserPendingRewards",
      "outputs": [
        {
          "internalType": "uint256[]",
          "name": "amounts",
          "type": "uint256[]"
        },
        {
          "internalType": "address[]",
          "name": "tokens",
          "type": "address[]"
        }
      ],
      "stateMutability": "view",
      "type": "function"
    },
    {
      "inputs": [
        {
          "internalType": "address",
          "name": "user",
          "type": "address"
        },
        {
          "internalType": "uint256",
          "name": "distributionId",
          "type": "uint256"
        }
      ],
      "name": "getUserStakedCountAtDistribution",
      "outputs": [
        {
          "internalType": "uint256",
          "name": "",
          "type": "uint256"
        }
      ],
      "stateMutability": "view",
      "type": "function"
    },
    {
      "inputs": [
        {
          "internalType": "address",
          "name": "user",
          "type": "address"
        }
      ],
      "name": "getUserStakedTokens",
      "outputs": [
        {
          "internalType": "uint256[]",
          "name": "",
          "type": "uint256[]"
        }
      ],
      "stateMutability": "view",
      "type": "function"
    },
    {
      "inputs": [
        {
          "internalType": "bytes32",
          "name": "role",
          "type": "bytes32"
        },
        {
          "internalType": "address",
          "name": "account",
          "type": "address"
        }
      ],
      "name": "grantRole",
      "outputs": [],
      "stateMutability": "nonpayable",
      "type": "function"
    },
    {
      "inputs": [
        {
          "internalType": "bytes32",
          "name": "role",
          "type": "bytes32"
        },
        {
          "internalType": "address",
          "name": "account",
          "type": "address"
        }
      ],
      "name": "hasRole",
      "outputs": [
        {
          "internalType": "bool",
          "name": "",
          "type": "bool"
        }
      ],
      "stateMutability": "view",
      "type": "function"
    },
    {
      "inputs": [
        {
          "internalType": "uint256",
          "name": "tokenId",
          "type": "uint256"
        }
      ],
      "name": "isTokenStaked",
      "outputs": [
        {
          "internalType": "bool",
          "name": "",
          "type": "bool"
        }
      ],
      "stateMutability": "view",
      "type": "function"
    },
    {
      "inputs": [
        {
          "internalType": "address",
          "name": "operator",
          "type": "address"
        },
        {
          "internalType": "address",
          "name": "from",
          "type": "address"
        },
        {
          "internalType": "uint256",
          "name": "tokenId",
          "type": "uint256"
        },
        {
          "internalType": "bytes",
          "name": "data",
          "type": "bytes"
        }
      ],
      "name": "onERC721Received",
      "outputs": [
        {
          "internalType": "bytes4",
          "name": "",
          "type": "bytes4"
        }
      ],
      "stateMutability": "nonpayable",
      "type": "function"
    },
    {
      "inputs": [],
      "name": "pause",
      "outputs": [],
      "stateMutability": "nonpayable",
      "type": "function"
    },
    {
      "inputs": [],
      "name": "paused",
      "outputs": [
        {
          "internalType": "bool",
          "name": "",
          "type": "bool"
        }
      ],
      "stateMutability": "view",
      "type": "function"
    },
    {
      "inputs": [],
      "name": "penaltyWallet",
      "outputs": [
        {
          "internalType": "address",
          "name": "",
          "type": "address"
        }
      ],
      "stateMutability": "view",
      "type": "function"
    },
    {
      "inputs": [
        {
          "internalType": "bytes32",
          "name": "role",
          "type": "bytes32"
        },
        {
          "internalType": "address",
          "name": "callerConfirmation",
          "type": "address"
        }
      ],
      "name": "renounceRole",
      "outputs": [],
      "stateMutability": "nonpayable",
      "type": "function"
    },
    {
      "inputs": [
        {
          "internalType": "bytes32",
          "name": "role",
          "type": "bytes32"
        },
        {
          "internalType": "address",
          "name": "account",
          "type": "address"
        }
      ],
      "name": "revokeRole",
      "outputs": [],
      "stateMutability": "nonpayable",
      "type": "function"
    },
    {
      "inputs": [
        {
          "internalType": "address",
          "name": "_penaltyWallet",
          "type": "address"
        }
      ],
      "name": "setPenaltyWallet",
      "outputs": [],
      "stateMutability": "nonpayable",
      "type": "function"
    },
    {
      "inputs": [
        {
          "internalType": "uint256",
          "name": "tokenId",
          "type": "uint256"
        },
        {
          "internalType": "uint256",
          "name": "lockPeriod",
          "type": "uint256"
        }
      ],
      "name": "stake",
      "outputs": [],
      "stateMutability": "nonpayable",
      "type": "function"
    },
    {
      "inputs": [
        {
          "internalType": "uint256[]",
          "name": "tokenIds",
          "type": "uint256[]"
        },
        {
          "internalType": "uint256",
          "name": "lockPeriod",
          "type": "uint256"
        }
      ],
      "name": "stakeBatch",
      "outputs": [],
      "stateMutability": "nonpayable",
      "type": "function"
    },
    {
      "inputs": [],
      "name": "stakedNFT",
      "outputs": [
        {
          "internalType": "contract IERC721",
          "name": "",
          "type": "address"
        }
      ],
      "stateMutability": "view",
      "type": "function"
    },
    {
      "inputs": [
        {
          "internalType": "uint256",
          "name": "",
          "type": "uint256"
        }
      ],
      "name": "stakedTokenIndex",
      "outputs": [
        {
          "internalType": "uint256",
          "name": "",
          "type": "uint256"
        }
      ],
      "stateMutability": "view",
      "type": "function"
    },
    {
      "inputs": [
        {
          "internalType": "uint256",
          "name": "",
          "type": "uint256"
        }
      ],
      "name": "stakes",
      "outputs": [
        {
          "internalType": "address",
          "name": "staker",
          "type": "address"
        },
        {
          "internalType": "uint256",
          "name": "stakedAt",
          "type": "uint256"
        },
        {
          "internalType": "uint256",
          "name": "unstakedAt",
          "type": "uint256"
        },
        {
          "internalType": "uint256",
          "name": "lockPeriod",
          "type": "uint256"
        },
        {
          "internalType": "uint256",
          "name": "lockEndTime",
          "type": "uint256"
        },
        {
          "internalType": "uint256",
          "name": "bonusMultiplier",
          "type": "uint256"
        },
        {
          "internalType": "bool",
          "name": "earlyUnstake",
          "type": "bool"
        },
        {
          "internalType": "uint256",
          "name": "lastClaimedDistribution",
          "type": "uint256"
        }
      ],
      "stateMutability": "view",
      "type": "function"
    },
    {
      "inputs": [],
      "name": "stakingEnabled",
      "outputs": [
        {
          "internalType": "bool",
          "name": "",
          "type": "bool"
        }
      ],
      "stateMutability": "view",
      "type": "function"
    },
    {
      "inputs": [
        {
          "internalType": "bytes4",
          "name": "interfaceId",
          "type": "bytes4"
        }
      ],
      "name": "supportsInterface",
      "outputs": [
        {
          "internalType": "bool",
          "name": "",
          "type": "bool"
        }
      ],
      "stateMutability": "view",
      "type": "function"
    },
    {
      "inputs": [],
      "name": "toggleStaking",
      "outputs": [],
      "stateMutability": "nonpayable",
      "type": "function"
    },
    {
      "inputs": [],
      "name": "totalBonusPoints",
      "outputs": [
        {
          "internalType": "uint256",
          "name": "",
          "type": "uint256"
        }
      ],
      "stateMutability": "view",
      "type": "function"
    },
    {
      "inputs": [],
      "name": "totalStaked",
      "outputs": [
        {
          "internalType": "uint256",
          "name": "",
          "type": "uint256"
        }
      ],
      "stateMutability": "view",
      "type": "function"
    },
    {
      "inputs": [],
      "name": "unpause",
      "outputs": [],
      "stateMutability": "nonpayable",
      "type": "function"
    },
    {
      "inputs": [
        {
          "internalType": "uint256",
          "name": "tokenId",
          "type": "uint256"
        }
      ],
      "name": "unstake",
      "outputs": [],
      "stateMutability": "nonpayable",
      "type": "function"
    },
    {
      "inputs": [
        {
          "internalType": "uint256[]",
          "name": "tokenIds",
          "type": "uint256[]"
        }
      ],
      "name": "unstakeBatch",
      "outputs": [],
      "stateMutability": "nonpayable",
      "type": "function"
    },
    {
      "inputs": [
        {
          "internalType": "address",
          "name": "",
          "type": "address"
        },
        {
          "internalType": "uint256",
          "name": "",
          "type": "uint256"
        }
      ],
      "name": "userStakedTokens",
      "outputs": [
        {
          "internalType": "uint256",
          "name": "",
          "type": "uint256"
        }
      ],
      "stateMutability": "view",
      "type": "function"
    },
    {
      "stateMutability": "payable",
      "type": "receive"
    }
  ],
  "bytecode": "0x60a03461019557601f61338b38819003918201601f19168301916001600160401b0383118484101761019a57808492604094855283398101031261019557610052602061004b836101b0565b92016101b0565b6001600055600b546001600160a01b0390921691908215610150576001600160a01b038116156100ff576080929092526001600160a81b03191660089190911b610100600160a81b031617600117600b556100ac336101c4565b506100b633610240565b506100c0336102d8565b506100ca33610370565b50604051612ee290816104098239608051818181610f9d015281816118e001528181611c15015281816124a10152612a380152f35b60405162461bcd60e51b815260206004820152602360248201527f53727663666c6f5374616b696e673a205a65726f2070656e616c74792077616c6044820152621b195d60ea1b6064820152608490fd5b60405162461bcd60e51b815260206004820152601c60248201527f53727663666c6f5374616b696e673a205a65726f2061646472657373000000006044820152606490fd5b600080fd5b634e487b7160e01b600052604160045260246000fd5b51906001600160a01b038216820361019557565b6001600160a01b038116600090815260008051602061330b833981519152602052604090205460ff1661023a576001600160a01b0316600081815260008051602061330b83398151915260205260408120805460ff191660011790553391906000805160206132eb8339815191528180a4600190565b50600090565b6001600160a01b038116600090815260008051602061334b833981519152602052604090205460ff1661023a576001600160a01b0316600081815260008051602061334b83398151915260205260408120805460ff191660011790553391907fa49807205ce4d355092ef5a8a18f56e8913cf4a201fbe287825b095693c21775906000805160206132eb8339815191529080a4600190565b6001600160a01b038116600090815260008051602061336b833981519152602052604090205460ff1661023a576001600160a01b0316600081815260008051602061336b83398151915260205260408120805460ff191660011790553391907ffbd454f36a7e1a388bd6fc3ab10d434aa4578f811acbbcf33afb1c697486313c906000805160206132eb8339815191529080a4600190565b6001600160a01b038116600090815260008051602061332b833981519152602052604090205460ff1661023a576001600160a01b0316600081815260008051602061332b83398151915260205260408120805460ff191660011790553391907fbf233dd2aafeb4d50879c4aa5c81e96d92f6e6945c906a58f9f2d1c1631b4b26906000805160206132eb8339815191529080a460019056fe60806040526004361015610066575b36156100645760405162461bcd60e51b815260206004820152602260248201527f53727663666c6f5374616b696e673a2046756e6374696f6e206e6f7420666f756044820152611b9960f21b6064820152608490fd5b005b6000803560e01c8063012ce50114611b8c57806301ffc9a714611b35578063061886cd14611ade5780630981348214611975578063150b7a02146118805780631cfff51b1461185d5780631f4531f51461184057806320df435914611805578063248a9ca3146117d757806329cd7939146117b95780632e17de78146117945780632f2ff15d1461175357806336568abe1461170e5780633b8105b3146116b25780633f4ba83a1461164a57806342c916051461162c5780634487d3df146115b3578063500306ae1461159557806351383f981461157657806353b373f714611466578063551512de1461134857806358c2ec7d146112ff5780635c975abb146112dc5780635eac623914610fe95780637304eb8d14610fcc5780637364ac6c14610f8757806375b238fc14610f4c578063780069e014610f2e5780637b0472f014610ef75780637c6e5db714610ed9578063817b1cd214610ebb5780638456cb5914610e605780638b75267714610e3357806391d1485414610de75780639d59c13414610d5a578063a0f053e414610a15578063a217fddf146109f9578063a2b44393146109dc578063a5293be8146109bf578063a8f15c5a14610995578063ae1a01a21461090b578063b69bf1cc1461087f578063c02f1dad14610861578063c93bba3314610844578063cf7c11fa14610652578063d023390d14610622578063d547741f146105d8578063d5a44f8614610553578063d5eb7a8d14610441578063e37c3a5514610423578063e5d2bc2814610406578063e64a21f314610383578063ecf0088914610366578063f0a524241461030c5763f0bd87cc146102cf575061000e565b3461030957806003193601126103095760206040517ffbd454f36a7e1a388bd6fc3ab10d434aa4578f811acbbcf33afb1c697486313c8152f35b80fd5b503461030957602036600319011261030957602090600435908181526003835260018060a01b036040822054161515918261034e575b50506040519015158152f35b81526003835260409020600201541590503880610342565b503461030957806003193601126103095760206040516105dc8152f35b5034610309576020366003190112610309576004356001600160401b038111610402576103b4903690600401611df4565b6103bc612410565b6103c7811515611fd3565b6103d460328211156120a9565b825b8181106103e557836001815580f35b806103fc6103f6600193858761201f565b35612432565b016103d6565b5080fd5b50346103095780600319360112610309576020604051613a988152f35b503461030957806003193601126103095760206040516276a7008152f35b50346103095760403660031901126103095761045b611d29565b61047360243561046e600654821061202f565b611d88565b5090829060018060a01b031683526004602052604083209160405192836020825491828152019186526020862090865b81811061053d57505050836104b9910384611ed1565b60020154835b8351811015610532576104d28185611f66565b5185526003602052604085208260018201541115908161050f575b506104fb575b6001016104bf565b9161050760019161209a565b9290506104f3565b600291500154828115918215610528575b5050386104ed565b1190508238610520565b602083604051908152f35b82548452602090930192600192830192016104a3565b503461030957602036600319011261030957604061010091600435815260036020522060018060a01b038154169060018101549060028101546003820154600483015490600584015492600760ff60068701541695015495604051978852602088015260408701526060860152608085015260a0840152151560c083015260e0820152f35b50346103095760403660031901126103095761061e6004356105f8611d44565b9061061961061482600052600160205260016040600020015490565b6122d3565b61287d565b5080f35b503461030957604036600319011261030957602061064a610641611d29565b602435906120f5565b604051908152f35b50346103095760203660031901126103095761066c611d29565b6006546001600160a01b03821691908390815b8181106107e8575061069085611ef2565b9361069e6040519586611ed1565b858552601f196106ad87611ef2565b013660208701376106d66106c087611ef2565b966106ce6040519889611ed1565b808852611ef2565b602087019490601f19013686378391845b84811061074c5761070b8888888c6020604051958695604087526040870190611dc0565b918583038287015251918281520192915b81811061072a575050500390f35b82516001600160a01b031684528594506020938401939092019160010161071c565b8186999798995260076020526040862081875260205260ff6040872054161561077c575b600101979695976106e7565b61078681846120f5565b80610792575b50610770565b81946127106107b06107e1936107a9600196611d88565b5054612087565b046107bb828d611f66565b526107c586611d88565b5083808060a01b03910154166107db828b611f66565b5261209a565b939061078c565b8483969495965260076020526040832081845260205260ff6040842054161580610832575b61081e575b6001019493929461067f565b9261082a60019161209a565b939050610812565b5061083d81866120f5565b151561080d565b503461030957806003193601126103095760206040516123288152f35b50346103095780600319360112610309576020604051629e34008152f35b5034610309576040366003190112610309576004356001600160401b038111610402576108b0903690600401611df4565b602435906108bc612410565b6108c46129e2565b6108cf811515611fd3565b6108dc60328211156120a9565b835b8181106108ed57846001815580f35b80610905846108ff600194868961201f565b35612a13565b016108de565b5034610309576020366003190112610309576001600160a01b0361092d611d29565b168152600460205260408120604051918260208354918281520192825260208220915b81811061097f5761097b8561096781870382611ed1565b604051918291602083526020830190611dc0565b0390f35b8254845260209093019260019283019201610950565b50346103095760203660031901126103095760406020916004358152600583522054604051908152f35b50346103095780600319360112610309576020604051610dac8152f35b503461030957806003193601126103095760206040516127108152f35b5034610309578060031936011261030957602090604051908152f35b5060403660031901126103095760043590610a2e611d44565b917ffbd454f36a7e1a388bd6fc3ab10d434aa4578f811acbbcf33afb1c697486313c825260016020526040822060018060a01b03331660005260205260ff6040600020541615610d2357610a80612410565b60085415610cdf578015610c9a57612710610a9d60095483612087565b6001600160a01b03909416930483610c58573410610c14575b60085492600954936040519460c086018681106001600160401b03821117610c0057604052838652602086019183835260408701428152606088019182526080880192835260a088019360018552600654600160401b811015610bec57806001610b239201600655611d88565b999099610bd857518955516001890180546001600160a01b039092166001600160a01b0319909216919091179055516002880155516003870155516004860155516005909401805460ff191694151560ff16949094179093559091610bce91907fafff8fd6e95ede51d2d2cee94c2e2bb5f29926e3739855bf1865396805b08fe46080600a5493849360085460095491604051938452602084015260408301526060820152a261209a565b600a556001815580f35b634e487b7160e01b89526004899052602489fd5b634e487b7160e01b89526041600452602489fd5b634e487b7160e01b86526041600452602486fd5b606460405162461bcd60e51b815260206004820152602060248201527f53727663666c6f5374616b696e673a20496e73756666696369656e74204554486044820152fd5b6040516323b872dd60e01b6020820152336024820152306044820152606480820192909252908152610c9590610c8f608482611ed1565b84612dbd565b610ab6565b60405162461bcd60e51b815260206004820152601b60248201527f53727663666c6f5374616b696e673a205a65726f20616d6f756e7400000000006044820152606490fd5b606460405162461bcd60e51b815260206004820152602060248201527f53727663666c6f5374616b696e673a204e6f20746f6b656e73207374616b65646044820152fd5b63e2517d3f60e01b8252336004527ffbd454f36a7e1a388bd6fc3ab10d434aa4578f811acbbcf33afb1c697486313c602452604482fd5b503461030957602036600319011261030957610d74611d29565b610d7c612261565b6001600160a01b03811690610d92821515611f87565b600b8054610100600160a81b03198116600893841b610100600160a81b031617909155901c6001600160a01b03167f52164aa782bea075ec17649c0b557515997f7cb8f9e872c55f96008ce22a3a338380a380f35b5034610309576040366003190112610309576040610e03611d44565b9160043581526001602052209060018060a01b0316600052602052602060ff604060002054166040519015158152f35b5034610309578060031936011261030957600b5460405160089190911c6001600160a01b03168152602090f35b5034610309578060031936011261030957610e79612261565b610e816129e2565b600160ff1960025416176002557f62e78cea01bee320cd4e420270b5ea74000d11b0c9f74754ebdbfc544b05a2586020604051338152a180f35b50346103095780600319360112610309576020600854604051908152f35b5034610309578060031936011261030957602060405162278d008152f35b503461030957604036600319011261030957610f11612410565b610f196129e2565b610f27602435600435612a13565b6001815580f35b50346103095780600319360112610309576020600a54604051908152f35b503461030957806003193601126103095760206040517fa49807205ce4d355092ef5a8a18f56e8913cf4a201fbe287825b095693c217758152f35b50346103095780600319360112610309576040517f00000000000000000000000000000000000000000000000000000000000000006001600160a01b03168152602090f35b503461030957806003193601126103095760206040516117708152f35b5034610309576020366003190112610309576004356001600160401b0381116104025761101a903690600401611df4565b611022612410565b61102a6129e2565b611035811515611fd3565b606481116112885782918391845b81811061108c575050508161105b575b826001815580f35b6001600160a01b0316908161107c57611075915033612945565b3880611053565b611087913390612903565b611075565b61109781838561201f565b356110a5600654821061202f565b33875260076020526040872081885260205260ff604088205416611243576110cc81611d88565b509460ff600587015416156111fe578261118a57506001858101546001600160a01b031695909291905b61110082336120f5565b8061110f575b50505001611043565b611120612710916111489354612087565b048098338b52600760205260408b20848c5260205260408b208660ff19825416179055611f7a565b96604051908152838060a01b03871660208201527f579ad409a683bafbf650743b9466037910944feb4a9aacccdbcfcdab27ab586160403392a3388080611106565b600186015490959291906001600160a01b03908116908716036111af576001926110f6565b60405162461bcd60e51b815260206004820152602160248201527f53727663666c6f5374616b696e673a204d6978656420746f6b656e20747970656044820152607360f81b6064820152608490fd5b60405162461bcd60e51b815260206004820152601f60248201527f53727663666c6f5374616b696e673a204e6f74206469737472696275746564006044820152606490fd5b60405162461bcd60e51b815260206004820152601f60248201527f53727663666c6f5374616b696e673a20416c726561647920636c61696d6564006044820152606490fd5b60405162461bcd60e51b815260206004820152602660248201527f53727663666c6f5374616b696e673a20546f6f206d616e7920646973747269626044820152657574696f6e7360d01b6064820152608490fd5b5034610309578060031936011261030957602060ff600254166040519015158152f35b50346103095760403660031901126103095760209060ff906040906001600160a01b0361132a611d29565b16815260078452818120602435825284522054166040519015158152f35b503461030957606036600319011261030957611362611d29565b6044356001600160a01b0381169160243590838303611462576113836121ef565b61138e841515611f87565b6001600160a01b0316918261142e57508047106113dd576020816113d37faaeda929aa102e867049528ec7cd2499e3a2f8846e736ae7935f234dfbf500d99386612945565b604051908152a380f35b60405162461bcd60e51b8152602060048201526024808201527f53727663666c6f5374616b696e673a20496e73756666696369656e742062616c604482015263616e636560e01b6064820152608490fd5b8161145d7faaeda929aa102e867049528ec7cd2499e3a2f8846e736ae7935f234dfbf500d99360209386612903565b6113d3565b8480fd5b50346103095780600319360112610309576115689061097b60e06040519261148e8285611ed1565b60068452601f198201803660208701376114ab6040519384611ed1565b600683523660208401376114be84611f09565b526127106114cb82611f09565b5262278d006114d984611f16565b52612cec6114e682611f16565b52624f1a006114f484611f26565b526134bc61150182611f26565b526276a70061150f84611f36565b52613e8061151c82611f36565b52629e340061152a84611f46565b52614a3861153782611f46565b526301e1338061154684611f56565b526161a861155382611f56565b52604051938493604085526040850190611dc0565b908382036020850152611dc0565b503461030957806003193601126103095760206040516301e133808152f35b50346103095780600319360112610309576020600954604051908152f35b503461030957602036600319011261030957600435906006548210156103095760c06115de83611d88565b5080549060018060a01b0360018201541690600281015460038201549060ff6005600485015494015416936040519586526020860152604085015260608401526080830152151560a0820152f35b50346103095780600319360112610309576020600654604051908152f35b5034610309578060031936011261030957611663612261565b60025460ff8116156116a35760ff19166002557f5db9ee0a495bf2e6ff9c91a7834c1ba4fdd244a5e8aa4e537bd38aeae4b073aa6020604051338152a180f35b638dfc202b60e01b8252600482fd5b50346103095780600319360112610309576116cb612261565b7f886bf152398e89a7de17f229134a054c5448ada42007eaae5187b82753278be66020600b5460ff8082161516809160ff191617600b556040519015158152a180f35b503461030957604036600319011261030957611728611d44565b336001600160a01b038216036117445761061e9060043561287d565b63334bd91960e11b8252600482fd5b50346103095760403660031901126103095761061e600435611773611d44565b9061178f61061482600052600160205260016040600020015490565b6127ee565b5034610309576020366003190112610309576117ae612410565b610f27600435612432565b50346103095780600319360112610309576020604051624f1a008152f35b503461030957602036600319011261030957602061064a600435600052600160205260016040600020015490565b503461030957806003193601126103095760206040517fbf233dd2aafeb4d50879c4aa5c81e96d92f6e6945c906a58f9f2d1c1631b4b268152f35b503461030957806003193601126103095760206040516103e88152f35b5034610309578060031936011261030957602060ff600b54166040519015158152f35b50346103095760803660031901126103095761189a611d29565b506118a3611d44565b506064356001600160401b03811161040257366023820112156104025780600401356001600160401b0381116119715736910160240111610309577f00000000000000000000000000000000000000000000000000000000000000006001600160a01b0316330361192057604051630a85bd0160e11b8152602090f35b60405162461bcd60e51b8152602060048201526024808201527f53727663666c6f5374616b696e673a20496e76616c6964204e465420636f6e746044820152631c9858dd60e21b6064820152608490fd5b8280fd5b503461030957602036600319011261030957806101409160e060405161199a81611e9f565b8281528260208201528260408201528260608201528260808201528260a08201528260c08201520152600435815260036020526040812090604051916119df83611e9f565b80546001600160a01b03168352600181015460208401908152600282015460408501818152600384015460608701908152600485015460808801818152600587015460a08a01908152600688015460ff16151560c08b0190815260079098015460e08b01908152969883151598969195929493909189611ad3575b89611aca575b508815611ac357611a7391504290611e92565b975b604080519a516001600160a01b03168b52905160208b01529051908901525160608801525160808701525160a086015251151560c08501525160e08401521515610100830152610120820152f35b5097611a75565b15985038611a60565b985080421098611a5a565b503461030957604036600319011261030957611af8611d29565b6001600160a01b0316815260046020526040812080546024359290831015610309576020611b268484611d5a565b90549060031b1c604051908152f35b50346103095760203660031901126103095760043563ffffffff60e01b811680910361040257602090637965db0b60e01b8114908115611b7b575b506040519015158152f35b6301ffc9a760e01b14905082611b70565b503461030957602036600319011261030957600435611ba96121ef565b80825260036020526040822080546001600160a01b0316908115611ce4576005816002611c109301611bdc815415611e24565b42905560068101805460ff19166001179055611bf88585612310565b611c03600854611e6f565b6008550154600954611e92565b6009557f00000000000000000000000000000000000000000000000000000000000000006001600160a01b0316803b15611ce057604051632142170760e11b81523060048201526001600160a01b0383166024820152604481018490529084908290606490829084905af18015611cd557611cc1575b507ff7b240c60dda217eb8085cf50ae1f667427682ecc560656ee34ca733afa2fa41606060405142815260016020820152856040820152a380f35b83611cce91949294611ed1565b9138611c86565b6040513d86823e3d90fd5b8380fd5b60405162461bcd60e51b815260206004820152601a60248201527f53727663666c6f5374616b696e673a204e6f74207374616b65640000000000006044820152606490fd5b600435906001600160a01b0382168203611d3f57565b600080fd5b602435906001600160a01b0382168203611d3f57565b8054821015611d725760005260206000200190600090565b634e487b7160e01b600052603260045260246000fd5b600654811015611d72576006600081815291027ff652222313e28459528d920b65115c16c04f3efc82aaedc97be59f3f377c0d3f0191565b906020808351928381520192019060005b818110611dde5750505090565b8251845260209384019390920191600101611dd1565b9181601f84011215611d3f578235916001600160401b038311611d3f576020808501948460051b010111611d3f57565b15611e2b57565b606460405162461bcd60e51b815260206004820152602060248201527f53727663666c6f5374616b696e673a20416c726561647920756e7374616b65646044820152fd5b8015611e7c576000190190565b634e487b7160e01b600052601160045260246000fd5b91908203918211611e7c57565b61010081019081106001600160401b03821117611ebb57604052565b634e487b7160e01b600052604160045260246000fd5b90601f801991011681019081106001600160401b03821117611ebb57604052565b6001600160401b038111611ebb5760051b60200190565b805115611d725760200190565b805160011015611d725760400190565b805160021015611d725760600190565b805160031015611d725760800190565b805160041015611d725760a00190565b805160051015611d725760c00190565b8051821015611d725760209160051b010190565b91908201809211611e7c57565b15611f8e57565b60405162461bcd60e51b815260206004820152601c60248201527f53727663666c6f5374616b696e673a205a65726f2061646472657373000000006044820152606490fd5b15611fda57565b60405162461bcd60e51b815260206004820152601b60248201527f53727663666c6f5374616b696e673a20456d70747920617272617900000000006044820152606490fd5b9190811015611d725760051b0190565b1561203657565b60405162461bcd60e51b8152602060048201526024808201527f53727663666c6f5374616b696e673a20496e76616c69642064697374726962756044820152633a34b7b760e11b6064820152608490fd5b81810292918115918404141715611e7c57565b6000198114611e7c5760010190565b156120b057565b60405162461bcd60e51b815260206004820152601f60248201527f53727663666c6f5374616b696e673a20546f6f206d616e7920746f6b656e73006044820152606490fd5b91906121089061046e600654821061202f565b5060009260018060a01b0316835260046020526040832092604051809485916020825491828152019184526020842090845b8181106121d65750505090612150910385611ed1565b600281920154915b84518110156121d05761216b8186611f66565b51600052600360205260406000208360018201541115806121ae575b612195575b50600101612158565b6001919260056121a792015490611f7a565b919061218c565b5060028101548481159182156121c6575b5050612187565b11905084386121bf565b50925050565b825484528894506020909301926001928301920161213a565b3360009081527f1614b4e5e0f135c54873c4dcd295a7b40f93a8d877405affc188cfd7b4f40ed2602052604090205460ff161561222857565b63e2517d3f60e01b600052336004527fbf233dd2aafeb4d50879c4aa5c81e96d92f6e6945c906a58f9f2d1c1631b4b2660245260446000fd5b3360009081527f50efbde2d46c37e9785f1791697f77e94bb7b701e19f1930a668820722d37694602052604090205460ff161561229a57565b63e2517d3f60e01b600052336004527fa49807205ce4d355092ef5a8a18f56e8913cf4a201fbe287825b095693c2177560245260446000fd5b600081815260016020908152604080832033845290915290205460ff16156122f85750565b63e2517d3f60e01b6000523360045260245260446000fd5b6001600160a01b03166000818152600460205260409020546000198101908111611e7c57826000526005602052604060002054908082036123a9575b505060005260046020526040600020805480156123935760001901906123728282611d5a565b8154906000199060031b1b1916905555600052600560205260006040812055565b634e487b7160e01b600052603160045260246000fd5b6123c0908360005260046020526040600020611d5a565b90549060031b1c8260005260046020526123fb816123e2846040600020611d5a565b90919082549060031b91821b91600019901b1916179055565b6000526005602052604060002055388061234c565b600260005414612421576002600055565b633ee5aeb560e01b60005260046000fd5b600081815260036020526040812080549091906001600160a01b031633036127a9576002820190612464825415611e24565b600483015492831515928361279c575b839450829361259b575b61249291600591429055611bf88733612310565b60095581151580612561575b507f00000000000000000000000000000000000000000000000000000000000000006001600160a01b0316803b1561040257604051632142170760e11b8152306004820152336024820152604481018690529082908290606490829084905af1801561255657612546575b5050604051914283521515602083015260408201527ff7b240c60dda217eb8085cf50ae1f667427682ecc560656ee34ca733afa2fa4160603392a3565b8161255091611ed1565b38612509565b6040513d84823e3d90fd5b80612591575b612572575b3861249e565b600b5461258c90839060081c6001600160a01b0316612945565b61256c565b5081471015612567565b60068201805460ff191660011790556040516367be08fd60e11b8152336004820152909691959294909350918484602481305afa9283156127915785948694612670575b508597865b865181101561265d576001600160a01b036125ff8288611f66565b51161561260f575b6001016125e4565b9861261a8a88611f66565b516103e88102908082046103e8149015171561264957600191612710612641920490611f7a565b999050612607565b634e487b7160e01b89526011600452602489fd5b509297919690959194509092509061247e565b945092503d8086863e6126838186611ed1565b84019360408186031261278d5780516001600160401b0381116127715781019085601f83011215612771578151916126ba83611ef2565b926126c86040519485611ed1565b80845260208085019160051b8301019188831161278957602001905b828210612779575050506020810151906001600160401b03821161277557019480601f8701121561277157855161271a81611ef2565b966127286040519889611ed1565b81885260208089019260051b82010192831161276d57602001905b828210612755575050509392386125df565b60208091612762846129ff565b815201910190612743565b8880fd5b8680fd5b8780fd5b81518152602091820191016126e4565b8980fd5b8580fd5b6040513d87823e3d90fd5b9250924210918390612474565b60405162461bcd60e51b815260206004820152601a60248201527f53727663666c6f5374616b696e673a204e6f74207374616b65720000000000006044820152606490fd5b60008181526001602090815260408083206001600160a01b038616845290915290205460ff166128765760008181526001602081815260408084206001600160a01b0396909616808552959091528220805460ff19169091179055339291907f2f8788117e7eff1d82e926ec794901d17c78024a50270940304540a733656f0d9080a4600190565b5050600090565b60008181526001602090815260408083206001600160a01b038616845290915290205460ff16156128765760008181526001602090815260408083206001600160a01b0395909516808452949091528120805460ff19169055339291907ff6391f5c32d9c69d2a47ea670b442974b53935d1edc7fd64eb21e047a839171b9080a4600190565b60405163a9059cbb60e01b60208201526001600160a01b0390921660248301526044808301939093529181526129439161293e606483611ed1565b612dbd565b565b8147106129c9576000918291829182916001600160a01b03165af13d156129c1573d906001600160401b038211611ebb576040519161298e601f8201601f191660200184611ed1565b82523d6000602084013e5b156129a15750565b8051156129b057602081519101fd5b63d6bda27560e01b60005260046000fd5b606090612999565b504763cf47918160e01b60005260045260245260446000fd5b60ff600254166129ee57565b63d93c066560e01b60005260046000fd5b51906001600160a01b0382168203611d3f57565b90600b5460ff6000911615612d79576040516331a9108f60e11b8152600481018490527f00000000000000000000000000000000000000000000000000000000000000006001600160a01b031690602081602481855afa908115612d6e578391612d34575b50336001600160a01b0390911603612cef57838252600360205260408220546001600160a01b0316612caa57612aad83612e24565b918315612ca357612abe8442611f7a565b915b803b1561040257604051632142170760e11b8152336004820152306024820152604481018790529082908290606490829084905af1801561255657612c93575b50906007600a54612bbb60405193612b1785611e9f565b33855260208501904282526040860190878252606087018a81526080880191825260a08801928a845260c08901948a865260e08a019788528d8b52600360205260408b209960018060a01b039060018060a01b03905116166bffffffffffffffffffffffff60a01b8b5416178a555160018a0155516002890155516003880155516004870155516005860155511515600685019060ff801983541691151516179055565b51910155338152600460205260408120805490600160401b821015612c7f576123e28287926001612bee95018155611d5a565b33815260046020526040812054600019810191908211612c6b5780856040925260056020522055612c2060085461209a565b600855612c2f81600954611f7a565b60095560405191428352602083015260408201527f9cfd25589d1eb8ad71e342a86a8524e83522e3936c0803048c08f6d9ad974f4060603392a3565b634e487b7160e01b81526011600452602490fd5b634e487b7160e01b83526041600452602483fd5b81612c9d91611ed1565b38612b00565b8091612ac0565b60405162461bcd60e51b815260206004820152601e60248201527f53727663666c6f5374616b696e673a20416c7265616479207374616b656400006044820152606490fd5b60405162461bcd60e51b815260206004820152601960248201527f53727663666c6f5374616b696e673a204e6f74206f776e6572000000000000006044820152606490fd5b90506020813d602011612d66575b81612d4f60209383611ed1565b8101031261197157612d60906129ff565b38612a78565b3d9150612d42565b6040513d85823e3d90fd5b606460405162461bcd60e51b815260206004820152602060248201527f53727663666c6f5374616b696e673a205374616b696e672064697361626c65646044820152fd5b906000602091828151910182855af115612e18576000513d612e0f57506001600160a01b0381163b155b612dee5750565b635274afe760e01b60009081526001600160a01b0391909116600452602490fd5b60011415612de7565b6040513d6000823e3d90fd5b80612e30575061271090565b62278d008103612e415750612cec90565b624f1a008103612e5257506134bc90565b6276a7008103612e635750613e8090565b629e34008103612e745750614a3890565b6301e1338003612e84576161a890565b60405162461bcd60e51b815260206004820152602360248201527f53727663666c6f5374616b696e673a20496e76616c6964206c6f636b207065726044820152621a5bd960ea1b6064820152608490fdfea164736f6c634300081b000a2f8788117e7eff1d82e926ec794901d17c78024a50270940304540a733656f0da6eef7e35abe7026729641147f7915573c7e97b47efa546f5f6e3230263bcb491614b4e5e0f135c54873c4dcd295a7b40f93a8d877405affc188cfd7b4f40ed250efbde2d46c37e9785f1791697f77e94bb7b701e19f1930a668820722d37694210932760c18fe8bc12f9d1bd245c25c0f21fa2541f289eb5b159588ce1f7b3f",
  "linkReferences": {},
  "deployedLinkReferences": {}
}