{
  "_format": "hh-sol-artifact-1",
  "contractName": "SrvcfloCreditsNFTWithRoyalties",
  "sourceName": "Contracts/SrvcfloCreditsNFTWithRoyalties.sol",
  "abi": [
    {
      "inputs": [
        {
          "internalType": "address",
          "name": "initialOwner",
          "type": "address"
        },
        {
          "internalType": "address",
          "name": "_appWallet",
          "type": "address"
        }
      ],
      "stateMutability": "nonpayable",
      "type": "constructor"
    },
    {
      "inputs": [
        {
          "internalType": "address",
          "name": "sender",
          "type": "address"
        },
        {
          "internalType": "uint256",
          "name": "balance",
          "type": "uint256"
        },
        {
          "internalType": "uint256",
          "name": "needed",
          "type": "uint256"
        },
        {
          "internalType": "uint256",
          "name": "tokenId",
          "type": "uint256"
        }
      ],
      "name": "ERC1155InsufficientBalance",
      "type": "error"
    },
    {
      "inputs": [
        {
          "internalType": "address",
          "name": "approver",
          "type": "address"
        }
      ],
      "name": "ERC1155InvalidApprover",
      "type": "error"
    },
    {
      "inputs": [
        {
          "internalType": "uint256",
          "name": "idsLength",
          "type": "uint256"
        },
        {
          "internalType": "uint256",
          "name": "valuesLength",
          "type": "uint256"
        }
      ],
      "name": "ERC1155InvalidArrayLength",
      "type": "error"
    },
    {
      "inputs": [
        {
          "internalType": "address",
          "name": "operator",
          "type": "address"
        }
      ],
      "name": "ERC1155InvalidOperator",
      "type": "error"
    },
    {
      "inputs": [
        {
          "internalType": "address",
          "name": "receiver",
          "type": "address"
        }
      ],
      "name": "ERC1155InvalidReceiver",
      "type": "error"
    },
    {
      "inputs": [
        {
          "internalType": "address",
          "name": "sender",
          "type": "address"
        }
      ],
      "name": "ERC1155InvalidSender",
      "type": "error"
    },
    {
      "inputs": [
        {
          "internalType": "address",
          "name": "operator",
          "type": "address"
        },
        {
          "internalType": "address",
          "name": "owner",
          "type": "address"
        }
      ],
      "name": "ERC1155MissingApprovalForAll",
      "type": "error"
    },
    {
      "inputs": [],
      "name": "EnforcedPause",
      "type": "error"
    },
    {
      "inputs": [],
      "name": "ExpectedPause",
      "type": "error"
    },
    {
      "inputs": [
        {
          "internalType": "address",
          "name": "owner",
          "type": "address"
        }
      ],
      "name": "OwnableInvalidOwner",
      "type": "error"
    },
    {
      "inputs": [
        {
          "internalType": "address",
          "name": "account",
          "type": "address"
        }
      ],
      "name": "OwnableUnauthorizedAccount",
      "type": "error"
    },
    {
      "anonymous": false,
      "inputs": [
        {
          "indexed": true,
          "internalType": "address",
          "name": "oldWallet",
          "type": "address"
        },
        {
          "indexed": true,
          "internalType": "address",
          "name": "newWallet",
          "type": "address"
        }
      ],
      "name": "AppWalletUpdated",
      "type": "event"
    },
    {
      "anonymous": false,
      "inputs": [
        {
          "indexed": true,
          "internalType": "address",
          "name": "account",
          "type": "address"
        },
        {
          "indexed": true,
          "internalType": "address",
          "name": "operator",
          "type": "address"
        },
        {
          "indexed": false,
          "internalType": "bool",
          "name": "approved",
          "type": "bool"
        }
      ],
      "name": "ApprovalForAll",
      "type": "event"
    },
    {
      "anonymous": false,
      "inputs": [
        {
          "indexed": true,
          "internalType": "uint256",
          "name": "tokenId",
          "type": "uint256"
        },
        {
          "indexed": false,
          "internalType": "string",
          "name": "prompt",
          "type": "string"
        },
        {
          "indexed": false,
          "internalType": "string",
          "name": "method",
          "type": "string"
        }
      ],
      "name": "GenerationMetadataSet",
      "type": "event"
    },
    {
      "anonymous": false,
      "inputs": [
        {
          "indexed": true,
          "internalType": "address",
          "name": "previousOwner",
          "type": "address"
        },
        {
          "indexed": true,
          "internalType": "address",
          "name": "newOwner",
          "type": "address"
        }
      ],
      "name": "OwnershipTransferred",
      "type": "event"
    },
    {
      "anonymous": false,
      "inputs": [
        {
          "indexed": false,
          "internalType": "address",
          "name": "account",
          "type": "address"
        }
      ],
      "name": "Paused",
      "type": "event"
    },
    {
      "anonymous": false,
      "inputs": [
        {
          "indexed": true,
          "internalType": "uint256",
          "name": "tokenId",
          "type": "uint256"
        },
        {
          "indexed": true,
          "internalType": "address",
          "name": "creator",
          "type": "address"
        }
      ],
      "name": "TokenCreatorSet",
      "type": "event"
    },
    {
      "anonymous": false,
      "inputs": [
        {
          "indexed": true,
          "internalType": "address",
          "name": "operator",
          "type": "address"
        },
        {
          "indexed": true,
          "internalType": "address",
          "name": "from",
          "type": "address"
        },
        {
          "indexed": true,
          "internalType": "address",
          "name": "to",
          "type": "address"
        },
        {
          "indexed": false,
          "internalType": "uint256[]",
          "name": "ids",
          "type": "uint256[]"
        },
        {
          "indexed": false,
          "internalType": "uint256[]",
          "name": "values",
          "type": "uint256[]"
        }
      ],
      "name": "TransferBatch",
      "type": "event"
    },
    {
      "anonymous": false,
      "inputs": [
        {
          "indexed": true,
          "internalType": "address",
          "name": "operator",
          "type": "address"
        },
        {
          "indexed": true,
          "internalType": "address",
          "name": "from",
          "type": "address"
        },
        {
          "indexed": true,
          "internalType": "address",
          "name": "to",
          "type": "address"
        },
        {
          "indexed": false,
          "internalType": "uint256",
          "name": "id",
          "type": "uint256"
        },
        {
          "indexed": false,
          "internalType": "uint256",
          "name": "value",
          "type": "uint256"
        }
      ],
      "name": "TransferSingle",
      "type": "event"
    },
    {
      "anonymous": false,
      "inputs": [
        {
          "indexed": false,
          "internalType": "string",
          "name": "value",
          "type": "string"
        },
        {
          "indexed": true,
          "internalType": "uint256",
          "name": "id",
          "type": "uint256"
        }
      ],
      "name": "URI",
      "type": "event"
    },
    {
      "anonymous": false,
      "inputs": [
        {
          "indexed": false,
          "internalType": "address",
          "name": "account",
          "type": "address"
        }
      ],
      "name": "Unpaused",
      "type": "event"
    },
    {
      "inputs": [],
      "name": "APP_ROYALTY_BASIS_POINTS",
      "outputs": [
        {
          "internalType": "uint256",
          "name": "",
          "type": "uint256"
        }
      ],
      "stateMutability": "view",
      "type": "function"
    },
    {
      "inputs": [],
      "name": "BASIS_POINTS_DENOMINATOR",
      "outputs": [
        {
          "internalType": "uint256",
          "name": "",
          "type": "uint256"
        }
      ],
      "stateMutability": "view",
      "type": "function"
    },
    {
      "inputs": [],
      "name": "CREATOR_ROYALTY_BASIS_POINTS",
      "outputs": [
        {
          "internalType": "uint256",
          "name": "",
          "type": "uint256"
        }
      ],
      "stateMutability": "view",
      "type": "function"
    },
    {
      "inputs": [],
      "name": "TOTAL_ROYALTY_BASIS_POINTS",
      "outputs": [
        {
          "internalType": "uint256",
          "name": "",
          "type": "uint256"
        }
      ],
      "stateMutability": "view",
      "type": "function"
    },
    {
      "inputs": [],
      "name": "appWallet",
      "outputs": [
        {
          "internalType": "address",
          "name": "",
          "type": "address"
        }
      ],
      "stateMutability": "view",
      "type": "function"
    },
    {
      "inputs": [
        {
          "internalType": "address",
          "name": "account",
          "type": "address"
        },
        {
          "internalType": "uint256",
          "name": "id",
          "type": "uint256"
        }
      ],
      "name": "balanceOf",
      "outputs": [
        {
          "internalType": "uint256",
          "name": "",
          "type": "uint256"
        }
      ],
      "stateMutability": "view",
      "type": "function"
    },
    {
      "inputs": [
        {
          "internalType": "address[]",
          "name": "accounts",
          "type": "address[]"
        },
        {
          "internalType": "uint256[]",
          "name": "ids",
          "type": "uint256[]"
        }
      ],
      "name": "balanceOfBatch",
      "outputs": [
        {
          "internalType": "uint256[]",
          "name": "",
          "type": "uint256[]"
        }
      ],
      "stateMutability": "view",
      "type": "function"
    },
    {
      "inputs": [
        {
          "internalType": "uint256",
          "name": "tokenId",
          "type": "uint256"
        },
        {
          "internalType": "uint256",
          "name": "salePrice",
          "type": "uint256"
        }
      ],
      "name": "calculateRoyaltySplit",
      "outputs": [
        {
          "internalType": "uint256",
          "name": "creatorAmount",
          "type": "uint256"
        },
        {
          "internalType": "uint256",
          "name": "appAmount",
          "type": "uint256"
        },
        {
          "internalType": "address",
          "name": "creatorAddress",
          "type": "address"
        },
        {
          "internalType": "address",
          "name": "appAddress",
          "type": "address"
        }
      ],
      "stateMutability": "view",
      "type": "function"
    },
    {
      "inputs": [],
      "name": "emergencyWithdraw",
      "outputs": [],
      "stateMutability": "nonpayable",
      "type": "function"
    },
    {
      "inputs": [
        {
          "internalType": "uint256",
          "name": "tokenId",
          "type": "uint256"
        }
      ],
      "name": "executeRoyaltySplit",
      "outputs": [],
      "stateMutability": "payable",
      "type": "function"
    },
    {
      "inputs": [
        {
          "internalType": "uint256",
          "name": "id",
          "type": "uint256"
        }
      ],
      "name": "exists",
      "outputs": [
        {
          "internalType": "bool",
          "name": "",
          "type": "bool"
        }
      ],
      "stateMutability": "view",
      "type": "function"
    },
    {
      "inputs": [
        {
          "internalType": "uint256",
          "name": "",
          "type": "uint256"
        }
      ],
      "name": "generationMethods",
      "outputs": [
        {
          "internalType": "string",
          "name": "",
          "type": "string"
        }
      ],
      "stateMutability": "view",
      "type": "function"
    },
    {
      "inputs": [
        {
          "internalType": "uint256",
          "name": "",
          "type": "uint256"
        }
      ],
      "name": "generationPrompts",
      "outputs": [
        {
          "internalType": "string",
          "name": "",
          "type": "string"
        }
      ],
      "stateMutability": "view",
      "type": "function"
    },
    {
      "inputs": [
        {
          "internalType": "uint256",
          "name": "tokenId",
          "type": "uint256"
        }
      ],
      "name": "getGenerationMetadata",
      "outputs": [
        {
          "internalType": "address",
          "name": "creator",
          "type": "address"
        },
        {
          "internalType": "string",
          "name": "prompt",
          "type": "string"
        },
        {
          "internalType": "string",
          "name": "method",
          "type": "string"
        },
        {
          "internalType": "uint256",
          "name": "timestamp",
          "type": "uint256"
        }
      ],
      "stateMutability": "view",
      "type": "function"
    },
    {
      "inputs": [
        {
          "internalType": "address",
          "name": "account",
          "type": "address"
        },
        {
          "internalType": "address",
          "name": "operator",
          "type": "address"
        }
      ],
      "name": "isApprovedForAll",
      "outputs": [
        {
          "internalType": "bool",
          "name": "",
          "type": "bool"
        }
      ],
      "stateMutability": "view",
      "type": "function"
    },
    {
      "inputs": [
        {
          "internalType": "address",
          "name": "account",
          "type": "address"
        },
        {
          "internalType": "uint256",
          "name": "id",
          "type": "uint256"
        },
        {
          "internalType": "uint256",
          "name": "amount",
          "type": "uint256"
        },
        {
          "internalType": "bytes",
          "name": "data",
          "type": "bytes"
        }
      ],
      "name": "mint",
      "outputs": [],
      "stateMutability": "nonpayable",
      "type": "function"
    },
    {
      "inputs": [
        {
          "internalType": "address",
          "name": "to",
          "type": "address"
        },
        {
          "internalType": "uint256[]",
          "name": "ids",
          "type": "uint256[]"
        },
        {
          "internalType": "uint256[]",
          "name": "amounts",
          "type": "uint256[]"
        },
        {
          "internalType": "bytes",
          "name": "data",
          "type": "bytes"
        }
      ],
      "name": "mintBatch",
      "outputs": [],
      "stateMutability": "nonpayable",
      "type": "function"
    },
    {
      "inputs": [
        {
          "internalType": "uint256",
          "name": "",
          "type": "uint256"
        }
      ],
      "name": "mintTimestamps",
      "outputs": [
        {
          "internalType": "uint256",
          "name": "",
          "type": "uint256"
        }
      ],
      "stateMutability": "view",
      "type": "function"
    },
    {
      "inputs": [
        {
          "internalType": "address",
          "name": "creator",
          "type": "address"
        },
        {
          "internalType": "uint256",
          "name": "tokenId",
          "type": "uint256"
        },
        {
          "internalType": "uint256",
          "name": "amount",
          "type": "uint256"
        },
        {
          "internalType": "string",
          "name": "prompt",
          "type": "string"
        },
        {
          "internalType": "string",
          "name": "generationMethod",
          "type": "string"
        },
        {
          "internalType": "bytes",
          "name": "data",
          "type": "bytes"
        }
      ],
      "name": "mintWithMetadata",
      "outputs": [],
      "stateMutability": "nonpayable",
      "type": "function"
    },
    {
      "inputs": [],
      "name": "owner",
      "outputs": [
        {
          "internalType": "address",
          "name": "",
          "type": "address"
        }
      ],
      "stateMutability": "view",
      "type": "function"
    },
    {
      "inputs": [],
      "name": "pause",
      "outputs": [],
      "stateMutability": "nonpayable",
      "type": "function"
    },
    {
      "inputs": [],
      "name": "paused",
      "outputs": [
        {
          "internalType": "bool",
          "name": "",
          "type": "bool"
        }
      ],
      "stateMutability": "view",
      "type": "function"
    },
    {
      "inputs": [],
      "name": "renounceOwnership",
      "outputs": [],
      "stateMutability": "nonpayable",
      "type": "function"
    },
    {
      "inputs": [
        {
          "internalType": "uint256",
          "name": "tokenId",
          "type": "uint256"
        },
        {
          "internalType": "uint256",
          "name": "salePrice",
          "type": "uint256"
        }
      ],
      "name": "royaltyInfo",
      "outputs": [
        {
          "internalType": "address",
          "name": "receiver",
          "type": "address"
        },
        {
          "internalType": "uint256",
          "name": "royaltyAmount",
          "type": "uint256"
        }
      ],
      "stateMutability": "view",
      "type": "function"
    },
    {
      "inputs": [
        {
          "internalType": "address",
          "name": "from",
          "type": "address"
        },
        {
          "internalType": "address",
          "name": "to",
          "type": "address"
        },
        {
          "internalType": "uint256[]",
          "name": "ids",
          "type": "uint256[]"
        },
        {
          "internalType": "uint256[]",
          "name": "values",
          "type": "uint256[]"
        },
        {
          "internalType": "bytes",
          "name": "data",
          "type": "bytes"
        }
      ],
      "name": "safeBatchTransferFrom",
      "outputs": [],
      "stateMutability": "nonpayable",
      "type": "function"
    },
    {
      "inputs": [
        {
          "internalType": "address",
          "name": "from",
          "type": "address"
        },
        {
          "internalType": "address",
          "name": "to",
          "type": "address"
        },
        {
          "internalType": "uint256",
          "name": "id",
          "type": "uint256"
        },
        {
          "internalType": "uint256",
          "name": "value",
          "type": "uint256"
        },
        {
          "internalType": "bytes",
          "name": "data",
          "type": "bytes"
        }
      ],
      "name": "safeTransferFrom",
      "outputs": [],
      "stateMutability": "nonpayable",
      "type": "function"
    },
    {
      "inputs": [
        {
          "internalType": "address",
          "name": "_appWallet",
          "type": "address"
        }
      ],
      "name": "setAppWallet",
      "outputs": [],
      "stateMutability": "nonpayable",
      "type": "function"
    },
    {
      "inputs": [
        {
          "internalType": "address",
          "name": "operator",
          "type": "address"
        },
        {
          "internalType": "bool",
          "name": "approved",
          "type": "bool"
        }
      ],
      "name": "setApprovalForAll",
      "outputs": [],
      "stateMutability": "nonpayable",
      "type": "function"
    },
    {
      "inputs": [
        {
          "internalType": "string",
          "name": "newuri",
          "type": "string"
        }
      ],
      "name": "setURI",
      "outputs": [],
      "stateMutability": "nonpayable",
      "type": "function"
    },
    {
      "inputs": [
        {
          "internalType": "bytes4",
          "name": "interfaceId",
          "type": "bytes4"
        }
      ],
      "name": "supportsInterface",
      "outputs": [
        {
          "internalType": "bool",
          "name": "",
          "type": "bool"
        }
      ],
      "stateMutability": "view",
      "type": "function"
    },
    {
      "inputs": [
        {
          "internalType": "uint256",
          "name": "",
          "type": "uint256"
        }
      ],
      "name": "tokenCreators",
      "outputs": [
        {
          "internalType": "address",
          "name": "",
          "type": "address"
        }
      ],
      "stateMutability": "view",
      "type": "function"
    },
    {
      "inputs": [],
      "name": "totalSupply",
      "outputs": [
        {
          "internalType": "uint256",
          "name": "",
          "type": "uint256"
        }
      ],
      "stateMutability": "view",
      "type": "function"
    },
    {
      "inputs": [
        {
          "internalType": "uint256",
          "name": "id",
          "type": "uint256"
        }
      ],
      "name": "totalSupply",
      "outputs": [
        {
          "internalType": "uint256",
          "name": "",
          "type": "uint256"
        }
      ],
      "stateMutability": "view",
      "type": "function"
    },
    {
      "inputs": [
        {
          "internalType": "address",
          "name": "newOwner",
          "type": "address"
        }
      ],
      "name": "transferOwnership",
      "outputs": [],
      "stateMutability": "nonpayable",
      "type": "function"
    },
    {
      "inputs": [],
      "name": "unpause",
      "outputs": [],
      "stateMutability": "nonpayable",
      "type": "function"
    },
    {
      "inputs": [
        {
          "internalType": "uint256",
          "name": "",
          "type": "uint256"
        }
      ],
      "name": "uri",
      "outputs": [
        {
          "internalType": "string",
          "name": "",
          "type": "string"
        }
      ],
      "stateMutability": "view",
      "type": "function"
    },
    {
      "stateMutability": "payable",
      "type": "receive"
    }
  ],
  "bytecode": "0x6080604052346102c95760405160009061279b3881900390601f8201601f191683016001600160401b038111848210176102b5579180849260409485528339810103126102b15761005b6020610054836102ce565b92016102ce565b6040519092606082016001600160401b0381118382101761029d57604052603082527f68747470733a2f2f6170692e73657276696365666c6f7761692e636f6d2f6d6560208301526f3a30b230ba3097bdb4b23e973539b7b760811b604083015250600254600190600181811c91168015610293575b602082101461027d57601f8111610216575b50506020906002600052816000209160005b602081106101fe575001516001600160801b031916905560616002556001600160a01b03169081156101e857600380546001600160a01b03198116841790915560405192906001600160a01b03167f8be0079c531659141344cd1fd0a4f28419497f9722a3daafe3b4186f6b6457e0600080a36001600160a01b031690811561019c5750600680546001600160a01b0319169190911790556040516124b890816102e38239f35b62461bcd60e51b815260206004820152602160248201527f4170702077616c6c65742063616e6e6f74206265207a65726f206164647265736044820152607360f81b6064820152608490fd5b631e4fbdf760e01b600052600060045260246000fd5b909260206001819286860151815501940191016100f5565b6002600052601f0160051c7f405787fa12a823e0f2b7631cc41b3ba8828b3321ca811111fa75cd3aa3bb5ace017f405787fa12a823e0f2b7631cc41b3ba8828b3321ca811111fa75cd3aa3bb5ad05b81811061027257506100e3565b600081558201610265565b634e487b7160e01b600052602260045260246000fd5b90607f16906100d1565b634e487b7160e01b82526041600452602482fd5b5080fd5b634e487b7160e01b85526041600452602485fd5b600080fd5b51906001600160a01b03821682036102c95756fe6080604052600436101561001b575b361561001957600080fd5b005b60003560e01c8062fdd58e1461025a57806301ffc9a71461025557806302fe5305146102505780630d49563b1461024b5780630e89341c1461024657806318160ddd1461024157806319fddc0f1461023c5780631f7fdffa146102375780632a55205a146102325780632eb2c2d61461022d57806336584533146102285780633876e05e146102235780633f4ba83a1461021e5780634e1273f4146102195780634f558e791461021457806354a441ea1461020f5780635c975abb1461020a5780635f3697c114610205578063715018a614610200578063731133e9146101fb5780638456cb59146101f65780638aff24d4146101f15780638da5cb5b146101ec578063a22cb465146101e7578063b8737d12146101e2578063bb77f749146101dd578063bd85b039146101d8578063cfa498a3146101d3578063d1c3ce49146101ce578063db2e21bc146101c9578063e0fd045f146101c4578063e985e9c5146101bf578063eaded534146101ba578063f242432a146101b5578063f2fde38b146101b05763fdf416580361000e576114fc565b611433565b61131c565b6111ed565b611185565b611151565b6110b8565b611003565b610fe6565b610fba565b610f8e565b610ec3565b610e05565b610ddc565b610dc0565b610d5e565b610c88565b610c2b565b610c0f565b610be9565b610bbd565b610b8f565b610ace565b610a18565b6109ef565b610963565b6108d1565b61089a565b610815565b610785565b610767565b61068e565b61064a565b6103fd565b6102d8565b610275565b6001600160a01b0381160361027057565b600080fd5b346102705760403660031901126102705760206102bd6004356102978161025f565b6024356000526000835260406000209060018060a01b0316600052602052604060002090565b54604051908152f35b6001600160e01b031981160361027057565b34610270576020366003190112610270576004356102f5816102c6565b63ffffffff60e01b1663152a902d60e11b811490811561031e575b506040519015158152602090f35b636cdb3d1360e11b811491508115610350575b811561033f575b5038610310565b6301ffc9a760e01b14905038610338565b6303a24d0760e21b81149150610331565b634e487b7160e01b600052604160045260246000fd5b90601f801991011681019081106001600160401b0382111761039857604052565b610361565b6001600160401b03811161039857601f01601f191660200190565b81601f82011215610270576020813591016103d28261039d565b926103e06040519485610377565b828452828201116102705781600092602092838601378301015290565b34610270576020366003190112610270576004356001600160401b0381116102705761042d9036906004016103b8565b610435611d54565b80516001600160401b0381116103985761045981610454600254610517565b611998565b602091601f821160011461049957610489926000918361048e575b50508160011b916000199060031b1c19161790565b600255005b015190503880610474565b6002600052601f198216927f405787fa12a823e0f2b7631cc41b3ba8828b3321ca811111fa75cd3aa3bb5ace9160005b8581106104ff575083600195106104e6575b505050811b01600255005b015160001960f88460031b161c191690553880806104db565b919260206001819286850151815501940192016104c9565b90600182811c92168015610547575b602083101461053157565b634e487b7160e01b600052602260045260246000fd5b91607f1691610526565b906040519182600082549261056584610517565b80845293600181169081156105d3575060011461058c575b5061058a92500383610377565b565b90506000929192526020600020906000915b8183106105b757505090602061058a928201013861057d565b602091935080600191548385890101520191019091849261059e565b90506020925061058a94915060ff191682840152151560051b8201013861057d565b919082519283825260005b848110610621575050826000602080949584010152601f8019910116010190565b80602080928401015182828601015201610600565b9060206106479281815201906105f5565b90565b3461027057602036600319011261027057600435600052600860205261068a6106766040600020610551565b6040519182916020835260208301906105f5565b0390f35b346102705760203660031901126102705760405160006002546106b081610517565b808452906001811690811561074357506001146106e4575b61068a836106d881850382610377565b60405191829182610636565b600260009081527f405787fa12a823e0f2b7631cc41b3ba8828b3321ca811111fa75cd3aa3bb5ace939250905b808210610729575090915081016020016106d86106c8565b919260018160209254838588010152019101909291610711565b60ff191660208086019190915291151560051b840190910191506106d890506106c8565b34610270576000366003190112610270576020600554604051908152f35b3461027057600036600319011261027057602060405160968152f35b6001600160401b0381116103985760051b60200190565b9080601f830112156102705781356107cf816107a1565b926107dd6040519485610377565b81845260208085019260051b82010192831161027057602001905b8282106108055750505090565b81358152602091820191016107f8565b34610270576080366003190112610270576004356108328161025f565b6024356001600160401b038111610270576108519036906004016107b8565b906044356001600160401b038111610270576108719036906004016107b8565b606435926001600160401b038411610270576108946100199436906004016103b8565b92611569565b346102705760403660031901126102705760406108bb6024356004356116bf565b82516001600160a01b0390921682526020820152f35b346102705760a0366003190112610270576004356108ee8161025f565b602435906108fb8261025f565b6044356001600160401b0381116102705761091a9036906004016107b8565b6064356001600160401b038111610270576109399036906004016107b8565b90608435936001600160401b0385116102705761095d6100199536906004016103b8565b93611723565b346102705760c0366003190112610270576004356109808161025f565b602435906044356064356001600160401b038111610270576109a69036906004016103b8565b6084356001600160401b038111610270576109c59036906004016103b8565b9160a435946001600160401b038611610270576109e96100199636906004016103b8565b94611780565b34610270576000366003190112610270576006546040516001600160a01b039091168152602090f35b3461027057600036600319011261027057610a31611d54565b60035460ff8160a01c1615610a785760ff60a01b19166003556040513381527f5db9ee0a495bf2e6ff9c91a7834c1ba4fdd244a5e8aa4e537bd38aeae4b073aa90602090a1005b638dfc202b60e01b60005260046000fd5b906020808351928381520192019060005b818110610aa75750505090565b8251845260209384019390920191600101610a9a565b906020610647928181520190610a89565b34610270576040366003190112610270576004356001600160401b038111610270573660238201121561027057806004013590610b0a826107a1565b91610b186040519384610377565b8083526024602084019160051b8301019136831161027057602401905b828210610b7557836024356001600160401b0381116102705761068a91610b63610b699236906004016107b8565b90611b27565b60405191829182610abd565b602080918335610b848161025f565b815201910190610b35565b3461027057602036600319011261027057600435600052600460205260206040600020541515604051908152f35b3461027057602036600319011261027057600435600052600960205261068a6106766040600020610551565b3461027057600036600319011261027057602060ff60035460a01c166040519015158152f35b3461027057600036600319011261027057602060405160c88152f35b3461027057600036600319011261027057610c44611d54565b600380546001600160a01b031981169091556000906001600160a01b03167f8be0079c531659141344cd1fd0a4f28419497f9722a3daafe3b4186f6b6457e08280a3005b3461027057608036600319011261027057600435610ca58161025f565b606435906044356024356001600160401b03841161027057610cce6100199436906004016103b8565b92610cd7611d54565b6000828152600760205260409020546001600160a01b0316611d9857600082815260076020526040902080546001600160a01b0319166001600160a01b03831617905581600052600a6020524260406000205560018060a01b038116827f222b3fe0729e0e047098053f9b6cd604818ea44ab542b58177d1e118a701c909600080a3611d98565b3461027057600036600319011261027057610d77611d54565b610d7f612044565b6003805460ff60a01b1916600160a01b1790556040513381527f62e78cea01bee320cd4e420270b5ea74000d11b0c9f74754ebdbfc544b05a25890602090a1005b3461027057600036600319011261027057602060405160328152f35b34610270576000366003190112610270576003546040516001600160a01b039091168152602090f35b3461027057604036600319011261027057600435610e228161025f565b602435801515808203610270576001600160a01b038316928315610eae573360009081526001602090815260408083206001600160a01b039094168352929052209060ff801983541691161790557f17307eab39ab6107e8899845ad3d59bd9653f200f220920489ca2b5937696c3160405180610ea9339482919091602081019215159052565b0390a3005b62ced3e160e81b600052600060045260246000fd5b3461027057602036600319011261027057600435610ee08161025f565b610ee8611d54565b6001600160a01b038116908115610f3f57600680546001600160a01b039283166001600160a01b0319821617909155167f22df6805db7e344a744f9553c1df3c403c87377cedcfa02e3f14ba2f01b45d44600080a3005b60405162461bcd60e51b815260206004820152602160248201527f4170702077616c6c65742063616e6e6f74206265207a65726f206164647265736044820152607360f81b6064820152608490fd5b3461027057602036600319011261027057600435600052600a6020526020604060002054604051908152f35b346102705760203660031901126102705760043560005260046020526020604060002054604051908152f35b346102705760003660031901126102705760206040516127108152f35b34610270576040366003190112610270576004356000908152600760205260409020546001600160a01b03166024356096818102919081830414811517156110b3576127109261106061105861068a936116a9565b612710900490565b9080156110a1575b6006546040805196909504865260208601929092526001600160a01b039081169385019390935291909116606083015281906080820190565b506006546001600160a01b0316611068565b611693565b34610270576000366003190112610270576110d1611d54565b478015611113576003546100199160009182918291829190611103906001600160a01b03165b6001600160a01b031690565b5af161110d611bdf565b50611c0f565b60405162461bcd60e51b81526020600482015260166024820152754e6f2062616c616e636520746f20776974686472617760501b6044820152606490fd5b34610270576020366003190112610270576004356000526007602052602060018060a01b0360406000205416604051908152f35b3461027057604036600319011261027057602060ff6111e16004356111a98161025f565b602435906111b68261025f565b60018060a01b03166000526001845260406000209060018060a01b0316600052602052604060002090565b54166040519015158152f35b602036600319011261027057611233608060043561120c341515611c4f565b60405163d1c3ce4960e01b8152600481019190915234602482015291829081906044820190565b0381305afa9081156113175760009081809181946112e3575b50801515806112d1575b6112a4575b505080151580611292575b61126c57005b610019916000918291829182916001600160a01b03165af161128c611bdf565b50611d13565b506001600160a01b0382161515611266565b6112ca916000918291829182916001600160a01b03165af16112c4611bdf565b50611cce565b388061125b565b506001600160a01b0382161515611256565b92505050611309915060803d608011611310575b6113018183610377565b810190611c91565b923861124c565b503d6112f7565b611cc2565b346102705760a0366003190112610270576004356113398161025f565b6024356113458161025f565b60443590606435926084356001600160401b0381116102705761136c9036906004016103b8565b926001600160a01b038216338114158061140f575b6113f7576001600160a01b038416156113e157156113cc57610019946113c460405192600184526020840152604083019160018352606084015260808301604052565b929091611f10565b626a0d4560e21b600052600060045260246000fd5b632bfa23e760e11b600052600060045260246000fd5b63711bec9160e11b6000523360045260245260446000fd5b50600081815260016020908152604080832033845290915290205460ff1615611381565b34610270576020366003190112610270576004356114508161025f565b611458611d54565b6001600160a01b031680156114ab57600380546001600160a01b0319811683179091556001600160a01b03167f8be0079c531659141344cd1fd0a4f28419497f9722a3daafe3b4186f6b6457e0600080a3005b631e4fbdf760e01b600052600060045260246000fd5b9493926114e96060936114f79360018060a01b031688526080602089015260808801906105f5565b9086820360408801526105f5565b930152565b34610270576020366003190112610270576004356000908152600760209081526040808320546008835281842060098452828520600a909452919093205491926001600160a01b03169161068a9161155d9061155790610551565b94610551565b604051948594856114c1565b9192611573611d54565b60005b825181101561165c578061158c60019285611669565b5160005260076020526115b16040600020838060a01b0390541660018060a01b031690565b156115bd575b01611576565b6115fe856115df6115ce8488611669565b516000526007602052604060002090565b80546001600160a01b0319166001600160a01b03909216919091179055565b4261161d61160c8387611669565b51600052600a602052604060002090565b556116288185611669565b51828060a01b038616907f222b3fe0729e0e047098053f9b6cd604818ea44ab542b58177d1e118a701c909600080a36115b7565b50919061058a9391611d7d565b805182101561167d5760209160051b010190565b634e487b7160e01b600052603260045260246000fd5b634e487b7160e01b600052601160045260246000fd5b906032820291808304603214901517156110b357565b6000908152600760205260409020546001600160a01b0316919082156116fa5760c881029080820460c814901517156110b357612710900490565b915060018060a01b03600654166032830292808404603214901517156110b35761271090920490565b939291906001600160a01b038516338114158061175c575b6113f7576001600160a01b038216156113e157156113cc5761058a94611f10565b50600081815260016020908152604080832033845290915290205460ff161561173b565b909192949361178d611d54565b6001600160a01b0382169081156118b8578684926117b061058a995115156118fd565b6117bc83511515611942565b6117e36110f76117d6866000526007602052604060002090565b546001600160a01b031690565b156117f2575b50505050611d98565b6118ac7ff6cc6f678a14cb53e0c4eba26985d889aeddd4bba17cd59257da3a5ba4cdae979361182f876115df886000526007602052604060002090565b61184c84611847886000526008602052604060002090565b611a3d565b61186481611847886000526009602052604060002090565b4261187987600052600a602052604060002090565b55604051938493877f222b3fe0729e0e047098053f9b6cd604818ea44ab542b58177d1e118a701c909600080a383611b02565b0390a2813880806117e9565b60405162461bcd60e51b815260206004820152601e60248201527f43726561746f722063616e6e6f74206265207a65726f206164647265737300006044820152606490fd5b1561190457565b60405162461bcd60e51b815260206004820152601660248201527550726f6d70742063616e6e6f7420626520656d70747960501b6044820152606490fd5b1561194957565b60405162461bcd60e51b815260206004820152602160248201527f47656e65726174696f6e206d6574686f642063616e6e6f7420626520656d70746044820152607960f81b6064820152608490fd5b601f81116119a4575050565b60026000526020600020906020601f840160051c830193106119e1575b601f0160051c01905b8181106119d5575050565b600081556001016119ca565b90915081906119c1565b601f82116119f857505050565b6000526020600020906020601f840160051c83019310611a33575b601f0160051c01905b818110611a27575050565b60008155600101611a1c565b9091508190611a13565b91909182516001600160401b03811161039857611a6481611a5e8454610517565b846119eb565b6020601f8211600114611a99578190611a9593949560009261048e5750508160011b916000199060031b1c19161790565b9055565b601f19821690611aae84600052602060002090565b9160005b818110611aea57509583600195969710611ad1575b505050811b019055565b015160001960f88460031b161c19169055388080611ac7565b9192602060018192868b015181550194019201611ab2565b9091611b19610647936040845260408401906105f5565b9160208184039101526105f5565b91909180518351808203611bc8575050805190611b43826107a1565b91611b516040519384610377565b808352611b60601f19916107a1565b0136602084013760005b8151811015611bc15780611bb060019260051b60208082870101519189010151906000918252602082815260408084206001600160a01b03909316845291905290205490565b611bba8286611669565b5201611b6a565b5090925050565b635b05999160e01b60005260045260245260446000fd5b3d15611c0a573d90611bf08261039d565b91611bfe6040519384610377565b82523d6000602084013e565b606090565b15611c1657565b60405162461bcd60e51b815260206004820152601160248201527015da5d1a191c985dd85b0819985a5b1959607a1b6044820152606490fd5b15611c5657565b60405162461bcd60e51b8152602060048201526013602482015272139bc81c185e5b595b9d081c9958d95a5d9959606a1b6044820152606490fd5b91908260809103126102705781519160208101519160606040830151611cb68161025f565b9201516106478161025f565b6040513d6000823e3d90fd5b15611cd557565b60405162461bcd60e51b815260206004820152601660248201527510dc99585d1bdc881c185e5b595b9d0819985a5b195960521b6044820152606490fd5b15611d1a57565b60405162461bcd60e51b8152602060048201526012602482015271105c1c081c185e5b595b9d0819985a5b195960721b6044820152606490fd5b6003546001600160a01b03163303611d6857565b63118cdaa760e01b6000523360045260246000fd5b9291906001600160a01b038416156113e15761058a93611dd8565b919291906001600160a01b038216156113e15761058a93611dd660405192600184526020840152604083019160018352606084015260808301604052565b915b93919091611de982848760006122ae565b600094855b8451871015611e3c57611e346001918860051b90611e22602080848a010151938a0101516000526004602052604060002090565b611e2d8382546122a1565b90556122a1565b960195611dee565b611e56919594929650611e51906005546122a1565b600555565b6001600160a01b0384161580611ead575b15611e73575b50505050565b8051600103611e9c5790602080611e939593015191015191600033612201565b38808080611e6d565b611ea8936000336120cc565b611e93565b9360009591936000965b8551881015611ef7576001908860051b90611ee8602080848a010151938a0101516000526004602052604060002090565b82815403905501970196611eb7565b611f0b919593975095919560055403600555565b611e67565b91939290611f20828683866122ae565b6001600160a01b03831615611fe6575b6001600160a01b0381161580611f85575b15611f4e575b5050505050565b8451600103611f7457602080611f6a9601519201519233612201565b3880808080611f47565b611f80949192336120cc565b611f6a565b94936000939091845b8651861015611fce576001908660051b90611fbf602080848a010151938b0101516000526004602052604060002090565b82815403905501950194611f8e565b611fe19193969792955060055403600555565b611f41565b9392600092835b8551851015612029576120216001918660051b90611e22602080848a010151938b0101516000526004602052604060002090565b940193611fed565b61203f919450611e5190969295966005546122a1565b611f30565b60ff60035460a01c1661205357565b63d93c066560e01b60005260046000fd5b908160209103126102705751610647816102c6565b6001600160a01b0391821681529116602082015260a06040820181905261064794919391926120be92916120b09190860190610a89565b908482036060860152610a89565b9160808184039101526105f5565b9091949293853b6120e0575b505050505050565b60209361210291604051968795869563bc197c8160e01b875260048701612079565b038160006001600160a01b0387165af160009181612197575b506121575750612129611bdf565b805191908261215057632bfa23e760e11b6000526001600160a01b03821660045260246000fd5b6020915001fd5b6001600160e01b0319166343e6837f60e01b0161217a57503880808080806120d8565b632bfa23e760e11b6000526001600160a01b031660045260246000fd5b6121ba91925060203d6020116121c1575b6121b28183610377565b810190612064565b903861211b565b503d6121a8565b6001600160a01b039182168152911660208201526040810191909152606081019190915260a060808201819052610647929101906105f5565b9091949293853b61221457505050505050565b60209361223691604051968795869563f23a6e6160e01b8752600487016121c8565b038160006001600160a01b0387165af160009181612280575b5061225d5750612129611bdf565b6001600160e01b031916630dc5919f60e01b0161217a57503880808080806120d8565b61229a91925060203d6020116121c1576121b28183610377565b903861224f565b919082018092116110b357565b9391926122b9612044565b835181519081810361246f5750506001600160a01b038581169485151594918416801515929060005b83518110156123e3578060051b90888887602080868a010151958b0101519261235c575b93600194612318575b505050016122e2565b6123529161233361234a926000526000602052604060002090565b9060018060a01b0316600052602052604060002090565b9182546122a1565b905538888161230f565b505090916123788c612333836000526000602052604060002090565b548281106123ac578291888e6123a3600197968e950391612333856000526000602052604060002090565b55909450612306565b6040516303dee4c560e01b81526001600160a01b038e16600482015260248101919091526044810183905260648101829052608490fd5b50969550965091925050600181511460001461243c5760209081015191810151604080519384529183015233917fc3d58168c5ae7397731d063d5bbf3d657854427343f4c083240f7aacaa2d0f6291819081015b0390a4565b60405133927f4a39dc06d4c0dbc64b70af90fd698a233a518aa5d07e595d983b8c0526c8f7fb9282916124379183612486565b635b05999160e01b60005260045260245260446000fd5b909161249d61064793604084526040840190610a89565b916020818403910152610a8956fea164736f6c634300081b000a",
  "linkReferences": {},
  "deployedLinkReferences": {}
}