{
  "_format": "hh-sol-artifact-1",
  "contractName": "SrvcfloINFTPackages",
  "sourceName": "Contracts/SrvcfloINFTPackages.sol",
  "abi": [
    {
      "inputs": [
        {
          "internalType": "address",
          "name": "initialOwner",
          "type": "address"
        },
        {
          "internalType": "address",
          "name": "_generatedNFTContract",
          "type": "address"
        },
        {
          "internalType": "address",
          "name": "_priceOracle",
          "type": "address"
        },
        {
          "internalType": "address",
          "name": "_srvcfloStaking",
          "type": "address"
        },
        {
          "internalType": "address",
          "name": "_devWallet",
          "type": "address"
        }
      ],
      "stateMutability": "nonpayable",
      "type": "constructor"
    },
    {
      "inputs": [
        {
          "internalType": "address",
          "name": "sender",
          "type": "address"
        },
        {
          "internalType": "uint256",
          "name": "tokenId",
          "type": "uint256"
        },
        {
          "internalType": "address",
          "name": "owner",
          "type": "address"
        }
      ],
      "name": "ERC721IncorrectOwner",
      "type": "error"
    },
    {
      "inputs": [
        {
          "internalType": "address",
          "name": "operator",
          "type": "address"
        },
        {
          "internalType": "uint256",
          "name": "tokenId",
          "type": "uint256"
        }
      ],
      "name": "ERC721InsufficientApproval",
      "type": "error"
    },
    {
      "inputs": [
        {
          "internalType": "address",
          "name": "approver",
          "type": "address"
        }
      ],
      "name": "ERC721InvalidApprover",
      "type": "error"
    },
    {
      "inputs": [
        {
          "internalType": "address",
          "name": "operator",
          "type": "address"
        }
      ],
      "name": "ERC721InvalidOperator",
      "type": "error"
    },
    {
      "inputs": [
        {
          "internalType": "address",
          "name": "owner",
          "type": "address"
        }
      ],
      "name": "ERC721InvalidOwner",
      "type": "error"
    },
    {
      "inputs": [
        {
          "internalType": "address",
          "name": "receiver",
          "type": "address"
        }
      ],
      "name": "ERC721InvalidReceiver",
      "type": "error"
    },
    {
      "inputs": [
        {
          "internalType": "address",
          "name": "sender",
          "type": "address"
        }
      ],
      "name": "ERC721InvalidSender",
      "type": "error"
    },
    {
      "inputs": [
        {
          "internalType": "uint256",
          "name": "tokenId",
          "type": "uint256"
        }
      ],
      "name": "ERC721NonexistentToken",
      "type": "error"
    },
    {
      "inputs": [
        {
          "internalType": "address",
          "name": "owner",
          "type": "address"
        }
      ],
      "name": "OwnableInvalidOwner",
      "type": "error"
    },
    {
      "inputs": [
        {
          "internalType": "address",
          "name": "account",
          "type": "address"
        }
      ],
      "name": "OwnableUnauthorizedAccount",
      "type": "error"
    },
    {
      "inputs": [],
      "name": "ReentrancyGuardReentrantCall",
      "type": "error"
    },
    {
      "anonymous": false,
      "inputs": [
        {
          "indexed": true,
          "internalType": "uint256",
          "name": "tokenId",
          "type": "uint256"
        },
        {
          "indexed": false,
          "internalType": "string",
          "name": "newMetadata",
          "type": "string"
        }
      ],
      "name": "AgentMetadataUpdated",
      "type": "event"
    },
    {
      "anonymous": false,
      "inputs": [
        {
          "indexed": true,
          "internalType": "address",
          "name": "owner",
          "type": "address"
        },
        {
          "indexed": true,
          "internalType": "address",
          "name": "approved",
          "type": "address"
        },
        {
          "indexed": true,
          "internalType": "uint256",
          "name": "tokenId",
          "type": "uint256"
        }
      ],
      "name": "Approval",
      "type": "event"
    },
    {
      "anonymous": false,
      "inputs": [
        {
          "indexed": true,
          "internalType": "address",
          "name": "owner",
          "type": "address"
        },
        {
          "indexed": true,
          "internalType": "address",
          "name": "operator",
          "type": "address"
        },
        {
          "indexed": false,
          "internalType": "bool",
          "name": "approved",
          "type": "bool"
        }
      ],
      "name": "ApprovalForAll",
      "type": "event"
    },
    {
      "anonymous": false,
      "inputs": [
        {
          "indexed": false,
          "internalType": "uint256",
          "name": "_fromTokenId",
          "type": "uint256"
        },
        {
          "indexed": false,
          "internalType": "uint256",
          "name": "_toTokenId",
          "type": "uint256"
        }
      ],
      "name": "BatchMetadataUpdate",
      "type": "event"
    },
    {
      "anonymous": false,
      "inputs": [
        {
          "indexed": true,
          "internalType": "uint256",
          "name": "packageTokenId",
          "type": "uint256"
        },
        {
          "indexed": true,
          "internalType": "uint256",
          "name": "generatedTokenId",
          "type": "uint256"
        },
        {
          "indexed": true,
          "internalType": "address",
          "name": "creator",
          "type": "address"
        }
      ],
      "name": "GenerationCreated",
      "type": "event"
    },
    {
      "anonymous": false,
      "inputs": [
        {
          "indexed": false,
          "internalType": "uint256",
          "name": "_tokenId",
          "type": "uint256"
        }
      ],
      "name": "MetadataUpdate",
      "type": "event"
    },
    {
      "anonymous": false,
      "inputs": [
        {
          "indexed": true,
          "internalType": "address",
          "name": "previousOwner",
          "type": "address"
        },
        {
          "indexed": true,
          "internalType": "address",
          "name": "newOwner",
          "type": "address"
        }
      ],
      "name": "OwnershipTransferred",
      "type": "event"
    },
    {
      "anonymous": false,
      "inputs": [
        {
          "indexed": true,
          "internalType": "address",
          "name": "buyer",
          "type": "address"
        },
        {
          "indexed": true,
          "internalType": "uint256",
          "name": "tokenId",
          "type": "uint256"
        },
        {
          "indexed": false,
          "internalType": "uint256",
          "name": "packageType",
          "type": "uint256"
        },
        {
          "indexed": false,
          "internalType": "string",
          "name": "paymentToken",
          "type": "string"
        }
      ],
      "name": "PackagePurchased",
      "type": "event"
    },
    {
      "anonymous": false,
      "inputs": [
        {
          "indexed": true,
          "internalType": "uint256",
          "name": "packageTokenId",
          "type": "uint256"
        },
        {
          "indexed": true,
          "internalType": "address",
          "name": "subscriber",
          "type": "address"
        },
        {
          "indexed": false,
          "internalType": "uint256",
          "name": "maxGenerations",
          "type": "uint256"
        },
        {
          "indexed": false,
          "internalType": "uint256",
          "name": "duration",
          "type": "uint256"
        }
      ],
      "name": "SubscriptionCreated",
      "type": "event"
    },
    {
      "anonymous": false,
      "inputs": [
        {
          "indexed": true,
          "internalType": "address",
          "name": "from",
          "type": "address"
        },
        {
          "indexed": true,
          "internalType": "address",
          "name": "to",
          "type": "address"
        },
        {
          "indexed": true,
          "internalType": "uint256",
          "name": "tokenId",
          "type": "uint256"
        }
      ],
      "name": "Transfer",
      "type": "event"
    },
    {
      "inputs": [],
      "name": "BUSINESS_PACKAGE",
      "outputs": [
        {
          "internalType": "uint256",
          "name": "",
          "type": "uint256"
        }
      ],
      "stateMutability": "view",
      "type": "function"
    },
    {
      "inputs": [],
      "name": "ENTERPRISE_PACKAGE",
      "outputs": [
        {
          "internalType": "uint256",
          "name": "",
          "type": "uint256"
        }
      ],
      "stateMutability": "view",
      "type": "function"
    },
    {
      "inputs": [],
      "name": "IMAGE_GENERATION_COST",
      "outputs": [
        {
          "internalType": "uint256",
          "name": "",
          "type": "uint256"
        }
      ],
      "stateMutability": "view",
      "type": "function"
    },
    {
      "inputs": [],
      "name": "PRO_PACKAGE",
      "outputs": [
        {
          "internalType": "uint256",
          "name": "",
          "type": "uint256"
        }
      ],
      "stateMutability": "view",
      "type": "function"
    },
    {
      "inputs": [],
      "name": "STARTER_PACKAGE",
      "outputs": [
        {
          "internalType": "uint256",
          "name": "",
          "type": "uint256"
        }
      ],
      "stateMutability": "view",
      "type": "function"
    },
    {
      "inputs": [],
      "name": "USDC",
      "outputs": [
        {
          "internalType": "contract IERC20",
          "name": "",
          "type": "address"
        }
      ],
      "stateMutability": "view",
      "type": "function"
    },
    {
      "inputs": [],
      "name": "VIDEO_GENERATION_COST",
      "outputs": [
        {
          "internalType": "uint256",
          "name": "",
          "type": "uint256"
        }
      ],
      "stateMutability": "view",
      "type": "function"
    },
    {
      "inputs": [
        {
          "internalType": "address",
          "name": "to",
          "type": "address"
        },
        {
          "internalType": "uint256",
          "name": "tokenId",
          "type": "uint256"
        }
      ],
      "name": "approve",
      "outputs": [],
      "stateMutability": "nonpayable",
      "type": "function"
    },
    {
      "inputs": [
        {
          "internalType": "uint256",
          "name": "",
          "type": "uint256"
        },
        {
          "internalType": "address",
          "name": "",
          "type": "address"
        }
      ],
      "name": "authorizations",
      "outputs": [
        {
          "internalType": "uint256",
          "name": "maxCredits",
          "type": "uint256"
        },
        {
          "internalType": "uint256",
          "name": "usedCredits",
          "type": "uint256"
        },
        {
          "internalType": "uint256",
          "name": "expiresAt",
          "type": "uint256"
        },
        {
          "internalType": "bool",
          "name": "active",
          "type": "bool"
        }
      ],
      "stateMutability": "view",
      "type": "function"
    },
    {
      "inputs": [
        {
          "internalType": "address",
          "name": "owner",
          "type": "address"
        }
      ],
      "name": "balanceOf",
      "outputs": [
        {
          "internalType": "uint256",
          "name": "",
          "type": "uint256"
        }
      ],
      "stateMutability": "view",
      "type": "function"
    },
    {
      "inputs": [
        {
          "internalType": "uint256",
          "name": "tokenId",
          "type": "uint256"
        }
      ],
      "name": "burn",
      "outputs": [],
      "stateMutability": "nonpayable",
      "type": "function"
    },
    {
      "inputs": [
        {
          "internalType": "uint256",
          "name": "packageTokenId",
          "type": "uint256"
        },
        {
          "internalType": "address",
          "name": "subscriber",
          "type": "address"
        },
        {
          "internalType": "uint256",
          "name": "maxGenerations",
          "type": "uint256"
        },
        {
          "internalType": "uint256",
          "name": "duration",
          "type": "uint256"
        }
      ],
      "name": "createSubscription",
      "outputs": [],
      "stateMutability": "nonpayable",
      "type": "function"
    },
    {
      "inputs": [],
      "name": "devWallet",
      "outputs": [
        {
          "internalType": "address",
          "name": "",
          "type": "address"
        }
      ],
      "stateMutability": "view",
      "type": "function"
    },
    {
      "inputs": [
        {
          "internalType": "uint256",
          "name": "packageTokenId",
          "type": "uint256"
        },
        {
          "internalType": "string",
          "name": "prompt",
          "type": "string"
        },
        {
          "internalType": "bool",
          "name": "isVideo",
          "type": "bool"
        },
        {
          "internalType": "string",
          "name": "influencedCollection",
          "type": "string"
        }
      ],
      "name": "generateContent",
      "outputs": [
        {
          "internalType": "uint256",
          "name": "",
          "type": "uint256"
        }
      ],
      "stateMutability": "nonpayable",
      "type": "function"
    },
    {
      "inputs": [],
      "name": "generatedNFTContract",
      "outputs": [
        {
          "internalType": "contract ISrvcfloGeneratedNFT",
          "name": "",
          "type": "address"
        }
      ],
      "stateMutability": "view",
      "type": "function"
    },
    {
      "inputs": [
        {
          "internalType": "uint256",
          "name": "tokenId",
          "type": "uint256"
        }
      ],
      "name": "getApproved",
      "outputs": [
        {
          "internalType": "address",
          "name": "",
          "type": "address"
        }
      ],
      "stateMutability": "view",
      "type": "function"
    },
    {
      "inputs": [
        {
          "internalType": "uint256",
          "name": "tokenId",
          "type": "uint256"
        }
      ],
      "name": "getPackageInfo",
      "outputs": [
        {
          "internalType": "uint256",
          "name": "packageType",
          "type": "uint256"
        },
        {
          "internalType": "uint256",
          "name": "totalCredits",
          "type": "uint256"
        },
        {
          "internalType": "uint256",
          "name": "usedCredits",
          "type": "uint256"
        },
        {
          "internalType": "uint256",
          "name": "remainingCredits",
          "type": "uint256"
        },
        {
          "internalType": "string",
          "name": "agentMetadata",
          "type": "string"
        },
        {
          "internalType": "string[]",
          "name": "collectionInfluences",
          "type": "string[]"
        },
        {
          "internalType": "uint256[]",
          "name": "generatedTokenIds",
          "type": "uint256[]"
        }
      ],
      "stateMutability": "view",
      "type": "function"
    },
    {
      "inputs": [
        {
          "internalType": "uint256",
          "name": "packageType",
          "type": "uint256"
        }
      ],
      "name": "getPackagePricing",
      "outputs": [
        {
          "internalType": "uint256",
          "name": "usdPrice",
          "type": "uint256"
        },
        {
          "internalType": "uint256",
          "name": "nativeSPrice",
          "type": "uint256"
        },
        {
          "internalType": "uint256",
          "name": "wsPrice",
          "type": "uint256"
        },
        {
          "internalType": "uint256",
          "name": "usdcPrice",
          "type": "uint256"
        }
      ],
      "stateMutability": "view",
      "type": "function"
    },
    {
      "inputs": [
        {
          "internalType": "uint256",
          "name": "packageTokenId",
          "type": "uint256"
        },
        {
          "internalType": "address",
          "name": "subscriber",
          "type": "address"
        }
      ],
      "name": "getSubscriptionInfo",
      "outputs": [
        {
          "internalType": "uint256",
          "name": "maxGenerations",
          "type": "uint256"
        },
        {
          "internalType": "uint256",
          "name": "usedGenerations",
          "type": "uint256"
        },
        {
          "internalType": "uint256",
          "name": "expiresAt",
          "type": "uint256"
        },
        {
          "internalType": "bool",
          "name": "active",
          "type": "bool"
        }
      ],
      "stateMutability": "view",
      "type": "function"
    },
    {
      "inputs": [
        {
          "internalType": "address",
          "name": "user",
          "type": "address"
        }
      ],
      "name": "getUserPackages",
      "outputs": [
        {
          "internalType": "uint256[]",
          "name": "",
          "type": "uint256[]"
        }
      ],
      "stateMutability": "view",
      "type": "function"
    },
    {
      "inputs": [
        {
          "internalType": "uint256",
          "name": "",
          "type": "uint256"
        }
      ],
      "name": "inftPackages",
      "outputs": [
        {
          "internalType": "uint256",
          "name": "packageType",
          "type": "uint256"
        },
        {
          "internalType": "uint256",
          "name": "totalCredits",
          "type": "uint256"
        },
        {
          "internalType": "uint256",
          "name": "usedCredits",
          "type": "uint256"
        },
        {
          "internalType": "uint256",
          "name": "mintedAt",
          "type": "uint256"
        },
        {
          "internalType": "string",
          "name": "agentMetadata",
          "type": "string"
        }
      ],
      "stateMutability": "view",
      "type": "function"
    },
    {
      "inputs": [
        {
          "internalType": "address",
          "name": "owner",
          "type": "address"
        },
        {
          "internalType": "address",
          "name": "operator",
          "type": "address"
        }
      ],
      "name": "isApprovedForAll",
      "outputs": [
        {
          "internalType": "bool",
          "name": "",
          "type": "bool"
        }
      ],
      "stateMutability": "view",
      "type": "function"
    },
    {
      "inputs": [],
      "name": "leaderboardThresholdMet",
      "outputs": [
        {
          "internalType": "bool",
          "name": "",
          "type": "bool"
        }
      ],
      "stateMutability": "view",
      "type": "function"
    },
    {
      "inputs": [
        {
          "internalType": "uint256",
          "name": "",
          "type": "uint256"
        }
      ],
      "name": "leaderboardWinners",
      "outputs": [
        {
          "internalType": "address",
          "name": "",
          "type": "address"
        }
      ],
      "stateMutability": "view",
      "type": "function"
    },
    {
      "inputs": [],
      "name": "mintDevPackages",
      "outputs": [],
      "stateMutability": "nonpayable",
      "type": "function"
    },
    {
      "inputs": [
        {
          "internalType": "uint256",
          "name": "packageType",
          "type": "uint256"
        },
        {
          "internalType": "address",
          "name": "recipient",
          "type": "address"
        }
      ],
      "name": "mintSpecificDevPackage",
      "outputs": [],
      "stateMutability": "nonpayable",
      "type": "function"
    },
    {
      "inputs": [],
      "name": "name",
      "outputs": [
        {
          "internalType": "string",
          "name": "",
          "type": "string"
        }
      ],
      "stateMutability": "view",
      "type": "function"
    },
    {
      "inputs": [],
      "name": "owner",
      "outputs": [
        {
          "internalType": "address",
          "name": "",
          "type": "address"
        }
      ],
      "stateMutability": "view",
      "type": "function"
    },
    {
      "inputs": [
        {
          "internalType": "uint256",
          "name": "tokenId",
          "type": "uint256"
        }
      ],
      "name": "ownerOf",
      "outputs": [
        {
          "internalType": "address",
          "name": "",
          "type": "address"
        }
      ],
      "stateMutability": "view",
      "type": "function"
    },
    {
      "inputs": [
        {
          "internalType": "uint256",
          "name": "",
          "type": "uint256"
        }
      ],
      "name": "packages",
      "outputs": [
        {
          "internalType": "uint256",
          "name": "totalCredits",
          "type": "uint256"
        },
        {
          "internalType": "uint256",
          "name": "usdPrice",
          "type": "uint256"
        },
        {
          "internalType": "string",
          "name": "packageName",
          "type": "string"
        },
        {
          "internalType": "string",
          "name": "agentCapabilities",
          "type": "string"
        },
        {
          "internalType": "bool",
          "name": "active",
          "type": "bool"
        }
      ],
      "stateMutability": "view",
      "type": "function"
    },
    {
      "inputs": [],
      "name": "priceOracle",
      "outputs": [
        {
          "internalType": "contract IPriceOracle",
          "name": "",
          "type": "address"
        }
      ],
      "stateMutability": "view",
      "type": "function"
    },
    {
      "inputs": [
        {
          "internalType": "uint256",
          "name": "packageType",
          "type": "uint256"
        }
      ],
      "name": "purchasePackageWithNativeS",
      "outputs": [
        {
          "internalType": "uint256",
          "name": "",
          "type": "uint256"
        }
      ],
      "stateMutability": "payable",
      "type": "function"
    },
    {
      "inputs": [
        {
          "internalType": "uint256",
          "name": "packageType",
          "type": "uint256"
        }
      ],
      "name": "purchasePackageWithUSDC",
      "outputs": [
        {
          "internalType": "uint256",
          "name": "",
          "type": "uint256"
        }
      ],
      "stateMutability": "nonpayable",
      "type": "function"
    },
    {
      "inputs": [
        {
          "internalType": "uint256",
          "name": "packageType",
          "type": "uint256"
        }
      ],
      "name": "purchasePackageWithWS",
      "outputs": [
        {
          "internalType": "uint256",
          "name": "",
          "type": "uint256"
        }
      ],
      "stateMutability": "nonpayable",
      "type": "function"
    },
    {
      "inputs": [],
      "name": "renounceOwnership",
      "outputs": [],
      "stateMutability": "nonpayable",
      "type": "function"
    },
    {
      "inputs": [
        {
          "internalType": "address",
          "name": "from",
          "type": "address"
        },
        {
          "internalType": "address",
          "name": "to",
          "type": "address"
        },
        {
          "internalType": "uint256",
          "name": "tokenId",
          "type": "uint256"
        }
      ],
      "name": "safeTransferFrom",
      "outputs": [],
      "stateMutability": "nonpayable",
      "type": "function"
    },
    {
      "inputs": [
        {
          "internalType": "address",
          "name": "from",
          "type": "address"
        },
        {
          "internalType": "address",
          "name": "to",
          "type": "address"
        },
        {
          "internalType": "uint256",
          "name": "tokenId",
          "type": "uint256"
        },
        {
          "internalType": "bytes",
          "name": "data",
          "type": "bytes"
        }
      ],
      "name": "safeTransferFrom",
      "outputs": [],
      "stateMutability": "nonpayable",
      "type": "function"
    },
    {
      "inputs": [
        {
          "internalType": "address",
          "name": "operator",
          "type": "address"
        },
        {
          "internalType": "bool",
          "name": "approved",
          "type": "bool"
        }
      ],
      "name": "setApprovalForAll",
      "outputs": [],
      "stateMutability": "nonpayable",
      "type": "function"
    },
    {
      "inputs": [
        {
          "internalType": "address",
          "name": "_generatedNFTContract",
          "type": "address"
        },
        {
          "internalType": "address",
          "name": "_srvcfloStaking",
          "type": "address"
        },
        {
          "internalType": "address",
          "name": "_devWallet",
          "type": "address"
        }
      ],
      "name": "setContracts",
      "outputs": [],
      "stateMutability": "nonpayable",
      "type": "function"
    },
    {
      "inputs": [
        {
          "internalType": "address[3]",
          "name": "winners",
          "type": "address[3]"
        },
        {
          "internalType": "bool",
          "name": "thresholdMet",
          "type": "bool"
        }
      ],
      "name": "setLeaderboard",
      "outputs": [],
      "stateMutability": "nonpayable",
      "type": "function"
    },
    {
      "inputs": [],
      "name": "srvcfloStaking",
      "outputs": [
        {
          "internalType": "address",
          "name": "",
          "type": "address"
        }
      ],
      "stateMutability": "view",
      "type": "function"
    },
    {
      "inputs": [
        {
          "internalType": "bytes4",
          "name": "interfaceId",
          "type": "bytes4"
        }
      ],
      "name": "supportsInterface",
      "outputs": [
        {
          "internalType": "bool",
          "name": "",
          "type": "bool"
        }
      ],
      "stateMutability": "view",
      "type": "function"
    },
    {
      "inputs": [],
      "name": "symbol",
      "outputs": [
        {
          "internalType": "string",
          "name": "",
          "type": "string"
        }
      ],
      "stateMutability": "view",
      "type": "function"
    },
    {
      "inputs": [
        {
          "internalType": "uint256",
          "name": "tokenId",
          "type": "uint256"
        }
      ],
      "name": "tokenURI",
      "outputs": [
        {
          "internalType": "string",
          "name": "",
          "type": "string"
        }
      ],
      "stateMutability": "view",
      "type": "function"
    },
    {
      "inputs": [],
      "name": "totalPackagesSold",
      "outputs": [
        {
          "internalType": "uint256",
          "name": "",
          "type": "uint256"
        }
      ],
      "stateMutability": "view",
      "type": "function"
    },
    {
      "inputs": [
        {
          "internalType": "address",
          "name": "from",
          "type": "address"
        },
        {
          "internalType": "address",
          "name": "to",
          "type": "address"
        },
        {
          "internalType": "uint256",
          "name": "tokenId",
          "type": "uint256"
        }
      ],
      "name": "transferFrom",
      "outputs": [],
      "stateMutability": "nonpayable",
      "type": "function"
    },
    {
      "inputs": [
        {
          "internalType": "address",
          "name": "newOwner",
          "type": "address"
        }
      ],
      "name": "transferOwnership",
      "outputs": [],
      "stateMutability": "nonpayable",
      "type": "function"
    },
    {
      "inputs": [
        {
          "internalType": "uint256",
          "name": "packageType",
          "type": "uint256"
        },
        {
          "components": [
            {
              "internalType": "uint256",
              "name": "totalCredits",
              "type": "uint256"
            },
            {
              "internalType": "uint256",
              "name": "usdPrice",
              "type": "uint256"
            },
            {
              "internalType": "string",
              "name": "packageName",
              "type": "string"
            },
            {
              "internalType": "string",
              "name": "agentCapabilities",
              "type": "string"
            },
            {
              "internalType": "bool",
              "name": "active",
              "type": "bool"
            }
          ],
          "internalType": "struct SrvcfloINFTPackages.PackageInfo",
          "name": "newPackage",
          "type": "tuple"
        }
      ],
      "name": "updatePackage",
      "outputs": [],
      "stateMutability": "nonpayable",
      "type": "function"
    },
    {
      "inputs": [],
      "name": "wS_TOKEN",
      "outputs": [
        {
          "internalType": "contract IERC20",
          "name": "",
          "type": "address"
        }
      ],
      "stateMutability": "view",
      "type": "function"
    }
  ],
  "bytecode": "0x6080604052346111e35761574360a0813803918261001c81611207565b9384928339810103126111e3576100328161122c565b9061003f6020820161122c565b61004b6040830161122c565b90610064608061005d6060860161122c565b940161122c565b9361006f6040611207565b601581527f53727663666c6f20494e4654205061636b61676573000000000000000000000060208201526100a36040611207565b600581526414d253919560da1b6020820152815190916001600160401b038211610a5a5760005490600182811c921680156111d9575b6020831014610a3a5781601f84931161116a575b50602090601f8311600114611104576000926110f9575b50508160011b916000199060031b1c1916176000555b8051906001600160401b038211610a5a5760015490600182811c921680156110ef575b6020831014610a3a5781601f84931161107f575b50602090601f83116001146110175760009261100c575b50508160011b916000199060031b1c1916176001555b6001600160a01b03168015610ff657600780546001600160a01b0319811683179091556001600160a01b03167f8be0079c531659141344cd1fd0a4f28419497f9722a3daafe3b4186f6b6457e0600080a360016008819055601455600980546001600160a01b03199081166001600160a01b0393841617909155600a8054821693831693909317909255600b8054831693821693909317909255600c8054909116929091169190911790556102316111e8565b6102ee815260208101624c4b40815261024a6040611207565b91601083526f14dd185c9d195c881052481059d95b9d60821b6020840152604081019283526102796060611207565b92603e84527f496d6167652067656e65726174696f6e2c206261736963207374796c65732c2060208501527f636f6c6c656374696f6e20696e666c75656e636520646574656374696f6e00006040850152606082019384526080820192600184526001600052601160205260406000209251835551600183015560028201905180519060018060401b038211610a5a57825490600182811c92168015610fec575b6020831014610a3a5781601f849311610f99575b50602090601f8311600114610f3457600092610f29575b50508160011b916000199060031b1c19161790555b9151805190929060038201906001600160401b038111610a5a578154600181811c91168015610f1f575b6020821014610a3a57601f8111610ed7575b506020601f8211600114610e6e57819060049596600092610e63575b50508160011b916000199060031b1c19161790555b019051151560ff801983541691161790556103e06111e8565b611f408152602081016302faf08081526103fa6040611207565b91600c83526b141c9bc81052481059d95b9d60a21b6020840152604081019283526104256080611207565b92604584527f496d616765202b20766964656f2067656e65726174696f6e2c20616476616e6360208501527f6564207374796c65732c206d756c74692d636f6c6c656374696f6e20696e666c60408501526475656e636560d81b6060850152606082019384526080820192600184526002600052601160205260406000209251835551600183015560028201905180519060018060401b038211610a5a57825490600182811c92168015610e59575b6020831014610a3a5781601f849311610e06575b50602090601f8311600114610da157600092610d96575b50508160011b916000199060031b1c19161790555b9151805190929060038201906001600160401b038111610a5a578154600181811c91168015610d8c575b6020821014610a3a57601f8111610d44575b506020601f8211600114610cdb57819060049596600092610cd0575b50508160011b916000199060031b1c19161790555b019051151560ff8019835416911617905561059a6111e8565b620186a0815260208101631dcd650081526105b56040611207565b916011835270109d5cda5b995cdcc81052481059d95b9d607a1b6020840152604081019283526105e56060611207565b603981527f46756c6c2067656e65726174696f6e2073756974652c20637573746f6d20776f6020808301919091527f726b666c6f77732c2062617463682070726f63657373696e67000000000000006040830152606083019182526001608084019081526003600052601190915291517f9bfbaa59f8e10e7868f8b402de9d605a390c45ddaebd8c9de3c6f31e733c87ff90815592517f9bfbaa59f8e10e7868f8b402de9d605a390c45ddaebd8c9de3c6f31e733c880055925180519192917f9bfbaa59f8e10e7868f8b402de9d605a390c45ddaebd8c9de3c6f31e733c8801916001600160401b038211610a5a57825490600182811c92168015610cc6575b6020831014610a3a5781601f849311610c73575b50602090601f8311600114610c0e57600092610c03575b50508160011b916000199060031b1c19161790555b9151805190929060038201906001600160401b038111610a5a578154600181811c91168015610bf9575b6020821014610a3a57601f8111610bb1575b506020601f8211600114610b4857819060049596600092610b3d575b50508160011b916000199060031b1c19161790555b019051151560ff801983541691161790556107ab6111e8565b6203f7a0815260208101634a817c8081526107c66040611207565b91601383527f456e7465727072697365204149204167656e74000000000000000000000000006020840152604081019283526108026080611207565b92604584527f416476616e636564204149206d6f64656c732c20756e6c696d6974656420737460208501527f796c65732c20415049206163636573732c2077686974652d6c6162656c206f7060408501526474696f6e7360d81b6060850152606082019384526080820192600184526004600052601160205260406000209251835551600183015560028201905180519060018060401b038211610a5a57825490600182811c92168015610b33575b6020831014610a3a5781601f849311610ae0575b50602090601f8311600114610a7b57600092610a70575b50508160011b916000199060031b1c19161790555b9151805190929060038201906001600160401b038111610a5a578154600181811c91168015610a50575b6020821014610a3a57601f81116109f2575b506020601f82116001146109895781906004959660009261097e575b50508160011b916000199060031b1c19161790555b019051151560ff8019835416911617905560405161450290816112418239f35b015190503880610949565b601f1982169583600052816000209660005b8181106109da57509160049697918460019594106109c1575b505050811b01905561095e565b015160001960f88460031b161c191690553880806109b4565b8383015189556001909801976020938401930161099b565b826000526020600020601f830160051c81019160208410610a30575b601f0160051c01905b818110610a24575061092d565b60008155600101610a17565b9091508190610a0e565b634e487b7160e01b600052602260045260246000fd5b90607f169061091b565b634e487b7160e01b600052604160045260246000fd5b0151905038806108dc565b60008581528281209350601f198516905b818110610ac85750908460019594939210610aaf575b505050811b0190556108f1565b015160001960f88460031b161c19169055388080610aa2565b92936020600181928786015181550195019301610a8c565b909150836000526020600020601f840160051c81019160208510610b29575b90601f859493920160051c01905b818110610b1a57506108c5565b60008155849350600101610b0d565b9091508190610aff565b91607f16916108b1565b01519050388061077d565b601f1982169583600052816000209660005b818110610b995750916004969791846001959410610b80575b505050811b019055610792565b015160001960f88460031b161c19169055388080610b73565b83830151895560019098019760209384019301610b5a565b826000526020600020601f830160051c81019160208410610bef575b601f0160051c01905b818110610be35750610761565b60008155600101610bd6565b9091508190610bcd565b90607f169061074f565b015190503880610710565b60008581528281209350601f198516905b818110610c5b5750908460019594939210610c42575b505050811b019055610725565b015160001960f88460031b161c19169055388080610c35565b92936020600181928786015181550195019301610c1f565b909150836000526020600020601f840160051c81019160208510610cbc575b90601f859493920160051c01905b818110610cad57506106f9565b60008155849350600101610ca0565b9091508190610c92565b91607f16916106e5565b01519050388061056c565b601f1982169583600052816000209660005b818110610d2c5750916004969791846001959410610d13575b505050811b019055610581565b015160001960f88460031b161c19169055388080610d06565b83830151895560019098019760209384019301610ced565b826000526020600020601f830160051c81019160208410610d82575b601f0160051c01905b818110610d765750610550565b60008155600101610d69565b9091508190610d60565b90607f169061053e565b0151905038806104ff565b60008581528281209350601f198516905b818110610dee5750908460019594939210610dd5575b505050811b019055610514565b015160001960f88460031b161c19169055388080610dc8565b92936020600181928786015181550195019301610db2565b909150836000526020600020601f840160051c81019160208510610e4f575b90601f859493920160051c01905b818110610e4057506104e8565b60008155849350600101610e33565b9091508190610e25565b91607f16916104d4565b0151905038806103b2565b601f1982169583600052816000209660005b818110610ebf5750916004969791846001959410610ea6575b505050811b0190556103c7565b015160001960f88460031b161c19169055388080610e99565b83830151895560019098019760209384019301610e80565b826000526020600020601f830160051c81019160208410610f15575b601f0160051c01905b818110610f095750610396565b60008155600101610efc565b9091508190610ef3565b90607f1690610384565b015190503880610345565b60008581528281209350601f198516905b818110610f815750908460019594939210610f68575b505050811b01905561035a565b015160001960f88460031b161c19169055388080610f5b565b92936020600181928786015181550195019301610f45565b909150836000526020600020601f840160051c81019160208510610fe2575b90601f859493920160051c01905b818110610fd3575061032e565b60008155849350600101610fc6565b9091508190610fb8565b91607f169161031a565b631e4fbdf760e01b600052600060045260246000fd5b015190503880610168565b600160009081528281209350601f198516905b818110611067575090846001959493921061104e575b505050811b0160015561017e565b015160001960f88460031b161c19169055388080611040565b9293602060018192878601518155019501930161102a565b60016000529091507fb10e2d527612073b26eecdfd717e6a320cf44b4afac2b0732d9fcbe2b7fa0cf6601f840160051c810191602085106110e5575b90601f859493920160051c01905b8181106110d65750610151565b600081558493506001016110c9565b90915081906110bb565b91607f169161013d565b015190503880610104565b60008080528281209350601f198516905b8181106111525750908460019594939210611139575b505050811b0160005561011a565b015160001960f88460031b161c1916905538808061112b565b92936020600181928786015181550195019301611115565b600080529091507f290decd9548b62a8d60345a988386fc84ba6bc95484008f6362f93160ef3e563601f840160051c810191602085106111cf575b90601f859493920160051c01905b8181106111c057506100ed565b600081558493506001016111b3565b90915081906111a5565b91607f16916100d9565b600080fd5b6040519060a082016001600160401b03811183821017610a5a57604052565b6040519190601f01601f191682016001600160401b03811183821017610a5a57604052565b51906001600160a01b03821682036111e35756fe608080604052600436101561001357600080fd5b60003560e01c90816301ffc9a7146125075750806306fdde0314612462578063081812fc14612424578063095ea7b31461233557806310899fd01461231957806315ab786a1461199557806323b872dd146123025780632630c12f146122d95780632712448614611f0d57806335ccc44714611b3457806338edf50d14611a7a57806342842e0e14611a4a57806342966c6814611a2d578063454a9c3314611a105780635908a73f146119955780635b382f35146119095780636352211e146118d957806364e4ffb4146116ce578063707e8d71146113e257806370a08231146113b7578063715018a61461135a5780637453f11e146111e55780637f4cfb36146111c95780638252411c146111ad578063874f42a014610cc457806389a3027114610c955780638da5cb5b14610c6c5780638ea5220f14610c4357806394a6dd2614610a0357806395d89b4114610936578063982de932146109075780639d87a402146108eb578063a1f1ca7a146108c2578063a22cb46514610818578063a4a848ec146107a4578063ad35e13414610710578063b3066d4914610683578063b88d4fde14610616578063c216212a1461056f578063c87b56dd1461053c578063cb77a8db146104c7578063cca2a55c146104a4578063cf7213ce14610486578063deef53781461039f578063e55de2c614610383578063e985e9c514610328578063f2fde38b1461029e578063f70e383d146102755763ff1554671461023a57600080fd5b3461027057602036600319011261027057600435600381101561027057600d01546040516001600160a01b039091168152602090f35b600080fd5b3461027057600036600319011261027057600b546040516001600160a01b039091168152602090f35b34610270576020366003190112610270576102b76125d4565b6102bf613dc1565b6001600160a01b0316801561031257600780546001600160a01b0319811683179091556001600160a01b03167f8be0079c531659141344cd1fd0a4f28419497f9722a3daafe3b4186f6b6457e0600080a3005b631e4fbdf760e01b600052600060045260246000fd5b34610270576040366003190112610270576103416125d4565b6103496125ea565b9060018060a01b0316600052600560205260406000209060018060a01b0316600052602052602060ff604060002054166040519015158152f35b3461027057600036600319011261027057602060405160048152f35b34610270576020366003190112610270576103b86125d4565b6103c181612a1e565b6103ca81612a07565b906103d86040519283612689565b8082526103e7601f1991612a07565b013660208301376014546000926001600160a01b031660015b828110610421576040516020808252819061041d9082018761263a565b0390f35b6000818152600260205260409020546001600160a01b03168214610448575b600101610400565b938351811015610470576104688186602060019460051b88010152612b74565b949050610440565b634e487b7160e01b600052603260045260246000fd5b34610270576000366003190112610270576020601554604051908152f35b3461027057600036600319011261027057602060ff601054166040519015158152f35b34610270576080366003190112610270573660641161027057606435801515809103610270576104f5613dc1565b600060045b60038210610516578260ff801960105416911617601055600080f35b8035916001600160a01b0383168303610270576020600192019281600d015501906104fa565b346102705760203660031901126102705761041d61055b600435614088565b6040519182916020835260208301906125af565b346102705760203660031901126102705760043560005260116020526040600020805460018201549161060a604051916105b7836105b08160028501612754565b0384612689565b6105fc60ff6004604051936105da856105d38160038501612754565b0386612689565b015416936040519687968752602087015260a0604087015260a08601906125af565b9084820360608601526125af565b90151560808301520390f35b346102705760803660031901126102705761062f6125d4565b6106376125ea565b90604435606435926001600160401b03841161027057366023850112156102705761066f6106819436906024816004013591016126c5565b9261067b8383836127d7565b33613fa1565b005b346102705760603660031901126102705761069c6125d4565b6106a46125ea565b6044356001600160a01b0381169290839003610270576106c2613dc1565b60018060a01b03166001600160601b0360a01b600954161760095560018060a01b03166001600160601b0360a01b600b541617600b556001600160601b0360a01b600c541617600c55600080f35b3461027057600036600319011261027057610729613dc1565b600c54610747906001600160a01b03166107416129d4565b90612eb1565b50600c54610766906001600160a01b03166107606129d4565b906130fb565b50600c54610785906001600160a01b031661077f6129d4565b906133a4565b50600c54610681906001600160a01b031661079e6129d4565b906136aa565b346102705760203660031901126102705760043560005260126020526040600020805461041d600460018401549360028101546107f06003830154926105b06040518096819301612754565b604051958695865260208601526040850152606084015260a0608084015260a08301906125af565b34610270576040366003190112610270576108316125d4565b6024359081151590818303610270576001600160a01b03169182156108ad5761087f9033600052600560205260406000208460005260205260406000209060ff801983541691151516179055565b6040519081527f17307eab39ab6107e8899845ad3d59bd9653f200f220920489ca2b5937696c3160203392a3005b82630b61174360e31b60005260045260246000fd5b34610270576000366003190112610270576009546040516001600160a01b039091168152602090f35b3461027057600036600319011261027057602060405160c88152f35b3461027057600036600319011261027057602060405173039e2fb66102314ce7b64ce5ce3e5183bc94ad388152f35b346102705760003660031901126102705760405160006001546109588161271a565b80845290600181169081156109df5750600114610980575b61041d8361055b81850382612689565b600160009081527fb10e2d527612073b26eecdfd717e6a320cf44b4afac2b0732d9fcbe2b7fa0cf6939250905b8082106109c55750909150810160200161055b610970565b9192600181602092548385880101520191019092916109ad565b60ff191660208086019190915291151560051b8401909101915061055b9050610970565b34610270576040366003190112610270576024356001600160401b03811161027057806004019060a0600319823603011261027057610a40613dc1565b6004356000526011602052604060002090823582556024810135600183015560028201610a706044830185612abc565b906001600160401b038211610bc957610a9382610a8d855461271a565b85612b2f565b600090601f8311600114610bdf57610ac4929160009183610b57575b50508160011b916000199060031b1c19161790565b90555b610ad960038301936064830190612abc565b6001600160401b038195929511610bc957610afe81610af8845461271a565b84612b2f565b6000601f8211600114610b62579080610b319260849697600092610b575750508160011b916000199060031b1c19161790565b90555b0135801515810361027057600461068192019060ff801983541691151516179055565b013590508780610aaf565b8281526020812090601f198316815b818110610bb15750968392916001946084989910610b97575b505050811b019055610b34565b0135600019600384901b60f8161c19169055868080610b8a565b9192602060018192868c013581550194019201610b71565b634e487b7160e01b600052604160045260246000fd5b8382526020822091601f198416815b818110610c2b5750908460019594939210610c11575b505050811b019055610ac7565b0135600019600384901b60f8161c19169055868080610c04565b91936020600181928787013581550195019201610bee565b3461027057600036600319011261027057600c546040516001600160a01b039091168152602090f35b34610270576000366003190112610270576007546040516001600160a01b039091168152602090f35b346102705760003660031901126102705760206040517329219dd400f2bf60e5a23d13be72b486d40388948152f35b34610270576080366003190112610270576004356024356001600160401b03811161027057610cf79036906004016126fc565b906044359182151590818403610270576064356001600160401b03811161027057610d269036906004016126fc565b90610d2f612dc1565b610d393385613dea565b15611177576020610df88194866000526012835260406000209388600014611170576101f45b60028601610d87828254610d82610d768383612a54565b60018c01541015612a61565b612a54565b9055336001600160a01b03610d9b8b612b83565b1603611143575b506009546001600160a01b031691600090610dbc8a612b83565b6040516335f9ad6560e21b81526001600160a01b03909116600482015260c060248201529889958694859392610e1792909160c48601906125af565b601c85820360031981016044880152878352016064860152018a6125af565b9060848301528a60a483015203925af1928315611137576000936110ff575b506006018054600160401b811015610bc957610e5791600182018155612aa4565b815460001960039290921b91821b19169084901b179055600083815260126020526040812060040194156110d75750604051610e94604082612689565b60068152653a766964656f60d01b6020820152935b6040519485600093835494610ebd8661271a565b6001871680156110b65760011461107a575b50926009918468163632b0b93732b21d60b91b610f1e9652610efa825180936020878501910161258c565b01610f0e825180936020868501910161258c565b010103601f198101875286612689565b84516001600160401b038111610bc957602095610f3f82610a8d889661271a565b8690601f8311600114610fec5782610fa9937f859fac2fc059a2fa38efe7236e1c16278c1519298d62dd05582ff7fa392a10459593610f9493600092610fe15750508160011b916000199060031b1c19161790565b81555b60405191829188835288830190612754565b0390a2604051918133917fd41df7a83a3e0bc5a86166d6d2c11d78cca09cbb44555ca28f79bf88858595bc600080a460016008558152f35b015190508a80610aaf565b90601f1983169184600052816000209260005b8181106110605750926001928592610fa9967f859fac2fc059a2fa38efe7236e1c16278c1519298d62dd05582ff7fa392a1045989610611047575b505050811b018155610f97565b015160001960f88460031b161c1916905589808061103a565b828401518555899750600190940193928a01928a01610fff565b90508460005260206000206000905b82821061109e57505082016020016009610ecf565b805460209583018601528a9490910190600101611089565b5060ff19871660208581019190915281151590910284010190506009610ecf565b506040516110e6604082612689565b60068152653a696d61676560d01b602082015293610ea9565b90926020823d60201161112f575b8161111a60209383612689565b8101031261112c575051916006610e36565b80fd5b3d915061110d565b6040513d6000823e3d90fd5b6000898152601386526040808220338352875290206001018054909161116891612a54565b905589610da2565b60c8610d5f565b60405162461bcd60e51b815260206004820152600e60248201526d139bdd08185d5d1a1bdc9a5e995960921b6044820152606490fd5b3461027057600036600319011261027057602060405160038152f35b3461027057600036600319011261027057602060405160018152f35b34610270576080366003190112610270576004356112016125ea565b906044359160643561121283612b83565b336001600160a01b03909116036113215783151580611318575b156112de577f15bc7fb1465b291df82a6f54fa1cad8d565a3534e3bc5e2d2811004211dbeeaa91604091846000526012602052611280836000206112798860026001840154930154612a54565b1115612a61565b8460005260136020526003838060002060009060018060a01b038616825260205220878155600060018201556112b68342612a54565b600282015501805460ff19166001179055825195865260208601526001600160a01b031693a3005b60405162461bcd60e51b8152602060048201526012602482015271496e76616c696420706172616d657465727360701b6044820152606490fd5b5080151561122c565b60405162461bcd60e51b81526020600482015260116024820152702737ba103830b1b5b0b3b29037bbb732b960791b6044820152606490fd5b3461027057600036600319011261027057611373613dc1565b600780546001600160a01b031981169091556000906001600160a01b03167f8be0079c531659141344cd1fd0a4f28419497f9722a3daafe3b4186f6b6457e08280a3005b346102705760203660031901126102705760206113da6113d56125d4565b612a1e565b604051908152f35b6020366003190112610270576004356113f9612dc1565b806000526011602052611485604060002060806040516114188161266e565b8254815260ff600460018501549460208401958652604051611448816114418160028601612754565b0382612689565b6040850152604051611461816114418160038601612754565b606085015201541615159182910152806116c4575b61147f9061297e565b51613cbc565b9081341061168757813411611654575b6019820282159083810460191482171561163e576064900492600f8102818104600f1483171561163e57606490049160328202918204603214171561163e576064900492801580158061162a575b6115fa575b505060ff60105416806115f1575b61158c575b50908015801580611578575b611548575b60208361153c6040918251906115228483612689565b60088252674e6174697665205360c01b8583015233613995565b90600160085551908152f35b6000808093819360018060a01b03600c541690839061156f575bf11561113757818061150c565b506108fc611562565b50600c546001600160a01b03161515611507565b600390049060005b60038110156115e857600d81015483906001600160a01b03166000816115c0575b505050600101611594565b6000809381938293508282156115df575bf115611137578285806115b5565b506108fc6115d1565b509050826114fb565b508015156114f6565b6000808093819360018060a01b03600b5416908390611621575bf1156111375783806114e8565b506108fc611614565b50600b546001600160a01b031615156114e3565b634e487b7160e01b600052601160045260246000fd5b600080808061166386346129fa565b81811561167e575b3390f1611495576040513d6000823e3d90fd5b506108fc61166b565b60405162461bcd60e51b8152602060048201526015602482015274496e73756666696369656e74204e6174697665205360581b6044820152606490fd5b5080511515611476565b34610270576020366003190112610270576004356000818152600260205260409020546001600160a01b03161561189b576000526012602052604060002080549060018101549160028201549161172583856129fa565b906004600582019261174c60068401936117456040518095819301612754565b0383612689565b83549561175887612a07565b966117666040519889612689565b80885260208801809660005260206000206000915b83831061186a575050505060405193846020825491828152019160005260206000209060005b81811061185457505050906117bd856117e59594930386612689565b604051988997885260208801526040870152606086015260e0608086015260e08501906125af565b9383850360a085015251808552602085019460208260051b82010193956000915b83831061182157868061041d888883820360c085015261263a565b919395509193602080611840600193601f198682030187528a516125af565b980193019301909287959396949296611806565b82548452602090930192600192830192016117a1565b60016020819260409e9b9c9d9a9e51611887816114418189612754565b8152019201920191909a969998979a61177b565b60405162461bcd60e51b8152602060048201526016602482015275141858dad859d948191bd95cc81b9bdd08195e1a5cdd60521b6044820152606490fd5b346102705760203660031901126102705760206118f7600435612b83565b6040516001600160a01b039091168152f35b34610270576040366003190112610270576004356119256125ea565b61192d613dc1565b81600052601160205260ff600460406000200154161561195957610681916119536129d4565b91613995565b60405162461bcd60e51b8152602060048201526014602482015273496e76616c6964207061636b616765207479706560601b6044820152606490fd5b346102705760403660031901126102705760406119b06125ea565b60043560005260136020528160002060009160018060a01b0316825260205220805461041d60018301549260ff60036002830154920154169060405194859485926060929594919560808501968552602085015260408401521515910152565b346102705760003660031901126102705760206040516101f48152f35b346102705760203660031901126102705761068133600435612bba565b3461027057610681611a5b36612600565b9060405192611a6b602085612689565b6000845261067b8383836127d7565b3461027057602036600319011261027057600435600052601160205260806040600020611b0382604051611aad8161266e565b8354815260ff600460018601549560208401968752604051611ad6816114418160028601612754565b6040850152604051611aef816114418160038601612754565b60608501520154161515918291015261297e565b805190611b0f82613cbc565b90611b1a8151612de3565b905191604051938452602084015260408301526060820152f35b3461027057602036600319011261027057600435611b50612dc1565b80600052601160205260406000206080604051611b6c8161266e565b8254815260ff600460018501549460208401958652604051611b95816114418160028601612754565b6040850152604051611bae816114418160038601612754565b60608501520154161515918291015280611f03575b611bcc9061297e565b80516040516323b872dd60e01b8152336004820152306024820152604481019190915260208160648160007329219dd400f2bf60e5a23d13be72b486d40388945af190811561113757600091611ee4575b5015611ea85751906019820282159083810460191482171561163e576064900492600f8102818104600f1483171561163e57606490049160328202918204603214171561163e57606490049280151580611e94575b611e23575b5060ff6010541680611e1a575b611d61575b5081151580611d4d575b611cc4575b60209061153c604091825190611cae8483612689565b60048252635553444360e01b8583015233613995565b600c5460405163a9059cbb60e01b81526001600160a01b039091166004820152602481019290925260208260448160007329219dd400f2bf60e5a23d13be72b486d40388945af191821561113757602092611d20575b50611c98565b611d3f90833d8511611d46575b611d378183612689565b8101906129bc565b5082611d1a565b503d611d2d565b50600c546001600160a01b03161515611c93565b600390049160005b6003811015611e1157600d8101548491906001600160a01b0316600081611d97575b50506001915001611d69565b5060405163a9059cbb60e01b81526001600160a01b03919091166004820152602481019290925260208260448160007329219dd400f2bf60e5a23d13be72b486d40388945af191821561113757600192611df3575b8592611d8b565b611e0a9060203d8111611d4657611d378183612689565b5085611dec565b50915082611c89565b50801515611c84565b600b5460405163a9059cbb60e01b81526001600160a01b039091166004820152602481019190915260208160448160007329219dd400f2bf60e5a23d13be72b486d40388945af180156111375715611c7757611e8d9060203d602011611d4657611d378183612689565b5083611c77565b50600b546001600160a01b03161515611c72565b60405162461bcd60e51b81526020600482015260146024820152731554d110c81d1c985b9cd9995c8819985a5b195960621b6044820152606490fd5b611efd915060203d602011611d4657611d378183612689565b83611c1d565b5080511515611bc3565b3461027057602036600319011261027057600435611f29612dc1565b806000526011602052611fae60406000206080604051611f488161266e565b8254815260ff600460018501549460208401958652604051611f71816114418160028601612754565b6040850152604051611f8a816114418160038601612754565b606085015201541615159182910152806122cf575b611fa89061297e565b51612de3565b6040516323b872dd60e01b815233600482015230602482015260448101829052909190602081606481600073039e2fb66102314ce7b64ce5ce3e5183bc94ad385af1908115611137576000916122b0575b5015612276576019820282159083810460191482171561163e576064900492600f8102818104600f1483171561163e57606490049160328202918204603214171561163e57606490049280151580612262575b6121f1575b5060ff60105416806121e8575b61212f575b508115158061211b575b6120a2575b60209061153c60409182519061208e8483612689565b6002825261775360f01b8583015233613995565b600c5460405163a9059cbb60e01b81526001600160a01b0390911660048201526024810192909252602082604481600073039e2fb66102314ce7b64ce5ce3e5183bc94ad385af1918215611137576020926120fe575b50612078565b61211490833d8511611d4657611d378183612689565b50826120f8565b50600c546001600160a01b03161515612073565b600390049160005b60038110156121df57600d8101548491906001600160a01b0316600081612165575b50506001915001612137565b5060405163a9059cbb60e01b81526001600160a01b039190911660048201526024810192909252602082604481600073039e2fb66102314ce7b64ce5ce3e5183bc94ad385af1918215611137576001926121c1575b8592612159565b6121d89060203d8111611d4657611d378183612689565b50856121ba565b50915082612069565b50801515612064565b600b5460405163a9059cbb60e01b81526001600160a01b0390911660048201526024810191909152602081604481600073039e2fb66102314ce7b64ce5ce3e5183bc94ad385af1801561113757156120575761225b9060203d602011611d4657611d378183612689565b5083612057565b50600b546001600160a01b03161515612052565b60405162461bcd60e51b81526020600482015260126024820152711dd4c81d1c985b9cd9995c8819985a5b195960721b6044820152606490fd5b6122c9915060203d602011611d4657611d378183612689565b83611fff565b5080511515611f9f565b3461027057600036600319011261027057600a546040516001600160a01b039091168152602090f35b346102705761068161231336612600565b916127d7565b3461027057600036600319011261027057602060405160028152f35b346102705760403660031901126102705761234e6125d4565b60243561235a81612b83565b33151580612411575b806123e3575b6123ce5781906001600160a01b0384811691167f8c5be1e5ebec7d5bd14f71427d1e84f3dd0314c0f7b2291e5b200ac8c7c3b925600080a4600090815260046020526040902080546001600160a01b0319166001600160a01b03909216919091179055005b63a9fbf51f60e01b6000523360045260246000fd5b506001600160a01b038116600090815260056020908152604080832033845290915290205460ff1615612369565b506001600160a01b038116331415612363565b346102705760203660031901126102705760043561244181612b83565b506000526004602052602060018060a01b0360406000205416604051908152f35b3461027057600036600319011261027057604051600080546124838161271a565b80845290600181169081156109df57506001146124aa5761041d8361055b81850382612689565b60008080527f290decd9548b62a8d60345a988386fc84ba6bc95484008f6362f93160ef3e563939250905b8082106124ed5750909150810160200161055b610970565b9192600181602092548385880101520191019092916124d5565b34610270576020366003190112610270576004359063ffffffff60e01b821680920361027057602091632483248360e11b8114908115612549575b5015158152f35b6380ac58cd60e01b81149150811561257b575b811561256a575b5083612542565b6301ffc9a760e01b14905083612563565b635b5e139f60e01b8114915061255c565b60005b83811061259f5750506000910152565b818101518382015260200161258f565b906020916125c88151809281855285808601910161258c565b601f01601f1916010190565b600435906001600160a01b038216820361027057565b602435906001600160a01b038216820361027057565b6060906003190112610270576004356001600160a01b038116810361027057906024356001600160a01b0381168103610270579060443590565b906020808351928381520192019060005b8181106126585750505090565b825184526020938401939092019160010161264b565b60a081019081106001600160401b03821117610bc957604052565b90601f801991011681019081106001600160401b03821117610bc957604052565b6001600160401b038111610bc957601f01601f191660200190565b9291926126d1826126aa565b916126df6040519384612689565b829481845281830111610270578281602093846000960137010152565b9080601f8301121561027057816020612717933591016126c5565b90565b90600182811c9216801561274a575b602083101461273457565b634e487b7160e01b600052602260045260246000fd5b91607f1691612729565b600092918154916127648361271a565b80835292600181169081156127ba575060011461278057505050565b60009081526020812093945091925b8383106127a0575060209250010190565b60018160209294939454838587010152019101919061278f565b915050602093945060ff929192191683830152151560051b010190565b6001600160a01b0390911691908215612968576000828152600260205260408120546001600160a01b03169383918590331515806128d0575b507fddf252ad1be2c89b69c2b068fc378daa952ba7f163c4a11628f55a4df523b3ef908261289b575b83815260036020526040812060018154019055848152600260205260408120846001600160601b0360a01b82541617905580a46001600160a01b031680830361288157505050565b6364283d7b60e01b60005260045260245260445260646000fd5b600085815260046020526040902080546001600160a01b03191690558281526003602052604081208054600019019055612839565b915091925080612919575b156128ea579084849238612810565b83908561290357602491637e27328960e01b8252600452fd5b60449163177e802f60e01b825233600452602452fd5b503385148015612947575b806128db5750838152600460205260408120546001600160a01b031633146128db565b5084815260056020908152604080832033845290915281205460ff16612924565b633250574960e11b600052600060045260246000fd5b1561298557565b60405162461bcd60e51b815260206004820152600f60248201526e496e76616c6964207061636b61676560881b6044820152606490fd5b90816020910312610270575180151581036102705790565b604051906129e3604083612689565b600882526711195d88135a5b9d60c21b6020830152565b9190820391821161163e57565b6001600160401b038111610bc95760051b60200190565b6001600160a01b03168015612a3e57600052600360205260406000205490565b6322718ad960e21b600052600060045260246000fd5b9190820180921161163e57565b15612a6857565b60405162461bcd60e51b8152602060048201526014602482015273496e73756666696369656e74206372656469747360601b6044820152606490fd5b80548210156104705760005260206000200190600090565b903590601e198136030182121561027057018035906001600160401b0382116102705760200191813603831361027057565b818110612af9575050565b60008155600101612aee565b90601f8111612b12575050565b612b2d91600052601f6020600020910160051c810190612aee565b565b9190601f8111612b3e57505050565b612b2d926000526020600020906020601f840160051c83019310612b6a575b601f0160051c0190612aee565b9091508190612b5d565b600019811461163e5760010190565b6000818152600260205260409020546001600160a01b0316908115612ba6575090565b637e27328960e01b60005260045260246000fd5b6000818152600260205260409020546001600160a01b03908116921680151580612c62575b505081612c2b575b600081815260026020526040812080546001600160a01b0319169055827fddf252ad1be2c89b69c2b068fc378daa952ba7f163c4a11628f55a4df523b3ef8280a490565b600081815260046020526040902080546001600160a01b031916905581600052600360205260406000206000198154019055612be7565b80612ca4575b15612c735780612bdf565b82612c8d5750637e27328960e01b60005260045260246000fd5b63177e802f60e01b60005260045260245260446000fd5b508083148015612cd4575b80612c6857506000828152600460205260409020546001600160a01b03168114612c68565b5082600052600560205260406000208160005260205260ff60406000205416612caf565b6000828152600260205260409020546001600160a01b0316919082612d8a575b6001600160a01b031680612d70575b8160005260026020526040600020816001600160601b0360a01b825416179055827fddf252ad1be2c89b69c2b068fc378daa952ba7f163c4a11628f55a4df523b3ef600080a490565b806000526003602052604060002060018154019055612d27565b600082815260046020526040902080546001600160a01b031916905582600052600360205260406000206000198154019055612d18565b600260085414612dd2576002600855565b633ee5aeb560e01b60005260046000fd5b600a546001600160a01b03169081612e1457612717915073039e2fb66102314ce7b64ce5ce3e5183bc94ad386140c5565b60206044926040519384809263968534bf60e01b825273039e2fb66102314ce7b64ce5ce3e5183bc94ad3860048301528560248301525afa60009281612e7d575b50612e7957612717915073039e2fb66102314ce7b64ce5ce3e5183bc94ad386140c5565b5090565b9092506020813d602011612ea9575b81612e9960209383612689565b8101031261027057519138612e55565b3d9150612e8c565b91909160145490612ec182612b74565b601455600160005260116020526040519360ff60047f17bc176d2408558f6e4111feebc3cab4e16b63e967be91cde721f4c8a488b552612f008861266e565b8054885260018101546020890152604051612f22816114418160028601612754565b6040890152604051612f3b816114418160038601612754565b60608901520154161515608086015260209460405192612f5b8785612689565b600084526001600160a01b038116938415612968576001600160a01b03612f828784612cf8565b166130e55785612f929233613e60565b836000526012865260406000209060018255516001820155600060028201554260038201556004612fc36001614178565b9101908051906001600160401b038211610bc957612fe582610a8d855461271a565b8790601f8311600114613066579360409361302e84899a9b95613055956000805160206144d68339815191529960009261305b5750508160011b916000199060031b1c19161790565b90555b61303c601554612b74565b60155583519384936001855284015260408301906125af565b0390a390565b015190503880610aaf565b90601f1983169184600052896000209260005b8181106130ce575084613055946000805160206144d68339815191529894604098948c9d9e98600195106130b5575b505050811b019055613031565b015160001960f88460031b161c191690553880806130a8565b92938b600181928786015181550195019301613079565b6339e3563760e11b600052600060045260246000fd5b906014549161310983612b74565b601455600260005260116020526040519160ff60047f08037d7b151cc412d25674a4e66b334d9ae9d2e5517a7feaae5cdb828bf1c6286131488661266e565b805486526001810154602087015260405161316a816114418160028601612754565b6040870152604051613183816114418160038601612754565b606087015201541615156080840152602092604051926131a38585612689565b600084526001600160a01b038116938415612968576001600160a01b036131ca8884612cf8565b166130e557866131da9233613e60565b846000526012845260406000209060028255516001820155600060028201554260038201556132096002614178565b805160048301916001600160401b038211610bc95761322c82610a8d855461271a565b8690601f831160011461333957918061326092600596959460009261305b5750508160011b916000199060031b1c19161790565b90555b018054600160401b811015610bc9578060016132829201835582612aa4565b61332357613299613293825461271a565b82612b05565b600c6518985b991a5d60d21b0190558054600160401b811015610bc9576132c591600182018155612aa4565b919091613323578493613055604092846132f16132936000805160206144d6833981519152975461271a565b60086335b4b23d60e11b01905560155461330a90612b74565b60155583519384936002855284015260408301906125af565b634e487b7160e01b600052600060045260246000fd5b90601f1983169184600052886000209260005b8a82821061338e57505091600193918560059897969410613375575b505050811b019055613263565b015160001960f88460031b161c19169055388080613368565b600185968293968601518155019501930161334c565b90601454916133b283612b74565b601455600360005260116020526040519160ff60047f9bfbaa59f8e10e7868f8b402de9d605a390c45ddaebd8c9de3c6f31e733c87ff6133f18661266e565b8054865260018101546020870152604051613413816114418160028601612754565b604087015260405161342c816114418160038601612754565b6060870152015416151560808401526020926040519261344c8585612689565b600084526001600160a01b038116938415612968576001600160a01b036134738884612cf8565b166130e557866134839233613e60565b846000526012845260406000209060038255516001820155600060028201554260038201556134b26003614178565b805160048301916001600160401b038211610bc9576134d582610a8d855461271a565b8690601f831160011461363f57918061350992600596959460009261305b5750508160011b916000199060031b1c19161790565b90555b018054600160401b811015610bc95780600161352b9201835582612aa4565b6133235761353c613293825461271a565b600c6518985b991a5d60d21b0190558054600160401b811015610bc9578060016135699201835582612aa4565b6133235761357a613293825461271a565b60086335b4b23d60e11b0190558054600160401b811015610bc9578060016135a59201835582612aa4565b613323576135b6613293825461271a565b6008630646572760e41b0190558054600160401b811015610bc9576135e091600182018155612aa4565b9190916133235784936130556040928461360c6132936000805160206144d6833981519152975461271a565b600a64736f6e696360d81b01905560155461362690612b74565b60155583519384936003855284015260408301906125af565b90601f1983169184600052886000209260005b8a8282106136945750509160019391856005989796941061367b575b505050811b01905561350c565b015160001960f88460031b161c1916905538808061366e565b6001859682939686015181550195019301613652565b90601454916136b883612b74565b6014556004600052601160205260406000209160ff6004604051946136dc8661266e565b80548652600181015460208701526040516136fe816114418160028601612754565b6040870152604051613717816114418160038601612754565b606087015201541615156080840152602092604051926137378585612689565b600084526001600160a01b038116938415612968576001600160a01b0361375e8884612cf8565b166130e5578661376e9233613e60565b8460005260128452604060002090600482555160018201556000600282015542600382015561379d6004614178565b805160048301916001600160401b038211610bc9576137c082610a8d855461271a565b8690601f831160011461392a5791806137f492600596959460009261305b5750508160011b916000199060031b1c19161790565b90555b018054600160401b811015610bc9578060016138169201835582612aa4565b61332357613827613293825461271a565b600c6518985b991a5d60d21b0190558054600160401b811015610bc9578060016138549201835582612aa4565b61332357613865613293825461271a565b60086335b4b23d60e11b0190558054600160401b811015610bc9578060016138909201835582612aa4565b613323576138a1613293825461271a565b6008630646572760e41b0190558054600160401b811015610bc9576138cb91600182018155612aa4565b919091613323578493613055604092846138f76132936000805160206144d6833981519152975461271a565b600a64736f6e696360d81b01905560155461391190612b74565b60155583519384936004855284015260408301906125af565b90601f1983169184600052886000209260005b8a82821061397f57505091600193918560059897969410613966575b505050811b0190556137f7565b015160001960f88460031b161c19169055388080613959565b600185968293968601518155019501930161393d565b6014549193926139a483612b74565b60145584600052601160205260406000209460ff6004604051976139c78961266e565b80548952600181015460208a01526040516139e9816114418160028601612754565b60408a0152604051613a02816114418160038601612754565b60608a01520154161515608087015260209160405193613a228486612689565b600085526001600160a01b038116948515612968576001600160a01b03613a498884612cf8565b166130e55786613a599233613e60565b846000526012835260406000209682885551600188015560006002880155426003880155613a8682614178565b966004810188516001600160401b038111610bc957613aa981610af8845461271a565b85601f8211600114613c55579080613ada928a9b9c60009261305b5750508160011b916000199060031b1c19161790565b90555b6002831015613bcc575b6003831015613b2b575b50906130556000805160206144d68339815191529392613b12601554612b74565b60155560408051948594855284015260408301906125af565b60059193929550018054600160401b811015610bc957806001613b519201835582612aa4565b61332357613b62613293825461271a565b6008630646572760e41b0190558054600160401b811015610bc957613b8c91600182018155612aa4565b949094613323576130556000805160206144d68339815191529386613bb56132938a995461271a565b600a64736f6e696360d81b01905591929350613af1565b9450600585018054600160401b811015610bc957806001613bf09201835582612aa4565b61332357613c01613293825461271a565b600c6518985b991a5d60d21b0190558054600160401b811015610bc957613c2d91600182018155612aa4565b9590956133235785613c4361329389985461271a565b60086335b4b23d60e11b019055613ae7565b601f1982169a83600052876000209b60005b818110613ca55750918a9b9c91846001959410613c8c575b505050811b019055613add565b015160001960f88460031b161c19169055388080613c7f565b838301518e556001909d019c928901928901613c67565b600a546001600160a01b031680613cf85750670de0b6b3a7640000810290808204670de0b6b3a7640000149015171561163e576204baf0900490565b60206004916040519283809263168cb00360e31b82525afa60009181613d8d575b50613d495750670de0b6b3a7640000810290808204670de0b6b3a7640000149015171561163e576204baf0900490565b9068056bc75e2d6310000081029080820468056bc75e2d63100000149015171561163e578115613d77570490565b634e487b7160e01b600052601260045260246000fd5b90916020823d602011613db9575b81613da860209383612689565b8101031261112c5750519038613d19565b3d9150613d9b565b6007546001600160a01b03163303613dd557565b63118cdaa760e01b6000523360045260246000fd5b90613df482612b83565b6001600160a01b03828116911614613e595760409160005260136020528160002060009160018060a01b031682526020522060ff6003820154169081613e4b575b81613e3e575090565b9050600181015490541190565b600281015442109150613e35565b5050600190565b9291813b613e6f575b50505050565b604051630a85bd0160e11b81526001600160a01b039485166004820152600060248201526044810191909152608060648201529216919060209082908190613ebb9060848301906125af565b03816000865af18091600091613f5a575b5090613f2557503d15613f1e573d613ee3816126aa565b90613ef16040519283612689565b81523d6000602083013e5b80519081613f195782633250574960e11b60005260045260246000fd5b602001fd5b6060613efc565b6001600160e01b03191663757a42ff60e11b01613f46575038808080613e69565b633250574960e11b60005260045260246000fd5b6020813d602011613f99575b81613f7360209383612689565b81010312613f955751906001600160e01b03198216820361112c575038613ecc565b5080fd5b3d9150613f66565b823b613faf575b5050505050565b604051630a85bd0160e11b81526001600160a01b039182166004820152918116602483015260448201939093526080606482015291169160209082908190613ffb9060848301906125af565b03816000865af18091600091614045575b509061402357503d15613f1e573d613ee3816126aa565b6001600160e01b03191663757a42ff60e11b01613f4657503880808080613fa8565b6020813d602011614080575b8161405e60209383612689565b81010312613f955751906001600160e01b03198216820361112c57503861400c565b3d9150614051565b61409181612b83565b5060005260066020526114416140b1604060002060405192838092612754565b60006040516140c1602082612689565b5290565b6001600160a01b03167329219dd400f2bf60e5a23d13be72b486d403889481036140ed575090565b6006602160991b011461414e5760405162461bcd60e51b815260206004820152602660248201527f556e737570706f7274656420746f6b656e20666f722066616c6c6261636b2070604482015265726963696e6760d01b6064820152608490fd5b670de0b6b3a7640000810290808204670de0b6b3a7640000149015171561163e576204baf0900490565b6060906001810361423257505060405161419360a082612689565b607781527f6167656e743a737461727465722c70726f7669646572733a6f70656e61692b6360208201527f6c6f7564666c6172652b676f6f676c652c6d6f64656c733a677074342e312b6460408201527f616c6c65332b67656d696e692b63665f61692c6361706162696c69746965733a60608201527f746578742b696d6167652c7374796c65733a6261736963000000000000000000608082015290565b6002810361430457505060405161424a60c082612689565b609281527f6167656e743a70726f2c70726f7669646572733a6f70656e61692b636c6f756460208201527f666c6172652b676f6f676c652c6d6f64656c733a677074342e312b677074352b60408201527f64616c6c65332b67656d696e695f756c7472612b63665f776f726b6572732b7660608201527f6964656f2c6361706162696c69746965733a746578742b696d6167652b766964608082015271195bcb1cdd1e5b195cce98591d985b98d95960721b60a082015290565b600381036143e157505060405161431c60c082612689565b609e81527f6167656e743a627573696e6573732c70726f7669646572733a6d756c7469636c60208201527f6f75642c6d6f64656c733a6f70656e61695f73756974652b636c6f7564666c6160408201527f72655f61692b67656d696e695f756c7472612b637573746f6d2c63617061626960608201527f6c69746965733a66756c6c5f6d756c74696d6f64616c2b726564756e64616e6360808201527f792c7374796c65733a637573746f6d2c776f726b666c6f773a6261746368000060a082015290565b60041461441457506040516143f7604082612689565b600d81526c30b3b2b73a1d3ab735b737bbb760991b602082015290565b7f732b66696e6574756e65642b6170692c6361706162696c69746965733a756e6c6040519161444460c084612689565b608c83527f6167656e743a656e74657270726973652c70726f7669646572733a6d756c746960208401527f636c6f75642b637573746f6d2c6d6f64656c733a616c6c5f70726f766964657260408401528201527f696d697465642b6661696c6f7665722c7374796c65733a756e6c696d6974656460808201526b0b185c1a4e995b98589b195960a21b60a08201529056fe8faa97d50895c64f829e4f908e2c88594a8b2d8fe6e7e5fc45c9eeb15026086ca164736f6c634300081b000a",
  "linkReferences": {},
  "deployedLinkReferences": {}
}