{
  "_format": "hh-sol-artifact-1",
  "contractName": "GeneratedArtNFT",
  "sourceName": "Contracts/GeneratedArtNFT.sol",
  "abi": [
    {
      "inputs": [],
      "stateMutability": "nonpayable",
      "type": "constructor"
    },
    {
      "anonymous": false,
      "inputs": [
        {
          "indexed": true,
          "internalType": "address",
          "name": "owner",
          "type": "address"
        },
        {
          "indexed": true,
          "internalType": "address",
          "name": "approved",
          "type": "address"
        },
        {
          "indexed": true,
          "internalType": "uint256",
          "name": "tokenId",
          "type": "uint256"
        }
      ],
      "name": "Approval",
      "type": "event"
    },
    {
      "anonymous": false,
      "inputs": [
        {
          "indexed": true,
          "internalType": "address",
          "name": "owner",
          "type": "address"
        },
        {
          "indexed": true,
          "internalType": "address",
          "name": "operator",
          "type": "address"
        },
        {
          "indexed": false,
          "internalType": "bool",
          "name": "approved",
          "type": "bool"
        }
      ],
      "name": "ApprovalForAll",
      "type": "event"
    },
    {
      "anonymous": false,
      "inputs": [
        {
          "indexed": true,
          "internalType": "uint256",
          "name": "tokenId",
          "type": "uint256"
        },
        {
          "indexed": false,
          "internalType": "string",
          "name": "newURI",
          "type": "string"
        }
      ],
      "name": "MetadataUpdated",
      "type": "event"
    },
    {
      "anonymous": false,
      "inputs": [
        {
          "indexed": true,
          "internalType": "address",
          "name": "minter",
          "type": "address"
        },
        {
          "indexed": false,
          "internalType": "bool",
          "name": "authorized",
          "type": "bool"
        }
      ],
      "name": "MinterAuthorized",
      "type": "event"
    },
    {
      "anonymous": false,
      "inputs": [
        {
          "indexed": true,
          "internalType": "uint256",
          "name": "tokenId",
          "type": "uint256"
        },
        {
          "indexed": true,
          "internalType": "address",
          "name": "to",
          "type": "address"
        },
        {
          "indexed": false,
          "internalType": "string",
          "name": "prompt",
          "type": "string"
        },
        {
          "indexed": false,
          "internalType": "string",
          "name": "imageData",
          "type": "string"
        },
        {
          "indexed": false,
          "internalType": "string",
          "name": "model",
          "type": "string"
        },
        {
          "indexed": false,
          "internalType": "string",
          "name": "paymentMethod",
          "type": "string"
        },
        {
          "indexed": false,
          "internalType": "string",
          "name": "transactionHash",
          "type": "string"
        }
      ],
      "name": "NFTMinted",
      "type": "event"
    },
    {
      "anonymous": false,
      "inputs": [
        {
          "indexed": true,
          "internalType": "address",
          "name": "previousOwner",
          "type": "address"
        },
        {
          "indexed": true,
          "internalType": "address",
          "name": "newOwner",
          "type": "address"
        }
      ],
      "name": "OwnershipTransferred",
      "type": "event"
    },
    {
      "anonymous": false,
      "inputs": [
        {
          "indexed": true,
          "internalType": "address",
          "name": "from",
          "type": "address"
        },
        {
          "indexed": true,
          "internalType": "address",
          "name": "to",
          "type": "address"
        },
        {
          "indexed": true,
          "internalType": "uint256",
          "name": "tokenId",
          "type": "uint256"
        }
      ],
      "name": "Transfer",
      "type": "event"
    },
    {
      "inputs": [
        {
          "internalType": "address",
          "name": "to",
          "type": "address"
        },
        {
          "internalType": "uint256",
          "name": "tokenId",
          "type": "uint256"
        }
      ],
      "name": "approve",
      "outputs": [],
      "stateMutability": "nonpayable",
      "type": "function"
    },
    {
      "inputs": [
        {
          "internalType": "address",
          "name": "",
          "type": "address"
        }
      ],
      "name": "authorizedMinters",
      "outputs": [
        {
          "internalType": "bool",
          "name": "",
          "type": "bool"
        }
      ],
      "stateMutability": "view",
      "type": "function"
    },
    {
      "inputs": [
        {
          "internalType": "address",
          "name": "owner",
          "type": "address"
        }
      ],
      "name": "balanceOf",
      "outputs": [
        {
          "internalType": "uint256",
          "name": "",
          "type": "uint256"
        }
      ],
      "stateMutability": "view",
      "type": "function"
    },
    {
      "inputs": [],
      "name": "emergencyWithdraw",
      "outputs": [],
      "stateMutability": "nonpayable",
      "type": "function"
    },
    {
      "inputs": [
        {
          "internalType": "uint256",
          "name": "tokenId",
          "type": "uint256"
        }
      ],
      "name": "getApproved",
      "outputs": [
        {
          "internalType": "address",
          "name": "",
          "type": "address"
        }
      ],
      "stateMutability": "view",
      "type": "function"
    },
    {
      "inputs": [
        {
          "internalType": "uint256",
          "name": "tokenId",
          "type": "uint256"
        }
      ],
      "name": "getGenerationData",
      "outputs": [
        {
          "internalType": "string",
          "name": "prompt",
          "type": "string"
        },
        {
          "internalType": "string",
          "name": "imageData",
          "type": "string"
        },
        {
          "internalType": "string",
          "name": "model",
          "type": "string"
        },
        {
          "internalType": "uint256",
          "name": "timestamp",
          "type": "uint256"
        },
        {
          "internalType": "address",
          "name": "creator",
          "type": "address"
        },
        {
          "internalType": "string",
          "name": "paymentMethod",
          "type": "string"
        },
        {
          "internalType": "string",
          "name": "transactionHash",
          "type": "string"
        }
      ],
      "stateMutability": "view",
      "type": "function"
    },
    {
      "inputs": [
        {
          "internalType": "address",
          "name": "owner",
          "type": "address"
        },
        {
          "internalType": "address",
          "name": "operator",
          "type": "address"
        }
      ],
      "name": "isApprovedForAll",
      "outputs": [
        {
          "internalType": "bool",
          "name": "",
          "type": "bool"
        }
      ],
      "stateMutability": "view",
      "type": "function"
    },
    {
      "inputs": [
        {
          "internalType": "address",
          "name": "to",
          "type": "address"
        },
        {
          "internalType": "string[]",
          "name": "prompts",
          "type": "string[]"
        },
        {
          "internalType": "string[]",
          "name": "imageDatas",
          "type": "string[]"
        },
        {
          "internalType": "string[]",
          "name": "models",
          "type": "string[]"
        },
        {
          "internalType": "string[]",
          "name": "paymentMethods",
          "type": "string[]"
        },
        {
          "internalType": "string[]",
          "name": "transactionHashes",
          "type": "string[]"
        }
      ],
      "name": "mintBatchGeneratedArt",
      "outputs": [
        {
          "internalType": "uint256[]",
          "name": "",
          "type": "uint256[]"
        }
      ],
      "stateMutability": "nonpayable",
      "type": "function"
    },
    {
      "inputs": [
        {
          "internalType": "address",
          "name": "to",
          "type": "address"
        },
        {
          "internalType": "string",
          "name": "prompt",
          "type": "string"
        },
        {
          "internalType": "string",
          "name": "imageData",
          "type": "string"
        },
        {
          "internalType": "string",
          "name": "model",
          "type": "string"
        },
        {
          "internalType": "string",
          "name": "paymentMethod",
          "type": "string"
        },
        {
          "internalType": "string",
          "name": "transactionHash",
          "type": "string"
        }
      ],
      "name": "mintGeneratedArt",
      "outputs": [
        {
          "internalType": "uint256",
          "name": "",
          "type": "uint256"
        }
      ],
      "stateMutability": "nonpayable",
      "type": "function"
    },
    {
      "inputs": [],
      "name": "name",
      "outputs": [
        {
          "internalType": "string",
          "name": "",
          "type": "string"
        }
      ],
      "stateMutability": "view",
      "type": "function"
    },
    {
      "inputs": [],
      "name": "owner",
      "outputs": [
        {
          "internalType": "address",
          "name": "",
          "type": "address"
        }
      ],
      "stateMutability": "view",
      "type": "function"
    },
    {
      "inputs": [
        {
          "internalType": "uint256",
          "name": "tokenId",
          "type": "uint256"
        }
      ],
      "name": "ownerOf",
      "outputs": [
        {
          "internalType": "address",
          "name": "",
          "type": "address"
        }
      ],
      "stateMutability": "view",
      "type": "function"
    },
    {
      "inputs": [
        {
          "internalType": "address",
          "name": "from",
          "type": "address"
        },
        {
          "internalType": "address",
          "name": "to",
          "type": "address"
        },
        {
          "internalType": "uint256",
          "name": "tokenId",
          "type": "uint256"
        }
      ],
      "name": "safeTransferFrom",
      "outputs": [],
      "stateMutability": "nonpayable",
      "type": "function"
    },
    {
      "inputs": [
        {
          "internalType": "address",
          "name": "from",
          "type": "address"
        },
        {
          "internalType": "address",
          "name": "to",
          "type": "address"
        },
        {
          "internalType": "uint256",
          "name": "tokenId",
          "type": "uint256"
        },
        {
          "internalType": "bytes",
          "name": "data",
          "type": "bytes"
        }
      ],
      "name": "safeTransferFrom",
      "outputs": [],
      "stateMutability": "nonpayable",
      "type": "function"
    },
    {
      "inputs": [
        {
          "internalType": "address",
          "name": "operator",
          "type": "address"
        },
        {
          "internalType": "bool",
          "name": "approved",
          "type": "bool"
        }
      ],
      "name": "setApprovalForAll",
      "outputs": [],
      "stateMutability": "nonpayable",
      "type": "function"
    },
    {
      "inputs": [
        {
          "internalType": "address",
          "name": "minter",
          "type": "address"
        },
        {
          "internalType": "bool",
          "name": "authorized",
          "type": "bool"
        }
      ],
      "name": "setAuthorizedMinter",
      "outputs": [],
      "stateMutability": "nonpayable",
      "type": "function"
    },
    {
      "inputs": [
        {
          "internalType": "uint256",
          "name": "tokenId",
          "type": "uint256"
        },
        {
          "internalType": "string",
          "name": "uri",
          "type": "string"
        }
      ],
      "name": "setTokenURI",
      "outputs": [],
      "stateMutability": "nonpayable",
      "type": "function"
    },
    {
      "inputs": [
        {
          "internalType": "bytes4",
          "name": "interfaceId",
          "type": "bytes4"
        }
      ],
      "name": "supportsInterface",
      "outputs": [
        {
          "internalType": "bool",
          "name": "",
          "type": "bool"
        }
      ],
      "stateMutability": "view",
      "type": "function"
    },
    {
      "inputs": [],
      "name": "symbol",
      "outputs": [
        {
          "internalType": "string",
          "name": "",
          "type": "string"
        }
      ],
      "stateMutability": "view",
      "type": "function"
    },
    {
      "inputs": [
        {
          "internalType": "uint256",
          "name": "",
          "type": "uint256"
        }
      ],
      "name": "tokenGenerationData",
      "outputs": [
        {
          "internalType": "string",
          "name": "prompt",
          "type": "string"
        },
        {
          "internalType": "string",
          "name": "imageData",
          "type": "string"
        },
        {
          "internalType": "string",
          "name": "model",
          "type": "string"
        },
        {
          "internalType": "uint256",
          "name": "timestamp",
          "type": "uint256"
        },
        {
          "internalType": "address",
          "name": "creator",
          "type": "address"
        },
        {
          "internalType": "string",
          "name": "paymentMethod",
          "type": "string"
        },
        {
          "internalType": "string",
          "name": "transactionHash",
          "type": "string"
        }
      ],
      "stateMutability": "view",
      "type": "function"
    },
    {
      "inputs": [
        {
          "internalType": "uint256",
          "name": "tokenId",
          "type": "uint256"
        }
      ],
      "name": "tokenURI",
      "outputs": [
        {
          "internalType": "string",
          "name": "",
          "type": "string"
        }
      ],
      "stateMutability": "view",
      "type": "function"
    },
    {
      "inputs": [
        {
          "internalType": "address",
          "name": "owner",
          "type": "address"
        }
      ],
      "name": "tokensOfOwner",
      "outputs": [
        {
          "internalType": "uint256[]",
          "name": "",
          "type": "uint256[]"
        }
      ],
      "stateMutability": "view",
      "type": "function"
    },
    {
      "inputs": [],
      "name": "totalSupply",
      "outputs": [
        {
          "internalType": "uint256",
          "name": "",
          "type": "uint256"
        }
      ],
      "stateMutability": "view",
      "type": "function"
    },
    {
      "inputs": [
        {
          "internalType": "address",
          "name": "from",
          "type": "address"
        },
        {
          "internalType": "address",
          "name": "to",
          "type": "address"
        },
        {
          "internalType": "uint256",
          "name": "tokenId",
          "type": "uint256"
        }
      ],
      "name": "transferFrom",
      "outputs": [],
      "stateMutability": "nonpayable",
      "type": "function"
    },
    {
      "inputs": [
        {
          "internalType": "address",
          "name": "newOwner",
          "type": "address"
        }
      ],
      "name": "transferOwnership",
      "outputs": [],
      "stateMutability": "nonpayable",
      "type": "function"
    },
    {
      "stateMutability": "payable",
      "type": "receive"
    }
  ],
  "bytecode": "0x60806040523461011b57600080546001600160a01b0319163317905560065461002790610120565b601f81116100d1575b507f53657276696365466c6f772041492047656e657261746564204172740000003860065560075461006190610120565b601f8111610087575b6008635346414960e01b016007556040516127b7908161015b8239f35b6007600052601f0160051c7fa66cc928b5edb82af9bd49922954155ab7b0942694bea4ce44661d9a8736c688908101905b8181106100c5575061006a565b600081556001016100b8565b6006600052601f0160051c7ff652222313e28459528d920b65115c16c04f3efc82aaedc97be59f3f377c0d3f908101905b81811061010f5750610030565b60008155600101610102565b600080fd5b90600182811c92168015610150575b602083101461013a57565b634e487b7160e01b600052602260045260246000fd5b91607f169161012f56fe6080604052600436101561001b575b361561001957600080fd5b005b60003560e01c806301ffc9a7146101ab57806306fdde03146101a6578063081812fc146101a1578063095ea7b31461019c5780630b5b3baf14610197578063162094c41461019257806318160ddd1461018d57806323b872dd1461018857806342842e0e146101835780635d1c696d1461017e5780636352211e1461017957806370a08231146101745780638462151c1461016f5780638da5cb5b1461016a57806395d89b4114610165578063a22cb46514610160578063aa2fe91b1461015b578063b88d4fde14610156578063c87b56dd14610151578063db2e21bc1461014c578063e985e9c514610147578063eabd928314610142578063ed58bad81461013d578063f2fde38b146101385763f4db39dc0361000e5761116c565b6110bf565b611046565b610fc4565b610e8b565b610e35565b610e02565b610da3565b610d64565b610c9b565b610bc4565b610b9b565b610af9565b610ace565b610ab0565b6109df565b6108e6565b6108bd565b610865565b610680565b6104f4565b6103b2565b610356565b610279565b6101c7565b6001600160e01b03198116036101c257565b600080fd5b346101c25760203660031901126101c25760206004356101e6816101b0565b63ffffffff60e01b166380ac58cd60e01b811490811561020c575b506040519015158152f35b6301ffc9a760e01b14905038610201565b60005b8381106102305750506000910152565b8181015183820152602001610220565b906020916102598151809281855285808601910161021d565b601f01601f1916010190565b906020610276928181520190610240565b90565b346101c25760003660031901126101c257604051600060065461029b81610ee8565b808452906001811690811561033257506001146102d3575b6102cf836102c3818503826105dc565b60405191829182610265565b0390f35b600660009081527ff652222313e28459528d920b65115c16c04f3efc82aaedc97be59f3f377c0d3f939250905b808210610318575090915081016020016102c36102b3565b919260018160209254838588010152019101909291610300565b60ff191660208086019190915291151560051b840190910191506102c390506102b3565b346101c25760203660031901126101c2576020610374600435611241565b6040516001600160a01b039091168152f35b600435906001600160a01b03821682036101c257565b602435906001600160a01b03821682036101c257565b346101c25760403660031901126101c2576103cb610386565b6024356001600160a01b036103df82611757565b16916001600160a01b038116831461043d5782610019933314801561040e575b61040991506112ca565b611e06565b506000908152600460209081526040808320338452909152902061040990610438905b5460ff1690565b6103ff565b60405162461bcd60e51b815260206004820152601960248201527f417070726f76616c20746f2063757272656e74206f776e6572000000000000006044820152606490fd5b95916104e694936104b56104c3926104a76102769b999560e08c5260e08c0190610240565b908a820360208c0152610240565b9088820360408a0152610240565b60608701939093526001600160a01b0316608086015284820360a0860152610240565b9160c0818403910152610240565b346101c25760203660031901126101c2576004356000818152600160205260409020546001600160a01b0316156105815761053c610541916000526009602052604060002090565b61132f565b8051602082015160408301516060840151608085015192946102cf939091906001600160a01b03169060c060a08401519301519360405197889788610482565b60405162461bcd60e51b815260206004820152601b60248201527f517565727920666f72206e6f6e6578697374656e7420746f6b656e00000000006044820152606490fd5b634e487b7160e01b600052604160045260246000fd5b90601f801991011681019081106001600160401b038211176105fd57604052565b6105c6565b6040519061061160e0836105dc565b565b6001600160401b0381116105fd57601f01601f191660200190565b92919261063a82610613565b9161064860405193846105dc565b8294818452818301116101c2578281602093846000960137010152565b9080601f830112156101c2578160206102769335910161062e565b346101c25760403660031901126101c2576004356024356001600160401b0381116101c2576106b3903690600401610665565b906106c960018060a01b036000541633146113bb565b6000818152600160205260409020546001600160a01b031615610820578060005260086020526040600020918051926001600160401b0384116105fd5761071a846107148354610ee8565b836113f3565b602093601f811160011461078f57906107718261077f94937f459157ba24c7ab9878b165ef465fa6ae2ab42bcd8445f576be378768b0c473099697600091610784575b508160011b916000199060031b1c19161790565b905560405191829182610265565b0390a2005b90508401513861075d565b601f1981166107a383600052602060002090565b9060005b8181106108085750916001917f459157ba24c7ab9878b165ef465fa6ae2ab42bcd8445f576be378768b0c4730996978261077f979695106107ef575b5050811b0190556102c3565b85015160001960f88460031b161c1916905538806107e3565b858801518355602097880197600190930192016107a7565b60405162461bcd60e51b815260206004820152601c60248201527f55524920736574206f66206e6f6e6578697374656e7420746f6b656e000000006044820152606490fd5b346101c25760003660031901126101c2576020600554604051908152f35b60609060031901126101c2576004356001600160a01b03811681036101c257906024356001600160a01b03811681036101c2579060443590565b346101c2576100196108ce36610883565b916108e16108dc8433611e72565b611516565b611f9b565b346101c2576100196108f736610883565b90604051926109076020856105dc565b60008452611861565b6001600160401b0381116105fd5760051b60200190565b9080601f830112156101c257813561093e81610910565b9261094c60405194856105dc565b81845260208085019260051b820101918383116101c25760208201905b83821061097857505050505090565b81356001600160401b0381116101c25760209161099a87848094880101610665565b815201910190610969565b602060408183019282815284518094520192019060005b8181106109c95750505090565b82518452602093840193909201916001016109bc565b346101c25760c03660031901126101c2576109f8610386565b6024356001600160401b0381116101c257610a17903690600401610927565b906044356001600160401b0381116101c257610a37903690600401610927565b906064356001600160401b0381116101c257610a57903690600401610927565b6084356001600160401b0381116101c257610a76903690600401610927565b9060a435936001600160401b0385116101c2576102cf95610a9e610aa4963690600401610927565b946115b9565b604051918291826109a5565b346101c25760203660031901126101c2576020610374600435611757565b346101c25760203660031901126101c2576020610af1610aec610386565b6117c7565b604051908152f35b346101c25760203660031901126101c257610b12610386565b610b23610b1e826117c7565b6116f6565b60055490916000906001600160a01b031660015b83811115610b4d57604051806102cf87826109a5565b6000818152600160205260409020546001600160a01b03168214610b7a575b610b759061184d565b610b37565b91610b938184610b8d610b75948961173e565b5261184d565b929050610b6c565b346101c25760003660031901126101c2576000546040516001600160a01b039091168152602090f35b346101c25760003660031901126101c2576040516000600754610be681610ee8565b80845290600181169081156103325750600114610c0d576102cf836102c3818503826105dc565b600760009081527fa66cc928b5edb82af9bd49922954155ab7b0942694bea4ce44661d9a8736c688939250905b808210610c52575090915081016020016102c36102b3565b919260018160209254838588010152019101909291610c3a565b60409060031901126101c2576004356001600160a01b03811681036101c2579060243580151581036101c25790565b346101c257610ca936610c6c565b6001600160a01b03821691338314610d2b5781610ce8610cf99233600052600460205260406000209060018060a01b0316600052602052604060002090565b9060ff801983541691151516179055565b604051901515815233907f17307eab39ab6107e8899845ad3d59bd9653f200f220920489ca2b5937696c3190602090a3005b60405162461bcd60e51b815260206004820152601160248201527020b8383937bb32903a379031b0b63632b960791b6044820152606490fd5b346101c25760203660031901126101c2576001600160a01b03610d85610386565b16600052600a602052602060ff604060002054166040519015158152f35b346101c25760803660031901126101c257610dbc610386565b610dc461039c565b90604435606435926001600160401b0384116101c257366023850112156101c257610dfc61001994369060248160040135910161062e565b92611861565b346101c25760203660031901126101c2576102cf610e2160043561190c565b604051918291602083526020830190610240565b346101c25760003660031901126101c257600080548190819081906001600160a01b0316610e643382146113bb565b4790828215610e82575bf115610e7657005b6040513d6000823e3d90fd5b506108fc610e6e565b346101c25760403660031901126101c257602060ff610edc610eab610386565b610eb361039c565b6001600160a01b0391821660009081526004865260408082209290931681526020919091522090565b54166040519015158152f35b90600182811c92168015610f18575b6020831014610f0257565b634e487b7160e01b600052602260045260246000fd5b91607f1691610ef7565b9060405191826000825492610f3684610ee8565b8084529360018116908115610fa25750600114610f5b575b50610611925003836105dc565b90506000929192526020600020906000915b818310610f865750509060206106119282010138610f4e565b6020919350806001915483858901015201910190918492610f6d565b90506020925061061194915060ff191682840152151560051b82010138610f4e565b346101c25760203660031901126101c25760043560005260096020526040600020610fee81610f22565b6102cf610ffd60018401610f22565b9261100a60028201610f22565b600382015460048301549192916001600160a01b031690611039600661103260058601610f22565b9401610f22565b9360405197889788610482565b346101c25760207f9041c22ed79d1c19c69cc22fd9e38c93da4f2dd8cd32580594e232a8a18541cb61107736610c6c565b929061108e60018060a01b036000541633146113bb565b6001600160a01b03166000818152600a835260409020805460ff191660ff86151516179055926040519015158152a2005b346101c25760203660031901126101c2576110d8610386565b6000546001600160a01b038116916110f13384146113bb565b6001600160a01b03169182156111385782907f8be0079c531659141344cd1fd0a4f28419497f9722a3daafe3b4186f6b6457e0600080a36001600160a01b03191617600055005b60405162461bcd60e51b815260206004820152600c60248201526b5a65726f206164647265737360a01b6044820152606490fd5b346101c25760c03660031901126101c257611185610386565b6024356001600160401b0381116101c2576111a4903690600401610665565b906044356001600160401b0381116101c2576111c4903690600401610665565b906064356001600160401b0381116101c2576111e4903690600401610665565b6084356001600160401b0381116101c257611203903690600401610665565b9060a435936001600160401b0385116101c2576102cf9561122b611231963690600401610665565b94611a26565b6040519081529081906020820190565b6000818152600160205260409020546001600160a01b031615611279576000908152600360205260409020546001600160a01b031690565b60405162461bcd60e51b8152602060048201526024808201527f417070726f76656420717565727920666f72206e6f6e6578697374656e74207460448201526337b5b2b760e11b6064820152608490fd5b156112d157565b60405162461bcd60e51b815260206004820152603060248201527f417070726f76652063616c6c6572206973206e6f74206f776e6572206e6f722060448201526f185c1c1c9bdd995908199bdc88185b1b60821b6064820152608490fd5b9060405160e081018181106001600160401b038211176105fd5760405260c06113b66006839561135e81610f22565b855261136c60018201610f22565b602086015261137d60028201610f22565b60408601526003810154606086015260048101546001600160a01b031660808601526113ab60058201610f22565b60a086015201610f22565b910152565b156113c257565b60405162461bcd60e51b81526020600482015260096024820152682737ba1037bbb732b960b91b6044820152606490fd5b601f821161140057505050565b6000526020600020906020601f840160051c8301931061143b575b601f0160051c01905b81811061142f575050565b60008155600101611424565b909150819061141b565b91909182516001600160401b0381116105fd5761146c816114668454610ee8565b846113f3565b6020601f82116001146114ad57819061149e9394956000926114a2575b50508160011b916000199060031b1c19161790565b9055565b015190503880611489565b601f198216906114c284600052602060002090565b9160005b8181106114fe575095836001959697106114e5575b505050811b019055565b015160001960f88460031b161c191690553880806114db565b9192602060018192868b0151815501940192016114c6565b1561151d57565b60405162461bcd60e51b815260206004820152602960248201527f5472616e736665722063616c6c6572206973206e6f74206f776e6572206e6f7260448201526808185c1c1c9bdd995960ba1b6064820152608490fd5b1561157b57565b60405162461bcd60e51b8152602060048201526016602482015275139bdd08185d5d1a1bdc9a5e9959081d1bc81b5a5b9d60521b6044820152606490fd5b92949193909433600052600a60205260ff60406000205416801561169e575b6115e190611574565b855185518091149081611693575b5080611688575b8061167d575b611605906116b2565b61160f86516116f6565b9460005b8751811015611672578061166161162c6001938b61173e565b51611637838661173e565b51611642848861173e565b5161164d858a61173e565b5191611659868c61173e565b51938c611a26565b61166b828a61173e565b5201611613565b505050505050905090565b5081518351146115fc565b5080518251146115f6565b9050815114386115ef565b506000546001600160a01b031633146115d8565b156116b957565b60405162461bcd60e51b8152602060048201526015602482015274082e4e4c2f240d8cadccee8d040dad2e6dac2e8c6d605b1b6044820152606490fd5b9061170082610910565b61170d60405191826105dc565b828152809261171e601f1991610910565b0190602036910137565b634e487b7160e01b600052603260045260246000fd5b80518210156117525760209160051b010190565b611728565b6000908152600160205260409020546001600160a01b031680156117785790565b60405162461bcd60e51b815260206004820152602160248201527f4f776e657220717565727920666f72206e6f6e6578697374656e7420746f6b656044820152603760f91b6064820152608490fd5b6001600160a01b031680156117e757600052600260205260406000205490565b60405162461bcd60e51b815260206004820152602260248201527f42616c616e636520717565727920666f7220746865207a65726f206164647265604482015261737360f01b6064820152608490fd5b634e487b7160e01b600052601160045260246000fd5b600019811461185c5760010190565b611837565b906118859392916118756108dc8433611e72565b611880838383611f9b565b6125be565b1561188c57565b60405162461bcd60e51b8152806118a5600482016120e9565b0390fd5b156118b057565b60405162461bcd60e51b815260206004820152601f60248201527f55524920717565727920666f72206e6f6e6578697374656e7420746f6b656e006044820152606490fd5b906119086020928281519485920161021d565b0190565b60008181526001602052604090205461192f906001600160a01b031615156118a9565b61194b611946826000526008602052604060002090565b610f22565b8051611a215750602061196b61053c836000526009602052604060002090565b0151516119dd576102766119816119cf9261244d565b6040519283916119c9602084016028907f68747470733a2f2f6170692e73657276696365666c6f772e61692f6e66742f6d815267657461646174612f60c01b60208201520190565b906118f5565b03601f1981018352826105dc565b6102766119ec6119cf92612134565b6040517f646174613a6170706c69636174696f6e2f6a736f6e3b6261736536342c0000006020820152928391603d83016119c9565b905090565b949392919033600052600a60205260ff604060002054168015611bfb575b611a4d90611574565b611a5860055461184d565b6005819055956001600160a01b038116958615611bb65787957ff7741a26905316243314de53bc014e6b97a6c8582e6f6e66d1a206da10c8d24a95611ba4611bb094611ac8611ac3611abf8c600052600160205260018060a01b0360406000205416151590565b1590565b612505565b6001600160a01b0381166000908152600260205260409020611aea8154611f71565b9055611b2381611b048c6000526001602052604060002090565b80546001600160a01b0319166001600160a01b03909216919091179055565b898b60007fddf252ad1be2c89b69c2b068fc378daa952ba7f163c4a11628f55a4df523b3ef8180a4611b7f611b56610602565b888152602081018a9052604081018590524260608201526001600160a01b039092166080830152565b8360a08201528460c0820152611b9f8a6000526009602052604060002090565b611c0f565b60405195869586611d57565b0390a390565b60405162461bcd60e51b815260206004820152601860248201527f4d696e7420746f20746865207a65726f206164647265737300000000000000006044820152606490fd5b506000546001600160a01b03163314611a44565b91909182519283516001600160401b0381116105fd57611c3981611c338554610ee8565b856113f3565b6020601f8211600114611ce15791611c728260c09360069561061198996000926114a25750508160011b916000199060031b1c19161790565b84555b611c86602082015160018601611445565b611c97604082015160028601611445565b6060810151600385015560808101516004850180546001600160a01b0319166001600160a01b03909216919091179055611cd860a082015160058601611445565b01519101611445565b601f19821695611cf685600052602060002090565b9660005b818110611d3f5750926106119697600695936001938360c09710611d26575b505050811b018455611c75565b015160001960f88460031b161c19169055388080611d19565b83830151895560019098019760209384019301611cfa565b93906102769593611d88611da494611d7a611d969460a08a5260a08a0190610240565b9088820360208a0152610240565b908682036040880152610240565b908482036060860152610240565b916080818403910152610240565b600081815260036020526040812080546001600160a01b03191690556001600160a01b03611ddf83611757565b167f8c5be1e5ebec7d5bd14f71427d1e84f3dd0314c0f7b2291e5b200ac8c7c3b9258280a4565b600082815260036020526040902080546001600160a01b0319166001600160a01b0383161790556001600160a01b03611e3e83611757565b6001600160a01b0390921691167f8c5be1e5ebec7d5bd14f71427d1e84f3dd0314c0f7b2291e5b200ac8c7c3b925600080a4565b6000828152600160205260409020546001600160a01b031615611f1157611e9882611757565b6001600160a01b038281169082168114938415611ef3575b50508215611ebd57505090565b6001600160a01b0316600090815260046020526040902061027692506104319160018060a01b0316600052602052604060002090565b611eff91929450611241565b6001600160a01b031614913880611eb0565b60405162461bcd60e51b8152602060048201526024808201527f4f70657261746f7220717565727920666f72206e6f6e6578697374656e74207460448201526337b5b2b760e11b6064820152608490fd5b60001981019190821161185c57565b906001820180921161185c57565b603001908160301161185c57565b906002820180921161185c57565b611fa483611757565b6001600160a01b038083169291168290036120a4576001600160a01b03831692831561205f57611ff461203892611fda87611db2565b6001600160a01b0316600090815260026020526040902090565b611ffe8154611f62565b90556001600160a01b03811660009081526002602052604090206120228154611f71565b9055611b04856000526001602052604060002090565b7fddf252ad1be2c89b69c2b068fc378daa952ba7f163c4a11628f55a4df523b3ef600080a4565b60405162461bcd60e51b815260206004820152601c60248201527f5472616e7366657220746f20746865207a65726f2061646472657373000000006044820152606490fd5b60405162461bcd60e51b815260206004820152601d60248201527f5472616e736665722066726f6d20696e636f7272656374206f776e65720000006044820152606490fd5b60809060208152602a60208201527f5472616e7366657220746f206e6f6e204552433732315265636569766572206960408201526936b83632b6b2b73a32b960b11b60608201520190565b612148816000526009602052604060002090565b6121519061132f565b9061215b9061244d565b60208201518251604084015160a085015160808601519395929390919061218a906001600160a01b031661270c565b92606001516121989061244d565b6040517f7b226e616d65223a202253657276696365466c6f7720414920417274202300006020820152968796919591603e88016121d4916118f5565b7f222c20226465736372697074696f6e223a202241492067656e6572617465642081527f617274776f726b206372656174656420776974682053657276696365466c6f7760208201526b20414920706c6174666f726d60a01b6040820152604c016c1116101134b6b0b3b2911d101160991b8152600d01612254916118f5565b71222c202261747472696275746573223a205b60701b81526012017f7b2274726169745f74797065223a202250726f6d7074222c202276616c7565228152621d101160e91b60208201526023016122aa916118f5565b62089f4b60ea1b81526003017f7b2274726169745f74797065223a20224d6f64656c222c202276616c7565223a815261101160f11b60208201526022016122f0916118f5565b62089f4b60ea1b81526003017f7b2274726169745f74797065223a20225061796d656e74204d6574686f64222c81526a10113b30b63ab2911d101160a91b6020820152602b0161233f916118f5565b62089f4b60ea1b81526003017f7b2274726169745f74797065223a202243726561746f72222c202276616c7565815263111d101160e11b6020820152602401612387916118f5565b62089f4b60ea1b81526003017f7b2274726169745f74797065223a202254696d657374616d70222c202276616c81526403ab2911d160dd1b60208201526025016123d0916118f5565b607d60f81b8152600101615d7d60f01b815260020103601f198101825261027690826105dc565b9061240182610613565b61240e60405191826105dc565b828152809261171e601f1991610613565b8051156117525760200190565b8051600110156117525760210190565b908151811015611752570160200190565b9081156124e457600082805b6124c557508061246984926123f7565b915b61247457509150565b6124806124be91611f62565b936124a9612499612493600a8406611f7f565b60ff1690565b60f81b6001600160f81b03191690565b60001a6124b6868561243c565b53600a900490565b928361246b565b92906124d36124db9161184d565b93600a900490565b80939193612459565b90506040516124f46040826105dc565b60018152600360fc1b602082015290565b1561250c57565b60405162461bcd60e51b8152602060048201526014602482015273151bdad95b88185b1c9958591e481b5a5b9d195960621b6044820152606490fd5b908160209103126101c25751610276816101b0565b6001600160a01b03918216815291166020820152604081019190915260806060820181905261027692910190610240565b3d156125b9573d9061259f82610613565b916125ad60405193846105dc565b82523d6000602084013e565b606090565b919290803b1561267f576125ef93600060209460405196879586948593630a85bd0160e11b8552336004860161255d565b03926001600160a01b03165af16000918161264e575b506126385761261261258e565b805190816126335760405162461bcd60e51b8152806118a5600482016120e9565b602001fd5b6001600160e01b031916630a85bd0160e11b1490565b61267191925060203d602011612678575b61266981836105dc565b810190612548565b9038612605565b503d61265f565b50505050600190565b600181901b91906001600160ff1b0381160361185c57565b801561185c576000190190565b9060ff8091169116019060ff821161185c57565b156126c857565b606460405162461bcd60e51b815260206004820152602060248201527f537472696e67733a20686578206c656e67746820696e73756666696369656e746044820152fd5b61271e6127196028611f8d565b6123f7565b90603061272a8361241f565b5360786127368361242c565b536127496127446014612688565b611f71565b905b6001821161275e576102769150156126c1565b61279681612782612499600f61279c9516600a81106000146127a2576030906126ad565b60001a61278f858761243c565b5360041c90565b916126a0565b9061274b565b6057906126ad56fea164736f6c634300081b000a",
  "linkReferences": {},
  "deployedLinkReferences": {}
}