{
  "_format": "hh-sol-artifact-1",
  "contractName": "SonicPaymentTestnetWithNFT",
  "sourceName": "Contracts/SonicPaymentTestnetWithNFT.sol",
  "abi": [
    {
      "inputs": [
        {
          "internalType": "address",
          "name": "_banditKidzStaking",
          "type": "address"
        },
        {
          "internalType": "address",
          "name": "_devWallet",
          "type": "address"
        },
        {
          "internalType": "address",
          "name": "_coralToken",
          "type": "address"
        },
        {
          "internalType": "address",
          "name": "_nftContract",
          "type": "address"
        }
      ],
      "stateMutability": "nonpayable",
      "type": "constructor"
    },
    {
      "anonymous": false,
      "inputs": [
        {
          "indexed": true,
          "internalType": "address",
          "name": "user",
          "type": "address"
        },
        {
          "indexed": false,
          "internalType": "uint256",
          "name": "amount",
          "type": "uint256"
        }
      ],
      "name": "CreditsAdded",
      "type": "event"
    },
    {
      "anonymous": false,
      "inputs": [
        {
          "indexed": true,
          "internalType": "address",
          "name": "user",
          "type": "address"
        },
        {
          "indexed": false,
          "internalType": "uint256",
          "name": "generationId",
          "type": "uint256"
        },
        {
          "indexed": false,
          "internalType": "string",
          "name": "resultUrl",
          "type": "string"
        }
      ],
      "name": "GenerationCompleted",
      "type": "event"
    },
    {
      "anonymous": false,
      "inputs": [
        {
          "indexed": true,
          "internalType": "address",
          "name": "user",
          "type": "address"
        },
        {
          "indexed": false,
          "internalType": "string",
          "name": "prompt",
          "type": "string"
        },
        {
          "indexed": false,
          "internalType": "string",
          "name": "generationType",
          "type": "string"
        },
        {
          "indexed": false,
          "internalType": "uint256",
          "name": "generationId",
          "type": "uint256"
        }
      ],
      "name": "GenerationRequested",
      "type": "event"
    },
    {
      "anonymous": false,
      "inputs": [
        {
          "indexed": false,
          "internalType": "address[3]",
          "name": "winners",
          "type": "address[3]"
        },
        {
          "indexed": false,
          "internalType": "bool",
          "name": "thresholdMet",
          "type": "bool"
        }
      ],
      "name": "LeaderboardUpdated",
      "type": "event"
    },
    {
      "anonymous": false,
      "inputs": [
        {
          "indexed": true,
          "internalType": "address",
          "name": "oldContract",
          "type": "address"
        },
        {
          "indexed": true,
          "internalType": "address",
          "name": "newContract",
          "type": "address"
        }
      ],
      "name": "NFTContractUpdated",
      "type": "event"
    },
    {
      "anonymous": false,
      "inputs": [
        {
          "indexed": true,
          "internalType": "address",
          "name": "user",
          "type": "address"
        },
        {
          "indexed": true,
          "internalType": "uint256",
          "name": "tokenId",
          "type": "uint256"
        },
        {
          "indexed": false,
          "internalType": "uint256",
          "name": "generationId",
          "type": "uint256"
        },
        {
          "indexed": false,
          "internalType": "string",
          "name": "paymentMethod",
          "type": "string"
        }
      ],
      "name": "NFTMinted",
      "type": "event"
    },
    {
      "anonymous": false,
      "inputs": [
        {
          "indexed": true,
          "internalType": "address",
          "name": "previousOwner",
          "type": "address"
        },
        {
          "indexed": true,
          "internalType": "address",
          "name": "newOwner",
          "type": "address"
        }
      ],
      "name": "OwnershipTransferred",
      "type": "event"
    },
    {
      "anonymous": false,
      "inputs": [
        {
          "indexed": true,
          "internalType": "address",
          "name": "payer",
          "type": "address"
        },
        {
          "indexed": true,
          "internalType": "address",
          "name": "token",
          "type": "address"
        },
        {
          "indexed": false,
          "internalType": "uint256",
          "name": "amount",
          "type": "uint256"
        },
        {
          "indexed": false,
          "internalType": "string",
          "name": "generationType",
          "type": "string"
        }
      ],
      "name": "PaymentReceived",
      "type": "event"
    },
    {
      "inputs": [],
      "name": "BANDIT_KIDZ_PERCENT",
      "outputs": [
        {
          "internalType": "uint256",
          "name": "",
          "type": "uint256"
        }
      ],
      "stateMutability": "view",
      "type": "function"
    },
    {
      "inputs": [],
      "name": "CONTRACT_PERCENT",
      "outputs": [
        {
          "internalType": "uint256",
          "name": "",
          "type": "uint256"
        }
      ],
      "stateMutability": "view",
      "type": "function"
    },
    {
      "inputs": [],
      "name": "CORAL_COST",
      "outputs": [
        {
          "internalType": "uint256",
          "name": "",
          "type": "uint256"
        }
      ],
      "stateMutability": "view",
      "type": "function"
    },
    {
      "inputs": [],
      "name": "DEV_PERCENT",
      "outputs": [
        {
          "internalType": "uint256",
          "name": "",
          "type": "uint256"
        }
      ],
      "stateMutability": "view",
      "type": "function"
    },
    {
      "inputs": [],
      "name": "LEADERBOARD_PERCENT",
      "outputs": [
        {
          "internalType": "uint256",
          "name": "",
          "type": "uint256"
        }
      ],
      "stateMutability": "view",
      "type": "function"
    },
    {
      "inputs": [],
      "name": "NFT_CORAL_COST",
      "outputs": [
        {
          "internalType": "uint256",
          "name": "",
          "type": "uint256"
        }
      ],
      "stateMutability": "view",
      "type": "function"
    },
    {
      "inputs": [],
      "name": "NFT_SSSTT_COST",
      "outputs": [
        {
          "internalType": "uint256",
          "name": "",
          "type": "uint256"
        }
      ],
      "stateMutability": "view",
      "type": "function"
    },
    {
      "inputs": [],
      "name": "NFT_S_COST",
      "outputs": [
        {
          "internalType": "uint256",
          "name": "",
          "type": "uint256"
        }
      ],
      "stateMutability": "view",
      "type": "function"
    },
    {
      "inputs": [],
      "name": "NFT_USDC_COST",
      "outputs": [
        {
          "internalType": "uint256",
          "name": "",
          "type": "uint256"
        }
      ],
      "stateMutability": "view",
      "type": "function"
    },
    {
      "inputs": [],
      "name": "SSSTT",
      "outputs": [
        {
          "internalType": "contract IERC20",
          "name": "",
          "type": "address"
        }
      ],
      "stateMutability": "view",
      "type": "function"
    },
    {
      "inputs": [],
      "name": "SSSTT_COST",
      "outputs": [
        {
          "internalType": "uint256",
          "name": "",
          "type": "uint256"
        }
      ],
      "stateMutability": "view",
      "type": "function"
    },
    {
      "inputs": [],
      "name": "S_COST",
      "outputs": [
        {
          "internalType": "uint256",
          "name": "",
          "type": "uint256"
        }
      ],
      "stateMutability": "view",
      "type": "function"
    },
    {
      "inputs": [],
      "name": "S_TOKEN",
      "outputs": [
        {
          "internalType": "contract IERC20",
          "name": "",
          "type": "address"
        }
      ],
      "stateMutability": "view",
      "type": "function"
    },
    {
      "inputs": [],
      "name": "USDC",
      "outputs": [
        {
          "internalType": "contract IERC20",
          "name": "",
          "type": "address"
        }
      ],
      "stateMutability": "view",
      "type": "function"
    },
    {
      "inputs": [],
      "name": "USDC_COST",
      "outputs": [
        {
          "internalType": "uint256",
          "name": "",
          "type": "uint256"
        }
      ],
      "stateMutability": "view",
      "type": "function"
    },
    {
      "inputs": [
        {
          "internalType": "address",
          "name": "user",
          "type": "address"
        },
        {
          "internalType": "uint256",
          "name": "amount",
          "type": "uint256"
        }
      ],
      "name": "addCredits",
      "outputs": [],
      "stateMutability": "nonpayable",
      "type": "function"
    },
    {
      "inputs": [],
      "name": "banditKidzStaking",
      "outputs": [
        {
          "internalType": "address",
          "name": "",
          "type": "address"
        }
      ],
      "stateMutability": "view",
      "type": "function"
    },
    {
      "inputs": [
        {
          "internalType": "uint256",
          "name": "generationId",
          "type": "uint256"
        },
        {
          "internalType": "address",
          "name": "user",
          "type": "address"
        },
        {
          "internalType": "string",
          "name": "resultUrl",
          "type": "string"
        }
      ],
      "name": "completeGeneration",
      "outputs": [],
      "stateMutability": "nonpayable",
      "type": "function"
    },
    {
      "inputs": [],
      "name": "coralToken",
      "outputs": [
        {
          "internalType": "contract IERC20",
          "name": "",
          "type": "address"
        }
      ],
      "stateMutability": "view",
      "type": "function"
    },
    {
      "inputs": [],
      "name": "devWallet",
      "outputs": [
        {
          "internalType": "address",
          "name": "",
          "type": "address"
        }
      ],
      "stateMutability": "view",
      "type": "function"
    },
    {
      "inputs": [
        {
          "internalType": "address",
          "name": "token",
          "type": "address"
        },
        {
          "internalType": "uint256",
          "name": "amount",
          "type": "uint256"
        }
      ],
      "name": "emergencyWithdraw",
      "outputs": [],
      "stateMutability": "nonpayable",
      "type": "function"
    },
    {
      "inputs": [
        {
          "internalType": "address",
          "name": "token",
          "type": "address"
        }
      ],
      "name": "getContractBalance",
      "outputs": [
        {
          "internalType": "uint256",
          "name": "",
          "type": "uint256"
        }
      ],
      "stateMutability": "view",
      "type": "function"
    },
    {
      "inputs": [],
      "name": "getNFTContract",
      "outputs": [
        {
          "internalType": "address",
          "name": "",
          "type": "address"
        }
      ],
      "stateMutability": "view",
      "type": "function"
    },
    {
      "inputs": [],
      "name": "getNFTStats",
      "outputs": [
        {
          "internalType": "uint256",
          "name": "totalMinted",
          "type": "uint256"
        }
      ],
      "stateMutability": "view",
      "type": "function"
    },
    {
      "inputs": [],
      "name": "getPaymentCosts",
      "outputs": [
        {
          "internalType": "uint256",
          "name": "sssttCost",
          "type": "uint256"
        },
        {
          "internalType": "uint256",
          "name": "coralCost",
          "type": "uint256"
        },
        {
          "internalType": "uint256",
          "name": "sCost",
          "type": "uint256"
        },
        {
          "internalType": "uint256",
          "name": "usdcCost",
          "type": "uint256"
        },
        {
          "internalType": "uint256",
          "name": "nftSssttCost",
          "type": "uint256"
        },
        {
          "internalType": "uint256",
          "name": "nftCoralCost",
          "type": "uint256"
        },
        {
          "internalType": "uint256",
          "name": "nftSCost",
          "type": "uint256"
        },
        {
          "internalType": "uint256",
          "name": "nftUsdcCost",
          "type": "uint256"
        }
      ],
      "stateMutability": "pure",
      "type": "function"
    },
    {
      "inputs": [],
      "name": "getSupportedTokens",
      "outputs": [
        {
          "internalType": "address",
          "name": "ssstt",
          "type": "address"
        },
        {
          "internalType": "address",
          "name": "coral",
          "type": "address"
        },
        {
          "internalType": "address",
          "name": "sToken",
          "type": "address"
        },
        {
          "internalType": "address",
          "name": "usdc",
          "type": "address"
        }
      ],
      "stateMutability": "view",
      "type": "function"
    },
    {
      "inputs": [
        {
          "internalType": "address",
          "name": "user",
          "type": "address"
        }
      ],
      "name": "getUserStats",
      "outputs": [
        {
          "internalType": "uint256",
          "name": "generations",
          "type": "uint256"
        },
        {
          "internalType": "uint256",
          "name": "credits",
          "type": "uint256"
        },
        {
          "internalType": "uint256",
          "name": "nftsMinted",
          "type": "uint256"
        }
      ],
      "stateMutability": "view",
      "type": "function"
    },
    {
      "inputs": [],
      "name": "leaderboardThresholdMet",
      "outputs": [
        {
          "internalType": "bool",
          "name": "",
          "type": "bool"
        }
      ],
      "stateMutability": "view",
      "type": "function"
    },
    {
      "inputs": [
        {
          "internalType": "uint256",
          "name": "",
          "type": "uint256"
        }
      ],
      "name": "leaderboardWinners",
      "outputs": [
        {
          "internalType": "address",
          "name": "",
          "type": "address"
        }
      ],
      "stateMutability": "view",
      "type": "function"
    },
    {
      "inputs": [],
      "name": "nftContract",
      "outputs": [
        {
          "internalType": "contract IGeneratedArtNFT",
          "name": "",
          "type": "address"
        }
      ],
      "stateMutability": "view",
      "type": "function"
    },
    {
      "inputs": [],
      "name": "owner",
      "outputs": [
        {
          "internalType": "address",
          "name": "",
          "type": "address"
        }
      ],
      "stateMutability": "view",
      "type": "function"
    },
    {
      "inputs": [
        {
          "internalType": "string",
          "name": "prompt",
          "type": "string"
        },
        {
          "internalType": "string",
          "name": "generationType",
          "type": "string"
        }
      ],
      "name": "payWithCORAL",
      "outputs": [],
      "stateMutability": "nonpayable",
      "type": "function"
    },
    {
      "inputs": [
        {
          "internalType": "string",
          "name": "prompt",
          "type": "string"
        },
        {
          "internalType": "string",
          "name": "generationType",
          "type": "string"
        },
        {
          "internalType": "string",
          "name": "imageData",
          "type": "string"
        },
        {
          "internalType": "string",
          "name": "model",
          "type": "string"
        }
      ],
      "name": "payWithCORALAndMintNFT",
      "outputs": [],
      "stateMutability": "nonpayable",
      "type": "function"
    },
    {
      "inputs": [
        {
          "internalType": "string",
          "name": "prompt",
          "type": "string"
        },
        {
          "internalType": "string",
          "name": "generationType",
          "type": "string"
        }
      ],
      "name": "payWithS",
      "outputs": [],
      "stateMutability": "nonpayable",
      "type": "function"
    },
    {
      "inputs": [
        {
          "internalType": "string",
          "name": "prompt",
          "type": "string"
        },
        {
          "internalType": "string",
          "name": "generationType",
          "type": "string"
        },
        {
          "internalType": "string",
          "name": "imageData",
          "type": "string"
        },
        {
          "internalType": "string",
          "name": "model",
          "type": "string"
        }
      ],
      "name": "payWithSAndMintNFT",
      "outputs": [],
      "stateMutability": "nonpayable",
      "type": "function"
    },
    {
      "inputs": [
        {
          "internalType": "string",
          "name": "prompt",
          "type": "string"
        },
        {
          "internalType": "string",
          "name": "generationType",
          "type": "string"
        }
      ],
      "name": "payWithSSStt",
      "outputs": [],
      "stateMutability": "nonpayable",
      "type": "function"
    },
    {
      "inputs": [
        {
          "internalType": "string",
          "name": "prompt",
          "type": "string"
        },
        {
          "internalType": "string",
          "name": "generationType",
          "type": "string"
        },
        {
          "internalType": "string",
          "name": "imageData",
          "type": "string"
        },
        {
          "internalType": "string",
          "name": "model",
          "type": "string"
        }
      ],
      "name": "payWithSSSttAndMintNFT",
      "outputs": [],
      "stateMutability": "nonpayable",
      "type": "function"
    },
    {
      "inputs": [
        {
          "internalType": "string",
          "name": "prompt",
          "type": "string"
        },
        {
          "internalType": "string",
          "name": "generationType",
          "type": "string"
        }
      ],
      "name": "payWithUSDC",
      "outputs": [],
      "stateMutability": "nonpayable",
      "type": "function"
    },
    {
      "inputs": [
        {
          "internalType": "string",
          "name": "prompt",
          "type": "string"
        },
        {
          "internalType": "string",
          "name": "generationType",
          "type": "string"
        },
        {
          "internalType": "string",
          "name": "imageData",
          "type": "string"
        },
        {
          "internalType": "string",
          "name": "model",
          "type": "string"
        }
      ],
      "name": "payWithUSDCAndMintNFT",
      "outputs": [],
      "stateMutability": "nonpayable",
      "type": "function"
    },
    {
      "inputs": [
        {
          "internalType": "address",
          "name": "_banditKidzStaking",
          "type": "address"
        },
        {
          "internalType": "address",
          "name": "_devWallet",
          "type": "address"
        }
      ],
      "name": "setAddresses",
      "outputs": [],
      "stateMutability": "nonpayable",
      "type": "function"
    },
    {
      "inputs": [
        {
          "internalType": "address",
          "name": "_coralToken",
          "type": "address"
        }
      ],
      "name": "setCoralToken",
      "outputs": [],
      "stateMutability": "nonpayable",
      "type": "function"
    },
    {
      "inputs": [
        {
          "internalType": "address[3]",
          "name": "winners",
          "type": "address[3]"
        },
        {
          "internalType": "bool",
          "name": "thresholdMet",
          "type": "bool"
        }
      ],
      "name": "setLeaderboard",
      "outputs": [],
      "stateMutability": "nonpayable",
      "type": "function"
    },
    {
      "inputs": [
        {
          "internalType": "address",
          "name": "_nftContract",
          "type": "address"
        }
      ],
      "name": "setNFTContract",
      "outputs": [],
      "stateMutability": "nonpayable",
      "type": "function"
    },
    {
      "inputs": [],
      "name": "totalGenerations",
      "outputs": [
        {
          "internalType": "uint256",
          "name": "",
          "type": "uint256"
        }
      ],
      "stateMutability": "view",
      "type": "function"
    },
    {
      "inputs": [],
      "name": "totalNFTsMinted",
      "outputs": [
        {
          "internalType": "uint256",
          "name": "",
          "type": "uint256"
        }
      ],
      "stateMutability": "view",
      "type": "function"
    },
    {
      "inputs": [
        {
          "internalType": "address",
          "name": "newOwner",
          "type": "address"
        }
      ],
      "name": "transferOwnership",
      "outputs": [],
      "stateMutability": "nonpayable",
      "type": "function"
    },
    {
      "inputs": [
        {
          "internalType": "string",
          "name": "prompt",
          "type": "string"
        },
        {
          "internalType": "string",
          "name": "generationType",
          "type": "string"
        }
      ],
      "name": "useCredits",
      "outputs": [],
      "stateMutability": "nonpayable",
      "type": "function"
    },
    {
      "inputs": [
        {
          "internalType": "address",
          "name": "",
          "type": "address"
        }
      ],
      "name": "userCredits",
      "outputs": [
        {
          "internalType": "uint256",
          "name": "",
          "type": "uint256"
        }
      ],
      "stateMutability": "view",
      "type": "function"
    },
    {
      "inputs": [
        {
          "internalType": "address",
          "name": "",
          "type": "address"
        }
      ],
      "name": "userGenerations",
      "outputs": [
        {
          "internalType": "uint256",
          "name": "",
          "type": "uint256"
        }
      ],
      "stateMutability": "view",
      "type": "function"
    },
    {
      "inputs": [
        {
          "internalType": "address",
          "name": "",
          "type": "address"
        }
      ],
      "name": "userNFTsMinted",
      "outputs": [
        {
          "internalType": "uint256",
          "name": "",
          "type": "uint256"
        }
      ],
      "stateMutability": "view",
      "type": "function"
    },
    {
      "stateMutability": "payable",
      "type": "receive"
    }
  ],
  "bytecode": "0x60803461010157601f612db538819003918201601f19168301916001600160401b0383118484101761010657808492608094604052833981010312610101576100478161011c565b906100546020820161011c565b61006c60606100656040850161011c565b930161011c565b600080546001600160a01b031990811633179091556003805482166001600160a01b0396871617905560048054909116928516929092179091559116806100e7575b506001600160a01b0316806100cd575b604051612c8490816101318239f35b600280546001600160a01b031916919091179055386100be565b600180546001600160a01b031916919091179055386100ae565b600080fd5b634e487b7160e01b600052604160045260246000fd5b51906001600160a01b03821682036101015756fe6080604052600436101561001b575b361561001957600080fd5b005b60003560e01c8063023bed96146122d657806316d78205146122b857806320babb921461227e57806327532d2714612262578063294d518b14611a795780632a23667b1461223f5780632b1f4ad614610e625780632fd199e6146122215780633112104e14611fc257806337d337c914611fa657806339f50ce714611f6c5780633e05b15a14611ecb57806343ab265f14611f415780634e43603a14611ee95780634eb7e95f14611ecb578063575022bf14611afa57806365f34e6214611a7e57806386a89ad014611a79578063871ff405146119f357806389a30271146119c45780638da5cb5b1461199b5780638ea5220f146119725780638fc737781461194957806390107afe146118b257806395ccea67146117e5578063984c95ed146117c9578063a7ccabdf14611743578063abac0161146114ce578063ac54b4a91461149f578063acdc475d14611481578063bba2e14014611458578063bdebaf071461143c578063c15385a61461103e578063c770cb1f14610f22578063c9692bf71461100f578063cb77a8db14610f27578063cb9f68e714610f22578063cca2a55c14610eff578063d3c7c2c714610e8b578063d56d229d14610e62578063d65414ab14610bed578063de6175ad14610bca578063e637e8c214610b90578063e648e62514610b36578063e75008501461071a578063f16167421461063b578063f18dd7d91461039e578063f2fde38b14610320578063fac573ca146102815763ff1554670361000e573461027c57602036600319011261027c57600435600381101561027c57600501546040516001600160a01b039091168152602090f35b600080fd5b3461027c57606036600319011261027c5761029a6127ae565b60443567ffffffffffffffff811161027c576102db7f6571c0fc51c0eeca3f501b0a4eb26f2a26a5f8a994f6008a5845079d0b3aa3a29136906004016126d2565b6102f060018060a01b03600054163314612ab4565b61030f6040519283926004358452604060208501526040840191612969565b6001600160a01b03909416930390a2005b3461027c57602036600319011261027c57610339612798565b6000546001600160a01b03811691610352338414612ab4565b6001600160a01b0316918290610369821515612aec565b7f8be0079c531659141344cd1fd0a4f28419497f9722a3daafe3b4186f6b6457e0600080a36001600160a01b03191617600055005b3461027c576103ac366127e7565b916103bb819492941515612858565b6040516323b872dd60e01b8152336004820152306024820152620f42406044820152602081606481600073a4879fed32ecbef99399e5cbc247e533421c4ec65af18015610551576104149160009161061c575b50612926565b60035460405163a9059cbb60e01b81526001600160a01b0390911660048201526203d0906024820152602081604481600073a4879fed32ecbef99399e5cbc247e533421c4ec65af18015610551576105ff575b5060ff6008541661055d575b60018060a01b0360045416936040519463a9059cbb60e01b865260048601526207a1206024860152602085604481600073a4879fed32ecbef99399e5cbc247e533421c4ec65af192831561055157848261051d946104fd9373a4879fed32ecbef99399e5cbc247e533421c4ec699600080516020612c5883398151915298610522575b5033612bab565b50604051918291620f424083526040602084015233956040840191612969565b0390a3005b6105439060203d60201161054a575b61053b81836128d6565b81019061290e565b508a6104f6565b503d610531565b6040513d6000823e3d90fd5b92919060005b60038110156105f65760058101546001600160a01b03169060008261058e575b506001915001610563565b506040519163a9059cbb60e01b8352600483015261c3506024830152602082604481600073a4879fed32ecbef99399e5cbc247e533421c4ec65af19182156105515760019215610583576105ef9060203d811161054a5761053b81836128d6565b5086610583565b50909192610473565b6106179060203d60201161054a5761053b81836128d6565b610467565b610635915060203d60201161054a5761053b81836128d6565b8661040e565b3461027c57610649366127e7565b91610655811515612858565b33600052600b602052604060002054156106de5733600052600b60205260406000209182549460001986019586116106c857848261051d946106ab93600099600080516020612c58833981519152985533612bab565b506040519182918683526040602084015233956040840191612969565b634e487b7160e01b600052601160045260246000fd5b60405162461bcd60e51b81526020600482015260146024820152734e6f206372656469747320617661696c61626c6560601b6044820152606490fd5b3461027c5761072836612700565b610739879394979695961515612858565b600254610750906001600160a01b03161515612893565b6040516323b872dd60e01b8152336004820152306024820152673e733628714200006044820152602081606481600073039e2fb66102314ce7b64ce5ce3e5183bc94ad385af18015610551576107ae91600091610b17575b50612b27565b60035460405163a9059cbb60e01b81526001600160a01b039091166004820152670f9ccd8a1c5080006024820152602081604481600073039e2fb66102314ce7b64ce5ce3e5183bc94ad385af1801561055157610afa575b5060ff60085416610a4a575b60018060a01b03600454166040519063a9059cbb60e01b82526004820152671f399b1438a100006024820152602081604481600073039e2fb66102314ce7b64ce5ce3e5183bc94ad385af1801561055157610a2b575b506108768686858b33612bab565b96600160a01b600190036002541694604051998a95633d36ce7760e21b87523360048801526024870160c0905260c48701906108b192612969565b906003198683030160448701526108c792612969565b906003198483030160648501526108dd92612969565b818103600319016084830152600781526629afaa27a5a2a760c91b602082015260400181810390600319820160a484015260009052602001815a602094600091f1938415610551576000946109e7575b5090600080516020612c5883398151915261099f73039e2fb66102314ce7b64ce5ce3e5183bc94ad389333600052600c602052604060002061096f815461298a565b905561097c600d5461298a565b600d5560405193673e733628714200008552604060208601526040850191612969565b918033930390a360405190815260406020820152600080516020612c3883398151915233918061051d60408201604090600781526629afaa27a5a2a760c91b60208201520190565b919093506020823d602011610a23575b81610a04602093836128d6565b8101031261027c57905192600080516020612c5883398151915261092d565b3d91506109f7565b610a439060203d60201161054a5761053b81836128d6565b5088610868565b9695949392919060005b6003811015610aed5760058101546001600160a01b031690600082610a7f575b506001915001610a54565b506040519163a9059cbb60e01b8352600483015267031f5c4ed27680006024830152602082604481600073039e2fb66102314ce7b64ce5ce3e5183bc94ad385af19182156105515760019215610a7457610ae69060203d811161054a5761053b81836128d6565b508a610a74565b5090919293949596610812565b610b129060203d60201161054a5761053b81836128d6565b610806565b610b30915060203d60201161054a5761053b81836128d6565b8a6107a8565b3461027c57602036600319011261027c57610b4f612798565b610b6460018060a01b03600054163314612ab4565b6001600160a01b0316610b78811515612aec565b6001600160601b0360a01b6001541617600155600080f35b3461027c57602036600319011261027c576001600160a01b03610bb1612798565b16600052600a6020526020604060002054604051908152f35b3461027c57600036600319011261027c5760206040516714d1120d7b1600008152f35b3461027c57610bfb366127e7565b91610c0a819492941515612858565b6040516323b872dd60e01b8152336004820152306024820152670de0b6b3a76400006044820152602081606481600073c777fa50186362fe0ef9ccd579b6385ce7cb49f15af1801561055157610c6891600091610e43575b50612b67565b60035460405163a9059cbb60e01b81526001600160a01b0390911660048201526703782dace9d900006024820152602081604481600073c777fa50186362fe0ef9ccd579b6385ce7cb49f15af1801561055157610e26575b5060ff60085416610d7f575b60018060a01b0360045416936040519463a9059cbb60e01b865260048601526706f05b59d3b200006024860152602085604481600073c777fa50186362fe0ef9ccd579b6385ce7cb49f15af192831561055157848261051d94610d5a9373c777fa50186362fe0ef9ccd579b6385ce7cb49f199600080516020612c5883398151915298610522575033612bab565b50604051918291670de0b6b3a764000083526040602084015233956040840191612969565b92919060005b6003811015610e1d5760058101546001600160a01b031690600082610db0575b506001915001610d85565b506040519163a9059cbb60e01b8352600483015266b1a2bc2ec500006024830152602082604481600073c777fa50186362fe0ef9ccd579b6385ce7cb49f15af19182156105515760019215610da557610e169060203d811161054a5761053b81836128d6565b5086610da5565b50909192610ccc565b610e3e9060203d60201161054a5761053b81836128d6565b610cc0565b610e5c915060203d60201161054a5761053b81836128d6565b86610c62565b3461027c57600036600319011261027c576002546040516001600160a01b039091168152602090f35b3461027c57600036600319011261027c57608060018060a01b03600154166040519073c777fa50186362fe0ef9ccd579b6385ce7cb49f18252602082015273039e2fb66102314ce7b64ce5ce3e5183bc94ad38604082015273a4879fed32ecbef99399e5cbc247e533421c4ec66060820152f35b3461027c57600036600319011261027c57602060ff600854166040519015158152f35b612835565b3461027c57608036600319011261027c573660641161027c5760643580151580910361027c57610f6260018060a01b03600054163314612ab4565b600060045b60038210610fe9578260ff196008541660ff821617600855604051908160046000915b60038310610fbf577f1252441462c706793cd4cfed52f0d215259c8b3af75da3f78112618e52bcbc92608086866060820152a1005b81356001600160a01b038116919082900361027c5760208160019382935201920192019190610f8a565b8035916001600160a01b038316830361027c576020600192019281600501550190610f67565b3461027c57600036600319011261027c57602060405173c777fa50186362fe0ef9ccd579b6385ce7cb49f18152f35b3461027c5761104c36612700565b61105a879394971515612858565b600254611071906001600160a01b03161515612893565b6040516323b872dd60e01b81523360048201523060248201526714d1120d7b1600006044820152602081606481600073c777fa50186362fe0ef9ccd579b6385ce7cb49f15af18015610551576110ce9160009161141d5750612b67565b60035460405163a9059cbb60e01b81526001600160a01b03909116600482015267053444835ec580006024820152602081604481600073c777fa50186362fe0ef9ccd579b6385ce7cb49f15af1801561055157611400575b5060ff60085416611350575b60018060a01b03600454166040519063a9059cbb60e01b82526004820152670a688906bd8b00006024820152602081604481600073c777fa50186362fe0ef9ccd579b6385ce7cb49f15af1801561055157611331575b506111968587858b33612bab565b96600160a01b600190036002541694604051998a95633d36ce7760e21b87523360048801526024870160c0905260c48701906111d192612969565b906003198683030160448701526111e792612969565b906003198483030160648501526111fd92612969565b818103600319016084830152600581526414d4d4d51560da1b602082015260400181810390600319820160a484015260009052602001815a602094600091f1938415610551576000946112ed575b5090600080516020612c588339815191526112ab73c777fa50186362fe0ef9ccd579b6385ce7cb49f19333600052600c602052604060002061128d815461298a565b905561129a600d5461298a565b600d55604051918291339583612999565b0390a360405190815260406020820152600080516020612c3883398151915233918061051d60408201604090600581526414d4d4d51560da1b60208201520190565b919093506020823d602011611329575b8161130a602093836128d6565b8101031261027c57905192600080516020612c5883398151915261124b565b3d91506112fd565b6113499060203d60201161054a5761053b81836128d6565b5088611188565b9695949392919060005b60038110156113f35760058101546001600160a01b031690600082611385575b50600191500161135a565b506040519163a9059cbb60e01b8352600483015267010a741a462780006024830152602082604481600073c777fa50186362fe0ef9ccd579b6385ce7cb49f15af1918215610551576001921561137a576113ec9060203d811161054a5761053b81836128d6565b508a61137a565b5090919293949596611132565b6114189060203d60201161054a5761053b81836128d6565b611126565b611436915060203d60201161054a5761053b81836128d6565b8a610c62565b3461027c57600036600319011261027c576020604051600f8152f35b3461027c57600036600319011261027c576001546040516001600160a01b039091168152602090f35b3461027c57600036600319011261027c5760206040516207a1208152f35b3461027c57600036600319011261027c57602060405173039e2fb66102314ce7b64ce5ce3e5183bc94ad388152f35b3461027c576114dc366127e7565b916114eb819492941515612858565b6040516323b872dd60e01b81523360048201523060248201526729a2241af62c00006044820152602081606481600073039e2fb66102314ce7b64ce5ce3e5183bc94ad385af1801561055157611548916000916117245750612b27565b60035460405163a9059cbb60e01b81526001600160a01b039091166004820152670a688906bd8b00006024820152602081604481600073039e2fb66102314ce7b64ce5ce3e5183bc94ad385af1801561055157611707575b5060ff6008541661165f575b60018060a01b0360045416936040519463a9059cbb60e01b865260048601526714d1120d7b1600006024860152602085604481600073039e2fb66102314ce7b64ce5ce3e5183bc94ad385af192831561055157848261051d9461163a9373039e2fb66102314ce7b64ce5ce3e5183bc94ad3899600080516020612c5883398151915298610522575033612bab565b506040519182916729a2241af62c000083526040602084015233956040840191612969565b92919060005b60038110156116fe5760058101546001600160a01b031690600082611690575b506001915001611665565b506040519163a9059cbb60e01b83526004830152670214e8348c4f00006024830152602082604481600073039e2fb66102314ce7b64ce5ce3e5183bc94ad385af19182156105515760019215611685576116f79060203d811161054a5761053b81836128d6565b5086611685565b509091926115ac565b61171f9060203d60201161054a5761053b81836128d6565b6115a0565b61173d915060203d60201161054a5761053b81836128d6565b866107a8565b3461027c57602036600319011261027c5761175c612798565b61177160018060a01b03600054163314612ab4565b6001600160a01b0316611785811515612aec565b600280546001600160a01b0319811683179091556001600160a01b03167fab9636faa03b42a52a353eb86f070f1ac15b69f0bc419fba63d07b5d996edad7600080a3005b3461027c57600036600319011261027c576020604051600a8152f35b3461027c57604036600319011261027c576000611800612798565b8154602435916001600160a01b039091169061181d338314612ab4565b6001600160a01b03168015841461185b5750508154829182918291906001600160a01b0316828215611852575bf11561055157005b506108fc61184a565b60405163a9059cbb60e01b81526001600160a01b03909216600483015260248201929092529160209183916044918391905af180156105515761189a57005b6100199060203d60201161054a5761053b81836128d6565b3461027c57604036600319011261027c576118cb612798565b6118d36127ae565b906118e960018060a01b03600054163314612ab4565b6001600160a01b031680151580611937575b61190490612aec565b6001600160601b0360a01b600354161760035560018060a01b03166001600160601b0360a01b6004541617600455600080f35b506001600160a01b03821615156118fb565b3461027c57600036600319011261027c576003546040516001600160a01b039091168152602090f35b3461027c57600036600319011261027c576004546040516001600160a01b039091168152602090f35b3461027c57600036600319011261027c576000546040516001600160a01b039091168152602090f35b3461027c57600036600319011261027c57602060405173a4879fed32ecbef99399e5cbc247e533421c4ec68152f35b3461027c57604036600319011261027c57611a0c612798565b60243590611a2560018060a01b03600054163314612ab4565b6001600160a01b03166000818152600b60205260409020805491928281019283106106c8577fed46984c46e11f42ec323727ba7d99dc16be2d248a8aaa8982d492688497f09d9260209255604051908152a2005b6127c4565b3461027c57600036600319011261027c57610100604051670de0b6b3a76400008152670de0b6b3a764000060208201526729a2241af62c00006040820152620f424060608201526706f05b59d3b2000060808201526706f05b59d3b2000060a08201526714d1120d7b16000060c08201526207a12060e0820152f35b3461027c57611b0836612700565b611b19879394979695961515612858565b6001546001600160a01b0316611b308115156129bb565b600254611b47906001600160a01b03161515612893565b6040516323b872dd60e01b81523360048201523060248201526714d1120d7b160000604482015290602090829060649082906000905af1801561055157611b9691600091611eac575b506129fd565b60015460035460405163a9059cbb60e01b81526001600160a01b03918216600482015267053444835ec5800060248201529116906020816044816000865af1801561055157611e8f575b5060ff60085416611ddd575b6020600091604460018060a01b0360045416604051948593849263a9059cbb60e01b84526004840152670a688906bd8b000060248401525af1801561055157611dbe575b50611c3e8686858b33612bab565b96600160a01b600190036002541694604051998a95633d36ce7760e21b87523360048801526024870160c0905260c4870190611c7992612969565b90600319868303016044870152611c8f92612969565b90600319848303016064850152611ca592612969565b818103600319016084830152600581526410d3d4905360da1b602082015260400181810390600319820160a484015260009052602001815a602094600091f193841561055157600094611d8a575b5033600052600c6020526040600020611d0c815461298a565b9055611d19600d5461298a565b600d55600080516020612c58833981519152611d4860018060a01b036001541693604051918291339583612999565b0390a360405190815260406020820152600080516020612c3883398151915233918061051d60408201604090600581526410d3d4905360da1b60208201520190565b9093506020813d602011611db6575b81611da6602093836128d6565b8101031261027c57519284611cf3565b3d9150611d99565b611dd69060203d60201161054a5761053b81836128d6565b5088611c30565b97959391600097959391975b6003811015611e7c5760058101548a91906001600160a01b0316600081611e17575b50506001915001611de9565b92604460209260009550604051958693849263a9059cbb60e01b8452600484015267010a741a4627800060248401525af191821561055157600192611e5e575b8b92611e0b565b611e759060203d811161054a5761053b81836128d6565b508b611e57565b5095979496939592949193909291611bec565b611ea79060203d60201161054a5761053b81836128d6565b611be0565b611ec5915060203d60201161054a5761053b81836128d6565b8a611b90565b3461027c57600036600319011261027c576020600d54604051908152f35b3461027c57602036600319011261027c5760606001600160a01b03611f0c612798565b166000908152600a6020908152604080832054600b835281842054600c84529382902054825191825292810193909352820152f35b3461027c57602036600319011261027c576020611f64611f5f612798565b612a41565b604051908152f35b3461027c57602036600319011261027c576001600160a01b03611f8d612798565b16600052600c6020526020604060002054604051908152f35b3461027c57600036600319011261027c57602060405160198152f35b3461027c57611fd0366127e7565b91611fdf819492941515612858565b6001546000906020906001600160a01b0316611ffc8115156129bb565b6064604051809481936323b872dd60e01b8352336004840152306024840152670de0b6b3a764000060448401525af18015610551576120429160009161220257506129fd565b60015460035460405163a9059cbb60e01b81526001600160a01b0391821660048201526703782dace9d9000060248201529116906020816044816000865af18015610551576121e5575b5060ff6008541661214e575b906020600092604460018060a01b0360045416604051958693849263a9059cbb60e01b845260048401526706f05b59d3b2000060248401525af1908115610551576120ec938593879361212f575033612bab565b50600080516020612c5883398151915261051d60018060a01b036001541693604051918291670de0b6b3a764000083526040602084015233956040840191612969565b6121479060203d60201161054a5761053b81836128d6565b50876104f6565b939160009391935b60038110156121da5760058101546001600160a01b031690600082612181575b506001915001612156565b506040519163a9059cbb60e01b8352600483015266b1a2bc2ec50000602483015260208260448160008b5af19182156105515760019215612176576121d39060203d811161054a5761053b81836128d6565b5087612176565b509193909290612098565b6121fd9060203d60201161054a5761053b81836128d6565b61208c565b61221b915060203d60201161054a5761053b81836128d6565b86611b90565b3461027c57600036600319011261027c576020600954604051908152f35b3461027c57600036600319011261027c5760206040516729a2241af62c00008152f35b3461027c57600036600319011261027c57602060405160328152f35b3461027c57602036600319011261027c576001600160a01b0361229f612798565b16600052600b6020526020604060002054604051908152f35b3461027c57600036600319011261027c576020604051620f42408152f35b3461027c576122e436612700565b6122f5879394979695961515612858565b60025461230c906001600160a01b03161515612893565b6040516323b872dd60e01b81523360048201523060248201526216e3606044820152602081606481600073a4879fed32ecbef99399e5cbc247e533421c4ec65af1801561055157612364916000916126b35750612926565b60035460405163a9059cbb60e01b81526001600160a01b0390911660048201526205b8d86024820152602081604481600073a4879fed32ecbef99399e5cbc247e533421c4ec65af1801561055157612696575b5060ff600854166125eb575b60018060a01b03600454166040519063a9059cbb60e01b82526004820152620b71b06024820152602081604481600073a4879fed32ecbef99399e5cbc247e533421c4ec65af18015610551576125cc575b506124228686858b33612bab565b96600160a01b600190036002541694604051998a95633d36ce7760e21b87523360048801526024870160c0905260c487019061245d92612969565b9060031986830301604487015261247392612969565b9060031984830301606485015261248992612969565b81810360031901608483015260048152635553444360e01b602082015260400181810390600319820160a484015260009052602001815a602094600091f193841561055157600094612588575b5090600080516020612c5883398151915261254373a4879fed32ecbef99399e5cbc247e533421c4ec69333600052600c6020526040600020612518815461298a565b9055612525600d5461298a565b600d55604051936216e3608552604060208601526040850191612969565b918033930390a360405190815260406020820152600080516020612c3883398151915233918061051d6040820160409060048152635553444360e01b60208201520190565b919093506020823d6020116125c4575b816125a5602093836128d6565b8101031261027c57905192600080516020612c588339815191526124d6565b3d9150612598565b6125e49060203d60201161054a5761053b81836128d6565b5088612414565b9695949392919060005b60038110156126895760058101546001600160a01b031690600082612620575b5060019150016125f5565b506040519163a9059cbb60e01b83526004830152620124f86024830152602082604481600073a4879fed32ecbef99399e5cbc247e533421c4ec65af19182156105515760019215612615576126829060203d811161054a5761053b81836128d6565b508a612615565b50909192939495966123c3565b6126ae9060203d60201161054a5761053b81836128d6565b6123b7565b6126cc915060203d60201161054a5761053b81836128d6565b8a61040e565b9181601f8401121561027c5782359167ffffffffffffffff831161027c576020838186019501011161027c57565b608060031982011261027c5760043567ffffffffffffffff811161027c578161272b916004016126d2565b9290929160243567ffffffffffffffff811161027c578161274e916004016126d2565b9290929160443567ffffffffffffffff811161027c5781612771916004016126d2565b929092916064359067ffffffffffffffff821161027c57612794916004016126d2565b9091565b600435906001600160a01b038216820361027c57565b602435906001600160a01b038216820361027c57565b3461027c57600036600319011261027c5760206040516706f05b59d3b200008152f35b604060031982011261027c5760043567ffffffffffffffff811161027c5781612812916004016126d2565b929092916024359067ffffffffffffffff821161027c57612794916004016126d2565b3461027c57600036600319011261027c576020604051670de0b6b3a76400008152f35b1561285f57565b60405162461bcd60e51b815260206004820152600c60248201526b115b5c1d1e481c1c9bdb5c1d60a21b6044820152606490fd5b1561289a57565b60405162461bcd60e51b81526020600482015260146024820152731391950818dbdb9d1c9858dd081b9bdd081cd95d60621b6044820152606490fd5b90601f8019910116810190811067ffffffffffffffff8211176128f857604052565b634e487b7160e01b600052604160045260246000fd5b9081602091031261027c5751801515810361027c5790565b1561292d57565b60405162461bcd60e51b81526020600482015260146024820152731554d110c81d1c985b9cd9995c8819985a5b195960621b6044820152606490fd5b908060209392818452848401376000828201840152601f01601f1916010190565b60001981146106c85760010190565b9160406129b8936714d1120d7b16000081528160208201520191612969565b90565b156129c257565b60405162461bcd60e51b815260206004820152601360248201527210d3d49053081d1bdad95b881b9bdd081cd95d606a1b6044820152606490fd5b15612a0457565b60405162461bcd60e51b815260206004820152601560248201527410d3d49053081d1c985b9cd9995c8819985a5b1959605a1b6044820152606490fd5b6001600160a01b03168015612aaf576020602491604051928380926370a0823160e01b82523060048301525afa90811561055157600091612a80575090565b90506020813d602011612aa7575b81612a9b602093836128d6565b8101031261027c575190565b3d9150612a8e565b504790565b15612abb57565b60405162461bcd60e51b81526020600482015260096024820152682737ba1037bbb732b960b91b6044820152606490fd5b15612af357565b60405162461bcd60e51b815260206004820152600c60248201526b5a65726f206164647265737360a01b6044820152606490fd5b15612b2e57565b60405162461bcd60e51b815260206004820152601160248201527014c81d1c985b9cd9995c8819985a5b1959607a1b6044820152606490fd5b15612b6e57565b60405162461bcd60e51b815260206004820152601560248201527414d4d4dd1d081d1c985b9cd9995c8819985a5b1959605a1b6044820152606490fd5b91612c2b7fe1d13bef5d7b05d92d047ca981937627ae93cac1631142181f429dd54eac1f4793612bdc60095461298a565b60095560018060a01b03169485600052600a6020526040600020612c00815461298a565b905560095496612c1d604051958695606087526060870191612969565b918483036020860152612969565b8560408301520390a29056fe01f8bd07e6c27ff813d5c6d3c4bf0313a1d75043cf978214b504b794075e52660da8e031922d6bdf36a83b26ef74cd487e4ec7945a6abf37b9b8cf1b194788fda164736f6c634300081b000a",
  "linkReferences": {},
  "deployedLinkReferences": {}
}