{
  "_format": "hh-sol-artifact-1",
  "contractName": "ERC7857VerifiableINFT",
  "sourceName": "Contracts/ERC7857VerifiableINFTTestnet.sol",
  "abi": [
    {
      "inputs": [],
      "stateMutability": "nonpayable",
      "type": "constructor"
    },
    {
      "inputs": [
        {
          "internalType": "address",
          "name": "target",
          "type": "address"
        }
      ],
      "name": "AddressEmptyCode",
      "type": "error"
    },
    {
      "inputs": [
        {
          "internalType": "address",
          "name": "implementation",
          "type": "address"
        }
      ],
      "name": "ERC1967InvalidImplementation",
      "type": "error"
    },
    {
      "inputs": [],
      "name": "ERC1967NonPayable",
      "type": "error"
    },
    {
      "inputs": [
        {
          "internalType": "address",
          "name": "sender",
          "type": "address"
        },
        {
          "internalType": "uint256",
          "name": "tokenId",
          "type": "uint256"
        },
        {
          "internalType": "address",
          "name": "owner",
          "type": "address"
        }
      ],
      "name": "ERC721IncorrectOwner",
      "type": "error"
    },
    {
      "inputs": [
        {
          "internalType": "address",
          "name": "operator",
          "type": "address"
        },
        {
          "internalType": "uint256",
          "name": "tokenId",
          "type": "uint256"
        }
      ],
      "name": "ERC721InsufficientApproval",
      "type": "error"
    },
    {
      "inputs": [
        {
          "internalType": "address",
          "name": "approver",
          "type": "address"
        }
      ],
      "name": "ERC721InvalidApprover",
      "type": "error"
    },
    {
      "inputs": [
        {
          "internalType": "address",
          "name": "operator",
          "type": "address"
        }
      ],
      "name": "ERC721InvalidOperator",
      "type": "error"
    },
    {
      "inputs": [
        {
          "internalType": "address",
          "name": "owner",
          "type": "address"
        }
      ],
      "name": "ERC721InvalidOwner",
      "type": "error"
    },
    {
      "inputs": [
        {
          "internalType": "address",
          "name": "receiver",
          "type": "address"
        }
      ],
      "name": "ERC721InvalidReceiver",
      "type": "error"
    },
    {
      "inputs": [
        {
          "internalType": "address",
          "name": "sender",
          "type": "address"
        }
      ],
      "name": "ERC721InvalidSender",
      "type": "error"
    },
    {
      "inputs": [
        {
          "internalType": "uint256",
          "name": "tokenId",
          "type": "uint256"
        }
      ],
      "name": "ERC721NonexistentToken",
      "type": "error"
    },
    {
      "inputs": [],
      "name": "EnforcedPause",
      "type": "error"
    },
    {
      "inputs": [],
      "name": "ExpectedPause",
      "type": "error"
    },
    {
      "inputs": [],
      "name": "FailedCall",
      "type": "error"
    },
    {
      "inputs": [],
      "name": "InvalidInitialization",
      "type": "error"
    },
    {
      "inputs": [],
      "name": "NotInitializing",
      "type": "error"
    },
    {
      "inputs": [
        {
          "internalType": "address",
          "name": "owner",
          "type": "address"
        }
      ],
      "name": "OwnableInvalidOwner",
      "type": "error"
    },
    {
      "inputs": [
        {
          "internalType": "address",
          "name": "account",
          "type": "address"
        }
      ],
      "name": "OwnableUnauthorizedAccount",
      "type": "error"
    },
    {
      "inputs": [],
      "name": "ReentrancyGuardReentrantCall",
      "type": "error"
    },
    {
      "inputs": [],
      "name": "UUPSUnauthorizedCallContext",
      "type": "error"
    },
    {
      "inputs": [
        {
          "internalType": "bytes32",
          "name": "slot",
          "type": "bytes32"
        }
      ],
      "name": "UUPSUnsupportedProxiableUUID",
      "type": "error"
    },
    {
      "anonymous": false,
      "inputs": [
        {
          "indexed": true,
          "internalType": "address",
          "name": "owner",
          "type": "address"
        },
        {
          "indexed": true,
          "internalType": "address",
          "name": "approved",
          "type": "address"
        },
        {
          "indexed": true,
          "internalType": "uint256",
          "name": "tokenId",
          "type": "uint256"
        }
      ],
      "name": "Approval",
      "type": "event"
    },
    {
      "anonymous": false,
      "inputs": [
        {
          "indexed": true,
          "internalType": "address",
          "name": "owner",
          "type": "address"
        },
        {
          "indexed": true,
          "internalType": "address",
          "name": "operator",
          "type": "address"
        },
        {
          "indexed": false,
          "internalType": "bool",
          "name": "approved",
          "type": "bool"
        }
      ],
      "name": "ApprovalForAll",
      "type": "event"
    },
    {
      "anonymous": false,
      "inputs": [
        {
          "indexed": false,
          "internalType": "uint256",
          "name": "_fromTokenId",
          "type": "uint256"
        },
        {
          "indexed": false,
          "internalType": "uint256",
          "name": "_toTokenId",
          "type": "uint256"
        }
      ],
      "name": "BatchMetadataUpdate",
      "type": "event"
    },
    {
      "anonymous": false,
      "inputs": [
        {
          "indexed": true,
          "internalType": "uint256",
          "name": "tokenId",
          "type": "uint256"
        },
        {
          "indexed": true,
          "internalType": "address",
          "name": "owner",
          "type": "address"
        },
        {
          "indexed": false,
          "internalType": "string",
          "name": "metadataHash",
          "type": "string"
        },
        {
          "indexed": false,
          "internalType": "bytes32",
          "name": "proofHash",
          "type": "bytes32"
        }
      ],
      "name": "INFTCreated",
      "type": "event"
    },
    {
      "anonymous": false,
      "inputs": [
        {
          "indexed": true,
          "internalType": "uint256",
          "name": "tokenId",
          "type": "uint256"
        },
        {
          "indexed": true,
          "internalType": "uint256",
          "name": "packageTokenId",
          "type": "uint256"
        }
      ],
      "name": "INFTPackageLinked",
      "type": "event"
    },
    {
      "anonymous": false,
      "inputs": [
        {
          "indexed": false,
          "internalType": "uint64",
          "name": "version",
          "type": "uint64"
        }
      ],
      "name": "Initialized",
      "type": "event"
    },
    {
      "anonymous": false,
      "inputs": [
        {
          "indexed": false,
          "internalType": "uint256",
          "name": "_tokenId",
          "type": "uint256"
        }
      ],
      "name": "MetadataUpdate",
      "type": "event"
    },
    {
      "anonymous": false,
      "inputs": [
        {
          "indexed": true,
          "internalType": "uint256",
          "name": "tokenId",
          "type": "uint256"
        },
        {
          "indexed": false,
          "internalType": "string",
          "name": "newMetadataHash",
          "type": "string"
        },
        {
          "indexed": false,
          "internalType": "bytes32",
          "name": "newProofHash",
          "type": "bytes32"
        }
      ],
      "name": "MetadataUpdated",
      "type": "event"
    },
    {
      "anonymous": false,
      "inputs": [
        {
          "indexed": true,
          "internalType": "address",
          "name": "previousOwner",
          "type": "address"
        },
        {
          "indexed": true,
          "internalType": "address",
          "name": "newOwner",
          "type": "address"
        }
      ],
      "name": "OwnershipTransferred",
      "type": "event"
    },
    {
      "anonymous": false,
      "inputs": [
        {
          "indexed": true,
          "internalType": "uint256",
          "name": "tokenId",
          "type": "uint256"
        },
        {
          "indexed": true,
          "internalType": "address",
          "name": "owner",
          "type": "address"
        },
        {
          "indexed": false,
          "internalType": "bytes32",
          "name": "proofHash",
          "type": "bytes32"
        }
      ],
      "name": "OwnershipVerified",
      "type": "event"
    },
    {
      "anonymous": false,
      "inputs": [
        {
          "indexed": false,
          "internalType": "address",
          "name": "account",
          "type": "address"
        }
      ],
      "name": "Paused",
      "type": "event"
    },
    {
      "anonymous": false,
      "inputs": [
        {
          "indexed": true,
          "internalType": "uint256",
          "name": "tokenId",
          "type": "uint256"
        },
        {
          "indexed": true,
          "internalType": "address",
          "name": "from",
          "type": "address"
        },
        {
          "indexed": true,
          "internalType": "address",
          "name": "to",
          "type": "address"
        },
        {
          "indexed": false,
          "internalType": "bytes32",
          "name": "transferId",
          "type": "bytes32"
        }
      ],
      "name": "SecureTransferInitiated",
      "type": "event"
    },
    {
      "anonymous": false,
      "inputs": [
        {
          "indexed": true,
          "internalType": "address",
          "name": "from",
          "type": "address"
        },
        {
          "indexed": true,
          "internalType": "address",
          "name": "to",
          "type": "address"
        },
        {
          "indexed": true,
          "internalType": "uint256",
          "name": "tokenId",
          "type": "uint256"
        }
      ],
      "name": "Transfer",
      "type": "event"
    },
    {
      "anonymous": false,
      "inputs": [
        {
          "indexed": false,
          "internalType": "address",
          "name": "account",
          "type": "address"
        }
      ],
      "name": "Unpaused",
      "type": "event"
    },
    {
      "anonymous": false,
      "inputs": [
        {
          "indexed": true,
          "internalType": "address",
          "name": "implementation",
          "type": "address"
        }
      ],
      "name": "Upgraded",
      "type": "event"
    },
    {
      "inputs": [],
      "name": "MAX_TRANSFER_WINDOW",
      "outputs": [
        {
          "internalType": "uint256",
          "name": "",
          "type": "uint256"
        }
      ],
      "stateMutability": "view",
      "type": "function"
    },
    {
      "inputs": [],
      "name": "UPGRADE_INTERFACE_VERSION",
      "outputs": [
        {
          "internalType": "string",
          "name": "",
          "type": "string"
        }
      ],
      "stateMutability": "view",
      "type": "function"
    },
    {
      "inputs": [
        {
          "internalType": "address",
          "name": "to",
          "type": "address"
        },
        {
          "internalType": "uint256",
          "name": "tokenId",
          "type": "uint256"
        }
      ],
      "name": "approve",
      "outputs": [],
      "stateMutability": "nonpayable",
      "type": "function"
    },
    {
      "inputs": [
        {
          "internalType": "address",
          "name": "owner",
          "type": "address"
        }
      ],
      "name": "balanceOf",
      "outputs": [
        {
          "internalType": "uint256",
          "name": "",
          "type": "uint256"
        }
      ],
      "stateMutability": "view",
      "type": "function"
    },
    {
      "inputs": [
        {
          "internalType": "bytes32",
          "name": "transferId",
          "type": "bytes32"
        }
      ],
      "name": "completeSecureTransfer",
      "outputs": [],
      "stateMutability": "nonpayable",
      "type": "function"
    },
    {
      "inputs": [
        {
          "internalType": "uint256",
          "name": "tokenId",
          "type": "uint256"
        }
      ],
      "name": "getApproved",
      "outputs": [
        {
          "internalType": "address",
          "name": "",
          "type": "address"
        }
      ],
      "stateMutability": "view",
      "type": "function"
    },
    {
      "inputs": [
        {
          "internalType": "uint256",
          "name": "tokenId",
          "type": "uint256"
        }
      ],
      "name": "getINFTMetadata",
      "outputs": [
        {
          "components": [
            {
              "internalType": "string",
              "name": "encryptedMetadataHash",
              "type": "string"
            },
            {
              "internalType": "bytes32",
              "name": "proofHash",
              "type": "bytes32"
            },
            {
              "internalType": "uint256",
              "name": "packageTokenId",
              "type": "uint256"
            },
            {
              "internalType": "address",
              "name": "creator",
              "type": "address"
            },
            {
              "internalType": "uint256",
              "name": "createdAt",
              "type": "uint256"
            },
            {
              "internalType": "uint256",
              "name": "lastVerified",
              "type": "uint256"
            },
            {
              "internalType": "bool",
              "name": "isVerified",
              "type": "bool"
            },
            {
              "internalType": "string",
              "name": "contentType",
              "type": "string"
            }
          ],
          "internalType": "struct ERC7857VerifiableINFT.INFTMetadata",
          "name": "",
          "type": "tuple"
        }
      ],
      "stateMutability": "view",
      "type": "function"
    },
    {
      "inputs": [
        {
          "internalType": "address",
          "name": "owner",
          "type": "address"
        }
      ],
      "name": "getOwnerTokens",
      "outputs": [
        {
          "internalType": "uint256[]",
          "name": "",
          "type": "uint256[]"
        }
      ],
      "stateMutability": "view",
      "type": "function"
    },
    {
      "inputs": [],
      "name": "inftPackagesContract",
      "outputs": [
        {
          "internalType": "address",
          "name": "",
          "type": "address"
        }
      ],
      "stateMutability": "view",
      "type": "function"
    },
    {
      "inputs": [
        {
          "internalType": "address",
          "name": "initialOwner",
          "type": "address"
        },
        {
          "internalType": "address",
          "name": "_inftPackagesContract",
          "type": "address"
        },
        {
          "internalType": "string",
          "name": "name",
          "type": "string"
        },
        {
          "internalType": "string",
          "name": "symbol",
          "type": "string"
        }
      ],
      "name": "initialize",
      "outputs": [],
      "stateMutability": "nonpayable",
      "type": "function"
    },
    {
      "inputs": [
        {
          "internalType": "address",
          "name": "from",
          "type": "address"
        },
        {
          "internalType": "address",
          "name": "to",
          "type": "address"
        },
        {
          "internalType": "uint256",
          "name": "tokenId",
          "type": "uint256"
        },
        {
          "internalType": "string",
          "name": "reencryptedMetadataHash",
          "type": "string"
        }
      ],
      "name": "initiateSecureTransfer",
      "outputs": [
        {
          "internalType": "bytes32",
          "name": "transferId",
          "type": "bytes32"
        }
      ],
      "stateMutability": "nonpayable",
      "type": "function"
    },
    {
      "inputs": [
        {
          "internalType": "address",
          "name": "owner",
          "type": "address"
        },
        {
          "internalType": "address",
          "name": "operator",
          "type": "address"
        }
      ],
      "name": "isApprovedForAll",
      "outputs": [
        {
          "internalType": "bool",
          "name": "",
          "type": "bool"
        }
      ],
      "stateMutability": "view",
      "type": "function"
    },
    {
      "inputs": [
        {
          "internalType": "address",
          "name": "to",
          "type": "address"
        },
        {
          "internalType": "string",
          "name": "encryptedMetadataHash",
          "type": "string"
        },
        {
          "internalType": "bytes32",
          "name": "proofHash",
          "type": "bytes32"
        },
        {
          "internalType": "uint256",
          "name": "packageTokenId",
          "type": "uint256"
        },
        {
          "internalType": "string",
          "name": "contentType",
          "type": "string"
        }
      ],
      "name": "mintVerifiableINFT",
      "outputs": [
        {
          "internalType": "uint256",
          "name": "",
          "type": "uint256"
        }
      ],
      "stateMutability": "nonpayable",
      "type": "function"
    },
    {
      "inputs": [],
      "name": "name",
      "outputs": [
        {
          "internalType": "string",
          "name": "",
          "type": "string"
        }
      ],
      "stateMutability": "view",
      "type": "function"
    },
    {
      "inputs": [],
      "name": "owner",
      "outputs": [
        {
          "internalType": "address",
          "name": "",
          "type": "address"
        }
      ],
      "stateMutability": "view",
      "type": "function"
    },
    {
      "inputs": [
        {
          "internalType": "uint256",
          "name": "tokenId",
          "type": "uint256"
        }
      ],
      "name": "ownerOf",
      "outputs": [
        {
          "internalType": "address",
          "name": "",
          "type": "address"
        }
      ],
      "stateMutability": "view",
      "type": "function"
    },
    {
      "inputs": [],
      "name": "pause",
      "outputs": [],
      "stateMutability": "nonpayable",
      "type": "function"
    },
    {
      "inputs": [],
      "name": "paused",
      "outputs": [
        {
          "internalType": "bool",
          "name": "",
          "type": "bool"
        }
      ],
      "stateMutability": "view",
      "type": "function"
    },
    {
      "inputs": [],
      "name": "proxiableUUID",
      "outputs": [
        {
          "internalType": "bytes32",
          "name": "",
          "type": "bytes32"
        }
      ],
      "stateMutability": "view",
      "type": "function"
    },
    {
      "inputs": [],
      "name": "renounceOwnership",
      "outputs": [],
      "stateMutability": "nonpayable",
      "type": "function"
    },
    {
      "inputs": [
        {
          "internalType": "address",
          "name": "from",
          "type": "address"
        },
        {
          "internalType": "address",
          "name": "to",
          "type": "address"
        },
        {
          "internalType": "uint256",
          "name": "tokenId",
          "type": "uint256"
        }
      ],
      "name": "safeTransferFrom",
      "outputs": [],
      "stateMutability": "nonpayable",
      "type": "function"
    },
    {
      "inputs": [
        {
          "internalType": "address",
          "name": "from",
          "type": "address"
        },
        {
          "internalType": "address",
          "name": "to",
          "type": "address"
        },
        {
          "internalType": "uint256",
          "name": "tokenId",
          "type": "uint256"
        },
        {
          "internalType": "bytes",
          "name": "data",
          "type": "bytes"
        }
      ],
      "name": "safeTransferFrom",
      "outputs": [],
      "stateMutability": "nonpayable",
      "type": "function"
    },
    {
      "inputs": [
        {
          "internalType": "address",
          "name": "operator",
          "type": "address"
        },
        {
          "internalType": "bool",
          "name": "approved",
          "type": "bool"
        }
      ],
      "name": "setApprovalForAll",
      "outputs": [],
      "stateMutability": "nonpayable",
      "type": "function"
    },
    {
      "inputs": [
        {
          "internalType": "address",
          "name": "_inftPackagesContract",
          "type": "address"
        }
      ],
      "name": "setINFTPackagesContract",
      "outputs": [],
      "stateMutability": "nonpayable",
      "type": "function"
    },
    {
      "inputs": [
        {
          "internalType": "bytes4",
          "name": "interfaceId",
          "type": "bytes4"
        }
      ],
      "name": "supportsInterface",
      "outputs": [
        {
          "internalType": "bool",
          "name": "",
          "type": "bool"
        }
      ],
      "stateMutability": "view",
      "type": "function"
    },
    {
      "inputs": [],
      "name": "symbol",
      "outputs": [
        {
          "internalType": "string",
          "name": "",
          "type": "string"
        }
      ],
      "stateMutability": "view",
      "type": "function"
    },
    {
      "inputs": [
        {
          "internalType": "uint256",
          "name": "tokenId",
          "type": "uint256"
        }
      ],
      "name": "tokenURI",
      "outputs": [
        {
          "internalType": "string",
          "name": "",
          "type": "string"
        }
      ],
      "stateMutability": "view",
      "type": "function"
    },
    {
      "inputs": [
        {
          "internalType": "address",
          "name": "from",
          "type": "address"
        },
        {
          "internalType": "address",
          "name": "to",
          "type": "address"
        },
        {
          "internalType": "uint256",
          "name": "tokenId",
          "type": "uint256"
        }
      ],
      "name": "transferFrom",
      "outputs": [],
      "stateMutability": "nonpayable",
      "type": "function"
    },
    {
      "inputs": [
        {
          "internalType": "address",
          "name": "newOwner",
          "type": "address"
        }
      ],
      "name": "transferOwnership",
      "outputs": [],
      "stateMutability": "nonpayable",
      "type": "function"
    },
    {
      "inputs": [],
      "name": "unpause",
      "outputs": [],
      "stateMutability": "nonpayable",
      "type": "function"
    },
    {
      "inputs": [
        {
          "internalType": "uint256",
          "name": "tokenId",
          "type": "uint256"
        },
        {
          "internalType": "string",
          "name": "newEncryptedMetadataHash",
          "type": "string"
        },
        {
          "internalType": "bytes32",
          "name": "newProofHash",
          "type": "bytes32"
        }
      ],
      "name": "updateMetadata",
      "outputs": [],
      "stateMutability": "nonpayable",
      "type": "function"
    },
    {
      "inputs": [
        {
          "internalType": "address",
          "name": "newImplementation",
          "type": "address"
        },
        {
          "internalType": "bytes",
          "name": "data",
          "type": "bytes"
        }
      ],
      "name": "upgradeToAndCall",
      "outputs": [],
      "stateMutability": "payable",
      "type": "function"
    },
    {
      "inputs": [
        {
          "internalType": "uint256",
          "name": "tokenId",
          "type": "uint256"
        },
        {
          "internalType": "bytes32",
          "name": "expectedProofHash",
          "type": "bytes32"
        }
      ],
      "name": "verifyMetadata",
      "outputs": [
        {
          "internalType": "bool",
          "name": "isValid",
          "type": "bool"
        }
      ],
      "stateMutability": "view",
      "type": "function"
    },
    {
      "inputs": [
        {
          "internalType": "uint256",
          "name": "tokenId",
          "type": "uint256"
        },
        {
          "internalType": "bytes32",
          "name": "proofHash",
          "type": "bytes32"
        }
      ],
      "name": "verifyOwnership",
      "outputs": [
        {
          "internalType": "bool",
          "name": "isValid",
          "type": "bool"
        }
      ],
      "stateMutability": "nonpayable",
      "type": "function"
    }
  ],
  "bytecode": "0x60a080604052346100ea57306080527ff0c57e16840df040f15088dc2f81fe391c3923bec73e23a9662efc9c229c6a005460ff8160401c166100d9576002600160401b03196001600160401b03821601610073575b60405161327a90816100f0823960805181818161108e01526111220152f35b6001600160401b0319166001600160401b039081177ff0c57e16840df040f15088dc2f81fe391c3923bec73e23a9662efc9c229c6a005581527fc7f505b2f371ae2175ee4913f4499e1f2633a7b5936321eed1cdaeb6115181d290602090a13880610054565b63f92ee8a960e01b60005260046000fd5b600080fdfe608080604052600436101561001357600080fd5b60003560e01c90816301ffc9a7146121fa5750806306fdde0314612138578063081812fc14612110578063095ea7b31461201e57806313bffc9b14611ea95780631e707b8814611b3a5780632016a0d21461163b57806323b872dd146116245780633eeb46dc146114215780633f4ba83a1461139e57806342842e0e1461136e57806344338f8b146112c05780634f1ef286146110e557806352d1902d1461107b5780635c975abb1461104b5780636352211e1461101b57806369dffd9d14610ffd57806369e1af3014610f175780636cc69db014610c4857806370a0823114610bf6578063715018a614610b8c5780638456cb5914610b185780638da5cb5b14610ae257806395d89b41146109fb578063989d7ecc146109d25780639945a5881461048d578063a22cb465146103e8578063ad3cb1cc146103a1578063b88d4fde14610347578063c87b56dd14610310578063ccd12b37146102cd578063d63d4af014610213578063e985e9c5146101c55763f2fde38b1461019557600080fd5b346101c05760203660031901126101c0576101be6101b16122be565b6101b9612d6e565b6129a5565b005b600080fd5b346101c05760403660031901126101c0576101de6122be565b6101ef6101e96122d4565b9161296c565b9060018060a01b0316600052602052602060ff604060002054166040519015158152f35b346101c05760203660031901126101c0576001600160a01b036102346122be565b16600052600260205260406000206040518060208354918281520190819360005260206000209060005b8181106102b75750505081610274910382612306565b6040519182916020830190602084525180915260408301919060005b81811061029e575050500390f35b8251845285945060209384019390920191600101610290565b825484526020909301926001928301920161025e565b346101c05760203660031901126101c0576102e66122be565b6102ee612d6e565b600580546001600160a01b0319166001600160a01b0392909216919091179055005b346101c05760203660031901126101c05761034361032f600435613082565b60405191829160208352602083019061227f565b0390f35b346101c05760803660031901126101c0576103606122be565b6103686122d4565b90604435606435926001600160401b0384116101c05761038f6101be943690600401612342565b9261039b8383836125a6565b33612f6d565b346101c05760003660031901126101c05761034360408051906103c48183612306565b60058252640352e302e360dc1b60208301525191829160208352602083019061227f565b346101c05760403660031901126101c0576104016122be565b60243590811515908183036101c0576001600160a01b03169182156104785761044a9061042d3361296c565b8460005260205260406000209060ff801983541691151516179055565b6040519081527f17307eab39ab6107e8899845ad3d59bd9653f200f220920489ca2b5937696c3160203392a3005b82630b61174360e31b60005260045260246000fd5b346101c05760a03660031901126101c0576104a66122be565b6024356001600160401b0381116101c0576104c5903690600401612342565b906064356044356084356001600160401b0381116101c0576104eb903690600401612342565b906104f4612aae565b6104fc612da4565b610508855115156127b2565b6105138115156127f4565b6001600160a01b0384169485159461052b8615612514565b6004549360001985146109bc576001850160045560405161054b816122ea565b838152602081018581526040820188815260608301338152608084019042825260a085019242845260c08601946001865260e087019788528b6000526000602052604060002096518051906001600160401b038211610928576105b8826105b28b546123d7565b8b612554565b602090601f8311600114610949578260079a9997959361064e999795936105f69360009261093e575b50508160011b916000199060031b1c19161790565b88555b516001880155516002870155516003860180546001600160a01b039092166001600160a01b03199092169190911790555160048501555160058401555160068301805460ff191691151560ff16919091179055565b0190518051906001600160401b038211610928576106768261067085546123d7565b85612554565b602090601f83116001146108c1576106a69291600091836108b65750508160011b916000199060031b1c19161790565b90555b6040516020966106b98883612306565b600082526108a0576001600160a01b036106d38684612ad8565b1661088a57813b61076b575b50869282610719867fd0f9d8c8961101a57fce56ae02bda3f42ecc6a339890188b4c2b4329e9aaf07e94610714829783612c32565b612ed4565b61072860405192839283612835565b0390a360405191817f70b8b7f9e2886cfe022b71bde9e8608d31d0517d061e3d483c3f48294fe80028600080a360016000805160206131ee833981519152558152f35b866107a59160405180938192630a85bd0160e11b83523360048401526000602484015289604484015260806064840152608483019061227f565b038160008c5af18091600091610845575b50906107e75787876107c6612f3d565b80519190826107e45783633250574960e11b60005260045260246000fd5b01fd5b959694959394936001600160e01b03191663757a42ff60e11b016108305792959493927fd0f9d8c8961101a57fce56ae02bda3f42ecc6a339890188b4c2b4329e9aaf07e6106df565b83633250574960e11b60005260045260246000fd5b8881813d8311610883575b61085a8183612306565b8101031261087f5751906001600160e01b03198216820361087c5750896107b6565b80fd5b5080fd5b503d610850565b6339e3563760e11b600052600060045260246000fd5b633250574960e11b600052600060045260246000fd5b015190508b806105e1565b90601f1983169184600052816000209260005b81811061091057509084600195949392106108f7575b505050811b0190556106a9565b015160001960f88460031b161c191690558a80806108ea565b929360206001819287860151815501950193016108d4565b634e487b7160e01b600052604160045260246000fd5b0151905038806105e1565b90601f198316918a600052816000209260005b8181106109a4575092600192859260079d9c9a989661064e9c9a98961061098b575b505050811b0188556105f9565b015160001960f88460031b161c1916905538808061097e565b9293602060018192878601518155019501930161095c565b634e487b7160e01b600052601160045260246000fd5b346101c05760003660031901126101c0576005546040516001600160a01b039091168152602090f35b346101c05760003660031901126101c057604051600060008051602061324e83398151915254610a2a816123d7565b8084529060018116908115610abe5750600114610a52575b6103438361032f81850382612306565b60008051602061324e83398151915260009081527ff4bad0a69248f59680a4f2b3000328cec71a413447c96781cfe5996daa8c456e939250905b808210610aa45750909150810160200161032f610a42565b919260018160209254838588010152019101909291610a8c565b60ff191660208086019190915291151560051b8401909101915061032f9050610a42565b346101c05760003660031901126101c05760008051602061318e833981519152546040516001600160a01b039091168152602090f35b346101c05760003660031901126101c057610b31612d6e565b610b39612aae565b600160ff196000805160206131ce8339815191525416176000805160206131ce833981519152557f62e78cea01bee320cd4e420270b5ea74000d11b0c9f74754ebdbfc544b05a2586020604051338152a1005b346101c05760003660031901126101c057610ba5612d6e565b60008051602061318e83398151915280546001600160a01b031981169091556000906001600160a01b03167f8be0079c531659141344cd1fd0a4f28419497f9722a3daafe3b4186f6b6457e08280a3005b346101c05760203660031901126101c057610c0f6122be565b6001600160a01b03811615610c3257610c29602091612933565b54604051908152f35b6322718ad960e21b600052600060045260246000fd5b346101c05760203660031901126101c057600435610c64612aae565b610c6c612da4565b806000526001602052604060002090600382015403610edc57600581019060ff825416610e975760048101546201518081018091116109bc574211610e5257805460018201546002830154936001600160a01b03928316939290918116908490610cd587612a1b565b1603610e0d578033148015610e04575b610cee906124d7565b84600052600060205260066040600020930193610d0b8585612851565b426005850155610d32604051610d2c81610d25818a612411565b0382612306565b87612c32565b610d3c8682612e0e565b81156108a0576001600160a01b03610d548784612ad8565b169081610d705786637e27328960e01b60005260045260246000fd5b808203610de857867feab02659d82f207d7ba3d346964d09c280396a4798fae5bd584257ca14376475610dcb8860018989610dab878b612ed4565b8260ff198254161790550154604051928392604084526040840190612411565b9060208301520390a260016000805160206131ee83398151915255005b86906364283d7b60e01b60005260045260245260445260646000fd5b50338414610ce5565b60405162461bcd60e51b815260206004820152601760248201527f546f6b656e206f776e657273686970206368616e6765640000000000000000006044820152606490fd5b60405162461bcd60e51b815260206004820152601760248201527f5472616e736665722077696e646f7720657870697265640000000000000000006044820152606490fd5b60405162461bcd60e51b815260206004820152601a60248201527f5472616e7366657220616c726561647920636f6d706c657465640000000000006044820152606490fd5b60405162461bcd60e51b8152602060048201526013602482015272125b9d985b1a59081d1c985b9cd9995c881251606a1b6044820152606490fd5b346101c0576020610f27366123c1565b90610f446001600160a01b03610f3c83612a74565b161515612494565b60005260008252604060002090604051610f5d816122ea565b604051610f6e81610d258187612411565b8152600760e06001850154928681019384526002860154604082015260018060a01b03600387015416606082015260048601546080820152600586015460a0820152610fdc60ff6006880154169660c083019715158852610fd56040518096819301612411565b0384612306565b015251149081610ff2575b506040519015158152f35b905051151582610fe7565b346101c05760003660031901126101c0576020604051620151808152f35b346101c05760203660031901126101c0576020611039600435612a1b565b6040516001600160a01b039091168152f35b346101c05760003660031901126101c057602060ff6000805160206131ce83398151915254166040519015158152f35b346101c05760003660031901126101c0577f00000000000000000000000000000000000000000000000000000000000000006001600160a01b031630036110d45760206040516000805160206131ae8339815191528152f35b63703e46dd60e11b60005260046000fd5b60403660031901126101c0576110f96122be565b6024356001600160401b0381116101c057611118903690600401612342565b6001600160a01b037f00000000000000000000000000000000000000000000000000000000000000001630811490811561129d575b506110d45761115a612d6e565b6040516352d1902d60e01b81526001600160a01b0383169290602081600481875afa60009181611269575b5061119f5783634c9c8ce360e01b60005260045260246000fd5b806000805160206131ae8339815191528592036112555750813b15611241576000805160206131ae83398151915280546001600160a01b031916821790557fbc7cd75a20ee27fd9adebab32041f755214dbc6bffa90cc0225b39da2e5c2d3b600080a2815115611227576000808360206101be95519101845af4611221612f3d565b9161310c565b50503461123057005b63b398979f60e01b60005260046000fd5b634c9c8ce360e01b60005260045260246000fd5b632a87526960e21b60005260045260246000fd5b9091506020813d602011611295575b8161128560209383612306565b810103126101c057519085611185565b3d9150611278565b6000805160206131ae833981519152546001600160a01b0316141590508361114d565b346101c05760206112d0366123c1565b6112e46001600160a01b03610f3c84612a74565b816000526000835260406000209181600184015414928361135f575b83611313575b5050506040519015158152f35b42600591909101557f08faa83536253eed9753ae48428b2feb157d23323f0ccb9663bf65cb6d2bd3e6846001600160a01b0361134e84612a1b565b1693604051908152a3828080611306565b600681015460ff169350611300565b346101c0576101be61137f36612387565b906040519261138f602085612306565b6000845261039b8383836125a6565b346101c05760003660031901126101c0576113b7612d6e565b6000805160206131ce8339815191525460ff8116156114105760ff19166000805160206131ce833981519152557f5db9ee0a495bf2e6ff9c91a7834c1ba4fdd244a5e8aa4e537bd38aeae4b073aa6020604051338152a1005b638dfc202b60e01b60005260046000fd5b346101c05760603660031901126101c0576004356024356001600160401b0381116101c057611454903690600401612342565b90604435611460612aae565b6114746001600160a01b03610f3c84612a74565b61147d82612a1b565b6001600160a01b031633148015611603575b611498906124d7565b6114a4835115156127b2565b6114af8115156127f4565b81600052600060205260406000209280516001600160401b038111610928576114e2816114dc87546123d7565b87612554565b6020601f821160011461157a5794611536826006937feab02659d82f207d7ba3d346964d09c280396a4798fae5bd584257ca14376475979860009161156f575b508160011b916000199060031b1c19161790565b81555b83600182015542600582015501600160ff1982541617905561155b8185612c32565b61156a60405192839283612835565b0390a2005b905085015189611522565b601f1982169086600052806000209160005b8181106115eb5750927feab02659d82f207d7ba3d346964d09c280396a4798fae5bd584257ca1437647596979260019282600696106115d2575b5050811b018155611539565b86015160001960f88460031b161c1916905588806115c6565b9192602060018192868901518155019401920161158c565b5060008051602061318e833981519152546001600160a01b0316331461148f565b346101c0576101be61163536612387565b916125a6565b346101c05760803660031901126101c0576116546122be565b61165c6122d4565b6044356001600160401b0381116101c05761167b903690600401612342565b906064356001600160401b0381116101c05761169b903690600401612342565b9260008051602061322e833981519152549260ff8460401c1615936001600160401b03811680159081611b32575b6001149081611b28575b159081611b1f575b50611b0e5767ffffffffffffffff19811660011760008051602061322e8339815191525584611ae1575b5061170e6130de565b6117166130de565b8051906001600160401b0382116109285761173f60008051602061316e833981519152546123d7565b601f8111611a6f575b50602090601f83116001146119cf576117799291600091836118cb5750508160011b916000199060031b1c19161790565b60008051602061316e833981519152555b83516001600160401b038111610928576117b260008051602061324e833981519152546123d7565b601f811161195d575b506020601f82116001146118d65790806117f1926118229596976000926118cb5750508160011b916000199060031b1c19161790565b60008051602061324e833981519152555b61180a6130de565b6118126130de565b61181a6130de565b6101b96130de565b61182a6130de565b6118326130de565b61183a6130de565b60016000805160206131ee8339815191525560018060a01b03166001600160601b0360a01b6005541617600555600160045561187257005b68ff00000000000000001960008051602061322e833981519152541660008051602061322e833981519152557fc7f505b2f371ae2175ee4913f4499e1f2633a7b5936321eed1cdaeb6115181d2602060405160018152a1005b0151905087806105e1565b601f1982169560008051602061324e833981519152600052816000209660005b8181106119455750916118229596979184600195941061192c575b505050811b0160008051602061324e83398151915255611802565b015160001960f88460031b161c19169055868080611911565b838301518955600190980197602093840193016118f6565b60008051602061324e8339815191526000527ff4bad0a69248f59680a4f2b3000328cec71a413447c96781cfe5996daa8c456e601f830160051c810191602084106119c5575b601f0160051c01905b8181106119b957506117bb565b600081556001016119ac565b90915081906119a3565b90601f1983169160008051602061316e8339815191526000527f37c58c799b6609234b945e882912ee9ad34948a1dfaa20a97485e1a7752bbf819260005b818110611a575750908460019594939210611a3e575b505050811b0160008051602061316e8339815191525561178a565b015160001960f88460031b161c19169055868080611a23565b92936020600181928786015181550195019301611a0d565b60008051602061316e8339815191526000527f37c58c799b6609234b945e882912ee9ad34948a1dfaa20a97485e1a7752bbf81601f840160051c81019160208510611ad7575b601f0160051c01905b818110611acb5750611748565b60008155600101611abe565b9091508190611ab5565b68ffffffffffffffffff1916680100000000000000011760008051602061322e8339815191525585611705565b63f92ee8a960e01b60005260046000fd5b905015876116db565b303b1591506116d3565b8691506116c9565b346101c05760803660031901126101c057611b536122be565b611b5b6122d4565b604435906064356001600160401b0381116101c057611b7e903690600401612342565b92611b87612aae565b611b9083612a1b565b6001600160a01b03808316929116829003611e72578133148015611e4f575b8015611e26575b611bbf906124d7565b6001600160a01b03831692611bd5841515612514565b855115611de1576040519060208201926001600160601b03199060601b1683526001600160601b03199060601b16603482015284604882015242606882015243608882015260888152611c2960a882612306565b5190209260405160e08101908082106001600160401b038311176109285760409182528381526020808201868152828401858152606084018981524260808601908152600060a0870181815260c088019d8e528c8252600196879052979020955186546001600160a01b039182166001600160a01b031991821617885594519587018054969091169590941694909417909255516002840155516003830155516004820155905160058201805460ff191691151560ff1691909117905560060194519485516001600160401b03811161092857602096611d0d8261067085546123d7565b8790601f8311600114611d7b57611d3c929160009183611d705750508160011b916000199060031b1c19161790565b90555b7fa6ed2c916cdaf36b72a7ddd3ee6e055682a42d56a74bebd4a3514e77e5a28a5685604051868152a4604051908152f35b0151905089806105e1565b90601f1983169184600052816000209260005b818110611dca5750908460019594939210611db1575b505050811b019055611d3f565b015160001960f88460031b161c19169055888080611da4565b92938b600181928786015181550195019301611d8e565b60405162461bcd60e51b815260206004820152601b60248201527f456d7074792072652d656e63727970746564206d6574616461746100000000006044820152606490fd5b50611e3084612a1b565b50611bbf336001600160a01b03611e4687612a4c565b16149050611bb6565b50611e598161296c565b336000908152602091909152604090205460ff16611baf565b60405162461bcd60e51b815260206004820152600f60248201526e2737ba103a37b5b2b71037bbb732b960891b6044820152606490fd5b346101c05760203660031901126101c057600435606060e0604051611ecd816122ea565b828152600060208201526000604082015260008382015260006080820152600060a0820152600060c08201520152611f0e60018060a01b03610f3c83612a74565b6000526000602052611fdb604060002061034360405191611f2e836122ea565b604051611f3f81610d258185612411565b835260076001820154916020850192835260028101546040860190815260018060a01b03600383015416606087019081526004830154906080880191825260058401549260a08901938452611fb660ff6006870154169560c08b019615158752611faf6040518099819301612411565b0387612306565b60e08901958652604051998a9960208b525161010060208c01526101208b019061227f565b965160408a0152516060890152516001600160a01b031660808801525160a08701525160c086015251151560e085015251838203601f190161010085015261227f565b346101c05760403660031901126101c0576120376122be565b60243561204381612a1b565b331515806120fd575b806120d9575b6120c45781906001600160a01b0384811691167f8c5be1e5ebec7d5bd14f71427d1e84f3dd0314c0f7b2291e5b200ac8c7c3b925600080a4600090815260008051602061320e8339815191526020526040902080546001600160a01b0319166001600160a01b03909216919091179055005b63a9fbf51f60e01b6000523360045260246000fd5b506120e38161296c565b336000908152602091909152604090205460ff1615612052565b506001600160a01b03811633141561204c565b346101c05760203660031901126101c057602061103960043561213281612a1b565b50612a4c565b346101c05760003660031901126101c057604051600060008051602061316e83398151915254612167816123d7565b8084529060018116908115610abe575060011461218e576103438361032f81850382612306565b60008051602061316e83398151915260009081527f37c58c799b6609234b945e882912ee9ad34948a1dfaa20a97485e1a7752bbf81939250905b8082106121e05750909150810160200161032f610a42565b9192600181602092548385880101520191019092916121c8565b346101c05760203660031901126101c0576004359063ffffffff60e01b82168092036101c057602091632483248360e11b811490811561223c575b5015158152f35b6380ac58cd60e01b81149150811561226e575b811561225d575b5083612235565b6301ffc9a760e01b14905083612256565b635b5e139f60e01b8114915061224f565b919082518082526020808301940160005b8281106122ae575050600081602094950152601f8019910116010190565b8181015186820152602001612290565b600435906001600160a01b03821682036101c057565b602435906001600160a01b03821682036101c057565b61010081019081106001600160401b0382111761092857604052565b90601f801991011681019081106001600160401b0382111761092857604052565b6001600160401b03811161092857601f01601f191660200190565b81601f820112156101c05760208135910161235c82612327565b9261236a6040519485612306565b828452828201116101c05781600092602092838601378301015290565b60609060031901126101c0576004356001600160a01b03811681036101c057906024356001600160a01b03811681036101c0579060443590565b60409060031901126101c0576004359060243590565b90600182811c92168015612407575b60208310146123f157565b634e487b7160e01b600052602260045260246000fd5b91607f16916123e6565b60009291815491612421836123d7565b8083529260018116908115612477575060011461243d57505050565b60009081526020812093945091925b83831061245d575060209250010190565b60018160209294939454838587010152019101919061244c565b915050602093945060ff929192191683830152151560051b010190565b1561249b57565b60405162461bcd60e51b8152602060048201526014602482015273151bdad95b88191bd95cc81b9bdd08195e1a5cdd60621b6044820152606490fd5b156124de57565b60405162461bcd60e51b815260206004820152600e60248201526d139bdd08185d5d1a1bdc9a5e995960921b6044820152606490fd5b1561251b57565b60405162461bcd60e51b8152602060048201526011602482015270125b9d985b1a59081c9958da5c1a595b9d607a1b6044820152606490fd5b601f821161256157505050565b6000526020600020906020601f840160051c8301931061259c575b601f0160051c01905b818110612590575050565b60008155600101612585565b909150819061257c565b909291906001600160a01b03841680156108a0576000946125c684612a74565b6001600160a01b0381169085821515806127a8575b612798575b50508203612789575b6125f284612a74565b95331515806126f0575b509184917fddf252ad1be2c89b69c2b068fc378daa952ba7f163c4a11628f55a4df523b3ef61263d97989460018060a01b038616988993846126b157612933565b805460010190558481527f80bb2b638cc20bc4d0a60d66940f3ab4a00c1d7b313497ca82fb0b4ab00793026020526040812080546001600160a01b0319168517905580a4506001600160a01b031680830361269757505050565b6364283d7b60e01b60005260045260245260445260646000fd5b600087815260008051602061320e8339815191526020526040902080546001600160a01b03191690556126e388612933565b8054600019019055612933565b80612739575b1561270157386125fc565b84906001600160a01b03881661272357602491637e27328960e01b8252600452fd5b60449163177e802f60e01b825233600452602452fd5b506001600160a01b0387163314801561276c575b806126f65750336001600160a01b0361276587612a4c565b16146126f6565b506127768761296c565b338252602052604081205460ff1661274d565b6127938482612ed4565b6125e9565b6127a191612e0e565b38856125e0565b50828514156125db565b156127b957565b60405162461bcd60e51b815260206004820152601360248201527208adae0e8f240dacae8c2c8c2e8c240d0c2e6d606b1b6044820152606490fd5b156127fb57565b60405162461bcd60e51b8152602060048201526012602482015271092dcecc2d8d2c840e0e4dedecc40d0c2e6d60731b6044820152606490fd5b92919061284c60209160408652604086019061227f565b930152565b91909182811461292e5761286583546123d7565b6001600160401b038111610928576128878161288184546123d7565b84612554565b600093601f82116001146128c8576128b992939482916000926128bd5750508160011b916000199060031b1c19161790565b9055565b0154905038806105e1565b845260208085208386529085209094601f198316815b818110612916575095836001959697106128fd575b505050811b019055565b015460001960f88460031b161c191690553880806128f3565b9192600180602092868b0154815501940192016128de565b509050565b6001600160a01b031660009081527f80bb2b638cc20bc4d0a60d66940f3ab4a00c1d7b313497ca82fb0b4ab00793036020526040902090565b6001600160a01b031660009081527f80bb2b638cc20bc4d0a60d66940f3ab4a00c1d7b313497ca82fb0b4ab00793056020526040902090565b6001600160a01b03168015612a055760008051602061318e83398151915280546001600160a01b0319811683179091556001600160a01b03167f8be0079c531659141344cd1fd0a4f28419497f9722a3daafe3b4186f6b6457e0600080a3565b631e4fbdf760e01b600052600060045260246000fd5b612a2481612a74565b906001600160a01b03821615612a38575090565b637e27328960e01b60005260045260246000fd5b600090815260008051602061320e83398151915260205260409020546001600160a01b031690565b60009081527f80bb2b638cc20bc4d0a60d66940f3ab4a00c1d7b313497ca82fb0b4ab007930260205260409020546001600160a01b031690565b60ff6000805160206131ce8339815191525416612ac757565b63d93c066560e01b60005260046000fd5b90612ae281612a74565b6001600160a01b038116908282151580612c1f575b612c0f575b50506001600160a01b0383169081151590819081612c04575b50612bf5575b612b2483612a74565b936001600160a01b0385169182612bb6575b612ba0575b5060008381527f80bb2b638cc20bc4d0a60d66940f3ab4a00c1d7b313497ca82fb0b4ab00793026020526040812080546001600160a01b031916841790557fddf252ad1be2c89b69c2b068fc378daa952ba7f163c4a11628f55a4df523b3ef9080a490565b612ba990612933565b6001815401905538612b3b565b600085815260008051602061320e8339815191526020526040902080546001600160a01b0319169055612be886612933565b8054600019019055612b36565b612bff8385612ed4565b612b1b565b905082141538612b15565b612c1891612e0e565b3882612afc565b506001600160a01b038516831415612af7565b919091806000527f0542a41881ee128a365a727b282c86fa859579490b9bb45aab8503648c8e7900602052604060002083516001600160401b03811161092857612c808161288184546123d7565b6020601f8211600114612ce257816020949392612cd6927ff8e1a15aba9398e019f0b49df1a4fde98ee17ae345cb5f6b5e2c27f5033e8ce7979860009261093e5750508160011b916000199060031b1c19161790565b90555b604051908152a1565b601f1982169583600052816000209660005b818110612d56575096600192849260209796957ff8e1a15aba9398e019f0b49df1a4fde98ee17ae345cb5f6b5e2c27f5033e8ce7999a10612d3d575b505050811b019055612cd9565b015160001960f88460031b161c19169055388080612d30565b83830151895560019098019760209384019301612cf4565b60008051602061318e833981519152546001600160a01b03163303612d8f57565b63118cdaa760e01b6000523360045260246000fd5b60026000805160206131ee8339815191525414612dcf5760026000805160206131ee83398151915255565b633ee5aeb560e01b60005260046000fd5b8054821015612df85760005260206000200190600090565b634e487b7160e01b600052603260045260246000fd5b60018060a01b031660005260026020526040600020816000526003602052604060002054815460001981019081116109bc57612e4a9083612de0565b90549060031b1c612e7881612e5f8486612de0565b90919082549060031b91821b91600019901b1916179055565b600052600360205260406000205580548015612ebe576000190190612e9d8282612de0565b8154906000199060031b1b1916905555600052600360205260006040812055565b634e487b7160e01b600052603160045260246000fd5b6001600160a01b0316600081815260026020526040902080546801000000000000000081101561092857612e5f81612f129360018794018155612de0565b60005260026020526040600020549060001982019182116109bc576000526003602052604060002055565b3d15612f68573d90612f4e82612327565b91612f5c6040519384612306565b82523d6000602084013e565b606090565b823b612f7b575b5050505050565b604051630a85bd0160e11b81526001600160a01b039182166004820152918116602483015260448201939093526080606482015291169160209082908190612fc790608483019061227f565b03816000865af1809160009161303f575b50906130095750612fe7612f3d565b805190816130045782633250574960e11b60005260045260246000fd5b602001fd5b6001600160e01b03191663757a42ff60e11b0161302b57503880808080612f74565b633250574960e11b60005260045260246000fd5b6020813d60201161307a575b8161305860209383612306565b8101031261087f5751906001600160e01b03198216820361087c575038612fd8565b3d915061304b565b61308b81612a1b565b506000527f0542a41881ee128a365a727b282c86fa859579490b9bb45aab8503648c8e7900602052610d256130ca604060002060405192838092612411565b60006040516130da602082612306565b5290565b60ff60008051602061322e8339815191525460401c16156130fb57565b631afcd79f60e31b60005260046000fd5b90613132575080511561312157602081519101fd5b63d6bda27560e01b60005260046000fd5b81511580613164575b613143575090565b639996b31560e01b60009081526001600160a01b0391909116600452602490fd5b50803b1561313b56fe80bb2b638cc20bc4d0a60d66940f3ab4a00c1d7b313497ca82fb0b4ab00793009016d09d72d40fdae2fd8ceac6b6234c7706214fd39c1cd1e609a0528c199300360894a13ba1a3210667c828492db98dca3e2076cc3735a920a3ca505d382bbccd5ed15c6e187e77e9aee88184c21f4f2182ab5827cb3b7e07fbedcd63f033009b779b17422d0df92223018b32b4d1fa46e071723d6817e2486d003becc55f0080bb2b638cc20bc4d0a60d66940f3ab4a00c1d7b313497ca82fb0b4ab0079304f0c57e16840df040f15088dc2f81fe391c3923bec73e23a9662efc9c229c6a0080bb2b638cc20bc4d0a60d66940f3ab4a00c1d7b313497ca82fb0b4ab0079301a164736f6c634300081b000a",
  "linkReferences": {},
  "deployedLinkReferences": {}
}