{
  "_format": "hh-sol-artifact-1",
  "contractName": "SonicOraclePayment",
  "sourceName": "Contracts/SonicOraclePayment.sol",
  "abi": [
    {
      "inputs": [
        {
          "internalType": "address",
          "name": "initialOwner",
          "type": "address"
        },
        {
          "internalType": "address",
          "name": "_usdc",
          "type": "address"
        },
        {
          "internalType": "address",
          "name": "_creditsNFT",
          "type": "address"
        },
        {
          "internalType": "address",
          "name": "_stakingContract",
          "type": "address"
        },
        {
          "internalType": "address",
          "name": "_devWallet",
          "type": "address"
        }
      ],
      "stateMutability": "nonpayable",
      "type": "constructor"
    },
    {
      "inputs": [],
      "name": "EnforcedPause",
      "type": "error"
    },
    {
      "inputs": [],
      "name": "ExpectedPause",
      "type": "error"
    },
    {
      "inputs": [
        {
          "internalType": "address",
          "name": "owner",
          "type": "address"
        }
      ],
      "name": "OwnableInvalidOwner",
      "type": "error"
    },
    {
      "inputs": [
        {
          "internalType": "address",
          "name": "account",
          "type": "address"
        }
      ],
      "name": "OwnableUnauthorizedAccount",
      "type": "error"
    },
    {
      "inputs": [],
      "name": "ReentrancyGuardReentrantCall",
      "type": "error"
    },
    {
      "anonymous": false,
      "inputs": [
        {
          "indexed": true,
          "internalType": "address",
          "name": "user",
          "type": "address"
        },
        {
          "indexed": false,
          "internalType": "uint256",
          "name": "packageId",
          "type": "uint256"
        },
        {
          "indexed": false,
          "internalType": "uint256",
          "name": "creditsReceived",
          "type": "uint256"
        },
        {
          "indexed": false,
          "internalType": "uint256",
          "name": "sonicPaid",
          "type": "uint256"
        },
        {
          "indexed": false,
          "internalType": "uint256",
          "name": "usdValue",
          "type": "uint256"
        }
      ],
      "name": "CreditsPurchasedSonic",
      "type": "event"
    },
    {
      "anonymous": false,
      "inputs": [
        {
          "indexed": true,
          "internalType": "address",
          "name": "user",
          "type": "address"
        },
        {
          "indexed": false,
          "internalType": "uint256",
          "name": "packageId",
          "type": "uint256"
        },
        {
          "indexed": false,
          "internalType": "uint256",
          "name": "creditsReceived",
          "type": "uint256"
        },
        {
          "indexed": false,
          "internalType": "uint256",
          "name": "usdcPaid",
          "type": "uint256"
        }
      ],
      "name": "CreditsPurchasedUSDC",
      "type": "event"
    },
    {
      "anonymous": false,
      "inputs": [
        {
          "indexed": true,
          "internalType": "address",
          "name": "user",
          "type": "address"
        },
        {
          "indexed": false,
          "internalType": "uint256",
          "name": "credits",
          "type": "uint256"
        },
        {
          "indexed": false,
          "internalType": "string",
          "name": "generationType",
          "type": "string"
        },
        {
          "indexed": false,
          "internalType": "uint256",
          "name": "generationId",
          "type": "uint256"
        }
      ],
      "name": "CreditsSpent",
      "type": "event"
    },
    {
      "anonymous": false,
      "inputs": [
        {
          "indexed": true,
          "internalType": "address",
          "name": "previousOwner",
          "type": "address"
        },
        {
          "indexed": true,
          "internalType": "address",
          "name": "newOwner",
          "type": "address"
        }
      ],
      "name": "OwnershipTransferred",
      "type": "event"
    },
    {
      "anonymous": false,
      "inputs": [
        {
          "indexed": true,
          "internalType": "uint256",
          "name": "packageId",
          "type": "uint256"
        },
        {
          "indexed": false,
          "internalType": "uint256",
          "name": "usdcPrice",
          "type": "uint256"
        },
        {
          "indexed": false,
          "internalType": "uint256",
          "name": "usdValueForS",
          "type": "uint256"
        },
        {
          "indexed": false,
          "internalType": "uint256",
          "name": "usdcCredits",
          "type": "uint256"
        },
        {
          "indexed": false,
          "internalType": "uint256",
          "name": "sonicCredits",
          "type": "uint256"
        }
      ],
      "name": "PackageUpdated",
      "type": "event"
    },
    {
      "anonymous": false,
      "inputs": [
        {
          "indexed": false,
          "internalType": "address",
          "name": "account",
          "type": "address"
        }
      ],
      "name": "Paused",
      "type": "event"
    },
    {
      "anonymous": false,
      "inputs": [
        {
          "indexed": false,
          "internalType": "address",
          "name": "account",
          "type": "address"
        }
      ],
      "name": "Unpaused",
      "type": "event"
    },
    {
      "inputs": [],
      "name": "BEEFY_ORACLE",
      "outputs": [
        {
          "internalType": "contract IBeefyOracle",
          "name": "",
          "type": "address"
        }
      ],
      "stateMutability": "view",
      "type": "function"
    },
    {
      "inputs": [],
      "name": "S_TOKEN_FOR_ORACLE",
      "outputs": [
        {
          "internalType": "address",
          "name": "",
          "type": "address"
        }
      ],
      "stateMutability": "view",
      "type": "function"
    },
    {
      "inputs": [],
      "name": "USDC",
      "outputs": [
        {
          "internalType": "contract IERC20",
          "name": "",
          "type": "address"
        }
      ],
      "stateMutability": "view",
      "type": "function"
    },
    {
      "inputs": [
        {
          "internalType": "uint256",
          "name": "",
          "type": "uint256"
        }
      ],
      "name": "creditPackages",
      "outputs": [
        {
          "internalType": "uint256",
          "name": "usdcPrice",
          "type": "uint256"
        },
        {
          "internalType": "uint256",
          "name": "usdValueForS",
          "type": "uint256"
        },
        {
          "internalType": "uint256",
          "name": "usdcCredits",
          "type": "uint256"
        },
        {
          "internalType": "uint256",
          "name": "sonicCredits",
          "type": "uint256"
        },
        {
          "internalType": "bool",
          "name": "active",
          "type": "bool"
        }
      ],
      "stateMutability": "view",
      "type": "function"
    },
    {
      "inputs": [],
      "name": "creditsNFT",
      "outputs": [
        {
          "internalType": "contract SrvcfloCreditsNFTWithRoyalties",
          "name": "",
          "type": "address"
        }
      ],
      "stateMutability": "view",
      "type": "function"
    },
    {
      "inputs": [],
      "name": "currentGenerationId",
      "outputs": [
        {
          "internalType": "uint256",
          "name": "",
          "type": "uint256"
        }
      ],
      "stateMutability": "view",
      "type": "function"
    },
    {
      "inputs": [],
      "name": "devWallet",
      "outputs": [
        {
          "internalType": "address",
          "name": "",
          "type": "address"
        }
      ],
      "stateMutability": "view",
      "type": "function"
    },
    {
      "inputs": [
        {
          "internalType": "uint256",
          "name": "packageId",
          "type": "uint256"
        }
      ],
      "name": "getPackageWithDynamicPricing",
      "outputs": [
        {
          "internalType": "uint256",
          "name": "usdcPrice",
          "type": "uint256"
        },
        {
          "internalType": "uint256",
          "name": "usdValueForS",
          "type": "uint256"
        },
        {
          "internalType": "uint256",
          "name": "currentSTokensRequired",
          "type": "uint256"
        },
        {
          "internalType": "uint256",
          "name": "usdcCredits",
          "type": "uint256"
        },
        {
          "internalType": "uint256",
          "name": "sonicCredits",
          "type": "uint256"
        },
        {
          "internalType": "bool",
          "name": "active",
          "type": "bool"
        }
      ],
      "stateMutability": "view",
      "type": "function"
    },
    {
      "inputs": [
        {
          "internalType": "uint256",
          "name": "packageId",
          "type": "uint256"
        }
      ],
      "name": "getRequiredSTokensForPackage",
      "outputs": [
        {
          "internalType": "uint256",
          "name": "sTokensRequired",
          "type": "uint256"
        },
        {
          "internalType": "uint256",
          "name": "currentPrice",
          "type": "uint256"
        }
      ],
      "stateMutability": "view",
      "type": "function"
    },
    {
      "inputs": [
        {
          "internalType": "address",
          "name": "user",
          "type": "address"
        }
      ],
      "name": "getUserTotalCredits",
      "outputs": [
        {
          "internalType": "uint256",
          "name": "total",
          "type": "uint256"
        }
      ],
      "stateMutability": "view",
      "type": "function"
    },
    {
      "inputs": [],
      "name": "owner",
      "outputs": [
        {
          "internalType": "address",
          "name": "",
          "type": "address"
        }
      ],
      "stateMutability": "view",
      "type": "function"
    },
    {
      "inputs": [],
      "name": "pause",
      "outputs": [],
      "stateMutability": "nonpayable",
      "type": "function"
    },
    {
      "inputs": [],
      "name": "paused",
      "outputs": [
        {
          "internalType": "bool",
          "name": "",
          "type": "bool"
        }
      ],
      "stateMutability": "view",
      "type": "function"
    },
    {
      "inputs": [
        {
          "internalType": "uint256",
          "name": "packageId",
          "type": "uint256"
        }
      ],
      "name": "purchaseCreditsWithSonic",
      "outputs": [],
      "stateMutability": "payable",
      "type": "function"
    },
    {
      "inputs": [
        {
          "internalType": "uint256",
          "name": "packageId",
          "type": "uint256"
        }
      ],
      "name": "purchaseCreditsWithUSDC",
      "outputs": [],
      "stateMutability": "nonpayable",
      "type": "function"
    },
    {
      "inputs": [],
      "name": "renounceOwnership",
      "outputs": [],
      "stateMutability": "nonpayable",
      "type": "function"
    },
    {
      "inputs": [],
      "name": "stakingContract",
      "outputs": [
        {
          "internalType": "address",
          "name": "",
          "type": "address"
        }
      ],
      "stateMutability": "view",
      "type": "function"
    },
    {
      "inputs": [],
      "name": "totalGenerations",
      "outputs": [
        {
          "internalType": "uint256",
          "name": "",
          "type": "uint256"
        }
      ],
      "stateMutability": "view",
      "type": "function"
    },
    {
      "inputs": [
        {
          "internalType": "address",
          "name": "newOwner",
          "type": "address"
        }
      ],
      "name": "transferOwnership",
      "outputs": [],
      "stateMutability": "nonpayable",
      "type": "function"
    },
    {
      "inputs": [],
      "name": "unpause",
      "outputs": [],
      "stateMutability": "nonpayable",
      "type": "function"
    },
    {
      "inputs": [
        {
          "internalType": "address",
          "name": "",
          "type": "address"
        }
      ],
      "name": "userCredits",
      "outputs": [
        {
          "internalType": "uint256",
          "name": "",
          "type": "uint256"
        }
      ],
      "stateMutability": "view",
      "type": "function"
    },
    {
      "inputs": [
        {
          "internalType": "address",
          "name": "",
          "type": "address"
        }
      ],
      "name": "userGenerations",
      "outputs": [
        {
          "internalType": "uint256",
          "name": "",
          "type": "uint256"
        }
      ],
      "stateMutability": "view",
      "type": "function"
    },
    {
      "inputs": [
        {
          "internalType": "address",
          "name": "",
          "type": "address"
        },
        {
          "internalType": "uint256",
          "name": "",
          "type": "uint256"
        }
      ],
      "name": "userNFTCreditsSpent",
      "outputs": [
        {
          "internalType": "uint256",
          "name": "",
          "type": "uint256"
        }
      ],
      "stateMutability": "view",
      "type": "function"
    },
    {
      "stateMutability": "payable",
      "type": "receive"
    }
  ],
  "bytecode": "0x6101006040523461047957604051601f61187438819003918201601f19168301916001600160401b0383118484101761047e5780849260a0946040528339810103126104795761004e816104b3565b9061005b602082016104b3565b91610068604083016104b3565b6100806080610079606086016104b3565b94016104b3565b936001600160a01b03831680156104635760008054610100600160a81b03198116600896871b610100600160a81b0316178255604051951c6001600160a01b0316907f8be0079c531659141344cd1fd0a4f28419497f9722a3daafe3b4186f6b6457e09080a3600180556001600160a01b031691821561042157506001600160a01b03169081156103dc576001600160a01b03831615610397576001600160a01b038416156103525760805260a05260c05260e05261013d610494565b624c4b40815260046020820191624c4b408352604081016102ee815260608201906103e88252608083019460018652600160005284602052604060002093518455516001840155516002830155516003820155019051151560ff801983541691161790556101a9610494565b6302faf0808152600460208201916302faf080835260408101611f40815260608201906127108252608083019460018652600260005284602052604060002093518455516001840155516002830155516003820155019051151560ff80198354169116179055610217610494565b631dcd6500815260046020820191631dcd6500835260408101620186a0815260608201906201c1388252608083019460018652600360005284602052604060002093518455516001840155516002830155516003820155019051151560ff80198354169116179055610287610494565b634a817c80815260046020820191634a817c808352604081016203f7a08152606082019062046cd082526080830194600186528460005284602052604060002093518455516001840155516002830155516003820155019051151560ff801983541691161790556040516113ac90816104c8823960805181818161072a0152610c71015260a0518181816103b601528181610b550152610d0f015260c0518181816103300152818161061701526107ba015260e05181818161036c0152818161081d0152610ac40152f35b60405162461bcd60e51b815260206004820152601a60248201527f496e76616c6964206465762077616c6c657420616464726573730000000000006044820152606490fd5b60405162461bcd60e51b815260206004820152601760248201527f496e76616c6964207374616b696e6720616464726573730000000000000000006044820152606490fd5b60405162461bcd60e51b815260206004820152601b60248201527f496e76616c69642063726564697473204e4654206164647265737300000000006044820152606490fd5b62461bcd60e51b815260206004820152601460248201527f496e76616c6964205553444320616464726573730000000000000000000000006044820152606490fd5b631e4fbdf760e01b600052600060045260246000fd5b600080fd5b634e487b7160e01b600052604160045260246000fd5b6040519060a082016001600160401b0381118382101761047e57604052565b51906001600160a01b03821682036104795756fe608080604052600436101561001d575b50361561001b57600080fd5b005b600090813560e01c9081630afd4923146111ac5750806320babb92146111735780632fd199e61461115557806330aa1e7e146111265780633401b5b514610fd25780633db35ffb14610fb45780633f4ba83a14610f4e57806348664c8d14610dbe5780635c975abb14610d9c578063715018a614610d3e5780637356ea8714610cf95780638456cb5914610ca057806389a3027114610c5b5780638b9783cd14610b1e5780638da5cb5b14610af35780638ea5220f14610aae578063c7209f2514610a6b578063d124d1bc14610a0f578063e35125831461067f578063e637e8c214610646578063ee99205c14610601578063f07af1b6146101be5763f2fde38b0361000f57346101bb5760203660031901126101bb5761013c6111de565b610144611334565b6001600160a01b0381169081156101a7578254610100600160a81b03198116600892831b610100600160a81b0316178455901c6001600160a01b03167f8be0079c531659141344cd1fd0a4f28419497f9722a3daafe3b4186f6b6457e08380a380f35b631e4fbdf760e01b83526004839052602483fd5b80fd5b5060203660031901126101bb576004356101d6611360565b6101de61137d565b808252600460205260408220604051906101f7826111f9565b805482526102376080600183015493602081019485526002840154604082015260ff6004600386015495606084019687520154161515918291015261124d565b610243815115156112de565b6040516341976e0960e01b815273039e2fb66102314ce7b64ce5ce3e5183bc94ad38600482015260208160248173bc4a342b0c057501e081484a2d24e576e854f8235afa9081156105f65785916105c0575b5080156105715782516c0c9f2c9cd04674edea400000008102908082046c0c9f2c9cd04674edea40000000149015171561055d57906102d39161128e565b9081341061051857601934023415903481046019148217156105045760649004603234023481046032148317156104f0576064900491600f340290348204600f1417156104f0579087808080606481979604948181156104e7575b7f00000000000000000000000000000000000000000000000000000000000000006001600160a01b031690f1156104d3578280808060018060a01b037f00000000000000000000000000000000000000000000000000000000000000001695868282156104de575bf1156104d3578280929181928282156104ca575bf11561049357805185907f00000000000000000000000000000000000000000000000000000000000000006001600160a01b0316803b156104c65760a48392604051948593849263731133e960e01b84523360048501528b60248501526044840152608060648401528160848401525af180156104bb576104a7575b50813411610475575b519151916040519384526020840152604083015260608201527fb6990b3b13c7f899fbde21a9aea7794517a92877cf7670946e287d702762cf5160803392a26001805580f35b8480808061048386346112d1565b81811561049e575b3390f161042f575b6040513d86823e3d90fd5b506108fc61048b565b856104b49196929661122b565b9338610426565b6040513d88823e3d90fd5b8280fd5b506108fc6103aa565b6040513d84823e3d90fd5b506108fc610396565b506108fc61032e565b634e487b7160e01b88526011600452602488fd5b634e487b7160e01b87526011600452602487fd5b60405162461bcd60e51b815260206004820152601a60248201527f496e73756666696369656e7420536f6e6963207061796d656e740000000000006044820152606490fd5b634e487b7160e01b86526011600452602486fd5b60405162461bcd60e51b815260206004820152602160248201527f496e76616c6964205320746f6b656e2070726963652066726f6d206f7261636c6044820152606560f81b6064820152608490fd5b90506020813d6020116105ee575b816105db6020938361122b565b810103126105ea575138610295565b8480fd5b3d91506105ce565b6040513d87823e3d90fd5b50346101bb57806003193601126101bb576040517f00000000000000000000000000000000000000000000000000000000000000006001600160a01b03168152602090f35b50346101bb5760203660031901126101bb576020906040906001600160a01b0361066e6111de565b168152600783522054604051908152f35b50346101bb5760203660031901126101bb5760043561069c611360565b6106a461137d565b808252600460205260408220604051906106bd826111f9565b80548252600181015460208301526106f960ff60046002840154936040860194855260038101546060870152015416151580608085015261124d565b610705815115156112de565b81516040516323b872dd60e01b815233600482015230602482015260448101919091527f00000000000000000000000000000000000000000000000000000000000000006001600160a01b03169060208160648189865af19081156104bb5786916109f0575b50156109b45782519060198202908215918381046019148317156104f05760328402928484046032148117156109a057600f8502948504600f1417156104f05760405163a9059cbb60e01b81527f00000000000000000000000000000000000000000000000000000000000000006001600160a01b031660048201526064909104602482015291906020836044818b855af19283156109955761086493610978575b5060405163a9059cbb60e01b81527f00000000000000000000000000000000000000000000000000000000000000006001600160a01b03811660048301526064909304602482015292602090849081906044820190565b03818b855af188811561096c576108b695602095606493610951575b5060405163a9059cbb60e01b81526001600160a01b03909516600486015291909104602484015291938492839182906044820190565b03925af180156105f657610922575b50805133855260026020526108df604086209182546112ae565b905551905190604051928352602083015260408201527f0ba0c504c492b86ce42fa87998d2a7efb496e36fbdd2bf266200c0df6f8483df60603392a26001805580f35b6109439060203d60201161094a575b61093b818361122b565b81019061131c565b50386108c5565b503d610931565b61096790873d891161094a5761093b818361122b565b610880565b604051903d90823e3d90fd5b6109909060203d60201161094a5761093b818361122b565b61080d565b6040513d8a823e3d90fd5b634e487b7160e01b89526011600452602489fd5b60405162461bcd60e51b81526020600482015260146024820152731554d110c81d1c985b9cd9995c8819985a5b195960621b6044820152606490fd5b610a09915060203d60201161094a5761093b818361122b565b3861076b565b50346101bb5760203660031901126101bb57604060a0916004358152600460205220805490600181015490600281015460ff60046003840154930154169260405194855260208501526040840152606083015215156080820152f35b50346101bb5760403660031901126101bb576020906040906001600160a01b03610a936111de565b16815260038352818120602435825283522054604051908152f35b50346101bb57806003193601126101bb576040517f00000000000000000000000000000000000000000000000000000000000000006001600160a01b03168152602090f35b50346101bb57806003193601126101bb575460405160089190911c6001600160a01b03168152602090f35b50346101bb5760203660031901126101bb57610b386111de565b6001600160a01b03808216808452600260205260408420549293917f00000000000000000000000000000000000000000000000000000000000000001660015b6004811115610b8c57602085604051908152f35b604051627eeac760e11b81526001600160a01b038716600482015260248101829052602081604481865afa9081156105f6578591610c2a575b50838552600360205260408520828652602052604085205490818111610c0d575b50506000198114610bf957600101610b78565b634e487b7160e01b84526011600452602484fd5b610c22929691610c1c916112d1565b906112ae565b933880610be6565b90506020813d8211610c53575b81610c446020938361122b565b810103126105ea575138610bc5565b3d9150610c37565b50346101bb57806003193601126101bb576040517f00000000000000000000000000000000000000000000000000000000000000006001600160a01b03168152602090f35b50346101bb57806003193601126101bb57610cb9611334565b610cc1611360565b600160ff198254161781557f62e78cea01bee320cd4e420270b5ea74000d11b0c9f74754ebdbfc544b05a2586020604051338152a180f35b50346101bb57806003193601126101bb576040517f00000000000000000000000000000000000000000000000000000000000000006001600160a01b03168152602090f35b50346101bb57806003193601126101bb57610d57611334565b8054610100600160a81b031981168255819060081c6001600160a01b03167f8be0079c531659141344cd1fd0a4f28419497f9722a3daafe3b4186f6b6457e08280a380f35b50346101bb57806003193601126101bb5760ff60209154166040519015158152f35b50346101bb5760203660031901126101bb57600435815260046020526040812060405190610deb826111f9565b80548252600181015491602081019283526002820154916040820192835260ff60046003830154926060850193845201541691608081019215158352604051956341976e0960e01b875273039e2fb66102314ce7b64ce5ce3e5183bc94ad38600488015260208760248173bc4a342b0c057501e081484a2d24e576e854f8235afa968715610f41578197610f09575b508615610eff578551906c0c9f2c9cd04674edea400000008202918083046c0c9f2c9cd04674edea400000001490151715610eeb575060c096610ebc9161128e565b905b519451935191519251151593604051958652602086015260408501526060840152608083015260a0820152f35b634e487b7160e01b81526011600452602490fd5b60c0965090610ebe565b9096506020813d602011610f39575b81610f256020938361122b565b81010312610f3557519538610e7a565b8680fd5b3d9150610f18565b50604051903d90823e3d90fd5b50346101bb57806003193601126101bb57610f67611334565b805460ff811615610fa55760ff191681557f5db9ee0a495bf2e6ff9c91a7834c1ba4fdd244a5e8aa4e537bd38aeae4b073aa6020604051338152a180f35b638dfc202b60e01b8252600482fd5b50346101bb57806003193601126101bb576020600654604051908152f35b50346101bb5760203660031901126101bb57600435815260046020526040812061103b6080604051611003816111f9565b8354815260ff60046001860154956020840196875260028101546040850152600381015460608501520154161515918291015261124d565b6040516341976e0960e01b815273039e2fb66102314ce7b64ce5ce3e5183bc94ad3860048201529060208260248173bc4a342b0c057501e081484a2d24e576e854f8235afa91821561111b5783926110e7575b5081156110dd5751916c0c9f2c9cd04674edea400000008302928084046c0c9f2c9cd04674edea400000001490151715610eeb57506110cf8160409361128e565b905b82519182526020820152f35b50604091906110d1565b9091506020813d602011611113575b816111036020938361122b565b810103126104c65751903861108e565b3d91506110f6565b6040513d85823e3d90fd5b50346101bb57806003193601126101bb57602060405173039e2fb66102314ce7b64ce5ce3e5183bc94ad388152f35b50346101bb57806003193601126101bb576020600554604051908152f35b50346101bb5760203660031901126101bb576020906040906001600160a01b0361119b6111de565b168152600283522054604051908152f35b9050346111da57816003193601126111da578073bc4a342b0c057501e081484a2d24e576e854f82360209252f35b5080fd5b600435906001600160a01b03821682036111f457565b600080fd5b60a0810190811067ffffffffffffffff82111761121557604052565b634e487b7160e01b600052604160045260246000fd5b90601f8019910116810190811067ffffffffffffffff82111761121557604052565b1561125457565b60405162461bcd60e51b81526020600482015260126024820152715061636b616765206e6f742061637469766560701b6044820152606490fd5b8115611298570490565b634e487b7160e01b600052601260045260246000fd5b919082018092116112bb57565b634e487b7160e01b600052601160045260246000fd5b919082039182116112bb57565b156112e557565b60405162461bcd60e51b815260206004820152600f60248201526e496e76616c6964207061636b61676560881b6044820152606490fd5b908160209103126111f4575180151581036111f45790565b60005460081c6001600160a01b0316330361134b57565b63118cdaa760e01b6000523360045260246000fd5b60ff6000541661136c57565b63d93c066560e01b60005260046000fd5b60026001541461138e576002600155565b633ee5aeb560e01b60005260046000fdfea164736f6c634300081b000a",
  "linkReferences": {},
  "deployedLinkReferences": {}
}